:100000004A0E040000000000000000000000000094
:1000100000000000000000000000000000000000E0
:1000200000000000000000000000000000000000D0
:1000300000000000000000000000000000000000C0
:1000400000000000000000000000000000000000B0
:101C9400AF872000F0FF270020A0B700100020002D
:101CA40034A0B700400020004420B7006A0E0200B0
:101CB40000000000740E0200000000007DFF070019
:101CC40099FF0700A3FF0700FEFF3700FFFF37005F
:101AB8008A1F78008B1F78008C1F78001820EF0091
:101AC8007BC0B3001420EF00C3FF07001CC0B300A5
:101AD8001BC0B3001420EF00BFFF070060102800F0
:101AE800800578001420EF00AAFF07000B58220099
:101AF8000C0020000AC2B30081FF07003800200054
:101B0800578D20000E20ED00FEFF3A001020ED005A
:101B1800FCFF3A004F067800CF0578004F057800A3
:041B280000000600B3
:1019E0008A1F78008B1F78000A0037000B457800AB
:1019F0008C45780058FE07000B0037000B45780037
:101A00008C457800D3FD07000700370010C0B300F5
:101A1000050037006054E100F4FF32006154E1003A
:101A2000F6FF3200F9FF3700CF0578004F05780048
:041A300000000600AC
:10135800F0FF2F002AA3B700F0FF2F002CA3B7003F
:10136800F0FF2F006CA3B7003E0037001600AE0058
:10137800C702A9001600AF00C702A8005200370034
:101388001600AE00CC22A9001600AF00CC22A8009F
:101398004D0037001600AE00CC42A9001600AF0081
:1013A800CC42A800480037001600AE00DEC2A900F3
:1013B8001600AF00DEC2A800430037001600AE00DA
:1013C800DEE2A9001600AF00DEE2A8003E0037000A
:1013D8001600AE00DF02A9001600AF00DF02A80069
:1013E800390037001600AE00D202A9001600AF007F
:1013F800D202A800340037001600AE00C182A9004E
:101408001600AF00C182A8002F0037001600AE00FA
:10141800DE82A9001600AF00DE82A8002A0037008D
:101428001600AE00DEA2A9001600AF00DEA2A800DA
:10143800250037001600AE00C042A9001600AF0014
:10144800C042A800200037001600AE00C062A90004
:101458001600AF00C062A8001B00370010C0B30020
:101468001A0037006054E100C0FF32006154E10007
:10147800C3FF32006254E100C6FF32006354E1004A
:10148800C9FF32006454E100CCFF32006554E1002A
:10149800CFFF32006654E100D2FF32006754E1000A
:1014A800D5FF32006854E100D8FF32006954E100EA
:1014B800DBFF32006A54E100DEFF32006B54E100CA
:1014C800E1FF3200E5FF370000C0B300000006006E
:10115400F0FF2F002AA3B700F0FF2F002CA3B70045
:10116400F0FF2F006CA3B7003E0037001600AE005E
:10117400C722A9001600AF00C722A80052003700FA
:101184001600AE00CC62A9001600AF00CC62A80025
:101194004D0037001600AE00CC82A9001600AF0047
:1011A400CC82A800480037001600AE00DEC2A900B9
:1011B4001600AF00DEC2A800430037001600AE00E0
:1011C400DEE2A9001600AF00DEE2A8003E00370010
:1011D4001600AE00DF02A9001600AF00DF02A8006F
:1011E400390037001600AE00D222A9001600AF0065
:1011F400D222A800340037001600AE00C1A2A90014
:101204001600AF00C1A2A8002F0037001600AE00E0
:10121400DF82A9001600AF00DF82A8002A00370091
:101224001600AE00DFA2A9001600AF00DFA2A800DE
:10123400250037001600AE00C042A9001600AF001A
:10124400C042A800200037001600AE00C062A9000A
:101254001600AF00C062A8001B00370010C0B30026
:101264001A0037006054E100C0FF32006154E1000D
:10127400C3FF32006254E100C6FF32006354E10050
:10128400C9FF32006454E100CCFF32006554E10030
:10129400CFFF32006654E100D2FF32006754E10010
:1012A400D5FF32006854E100D8FF32006954E100F0
:1012B400DBFF32006A54E100DEFF32006B54E100D0
:1012C400E1FF3200E5FF370000C0B3000000060074
:10199C008A1F7800080037000B05780063FE0700EB
:1019AC000A0037000B057800D0FD07000700370050
:1019BC0010C0B300050037006054E100F6FF3200A0
:1019CC006154E100F7FF3200F9FF37004F05780052
:0419DC000000060001
:101338008A1F78008B1F78001A05BE00D3FE0700AD
:1013480000C0B300CF0578004F0578000000060004
:100E94000400FA00FFFD07000DFE0700421F2000BA
:100EA400030020007FFD07000001BE00829FBE00FA
:100EB4008A9FBE000200BE00026829008309200048
:100EC4000002EB00C8FD07004F05BE004F01BE0045
:100ED40000079800110798000200BE000A01BE0036
:100EE4000002EB00C0FD07000001BE0060004700E7
:100EF40030015100A081590061005100E080590087
:100F0400A010880017E2A80076FD07001822EF0061
:100F14006DFD07005EFD07000080FA00000006007A
:100698000000FA000020200090418800C04320009C
:1006A8007041880040492000804188006046200051
:1006B80060418800604E200040418800A03A200038
:0C06C800504188000080FA00000006008D
:0C06D40000F421000100200000000600DE
:1004E80038002000578D20000E20ED00FEFF3A0056
:0C04F8001020ED00FCFF3A0000000600A0
:1004CC000000FA00CBFF07000000E20001003A0038
:0C04DC00FCFF37000080FA000000060062
:100400000000FA000260EF001602AF000260EC008C
:100410000060EF001642AF000060EC008180FB003E
:100420000080FB00808070000060EF001662AF006B
:100430000060EC000080FB00808070000060EF0036
:100440001682AF000060EC000080FB00808070002E
:100450000060EF001622AF000060EC000080FB009F
:10046000808070000060EF0019C2AF000060EC00F7
:100470000080FB00008070000000E2000060EF00E0
:1004800001003A000060EC000080FB000080FA00F0
:040490000000060062
:100494000000000000000000000000000000000058
:0404A400000006004E
:1004A8000000FA00020AB800500088000200B800F4
:1004B80081004200032AB800810042000080FA004F
:0404C800000006002A
:1005EC000000FA00020007004403040000000000B1
:1005FC000800E20002003A001000070000000600AC
:10060C00839F68000200E20002003D0060001000C1
:10061C00E08018000600E20002003D0060011100BD
:10062C00E0811900050007004F00E00002003B00CC
:10063C0060001000E0801800000006006022B80086
:10064C00060220000000D0008180D2000482D2007B
:10065C008582D2000000A8000202520083825A0058
:10066C0003003B000202420083824A000000A1000A
:10067C000603E900F3FF3A00000006000080FA00D0
:04068C000000060064
:1010F8008A1F78008B1F78001A05BE0063FF07005F
:1011080000C0B300CF0578004F0578000000060046
:101908008A1F78008B1F78008C1F78001200370020
:101918000B0578008C05780019FF070019003700BF
:101928000B0578008C0578001AFF070015003700B2
:101938000B0578008C05780018FF070011003700A8
:101948000B0578008C05780008FF07000D003700AC
:1019580010C0B3000B0037006054E100ECFF320008
:101968006154E100EEFF320000C2B3000054E10010
:10197800EFFF320000C3B3000054E100F0FF320073
:10198800F3FF37004F067800CF0578004F05780041
:041998000000060045
:10158800C1FD0700A0522000504288000020EF0053
:041598000000060049
:100C90000800FA00A052200030428800C04F200017
:100CA000404288000052200010428800405120003D
:100CB000204288003022EF000000280032A2B70056
:100CC0003062A90083FE07000001BE00803E2000C4
:100CD00001002000F4FD07000001BE006CFE0700CB
:100CE0004100DE00640040008000780060004700A2
:100CF0000A88BE008100E900030035001018D0000A
:100D00001090D200FBFF3700829FBE008A9FBE007A
:100D10000200BE000E0190009E0190000002EB0058
:100D200006FE07004F05BE004F01BE0020079800D9
:100D3000310798008A9FBE000200BE000E0190009D
:100D40009E0190000002EB0028FE07004F05BE0048
:100D50008001780001027800600047005001D10056
:100D6000C080D300640047003008E1002090E1001B
:100D70000700310061804100E0004A0080027800F5
:100D80000103780005017800860178000200370031
:100D900003017800840178000280710033003A007A
:100DA0004CFE07000001BE00803E20000100200034
:100DB000BDFD07000001BE0035FE07004100DE005A
:100DC00000A0EC0080007800600047000A88BE00A8
:100DD0008100E900030035001018D0001090D20007
:100DE000FBFF3700829FBE000200BE000E01900094
:100DF0009E0190000002EB00D0FD07004F01BE00F5
:100E000020079800310798000200BE000E019000F4
:100E10009E0190000002EB00F4FD070080017800C5
:100E200001027800600047005001D100C080D3006B
:100E3000640047003008E1002090E1000700310025
:100E400061804100E0004A008002780001037800E0
:100E50000501780086017800020037000301780060
:100E6000840178003062A800000037006100510062
:100E7000E0805900C01188003222A90031E2A800A8
:100E80003342A80098FD070097FD07000080FA0094
:040E90000000060058
:0806900020002000000006001C
:10053C000000FA0002000700F202040000000000B4
:10054C000800E20002003A0010000700000006005C
:10055C00811F78000200E20002003D0060001000E4
:10056C00E08018000600E20002003D00600111006E
:10057C00E0811900050007004F00E00002003B007D
:10058C0060001000E0801800000006000200070068
:10059C000480BE00000006006022B80006022000A5
:1005AC000000D0008180D2000482D2008582D2006B
:1005BC000000A8000202520083825A0003003B0094
:1005CC000202420083824A000000A1000603E900F7
:1005DC00F3FF3A00000006000080FA00000006005D
:08159C0060C0B300000006006E
:1015A400BAFD0700A0522000504288000020EF003E
:0415B400000006002D
:1015740045FD070080532000504288000020EF0002
:04158400000006005D
:100A8C000800FA0080532000304288000037200014
:100A9C0040428800E03B200010428800805020003B
:100AAC00204288002022EF000000280022A2B7007C
:100ABC002062A90004FF07000001BE00803E200058
:100ACC000100200075FE07000001BE00EDFE0700CE
:100ADC004100DE00640040008000780060004700A8
:100AEC000A88BE008100E900030035001018D00010
:100AFC001090D200FBFF3700829FBE008A9FBE0081
:100B0C000200BE000E0190009E0190000002EB005E
:100B1C0087FE07004F05BE004F01BE00200798005E
:100B2C00310798008A9FBE000200BE000E019000A3
:100B3C009E0190000002EB00A9FE07004F05BE00CD
:100B4C008001780001027800600047005001D1005C
:100B5C00C080D300640047003008E1002090E10021
:100B6C000700310061804100E0004A0080027800FB
:100B7C000103780005017800860178000200370037
:100B8C0003017800840178000280710033003A0080
:100B9C00CDFE07000001BE00803E200001002000B9
:100BAC003EFE07000001BE00B6FE07004100DE005D
:100BBC0000A0EC0080007800600047000A88BE00AE
:100BCC008100E900030035001018D0001090D2000D
:100BDC00FBFF3700829FBE000200BE000E0190009A
:100BEC009E0190000002EB0051FE07004F01BE0079
:100BFC0020079800310798000200BE000E019000FB
:100C0C009E0190000002EB0075FE07008001780049
:100C1C0001027800600047005001D100C080D30071
:100C2C00640047003008E1002090E100070031002B
:100C3C0061804100E0004A008002780001037800E6
:100C4C000501780086017800020037000301780066
:100C5C00840178002062A800000037006100510078
:100C6C00E0805900401188002222A90021E2A8004E
:100C7C002342A80019FE070018FE07000080FA00A6
:040C8C00000006005E
:101B2C008A1F78008B1F78008C1F78005CC2B30072
:101B3C002B0F28000A002800D4FF07004F0678005E
:0C1B4C00CF0578004F057800000006006F
:101A9800708220000C4878008A1F78000B057800B7
:101AA80094FE07004F057800A1FE0700000006001D
:1014FC001A007800B0418800E20045001100780025
:10150C00F0418800E400450011007800004288009A
:10151C00E600450011007800D0418800E800450045
:0C152C0011007800E0418800000006007B
:101538007800450000A0EC0010007800C041880049
:101548006E00450010007800A041880000000600E9
:101B58008A1F78008B1F780028002000A7462000E5
:101B68000E20ED00FEFF3A001020ED00FCFF3A00C9
:101B7800AB8520000AC1B300ACFF0700A085200098
:101B88009080FB00100020000080600022003200DE
:101B98002BC0B300AA812000FEFE0700CA842000E3
:101BA800D6FE07000B8520006A42800030FF070040
:101BB8001BC0B3000A802000F6FE07002BC0B3004C
:101BC8000A852000F3FE0700E08420000B85200032
:101BD8001085FB0026FF07001BC0B300DA80200039
:101BE800ECFE07002BC0B3000A852000E9FE0700C1
:101BF8002BC0B300BA812000E6FE070028002000B1
:101C0800A74620000E20ED00FEFF3A001020ED0050
:101C1800FCFF3A001A003700A08520009080FB00E6
:101C280020002000008060001500320028002000FD
:101C3800A74620000E20ED00FEFF3A001020ED0020
:101C4800FCFF3A00AB8520004AC1B30077FF0700CC
:101C5800A08520009040780000C0B300000CE1008F
:101C680007003200A0852000BB85200010457800C1
:101C78004FFE07002BC0B300BA852000C5FE070041
:0C1C8800CF0578004F0578000000060032
:101A34000200FA008A1F78008C1F78008D1F78003E
:101A44000A4798008B1F7800A2FE0700E0004700B9
:101A5400708220001DC0B3001C00200081057800A6
:101A6400104578002EFD0700CF0578007082200015
:101A74001A20EF001C002000104578005FFD0700CD
:101A8400CF0678004F0678004F0578000080FA00F2
:041A94000000060048
:1014D8000200FA000000200000079800B1418000D7
:1014E80001000100E0004700110070000080FA00D0
:0414F80000000600EA
:1007E4000000FA000260EF000602AF000260EC00B5
:1007F4000060EF000642AF000060EC008180FB0067
:100804000080FB00808070000060EF000662AF0093
:100814000060EC000080FB00808070000060EF004E
:100824000682AF000060EC000080FB008080700056
:100834000060EF000622AF000060EC000080FB00C7
:10084400808070000060EF0009C2AF000060EC001F
:100854000080FB00008070000000E2000060EF00F8
:1008640001003A000060EC000080FB000080FA0008
:04087400000006007A
:100790000000FA000420EF00007122000010E100C8
:1007A00006003E000F0007000000E20001003200DA
:1007B000020037000420EC00F7FF37001071220020
:1007C0000010E10002003900F00F200003003700A4
:1007D0000602A80052FF07000020EF000080FA0088
:0407E000000006000F
:100520000000FA008620AF0001003700FDFF370011
:0C0530008620A9000080FA0000000600F0
:100878000000FA000420EF00007122000010E100DF
:1008880006003E00DCFE07000000E2000100320026
:10089800020037000420EC00F7FF37001071220037
:1008A8000010E10002003900F00F200003003700BB
:1008B8001602A80011FF07000020EF000080FA00D0
:0408C8000000060026
:100504000000FA008A40AF0001003700FDFF370009
:0C0514008A40A9000080FA0000000600E8
:1006E0000000FA0000000000000000002682BF00A9
:0806F0000080FA000000060082
:10077C000000FA002282BF00610060000080FA00D5
:04078C000000060063
:100A10000000FA000020EF002302AF000020EC00ED
:080A20000080FA00000006004E
:1009F8000000FA0000000000000000003682BF007E
:080A08000080FA000000060066
:100A40000000FA003282BF00610060000080FA00FE
:040A5000000006009C
:100A28000000FA000020EF003302AF000020EC00C5
:080A38000080FA000000060036
:100F24000400FA008A1F78000000200010079800CF
:100F34000B0798000A80FB004100DD008C9FBE0077
:100F440000457800D1418000010001004F06BE0039
:100F540062014700E2004700920870008C007800AC
:100F640061005600000678000200E2000F00320023
:100F74000E0090008C9FBE008A9FBE001045780032
:100F8400D1418000010001004F05BE004F06BE00A4
:100F940062014700E2004700920870008E00900052
:100FA4006000470061884000ECFF3700606CE1009E
:100FB40006003A00F04180008C9FBE008A9FBE006C
:100FC400000001004F05BE004F06BE00616CE10049
:100FD40006003A00B04180008C9FBE008A9FBE008C
:100FE400000001004F05BE004F06BE001E00900029
:0C0FF4004F0578000080FA0000000600A5
:1009A0000000FA000A80FB0002A2B70008E2AE00D5
:1009B000020037001000200002003700D8FE0700B8
:0C09C0000020EF000080FA00000006009C
:1009CC000000FA000A80FB0012A2B70018E2AE0089
:1009DC00020037001000200002003700C6FE07009E
:0C09EC000020EF000080FA000000060070
:100950000000FA000682BF007F0060000000E20095
:1009600001003200FBFF37000622A800ECFE070062
:080970000080FA0000000600FF
:100978000000FA000682BF007F0060000000E2006D
:1009880001003200FBFF37000642A800E2FE070024
:080998000080FA0000000600D7
:100928000000FA000682BF007F0060000000E200BD
:1009380001003200FBFF37001622A800EFFE070077
:080948000080FA000000060027
:100754000000FA001682BF007F0060000000E20083
:1007640001003200FBFF37001642A80064FF0700B7
:080774000080FA0000000600FD
:101000000400FA008A1F78000000200010079800F2
:101010000B0798000A80FB004100DD0061007000B2
:101020008C9FBE0000457800D14180000100010086
:101030004F06BE0062014700E200470092087000C0
:1010400061005600000678001800E2000D00320032
:101050008C9FBE008A9FBE001420EF00E1418000FB
:10106000010001004F05BE004F06BE008E0090003B
:10107000804878008E009000600047006188400042
:10108000EFFF37008C9FBE008A9FBE001A00200031
:10109000E1418000010001004F05BE004F06BE0087
:1010A0008E00900080487800606CE10006003A00F5
:1010B000F04180008C9FBE008A9FBE0000000100AE
:1010C0004F05BE004F06BE00616CE10006003A000D
:1010D000004280008C9FBE008A9FBE00000001007D
:1010E0004F05BE004F06BE001E0090004F05780061
:0810F0000080FA000000060078
:1006F8000000FA000682BF007F0060000000E200F0
:1007080001003200FBFF37000662A80082FF0700E5
:100718000682BF007F0060000000E2000100320096
:10072800FBFF37001400E2000200320006A2A80016
:100738000100370006A2A9000682A80076FF07007C
:0C07480000C2BF000080FA0000000600A4
:1008CC000000FA001682BF007F0060000000E2000A
:1008DC0001003200FBFF37001662A80006FF07007C
:1008EC001682BF007F0060000000E20001003200B1
:1008FC00FBFF37001400E2000200320016A2A80031
:10090C000100370016A2A9001682A800FAFE070003
:0C091C0010C2BF000080FA0000000600BE
:10179C000200FA008A1F78008A007800D00020002E
:1017AC0000479800A0002000104798002500370043
:1017BC000105780065FF070029003700010078005B
:1017CC001004E00008003200801F78008A9FBE00E1
:1017DC00000578005DFF07004F05BE004F00780044
:1017EC000020EC00F6FF37001D00370001007800E8
:1017FC001004E00008003200801F78008A9FBE00B1
:10180C000005780051FF07004F05BE004F0078001F
:10181C000020EC00F6FF3700600047008A9FBE00F6
:10182C000005780049FF07006100470000057800BB
:10183C0046FF07004F05BE000900370060C0B3002B
:10184C0007003700605CE100D9FF3200615CE10009
:10185C00DAFF3200625CE100E4FF3200F7FF370090
:0C186C004F0578000080FA000000060024
:101558008A1F78001A85FB005042800000000100B5
:0C1568000020EF004F0578000000060096
:100A70000000FA002302AF0001003700FDFF37003D
:0C0A80002A1188000080FA000000060027
:100A54000000FA003302AF0001003700FDFF370049
:0C0A6400AA1188000080FA0000000600C3
:101704000400FA008B1F78008C1F780060004700EB
:101714008A1F78003CC0B300800578001AC1B3006A
:10172400EBFE07004F057800E00147001380FB0043
:10173400000D78001A007800C300DD0062804100CB
:10174400104078000080FB004400DE000080FB00B5
:1017540000807000000D7800E200450061804100C7
:101764009048780062014500124078000080FB0038
:10177400C300DD00628041001080FB006F00600048
:1017840000807000004978004F067800CF0578008B
:081794000080FA0000000600CD
:1012D4000200FA008A1F78008D1F78000A479800E0
:1012E4008C1F78008B1F78007A000700E00047000D
:1012F400708220001DC0B3001C002000810578000E
:101304001045780006FF0700CF0578004F067800E7
:10131400708220001A20EF000C86FB001045780034
:1013240036FF0700CF0678004F0578000080FA00EA
:0413340000000600AF
:101878000200FA000420EF006514E10006003100C0
:101888000280FB008080450000C2B30080487800D9
:101898000460EC00F8FF37000280FB008080450000
:1018A8000020EF0080487800E14151000380FB00F0
:1018B8000080450000079800A200200011000900E0
:1018C8000285D80000032000808040000E009000B0
:1018D80001487800A2002000110009000285D80004
:1018E800000578006000E10001003A0002003700BE
:1018F8000660ED00EDFF37000080FA0000000600EA
:1015B8008A1F78008B1F78002D0037000B057800F4
:1015C8006B0A2800D2FE0700490037000B05780097
:1015D8002B0C2800CEFE0700450037000B057800CD
:1015E8005B0B2800CAFE0700410037000B05780096
:1015F8006B0E2800C6FE07003D0037000B0578007B
:10160800CB062800C2FE0700390037000B0578001A
:10161800FB0C2800BEFE0700350037000B057800DC
:101628007B052800BAFE0700310037000B0578005B
:10163800CB0F2800B6FE07002D0037000B057800F9
:101648004B092800B2FE0700290037000B05780077
:10165800BB0D2800AEFE0700250037000B057800FB
:101668000B082800AAFE07002100370020003700D9
:101678007154E100D1FF320000C2B3000054E10010
:10168800D2FF32007054E100D4FF320010C3B3001F
:101698000054E100D5FF320020C3B3000054E1003C
:1016A800D6FF320010C4B3000054E100D7FF320067
:1016B80020C4B3000054E100D8FF320010C5B300C5
:1016C8000054E100D9FF320020C5B3000054E10006
:1016D800DAFF320010C6B3000054E100DBFF32002D
:1016E80020C6B3000054E100DCFF3200DFFF370002
:0C16F800CF0578004F05780000000600C8
:101118008A0078001B4078000040E2000700320097
:101128001B407800004D78006100450000057800FC
:101138006180450080057800F6FF37000020EF0049
:0C114800004D7800010078000000060057
:101CD4000A8020000B0020003C0009000B1D780046
:041CE40000000600F6
:101CE800018020000003280012000900B0187800C5
:081CF800B0587800000006005E
:020000040001F9
:10000000FFFF0000FFFF0000FFFF0000FFFF0000F8
:10001000FFFF0000FFFF0000FFFF0000FFFF0000E8
:10002000FFFF0000FFFF0000FFFF0000FFFF0000D8
:10003000FFFF0000FFFF0000FFFF0000FFFF0000C8
:10004000FFFF0000FFFF0000FFFF0000FFFF0000B8
:10005000FFFF0000FFFF0000FFFF0000FFFF0000A8
:10006000506F000073690000746900006F6E00003B
:10007000205800003A200000005000006F7300007C
:1000800069740000696F00006E200000593A00009A
:04009000200000004C
:10009400002D00002D2D00002D2D00002D2D000021
:1000A4002D2D00002D2D0000005200006967000076
:1000B4006874000020530000776900007065000038
:1000C400206100006E640000204800006F6C000096
:0400D40064000000C4
:1000D800446F0000776E000020530000776900002D
:1000E80070650000206100006E6400002048000078
:0800F8006F6C000064000000C1
:100100004C65000066740000205300007769000011
:1001100070650000206100006E640000204800004F
:080120006F6C00006400000098
:1001280055700000205300007769000070650000DA
:10013800206100006E640000204800006F6C000021
:04014800640000004F
:10014C00436C0000696300006B200000616E0000CE
:10015C0064200000486F00006C6400000053000035
:10016C00696E0000676C000065200000436C0000A5
:08017C00696300006B00000044
:10018400446F0000756200006C65000020430000AD
:100194006C690000636B0000005200006967000096
:1001A4006874000020530000776900007065000047
:1001B400004C0000656600007420000053770000C6
:0801C4006970000065000000F5
:1001CC00446F0000776E0000205300007769000038
:0801DC00706500000000000046
:1001E4003C040000AA03000094040000E60400009C
:0401F400660400009D
:1001F800557000002053000077690000706500000A
:0402080000000000F2
:08020C00A086000001000000C3
:0200000401F009
:20000000CF000000CF00000007000000A2000000850000007F000000E7000000C1000000ED
:00000001FF
