:10000000FCFF0320C92500005D2400005D240000E2
:100010005D2400005D2400005D2400005D240000DC
:100020005D2400005D2400005D2400005D240000CC
:100030005D2400005D2400005D2400005D240000BC
:100040005D2400005D2400005D2400005D240000AC
:100050005D2400005D2400005D2400005D2400009C
:100060005D2400005D2400005D2400005D2400008C
:100070005D2400005D2400005D2400005D2400007C
:100080005D2400005D2400005D2400005D2400006C
:100090005D2400005D2400005D2400005D2400005C
:1000A0005D2400005D2400005D2400005D2400004C
:1000B0005D2400005D2400005D2400005D2400003C
:1000C0005D2400005D2400005D2400005D2400002C
:1000D0005D2400005D2400005D2400005D2400001C
:1000E0005D2400005D2400005D2400005D2400000C
:1000F0005D2400005D2400005D2400005D240000FC
:100100005D2400005D2400005D2400005D240000EB
:100110005D2400005D2400005D2400005D240000DB
:100120005D2400005D2400005D2400005D240000CB
:100130005D2400005D2400005D2400005D240000BB
:100140005D2400005D2400005D2400005D240000AB
:100150005D2400005D2400005D2400005D2400009B
:100160005D2400005D2400005D2400005D2400008B
:100170005D2400005D2400005D2400005D2400007B
:100180005D2400005D2400005D2400005D2400006B
:100190005D2400005D2400005D2400005D2400005B
:1001A0005D2400005D2400005D2400005D2400004B
:1001B0005D2400005D2400005D2400005D2400003B
:1001C0005D2400005D2400005D2400005D2400002B
:1001D0005D2400005D2400005D2400005D2400001B
:1001E0005D2400005D2400005D2400005D2400000B
:1001F0005D2400005D2400005D2400005D240000FB
:080200005D2400005D240000F4
:1025C800FFF76CFFFFF74AFF00F08CFAFFF75CFF9C
:1025D80000F048FAFFF748FEFFF702FEFFF76CFE2F
:0425E800FCE7FEE727
:1022340081B04FF000094FF0000CBDEB0A0F04DC35
:10224400BDEB0B0F01DBD446EA464BF8049BBBEB1A
:102254000A0FFAD1BCEB0A0F05DDE246D9F800B04B
:0A2264000BF1040BF1E701B0704725
:1022700081B0CDF800E0012207210020FFF738FFF0
:10228000002201210020FFF733FF0C490020FFF757
:10229000E9FE42F280512020FFF7C4FE40F6FE071F
:1022A000C0F23D0700BF00BF7F1EFDD100BF00BFD1
:1022B00000BFDDF800E001B0704700BF3C16000031
:1020F00081B0CDF800E05FFA81FB5FFA82FC30B975
:102100005FFA8CF15FFA8BF0FFF72CFD09E00128F4
:1021100006D15FFA8CF15FFA8BF0FFF7D9FD00E092
:0A2120000120DDF800E001B0704777
:101B640082B0CDF800E000228DF8042050B921B9EC
:101B740010215048FFF728FC03E010214D48FFF7DF
:101B84004FFC91E001280AD121B901214948FFF70E
:101B94001BFC03E001214748FFF742FC84E00228D4
:101BA4000AD121B901214448FFF70EFC03E00121C9
:101BB4004148FFF735FC77E003280AD121B9042115
:101BC4003E48FFF701FC03E004213C48FFF728FCF2
:101BD4006AE004280AD121B910213848FFF7F4FB40
:101BE40003E010213548FFF71BFC5DE005280AD10E
:101BF40021B920213148FFF7E7FB03E020212F48DA
:101C0400FFF70EFC50E006280AD121B901212C4827
:101C1400FFF7DAFB03E001212948FFF701FC43E069
:101C240007280AD121B910212648FFF7CDFB03E08C
:101C340010212448FFF7F4FB36E008280AD121B923
:101C440040212148FFF7C0FB03E040211E48FFF775
:101C5400E7FB29E009280AD121B980211A48FFF7B6
:101C6400B3FB03E080211848FFF7DAFB1CE00A28E5
:101C74000AD121B904211048FFF7A6FB03E004218F
:101C84000D48FFF7CDFB0FE00B280AD121B908213D
:101C94000948FFF799FB03E008210748FFF7C0FB59
:101CA40002E002228DF804209DF80400DDF800E033
:101CB40002B0704700C00540009005400080054018
:0C1CC40000B0054000D0054000A0054025
:1013CC0081B0CDF800E0002204B440F240130022BA
:0E13DC00FFF75AFC01B0DDF800E001B07047E9
:100C940082B0CDF800E05FFA81F8D5B29FB29DF83A
:100CA4000890F44C00EA0404A2462046FFF746FBF1
:100CB40045B90AF580666FEA0805EDB234682C4040
:100CC400346007E0012D05D10AF580652C6844EAFB
:100CD40008042C6007F00104A4B234B10AF5A2653B
:100CE4002C6844EA08042C6007E00AF5A2666FEA5F
:100CF4000805EDB234682C40346007F00204A4B255
:100D040034B10AF214552C6844EA08042C6007E054
:100D14000AF214566FEA0805EDB234682C403460C8
:100D240007F00804A4B234B10AF20C552C6844EA62
:100D340008042C6007E00AF20C566FEA0805EDB2CD
:100D440034682C40346007F01004A4B234B10AF5BE
:100D5400A0652C6844EA08042C6007E00AF5A06644
:100D64006FEA0805EDB234682C40346007F02004C3
:100D7400A4B234B10AF204552C6844EA08042C6085
:100D840007E00AF204566FEA0805EDB234682C4015
:100D9400346007F04004A4B234B10AF5A1652C68AC
:100DA40044EA08042C6007E00AF5A1666FEA080526
:100DB400EDB234682C40346007F48054A4B2002CA3
:100DC40040F2000501D06FF0000507F40054A4B20E
:100DD400002C40F2000401D06FF00004254307F416
:100DE4008044A4B2002C40F2000401D06FF000044F
:100DF40045EA0404002C3BD0002600235FFA88F067
:100E04005FFA89F2514620FA03F4E4B204F00104D3
:100E1400E4B2012C06D15D00ADB20324AC4046EA35
:100E2400040800E0B046072B03D05B1CDBB2464647
:100E3400E9E701F6C4766FEA080534682C403460AB
:100E440001F23C56C543EDB234682C40346001F5E0
:100E5400A166C543EDB234682C40346001F20456F7
:100E6400C543EDB234682C403460BBB2D6B205E061
:100E740051465FFA89F6BBB25FFA88F040F2000887
:100E840003F48054A4B214B3002220FA02F4E4B2AE
:100E940004F00104E4B2012C06D15500ADB20124E2
:100EA400AC4048EA0408FFE7072A02D0521CD2B239
:100EB400EBE701F6C4752C6844EA08042C6001F5DC
:100EC400A1652C6804432C600A469DB201E09DB2E2
:100ED4000A4605F40054A4B244B300214346AFB219
:100EE40020FA01F4E4B204F00104E4B2012C05D1C7
:100EF4004D00ADB20324AC402343FFE7072902D0E1
:100F0400491CC9B2ECE702F6C4752C681C432C607A
:100F140002F23C552C6804432C6002F5A1652C6850
:100F240004432C60BDB21F46114601E011464746FA
:100F340005F48044A4B25CB30022ABB220FA02F4FC
:100F4400E4B204F00104E4B2012C05D15500ADB2C1
:100F54000324AC402743FFE7072A02D0521CD2B235
:100F6400ECE701F6C4752C683C432C6001F23C5557
:100F74002C6804432C6001F5A1652C6804432C60A3
:100F840001F204552C6804432C60C2B2F0B202E0B2
:100F9400C2B2F0B2ABB203F08004A4B264B103F005
:100FA4004004A4B22CB101F5A3652C6814432C6051
:100FB40001E00120F3E006E001F5A366D543EDB2BC
:100FC40034682C40346003F48074A4B22CB101F270
:100FD4001C552C6814432C6006E001F21C56D543C2
:100FE400EDB234682C40346003F40074A4B2002CD5
:100FF40030D0214CA14240F2000501D06FF0000531
:101004001E4CA14240F2000401D06FF000042540C0
:101014001B4CA14240F2000401D06FF000042540B3
:10102400184CA14240F2000401D06FF000042540A6
:10103400154CA14240F2000401D06FF0000405EA0F
:1010440004040CB10120AAE001F5A5652C68144341
:101054002C603DE0084CA14240F2000501D16FF044
:101064000005064CA14240F200040FD16FF00004C9
:1010740000F00CB800F0FFFF00C0054000B00540D0
:101084000090054000100640005006402543464CA1
:10109400A14240F2000401D16FF000042543434C07
:1010A400A14240F2000401D16FF000042543404CFA
:1010B400A14240F2000401D16FF0000445EA0404A7
:1010C40034B101F5A566D543EDB234682C403460E3
:1010D40003F40064A4B22CB101F5A6652C68144392
:1010E4002C6006E001F5A666D543EDB234682C40C9
:1010F400346003F48064A4B22CB101F584652C68D7
:1011040014432C6006E001F58466D543EDB23468DF
:101114002C40346008B9002041E00F2801D9012097
:101124003DE0002700230191C1B2019822FA03F4A3
:10113400E4B204F00104E4B234B19D00ADB24FF066
:101144000F04AC402743FFE7072B02D05B1CDBB244
:10115400ECE700F22C56FD4334682C403460002642
:1011640000238DF80420CAB29DF8041021FA03F478
:10117400E4B204F00104E4B234B1D5B29C00A4B2E8
:1011840005FA04F42643FFE7072B02D05B1CDBB20D
:10119400ECE700F22C552C6834432C600020DDF879
:1011A40000E002B0704700BF009005400010064008
:0411B40000500640A1
:1003400081B05D4900EA010213465C498A4206D148
:100350005B49096841F0010259490A60A9E059491D
:100360008B4206D15649096841F0020254490A609D
:100370009FE055498B4206D15149096841F004027A
:100380004F490A6095E051498B4206D14C490968B2
:1003900041F008024A490A608BE04D498B4206D180
:1003A0004749096841F0100245490A6081E049491E
:1003B0008B4206D14249096841F0200240490A6057
:1003C00077E045498B4206D13D49096841F040023A
:1003D0003B490A606DE041498B4206D138490968C2
:1003E00041F0800236490A6063E03D498B4206D104
:1003F0003349096841F4807231490A6059E039494A
:100400008B4206D12E49096841F400722C490A60DA
:100410004FE035498B4206D12949096841F4806291
:1004200027490A6045E031498B4206D124490968D1
:1004300041F4006222490A603BE02D498B4206D11B
:100440001F49096841F480521D490A6031E0294979
:100450008B4206D11A49096841F4005218490A60D2
:1004600027E025498B4206D11549096841F48042AD
:1004700013490A601DE021498B4206D110490968E1
:1004800041F400420E490A6013E01D498B4206D137
:100490000B49096841F4803209490A6009E01949A9
:1004A0008B4206D10649096841F4003204490A60CA
:1004B000FFE701B0704700BF00F0FFFF008005407C
:1004C00008E60F400090054000A0054000B0054040
:1004D00000C0054000D0054000E0054000F00540A8
:1004E0000000064000100640002006400030064094
:1004F0000040064000500640006006400070064084
:08050000008006400090064057
:1014240081B0CDF800E0002204B440F24013012260
:0E143400FFF72EFC01B0DDF800E001B07047BC
:101CD00082B0CDF800E000228DF8042050B921B97F
:101CE00020215048FFF772FB03E020214D48FFF709
:101CF00099FB91E001280AD121B902214948FFF757
:101D000065FB03E002214748FFF78CFB84E00228D3
:101D10000AD121B920214448FFF758FB03E02021D4
:101D20004148FFF77FFB77E003280AD121B904215E
:101D30003E48FFF74BFB03E004213C48FFF772FBF2
:101D40006AE004280AD121B910213848FFF73EFB88
:101D500003E010213548FFF765FB5DE005280AD157
:101D600021B920213148FFF731FB03E020212F4822
:101D7000FFF758FB50E006280AD121B902212C4870
:101D8000FFF724FB03E002212948FFF74BFB43E068
:101D900007280AD121B940212548FFF717FB03E0A6
:101DA00040212348FFF73EFB36E008280AD121B93D
:101DB00010212048FFF70AFB03E010211D48FFF720
:101DC00031FB29E009280AD121B920211948FFF760
:101DD000FDFA03E020211748FFF724FB1CE00A2846
:101DE0000AD121B904211048FFF7F0FA03E00421D9
:101DF0000D48FFF717FB0FE00B280AD121B9082186
:101E00000948FFF7E3FA03E008210748FFF70AFB58
:101E100002E002228DF804209DF80400DDF800E0C5
:101E200002B0704700C005400090054000800540AA
:081E300000B0054000A00540D0
:1020640081B0CDF800E018B90846FFF759FD06E045
:10207400012803D10846FFF763FD00E00120DDF8E5
:0620840000E001B070470E
:101B240081B0CDF800E0016808460449FFF796FC4F
:101B34000020DDF800E001B0704700BFC8260000B7
:1014600081B0CDF800E00A4601460348FFF7A6F830
:0C147000DDF800E001B070470000024011
:1005BC0083B0CDF800E001920A4601460198594BF0
:1005CC00994215D10024584B1C600124574B1C60D8
:1005DC00574C584B1C60584C584B1C60584C594B42
:1005EC001C60594C594B1C60594C5A4B1C605DE1BA
:1005FC00594B994215D10024584B1C600124584B7F
:10060C001C60584C4B4B1C60574C4C4B1C60574C53
:10061C004C4B1C60564C4D4B1C60564C4D4B1C604F
:10062C0044E1554B994215D10024544B1C600124D4
:10063C00534B1C60534C3F4B1C60534C3F4B1C604A
:10064C00524C404B1C60524C404B1C60514C414B2B
:10065C001C602BE1504B994215D100244F4B1C6070
:10066C0001244F4B1C604F4C324B1C604E4C334B97
:10067C001C604E4C334B1C604D4C344B1C604D4C31
:10068C00344B1C6012E14C4B994215D100244B4B5E
:10069C001C6001244A4B1C604A4C264B1C604A4C83
:1006AC00264B1C60494C274B1C60494C274B1C604B
:1006BC00484C284B1C60F9E0474B994215D100245B
:1006CC00464B1C600124464B1C60464C194B1C606D
:1006DC00454C1A4B1C60454C1A4B1C60444C1B4B34
:1006EC001C60444C1B4B1C60E0E0434B994215D101
:1006FC000024424B1C600124414B1C60414C0D4BAF
:10070C001C60414C0D4B1C60404C0E4B1C60404C13
:10071C000E4B1C603F4C0F4B1C60C7E03E4B99428C
:10072C0000F07CB8000002404C00002000C4FC43E8
:10073C00FFFFFFFF9C00002009150000A000002017
:10074C00C9160000A4000020FFFFFFFFA800002036
:10075C00FFFFFFFFAC0000200010024054000020FF
:10076C0004C4FC43FFFFFFFF711700004514000099
:10077C00FFFFFFFFFFFFFFFF002002405C00002097
:10078C0008C4FC43FFFFFFFF011700009513000096
:10079C00FFFFFFFFFFFFFFFF00300240640000205F
:1007AC000CC4FC43FFFFFFFF1D1700007913000072
:1007BC00FFFFFFFFFFFFFFFF00000C406C0000205D
:1007CC0010C4FC43FFFFFFFF391700005D1300004E
:1007DC00FFFFFFFFFFFFFFFF00100C407400002025
:1007EC0014C4FC43FFFFFFFF551700007D120000EF
:1007FC00FFFFFFFFFFFFFFFF00200C407C000020ED
:10080C0018C4FC43FFFFFFFF9116000025150000E4
:10081C00FFFFFFFFFFFFFFFF00300C4015D100244E
:10082C00404B1C600124404B1C60404C404B1C60F6
:10083C00404C414B1C60414C414B1C60414C424B69
:10084C001C60424C424B1C6030E0424B994215D12B
:10085C000024414B1C600124404B1C60404C344B29
:10086C001C60404C344B1C603F4C354B1C603F4C67
:10087C00354B1C603E4C364B1C6017E03D4B99428F
:10088C0014D100243C4B1C6001243C4B1C603C4CA0
:10089C00274B1C603B4C284B1C603B4C284B1C6072
:1008AC003A4C294B1C603A4C294B1C60019202912A
:1008BC00FFF724FE0299019A01F220041023236011
:1008CC00344B9A4207D106260D1D01242B6864F384
:1008DC0004132B6006E014260D1D00242B6864F312
:1008EC0004132B60FFF75EFE40F2E83300FB03F5C8
:1008FC0006FB02F4B5FBF4F318466343EB1A0BB991
:10090C00401EFFE77F2801D97F20FFE7012801D295
:10091C000120FFE701F20C031860DDF800E003B0E2
:10092C00704700BF840000201CC4FC43FFFFFFFF86
:10093C009C00002075160000A0000020ED140000A3
:10094C00A4000020FFFFFFFFA8000020FFFFFFFF17
:10095C00AC00002000800B408C00002020C4FC4325
:10096C00FFFFFFFFAD160000B5140000FFFFFFFFF7
:10097C00FFFFFFFF00900B409400002024C4FC43B9
:10098C00FFFFFFFFE5160000D1140000FFFFFFFF83
:08099C00FFFFFFFFD0CF320086
:1005080083B0CDF800E040F2000C83460BF1D8012F
:100518000978491EC9B28DF808108C453FD80C21BE
:100528000CFB01F10BEB01010191019908310978EC
:10053800B1B9019909680C460199091D0978CBB22E
:100548000199891D09888AB201990831097802B48C
:10055800D9B293B20022204600F098FB01B015E012
:10056800019909680C460199091D0978CBB20199CE
:10057800891D09888AB201990831097802B4D9B26B
:1005880093B20F22204600F081FB01B09DF80810BD
:100598008C4504D00CF1010C5FFA8CFCB6E7DDF851
:0605A80000E003B0704703
:0C05B00001480068704700BF48000020B0
:101B440081B0CDF800E0016808460449FFF786FC3F
:101B54000020DDF800E001B0704700BFC826000097
:1020240081B0CDF800E018B90846FFF703FF12E0CD
:10203400012803D10846FFF713FF0CE0202803D141
:102044000846FFF799FC06E0302803D10846FFF75D
:0E205400A9FC00E00120DDF800E001B07047BB
:101E380082B0CDF800E000218DF80410FFF728FAF1
:101E4800044A05490A609DF80400DDF800E002B084
:0C1E5800704700BFED13000044000020A4
:1012980082B0CDF800E00346204A21490A60214A7D
:1012A80021490A60214A22490A60224A22490A60E1
:1012B80001932248FFF724F9019B012220490A6083
:1012C80000BF00BF00BFFFF769FBFFF76DF940F2F1
:1012D800E83100FB01F210461901914204D90122BC
:1012E80018490A605A0803E0002216490A601A469B
:1012F800C100B1FBF2F1491C4B089A0912490A6076
:1013080003F03F0211490A60602211490A60FFF7A1
:1013180055FBDDF800E002B0704700BFED13000098
:10132800B0000020FFFFFFFFB4000020FFFFFFFF19
:10133800B8000020FFFFFFFFBC000020802800004D
:1013480014C3FC4314062242241001402810014013
:041358002C10014014
:1009A40081B00021034801600348016003480160ED
:1009B40001B0704700062242200622422406224249
:1009C40081B00121034801600348016003480160CC
:1009D40001B0704700062242200622422406224229
:101E640082B0CDF800E000218DF80410FFF7A2F94C
:101E7400044A05490A609DF80400DDF800E002B058
:0C1E8400704700BF9914000044000020CB
:1011B80082B0CDF800E00346204A21490A60214A5E
:1011C80021490A60214A22490A60224A22490A60C2
:1011D80001932248FFF794F9019B012220490A60F4
:1011E80000BF00BF00BFFFF709FCFFF7DDF940F2C1
:1011F800E83100FB01F210461901914204D901229D
:1012080018490A605A0803E0002216490A601A467B
:10121800C100B1FBF2F1491C4B089A0912490A6056
:1012280003F03F0211490A60602211490A60FFF782
:10123800D5FBDDF800E002B0704700BF991400004C
:10124800B0000020FFFFFFFFB4000020FFFFFFFFFA
:10125800B8000020FFFFFFFFBC000020A42700000B
:101268001CC3FC43140626422430014028300140A8
:041278002C300140D5
:100A040081B000210348016003480160034801608C
:100A140001B07047000626422006264224062642DC
:1009E40081B00121034801600348016003480160AC
:1009F40001B07047000626422006264224062642FD
:10197C0082B0CDF800E000218DF80410FFF7DAFDFD
:10198C00044A05490A609DF80400DDF800E002B045
:0C199C00704700BF5916000044000020F6
:1015400082B0CDF800E00346204A21490A60214AD2
:1015500021490A60214A22490A60224A22490A6036
:1015600001932248FEF7D0FF019B012220490A6027
:1015700000BF00BF00BFFFF75BFAFFF719F840F2AA
:10158000E83100FB01F210461901914204D9012211
:1015900018490A605A0803E0002216490A601A46F0
:1015A000C100B1FBF2F1491C4B089A0912490A60CB
:1015B00003F03F0211490A60602211490A60FFF7F7
:1015C00047FADDF800E002B0704700BF591600008E
:1015D000B0000020FFFFFFFFB4000020FFFFFFFF6F
:1015E000B8000020FFFFFFFFBC000020EC2500003A
:1015F00008C3FC4314061C4224E0004028E00040DD
:041600002CE000409A
:100A300081B0002103480160034801600348016060
:100A400001B0704700061C4220061C4224061C42CE
:100A500081B001210348016003480160034801603F
:100A600001B0704700061C4220061C4224061C42AE
:1019A80082B0CDF800E000218DF80410FFF700FCAC
:1019B800044A05490A609DF80400DDF800E002B019
:0C19C800704700BF99140000440000208C
:1021E80081B0CDF800E0252209490A48FFF74AFFE7
:1021F80041F6FE27C0F2B7077F1EFDD100BF00BF22
:1022080000BF00BF00BFDDF800E001B0704700BFAD
:08221800342A00005C290000DB
:10208C0081B0CDF800E00446054B1A700846FFF706
:10209C0059FC2046FFF716FCDDF800E001B0704754
:0420AC002F000020E1
:1019500081B0026806490A60011D0A6805490A60EB
:1019600000F208010A6804490A6001B0704700BF2C
:0C19700030000020340000204000002067
:1018D00081B000F23001091D0A6804490A6000F273
:1018E0001C010A6802490A6001B0704738000020F4
:0418F0003C00002098
:1022C00085B0CDF800E048F27E47C0F21E0700BF9F
:1022D00000BF7F1EFDD100BF00BF00BF5B491020C3
:1022E000FFF7E6FE5948007800F00100C0B2002870
:1022F00000F0878001AC0020207001AC0321204653
:10230000FFF714FF5248FFF7E7FD51480088514995
:10231000FFF7BEFD01AC502020706F20607073206D
:10232000A0706920E07074202071692060716F20B6
:10233000A0716E20E07120202072582060723A2037
:10234000A0722020E0720020207301AC0221204600
:10235000FFF7ECFE03213F48FFF7E8FE3E48007818
:102360003C49FFF795FD01AC502020706F20607054
:102370007320A0706920E070742020716920607162
:102380006F20A0716E20E0712020207259206072B1
:102390003A20A0722020E0720020207301AC0221BC
:1023A0002046FFF7C3FE03212A48FFF7BFFE01AC1A
:1023B0002D2020702D2060702D20A0702D20E07029
:1023C0002D2020712D2060712D20A0712D20E07115
:1023D0002D2020722D2060722D20A0720020E0722E
:1023E00001AC03212046FFF7A1FE48F27E47C0F270
:1023F0001E077F1EFDD100BF00BF00BF00BF00BF92
:1024000020E01248007800F00200C0B2D0B148F2DB
:102410007E47C0F21E0700BF00BF7F1EFDD100BF78
:1024200000BF00BF09491420FFF742FE07480078AB
:1024300040B1064800780749FFF77AFD03210548B7
:10244000FFF774FEDDF800E005B0704701000020E2
:0C24500002000020060000200400002014
:1020B00083B0CDF800E002918DF80400FFF73CFCFE
:1020C00001AB0A4A127819460123D0B20122FFF768
:1020D00091FC064A127800230299D0B20122FFF740
:1020E00055FBDDF800E003B0704700BF2F00002073
:1019380081B040F2000212B201210248017010B2D7
:0819480001B07047000000200F
:1019F40085B0CDF800E0ADF80C200A468DF8103023
:101A040040F20004ADF808401146424C247854B129
:101A140001910021404C2468A0470199FFF70EFE74
:101A240000253C4C2570BDF80C40012C0DD10C78E0
:101A34000721E0B2394C2468A047BDF908400443AB
:101A4400ADF80840FFF7FAFD57E0BDF80C40022C52
:101A54001CD10C7801910321E0B2304C2468A047DA
:101A64000199BDF908400443ADF808404C1C2046D8
:101A7400FFF7E4FD04780521E0B2284C2468A04770
:101A8400BDF908400443ADF8084036E00C780191F4
:101A94000321E0B2214C2468A0470199BDF9084014
:101AA4000443ADF808404B1CFFF7C8FD1946BDF8C8
:101AB4000C40641EA4B2ADF80C40012C12D90C7871
:101AC40001910121E0B2154C2468A0470199BDF9A8
:101AD40008400443ADF808404C1C2346FFF7AEFD14
:101AE4001946E4E70C780521E0B20C4C2468A047C1
:101AF400BDF908400443ADF808409DF81040012C9E
:101B040002D10125034C2570BDF90800DDF800E081
:101B140005B0704700000020300000203400002091
:1015080081B0CDF800E0CAB2C1B20348FFF786FA4D
:0C151800DDF800E001B070470000024068
:0C0A240081B04B001343036001B0704729
:1017700081B0CDF800E0CAB2C1B20348FFF752F918
:0C178000DDF800E001B0704700100240EE
:1017000081B0CDF800E0CAB2C1B20348FFF78AF950
:0C171000DDF800E001B07047002002404E
:10171C0081B0CDF800E0CAB2C1B20348FFF77CF942
:0C172C00DDF800E001B070470030024022
:1017380081B0CDF800E0CAB2C1B20348FFF76EF934
:0C174800DDF800E001B0704700000C402C
:1017540081B0CDF800E0CAB2C1B20348FFF760F926
:0C176400DDF800E001B0704700100C4000
:1016900081B0CDF800E0CAB2C1B20348FFF7C2F989
:0C16A000DDF800E001B0704700200C40B5
:1016740081B0CDF800E0CAB2C1B20348FFF7D0F997
:0C168400DDF800E001B0704700300C40C1
:1016AC0081B0CDF800E0CAB2C1B20348FFF7B4F97B
:0C16BC00DDF800E001B0704700800B403A
:1016E40081B0CDF800E0CAB2C1B20348FFF798F95F
:0C16F400DDF800E001B0704700900B40F2
:1016C80081B0CDF800E0CAB2C1B20348FFF7CCF947
:0C16D800DDF800E001B0704700000240A7
:100A700084B0CDF800E08DF8042002469DF8040013
:100A8000664B9A4206D1664B1B680293654B1B6806
:100A9000039358E0644B9A4206D1644B1B6802935F
:100AA000634B1B6803934EE0624B9A4206D1624B44
:100AB0001B680293614B1B68039344E0604B9A42AE
:100AC00006D1604B1B6802935F4B1B6803933AE0AF
:100AD0005E4B9A4206D15E4B1B6802935D4B1B68CE
:100AE000039330E05C4B9A4206D15C4B1B68029347
:100AF0005B4B1B68039326E05A4B9A4206D15A4B34
:100B00001B680293594B1B6803931CE0584B9A4295
:100B100006D1584B1B680293574B1B68039312E096
:100B2000564B9A4206D1564B1B680293554B1B6895
:100B3000039308E0544B9A4205D1544B1B6802932F
:100B4000534B1B68039302F208031960072840F215
:100B5000000401D16FF00004032840F2000301D12A
:100B60006FF0000344EA0303C3B1029D11460B1D5D
:100B70001C68C4F380135BB1029B43B125B9042008
:100B8000039CA047012044E06A1E1546FFE7EEE7FC
:100B90008DF8040008469DF8041001E0C1B210462B
:100BA000031D1960FFF790FBFFF78EFBFFF78CFB2F
:100BB000029A031D1C68C4F3000353B1029B3BB1AE
:100BC00022B90420039CA047012022E0521EFFE727
:100BD000EFE7031D1C68C4F34003B3B1012940F2E1
:100BE000000401D16FF00004032940F2000301D199
:100BF0006FF0000344EA03033BB1031D1C68C4F318
:100C0000001313B9041D04232360031D1C68C4F3DF
:100C10004000DDF800E004B0704700BF0000024073
:100C20004C00002050000020001002405400002022
:100C300058000020002002405C00002060000020DE
:100C400000300240640000206800002000000C40DA
:100C50006C0000207000002000100C407400002088
:100C60007800002000200C407C0000208000002044
:100C700000300C40840000208800002000800B40E1
:100C80008C0000209000002000900B409400002079
:040C900098000020A8
:0C02680001490860704700BF907FB84259
:0C025C0001490860704700BF807FB84275
:0C02500001490860704700BF807FB24287
:0C028C0001490860704700BF887FB04245
:0C02800001490860704700BF907FB04249
:0C02740001490860704700BF947FB04251
:0C02200001490860704700BF807FB642B3
:0C02140001490860704700BF907FBA42AB
:0C02080001490860704700BF987FB442B5
:0C02440001490860704700BF9C7FB44275
:0C02380001490860704700BF887FB24297
:0C022C0001490860704700BF8C7FB2429F
:0C02980001490860704700BF947FB84225
:0C03100001490860704700BF847FB842BC
:0C03040001490860704700BF947FB242BE
:0C02F80001490860704700BF887FB042D9
:0C03340001490860704700BF907FB04294
:0C03280001490860704700BF947FB0429C
:0C031C0001490860704700BF847FB642B2
:0C02BC0001490860704700BF987FB642FF
:0C02B00001490860704700BF907FB44215
:0C02A40001490860704700BF947FB4421D
:0C02EC0001490860704700BF887FB242E3
:0C02E00001490860704700BF8C7FB242EB
:1002C80040F22607C0F200077F1EFDD100BF00BF25
:0802D80000BF00BF00BF70472A
:1014440081B0CDF800E0CAB2C1B20348FFF70EFB89
:0C145400DDF800E001B07047001002401D
:1013940081B0CDF800E0CAB2C1B20348FFF766FBE2
:0C13A400DDF800E001B0704700200240BE
:1013780081B0CDF800E0CAB2C1B20348FFF774FBF0
:0C138800DDF800E001B0704700300240CA
:10135C0081B0CDF800E0CAB2C1B20348FFF782FBFE
:0C136C00DDF800E001B0704700000C400C
:10127C0081B0CDF800E0CAB2C1B20348FFF7F2FB6F
:0C128C00DDF800E001B0704700100C40DD
:1015240081B0CDF800E0CAB2C1B20348FFF79EFA19
:0C153400DDF800E001B0704700200C4022
:1014EC0081B0CDF800E0CAB2C1B20348FFF7BAFA36
:0C14FC00DDF800E001B0704700300C404B
:1014B40081B0CDF800E0CAB2C1B20348FFF7D6FA52
:0C14C400DDF800E001B0704700800B4034
:1014D00081B0CDF800E0CAB2C1B20348FFF7C8FA44
:0C14E000DDF800E001B0704700900B4008
:1016400049F63E47C0F200077F1EFDD100BF00BF34
:0816500000BF00BF00BF70479E
:10178C0085B0CDF800E0ADF80C200A468DF810308D
:10179C0040F20004ADF8084011463F4C247854B197
:1017AC00019101213D4C2468A0470199FFF742FFAC
:1017BC000025394C2570BDF80C40012C0CD1084685
:1017CC000721374C2468A047BDF908400443ADF805
:1017DC000840FFF72FFF51E0BDF80C40022C19D147
:1017EC00019108460B212E4C2468A0470199BDF9A4
:1017FC0008400443ADF808404C1C2046FFF71AFF84
:10180C000521274C2468A047BDF908400443ADF8D6
:10181C00084033E0019108460B21214C2468A04775
:10182C000199BDF908400443ADF808404B1CFFF783
:10183C0001FF1946BDF80C40641EA4B2ADF80C4073
:10184C00012C11D9019108460921154C2468A04797
:10185C000199BDF908400443ADF808404C1C2346DF
:10186C00FFF7E8FE1946E5E7084605210C4C24680D
:10187C00A047BDF908400443ADF808409DF810405E
:10188C00012C02D10125044C2570BDF90800DDF8AE
:10189C0000E005B0704700BF0000002030000020C1
:0418AC0040000020D8
:10212C0084B0CDF800E0039000228DF804200D223D
:10213C008DF805200A228DF80620039C0022ADF8AC
:10214C000820012903D12046FFF7ACFB33E002291C
:10215C0010D120460278002A0BD9FFF7A3FBBDF85B
:10216C000820531C9BB2ADF80830039AD4182046B3
:10217C00F0E720E003291BD120460278002A0CD975
:10218C00FFF790FBBDF80820531C9BB2ADF808304C
:10219C00039AD21814462046EFE70DF105021046BB
:1021AC00FFF780FB0DF106021046FFF77BFB02E008
:1021BC0006228DF804209DF80400DDF800E004B040
:0221CC0070475A
:1018B00081B0CDF800E00178CCB2A0B2034C24682E
:1018C000A047DDF800E001B0704700BF44000020F1
:1016200081B0FFE7034909680029FBD1024908603E
:0C16300001B070471403184200C00040D5
:1016040081B0FFE7034909680029FBD1024908605A
:0C16140001B0704714031A4200D00040DF
:1016580081B0FFE7034909680029FBD10249086006
:0C16680001B0704714031C4200E0004079
:10147C0081B0FFE7034909680029FBD102490860E4
:0C148C0001B0704714031E4200F0004045
:1013B00081B0FFE7034909680029FBD102490860B1
:0C13C00001B070471403204200000140FF
:1013EC0081B0FFE7034909680029FBD10249086075
:0C13FC0001B070471403224200100140B1
:1014080081B0FFE7034909680029FBD10249086058
:0C14180001B07047140324420020014082
:1014980081B0FFE7034909680029FBD102490860C8
:0C14A80001B070471403264200300140E0
:101ED80083B0CDF800E002A9019003221120FFF79A
:101EE80005FD019802AC217801800188CA0092B2F0
:101EF800A11C09780909C9B242EA01010180821CC2
:101F0800611C09781170831C1978CA0092B2A11C4F
:101F1800097801F00F01C9B242EA01011970DDF830
:061F280000E003B0704769
:1018F40084B0CDF800E002918DF80C208DF804003E
:1019040000F018F801AC0A4B1B7801222146D8B22A
:10191400012300F06DF8064B1B789DF80C2002990A
:10192400D8B20023FFF730FFDDF800E004B07047C1
:041934002F00002060
:101E900081B00A46202313702023537020239370AF
:101EA0002023D37030231371002353710A1D114670
:101EB000009181B2009869B10A23B1FBF3F203FBF0
:101EC000121292B2303202700A22B1FBF2F189B2E0
:081ED000401EF0E701B070476D
:101F300081B0CDF800E00C4642E02F4A1146204621
:101F4000FFF748FD53E02D4A11462046FFF742FDBA
:101F50004DE02B4A11462046FFF73CFD47E0294A59
:101F600011462046FFF736FD41E0274A114620463C
:101F7000FFF730FD3BE0254A11462046FFF72AFDDA
:101F800035E0234A11462046FFF724FD2FE0214A81
:101F900011462046FFF71EFD29E01F4A1146204644
:101FA000FFF718FD23E01D4A11462046FFF712FDFA
:101FB0001DE01B4A11462046FFF70CFD17E016E016
:101FC0001128BAD02028BED01028C2D03128C6D0BF
:101FD0003228CAD04128CED04228D2D05128D6D0DB
:101FE0005228DAD06128DED06228E2D0E7E7DDF8B7
:101FF00000E001B0704700BF0B2A00001A2A000061
:10200000272A00004C2A0000D1290000402A0000A5
:10201000BC290000622A0000F9290000572A0000AC
:04202000E5290000AE
:1019D40081B00246104613460A7822B10A781A707A
:0E19E4005B1C491CF8E700221A7001B0704726
:1022200081B01CF8019B0BF8019BBBEB0A0FF8D1A6
:0422300001B0704742
:1024A40081B0CDF800E0314A314B324C324D334EDD
:1024B4004FF030113248016000213248016003F0CE
:1024C400FE0131480160C3F3C00018B9FFF77EFE76
:1024D400FFF77CFEC3F3000010B101212B4801601B
:1024E4002B48864203D92B492548016021E02A481C
:1024F400864203D92949224801601AE04CF250303F
:10250400864203D926491E48016012E047F2305042
:10251400864203D923491A4801600AE0B6F57A5F76
:1025240003D921491648016003E04FF030111448E3
:1025340001601E4804601E4805606FF0805002EA86
:1025440000011048016001211A4801601A48016025
:1025540002F0805030B1194800680028FBD00121F6
:1025640017480160DDF800E001B070470400303323
:10257400110000001800800000000000C0D4010019
:10258400C0E00F40B0E00F407CE00F40800FFC4300
:10259400A08601009601300080380100550130000A
:1025A400D3003000B20030007100300060E10F4011
:1025B40064E10F407C16FC437816FC43002DFC4379
:0425C4007016FC434E
:1021D00041F67E27C0F206077F1EFDD100BF00BF7B
:0821E00000BF00BF00BF704703
:1024900081B002490248016001B07047C0D4010018
:0424A00048000020D0
:08245C0081B0FEE701B07047FA
:1024640081B04EF68850CEF20000016841F470014C
:10247400016000BF00BF00BF00BFF1EE100A40F4CE
:0A2484004000E1EE100A01B07047BD
:102A6C0000B5DFF814B0DFF814A0DFF814C0FFF7DE
:102A7C00D1FB00BD704700BF00000020010000200A
:042A8C00AE05000093
:102AEC0000B5DFF810B0DFF810A0FFF79DFB00BDBC
:0C2AFC00704700BF00000020C000002058
:0105AE00004C
:04163C00A086010083
:1025EC0000B00540100040050100000000B005409F
:1025FC002000400501000000000000000000000069
:10260C0000000000000000000000000000000000BE
:10261C0000000000000000000000000000000000AE
:10262C00000000000000000000000000000000009E
:10263C00000000000000000000000000000000008E
:10264C00000000000000000000000000000000007E
:10265C00000000000000000000000000000000006E
:10266C00000000000000000000000000000000005E
:10267C00000000000000000000000000000000004E
:10268C00000000000000000000000000000000003E
:10269C00000000000000000000000000000000002E
:1026AC00000000000000000000000000000000001E
:0C26BC0000000000000000000200000010
:1026C800009005400400400502000000009005400D
:1026D80008000805020000000000000000000000DB
:1026E80000000000000000000000000000000000E2
:1026F80000000000000000000000000000000000D2
:1027080000000000000000000000000000000000C1
:1027180000000000000000000000000000000000B1
:1027280000000000000000000000000000000000A1
:102738000000000000000000000000000000000091
:102748000000000000000000000000000000000081
:102758000000000000000000000000000000000071
:102768000000000000000000000000000000000061
:102778000000000000000000000000000000000051
:102788000000000000000000000000000000000041
:0C27980000000000000000000200000033
:1027A40000A00540100040050100000000A0054005
:1027B40020004005010000000000000000000000AF
:1027C4000000000000000000000000000000000005
:1027D40000000000000000000000000000000000F5
:1027E40000000000000000000000000000000000E5
:1027F40000000000000000000000000000000000D5
:1028040000000000000000000000000000000000C4
:1028140000000000000000000000000000000000B4
:1028240000000000000000000000000000000000A4
:102834000000000000000000000000000000000094
:102844000000000000000000000000000000000084
:102854000000000000000000000000000000000074
:102864000000000000000000000000000000000064
:0C28740000000000000000000200000056
:1028800000F00540400040050100000000F0054058
:102890008000400501000000000000000000000072
:1028A0000000000000000000000000000000000028
:1028B0000000000000000000000000000000000018
:1028C0000000000000000000000000000000000008
:1028D00000000000000000000000000000000000F8
:1028E00000000000000000000000000000000000E8
:1028F00000000000000000000000000000000000D8
:1029000000000000000000000000000000000000C7
:1029100000000000000000000000000000000000B7
:1029200000000000000000000000000000000000A7
:102930000000000000000000000000000000000097
:102940000000000000000000000000000000000087
:0C29500000000000000000000200000079
:10295C00690200005D020000510200008D020000BF
:10296C008102000075020000210200001502000027
:10297C000902000045020000390200002D0200008F
:10298C00FFFFFFFFFFFFFFFFFFFFFFFFFFFFFFFF4B
:10299C00FFFFFFFFFFFFFFFFFFFFFFFFFFFFFFFF3B
:1029AC00FFFFFFFFFFFFFFFFFFFFFFFFFFFFFFFF2B
:1029BC00526967687420537769706520616E642072
:1029CC00486F6C6400446F776E2053776970652094
:1029DC00616E6420486F6C64004C6566742053779C
:1029EC0069706520616E6420486F6C6400557020BE
:1029FC00537769706520616E6420486F6C64004386
:0E2A0C006C69636B20616E6420486F6C64001F
:102A1A00446F75626C6520436C69636B0053696E21
:0A2A2A00676C6520436C69636B0064
:0C2A340009150000C9160000FFFFFFFF9D
:0C2A400052696768742053776970650064
:102A4C00446F776E205377697065004C656674200F
:062A5C005377697065006C
:092A62005570205377697065007E
:00000001FF
