:020000040800F2
:10000000FCFF0020E9210000CD210000CD210000EF
:10001000CD210000CD210000CD210000CD21000028
:10002000CD210000CD210000CD210000CD21000018
:10003000CD210000CD210000CD210000CD21000008
:10004000CD210000CD210000CD210000CD210000F8
:10005000CD210000CD210000CD210000CD210000E8
:10006000CD210000CD210000CD210000CD210000D8
:10007000CD210000CD210000CD210000CD210000C8
:10008000CD210000CD210000CD210000CD210000B8
:10009000CD210000CD210000CD210000CD210000A8
:1000A000CD210000CD210000CD210000CD21000098
:1000B000CD210000CD210000CD210000CD21000088
:1000C000CD210000CD210000CD210000CD21000078
:1000D000CD210000CD210000CD210000CD21000068
:1000E000CD210000CD210000CD210000CD21000058
:1000F000CD210000CD210000CD210000CD21000048
:10010000CD210000CD210000CD210000CD21000037
:10011000CD210000CD210000CD210000CD21000027
:10012000CD210000CD210000CD210000CD21000017
:10013000CD210000CD210000CD210000CD21000007
:10014000CD210000CD210000CD210000CD210000F7
:1001500081B000F218010A68C2F3400181F0010188
:10016000C9B2C8B201B0704783B0CDF800E000F06A
:10017000FF031A09104603F00F02134614E0194A50
:1001800002921FE0184A02921CE0184A029219E0FB
:10019000174A029216E0174A029213E0164A029298
:1001A00010E0164A02920DE00028E8D00128E9D0BC
:1001B0000228EAD00328EBD00428ECD00528EDD0A3
:1001C0000628EED0012212B29A40ADF8042002981F
:1001D0000A46BDF8041000F04FFEDDF800E003B061
:1001E000704700BF00080140000C014000100140B2
:1001F0000014014000180140001C01400020014093
:1002000081B000F214010A6800F2180109680904BB
:1002100042EA0101084601B07047FFFF014800684B
:10022000704700BF6400002001490860704700BFAC
:10023000A481224201490860704700BFA881224280
:1002400001490860704700BFA0812242014908604F
:10025000704700BF9C81214201490860704700BF80
:100260009881214201490860704700BFB481224251
:1002700001490860704700BF8801224201490860B7
:10028000704700BF9001214201490860704700BFDC
:10029000A801224201490860704700BF8001214245
:1002A00001490860704700BFB0012242014908605F
:1002B000704700BFAC01224201490860704700BF8F
:1002C0009481224201490860704700BF9881224210
:1002D00001490860704700BFB081224201490860AF
:1002E000704700BF9881214281B0CDF800E00B46F5
:1002F000FFF786FF00EA03029A4240F2000200D1B3
:100300000122D0B2DDF800E001B0704781B0CDF835
:1003100000E04FF000021949884207D118490B68E4
:1003200018490A6818490A601C460BE017498842B8
:1003300007D117490B6817490A6813490A601C4618
:1003400000E0144614490C6003461846FFF700FF0E
:1003500070B91149096851B12CB905200A4C2468BB
:10036000A047002005E0611E08460446FFE7ECE7D1
:100370000120DDF800E001B0704700BF00540040EC
:10038000280000206C000020680000200058004079
:100390002C0000207000002030000020014908607F
:1003A000704700BF9C81214201490860704700BF2F
:1003B000B881224201490860704700BF8C01224287
:1003C00001490860704700BF94012142014908605B
:1003D000704700BFA801224201490860704700BF72
:1003E000B081224201490860704700BFB00122423B
:1003F00001490860704700BFAC01224282B0CDF8CD
:1004000000E0034619460191FFF708FF40F2E8318A
:1004100000FB01F201990A601F490978C1F3031139
:10042000C8B21E4909180878C0B21A1D1968C1401F
:10043000116019490988C1F3022188B217490918C6
:100440000878C0B203F20802191D0968C1401160A2
:1004500011490988C1F3C22188B2104909180878E6
:10046000C0B203F20C02191D0968C14011600A49AB
:100470000988C1F3813188B2094909180978C8B2DD
:1004800003F2100203F20C010968B1FBF0F11160F4
:10049000DDF800E002B0704704100240D2250000F1
:1004A0005426000081B0CDF800E0012252B23E494E
:1004B0000A6000F268010B686FF0006103EA010254
:1004C000144603F00061C90E0B4602F00041B1F181
:1004D000004F02D135490A6801E035490A6804F441
:1004E0007021090C0E464FF6FF7104EA01010D461A
:1004F00004F44011B1F5401F0DD16FF0706102EAB4
:1005000001010E462A490A686FF070610A402849C5
:100510000A60324616E004F48011B1F5801F09D15B
:100520004FF00301B140C94302EA010141F070619B
:100530000A4607E0610D090105FA01F1C9430A40C5
:1005400042F070622BB1610D090105FA01F10A4315
:10055000FFE704F00041B1F1004F02D113490A60F6
:1005600001E013490A6040F2000A81464FEA8A011D
:1005700009EB01010968B1F1FF3F10D009F1340125
:100580004FEA8A03C91809680A4609EB030109689A
:1005900008461146FFF7E8FD0AF1010AE6E7DDF833
:1005A00000E001B0704700BF000342421C00014060
:1005B0000400014081B0194900EA01010846002207
:1005C0000EE0042022E0082020E010201EE0202081
:1005D0001CE040201AE0802018E040F2001015E0F6
:1005E0000F498842EDD00F498842ECD00E4988422D
:1005F000EBD00E498842EAD00D498842E9D00D4936
:100600008842E8D00C498842E7D010460B49096877
:1006100041EA000209490A6001B0704700FCFFFF8F
:1006200000080140000C014000100140001401408E
:1006300000180140001C0140002001401810024039
:1006400082B0CDF800E0CFB201469846029B4FF051
:1006500000064FF00005C44CA14207D1C34CD4F8AA
:100660000090C34C2568C34C25600BE0C24CA142EE
:1006700007D1C24C2068C24C2568BE4C256081461B
:1006800000E0A946BF4CC4F80090F4E101F2100567
:100690007C00A4B244F00104A4B22C60019616467A
:1006A0004F46019A01F214042568C5F3400464B969
:1006B000B44C246844B127B90320AE4C2468A04749
:1006C000E2E1781E0746FFE7ECE700250C6865F3DA
:1006D0008A240C6001F21404206800BF01F218049F
:1006E0002468240440EA04042046012B05D1012596
:1006F0000C6865F349240C6004E001250C6865F37F
:1007000008240C609F4C25689146984637460E4653
:100710009D493046FFF7E8FD68B99A4C24684CB112
:1007200025B90320934C2468A047ADE16C1E2046F8
:100730000546FFE7ECE707EB090506F2100424681D
:100740002C70B8F1010F13D18E4C2168304605682A
:10075000C5F340245CB98B4C24683CB121B903201B
:10076000844C2468A0478FE1491EFFE7EFE712E0C1
:10077000844C216830460568C5F300245CB9814C7F
:1007800024683CB121B903207A4C2468A0477BE15E
:10079000491EFFE7EFE777E101250C6865F38A243E
:1007A0000C6001250C6865F3CB240C6001F2100588
:1007B0007C00A4B244F00104A4B22C604F4601F2C4
:1007C00014042568C5F3400464B96E4C246844B130
:1007D00027B90320674C2468A04755E1781E0746D7
:1007E000FFE7ECE701F21404206800BF01F21804EF
:1007F00024682404204300250C6865F38A240C60D7
:10080000604C276801F214042568C5F3800464B9BC
:100810005C4C246844B127B90320564C2468A04797
:1008200032E1781E0746FFE7ECE7012B05D10125F1
:100830000C6865F349240C6004E001250C6865F33D
:1008400008240C60951901F2100424682C70741CA3
:10085000151901F2100424682C70012B14D1494C95
:1008600022680D68C5F3402464B9464C246844B13D
:1008700022B903203F4C2468A04705E1501E0246E0
:10088000FFE7EEE7084613E03E4C22680D68C5F32B
:10089000002464B93B4C246844B122B90320354C90
:1008A0002468A047F0E0501E0246FFE7EEE7084646
:1008B0000025046865F3CB240460E5E001250C689D
:1008C00065F38A240C6001F210057C00A4B244F0A8
:1008D0000104A4B22C604646C846894617461D4608
:1008E0002A494846FFF700FD78B9264C24685CB1D8
:1008F000B8F1000F04D103201E4C2468A047C3E0C8
:10090000A8F101008046FFE7EAE70021A8464A4631
:10091000B1463B46A9F10304A14222D2194C2568F5
:100920008A4617461E4618493846FFF7DDFC60B96F
:10093000144C246844B125B903200E4C2468A04708
:10094000A2E0681E0546FFE7EDE706EB0A0507F2A1
:10095000100424682C700AF10104214633463A46FB
:10096000D8E7084C00F014B80054004028000020DC
:100970006C00002068000020005800402C0000207F
:10098000700000203000002040000300020003003F
:10099000276801930B4616464246019906F2140455
:1009A0002568C5F3800464B9394C246844B127B97B
:1009B0000320384C2468A04766E0781E0746FFE70E
:1009C000ECE70025346865F38A243460CD1806F21C
:1009D000100424682C70581C2D4C236817460246BE
:1009E00006F214042568C5F3800464B9284C246811
:1009F00044B123B90320274C2468A04744E0581E83
:100A00000346FFE7ECE7012F07D10125346865F3C2
:100A1000492434601046324621E00125346865F3EC
:100A2000082434601A4CD4F8008017460D461A4941
:100A30003046FFF759FC78B9154C24685CB1B8F121
:100A4000000F04D10320134C2468A0471CE0A8F138
:100A500001008046FFE7EAE72946324638460D188E
:100A600002F2100424682C70441C0D1902F21004C8
:100A700024682C7008E0B8F1010F3FF407AEB8F11C
:100A8000020F3FF489AE19E7DDF800E002B07047CD
:100A900030000020680000200100030082B0CDF883
:100AA00000E0029E4FF00005564CA04206D1564C85
:100AB0002768564C2568564C25600AE0554CA042E4
:100AC00006D1554C2768554C2568514C256000E0EF
:100AD0002F46534C276000F210054C00A4B22C6046
:100AE000B9460746904635461E464E493846FFF7FA
:100AF000FBFB88B94A4C24686CB1B9F1000F06D1F0
:100B00000420434C2468A0474FF6FF7076E0A9F11B
:100B100001008146FFE7E8E70020019729463746B4
:100B2000019E7C1EA04226D206F2100508EB0004AE
:100B300024782C603A4CD4F8009082460D463A490D
:100B40003046FFF7D1FB88B9354C24686CB1B9F158
:100B5000000F06D104202E4C2468A0474FF6FF70EA
:100B60004CE0A9F101008146FFE7E8E70AF1010442
:100B700020462946D5E706F2100508EB0004247844
:100B80002C60274C27680D4628493046FFF7ACFB00
:100B900070B9234C246854B137B904201C4C246824
:100BA000A0474FF6FF7029E0781E0746FFE7EBE706
:100BB000012D05D10125346865F3492434601CE01A
:100BC0000125346865F308243460154C27683546E0
:100BD00017492846FFF788FB78B9114C24685CB1A7
:100BE00037B904200A4C2468A0474FF6FF7005E08F
:100BF0007C1E20460746FFE7EAE70020DDF800E01C
:100C000002B0704700540040280000206C00002013
:100C100068000020005800402C00002070000020D8
:100C200030000020820007008000070084000700D9
:100C30000100030089B0CDF800E0834698B28C46ED
:100C4000BDF824100A9E04ACADF80410ADF80800FD
:100C50002046FFF7D3FBBDF80800BDF80410644C34
:100C6000A34512D101256DB2624C2560624D634CE3
:100C70002560634D634C2560634D644C2560644D75
:100C8000644C2560079C039456E0634CA34512D145
:100C900001256DB2614C2560614D584C2560614D58
:100CA000584C2560604D594C2560604D594C25606D
:100CB000069C039440E05E4CA34512D101256DB221
:100CC0005C4C25605C4D4D4C25605C4D4D4C256069
:100CD0005B4D4E4C25605B4D4E4C2560069C03944D
:100CE0002AE0594CA34512D101256DB2574C25601D
:100CF000574D424C2560574D424C2560564D434C54
:100D00002560564D434C2560069C039414E0544CDA
:100D1000A34511D101256DB2524C2560524D374C7F
:100D20002560524D374C2560514D384C2560514D52
:100D3000384C2560069C0394ADF80410ADF808000B
:100D40003046FFF7AFFBBDF80800BDF804100BF10B
:100D5000100500242C600BF110052C680C432C604E
:100D60000BF10C0500242C6018B140F4806080B2B7
:100D7000FFE70BF10C052C6804432C600BF10C060B
:100D80000125346865F34D3434600BF10C06012500
:100D9000346865F3C30434600BF10C060125346834
:100DA00065F3820434600BF1140500242C60039D6C
:100DB000192465434FEA8C04B5FBF4F76424B7FBB0
:100DC000F4F42601350964246C433C1B240104F22D
:100DD00032056424B5FBF4F404F00F0446EA04047D
:100DE0000BF10805A4B22C60DDF800E009B07047F3
:100DF00000380140380342421514000080000020F2
:100E00009D1300008400002085130000880000204E
:100E10006D1300008C00002000440040C4034242D7
:100E200079140000E5130000CD130000B513000095
:100E300000480040C8034242CD14000025130000C2
:100E40003D13000055130000004C0040CC0342420B
:100E5000B1140000FD130000191500000115000079
:100E600000500040D003424295140000E9140000F5
:100E7000311500009115000081B0CDF800E08CB272
:100E80001546774B00EA03031E461846FFF792FB10
:100E9000B4F1FF0F0CD1734B9D4203D14FF03333AC
:100EA0003360D9E0422D03D14FF044333360D3E0B7
:100EB0004FF6FF739C4214D16A4B9D4207D14FF00D
:100EC00033333360341D4FF033332360C4E0422D9D
:100ED00007D14FF044333360341D4FF04433236067
:100EE000BAE00021002005F001030BB100211DE054
:100EF00005F0020333B105F4C0730BB1082100E023
:100F0000042113E005F0040333B105F020030BB115
:100F1000042100E0002109E005F0080333B105F0E9
:100F200020030BB10C2100E00821FFE74E4B05EA3E
:100F300003030BB1032009E005F400730BB1022099
:100F400004E005F480630BB10120FFE705F00C031A
:100F50000BB10143FFE704F0FF039BB2002B3BD032
:100F6000376800201FFA84F832462E4608282CD213
:100F70004FF0010303FA00F408EA0403A34222D16C
:100F800085004FF00F03AB40DB4307EA030401FA8F
:100F900005F344EA03031D4606F48173B3F5817F2C
:100FA00005D102F214044FF001038340236006F0E0
:100FB0008203822B05D102F210044FF0010383401B
:100FC00023602F46FFE7401CD0E717601FFA88F028
:100FD0000F463146164602E00F462946A0B2B0F150
:100FE000FF0F39D9331DD3F800800022082A30D2F0
:100FF00002F208044FF0010303FA04F400EA0403C8
:10100000A34224D195004FF00F03AB40DB4308EA25
:10101000030807FA05F348EA030801F48173B3F5FE
:10102000817F07D106F2140502F208044FF0010394
:10103000A3402B6001F08203822B07D106F210053A
:1010400002F208044FF00103A3402B60FFE7521C9B
:10105000CCE7331DC3F80080DDF800E001B0704735
:1010600000FCFFFF140008000008080083B0CDF862
:1010700000E003464FF0000026498B4206D1264986
:101080000C6826490A6826490A600BE025498B420C
:1010900007D12549086825490A6821490A6004469C
:1010A00000E0044622490C60019402931846FFF7C1
:1010B0002DF9029B019C10B94FF6FF7025E001222B
:1010C000196862F30821196003F214010A68C2F377
:1010D000402111B14FF6FF7017E025461C46154917
:1010E0002046FFF701F978B91149096859B135B9B6
:1010F00006200B4C2468A0474FF6FF7005E0691EE0
:1011000008460546FFE7EAE70020DDF800E003B007
:10111000704700BF00540040280000206C000020F1
:1011200068000020005800402C00002070000020C3
:10113000300000200100030081B00168C1F34010BD
:1011400001B0704781B00268C2F3401101B9FAE7FB
:10115000011D096888B201B07047FFFF88B0CDF863
:1011600000E00E46554B98420DD1012464B2544B19
:101170001C60544C544B1C60544C554B1C60554CDB
:10118000554B1C600FE0554B98420CD1012464B2C2
:10119000534B1C60534C4C4B1C60534C4C4B1C60D1
:1011A000524C4D4B1C60019602901046FFF77AF9A5
:1011B0000298019E031D1B689CB26FF03F0304EA76
:1011C00003039DB203AB01901846FFF717F901988E
:1011D000059F059C464BB4FBF3F399B29BB245EADD
:1011E0000304A4B2031D1C600024036864F300031D
:1011F000036000223F4B9E4212D87300B7FBF3F40A
:10120000A4B2042C02D204231C46FFE742EA0403E2
:101210009AB200F220044B1C9BB2236091B23FE0D3
:10122000032306FB03F4B7FBF4F31FFA83F8192337
:1012300006FB03F5B7FBF5F31FFA83F908FB04F48B
:1012400009FB05F33C1BFB1A9C4205D203237343A5
:10125000B7FBF3F4A4B206E019237343B7FBF3F42E
:10126000A4B244F4804440F6FF7304EA030313B9C4
:1012700044F00104FFE744F400439BB21A4392B2E6
:1012800000F2200540F22C1301FB03F4A4B240F25B
:10129000E833B4FBF3F39BB25B1C9BB22B6091B2BF
:1012A00000F21C031960002303600124036864F347
:1012B00000030360DDF800E008B070470054004010
:1012C000D40342422116000074000020551400008F
:1012D000780000206D1500007C00002000580040C0
:1012E000D80342428916000031140000491500005D
:1012F00040420F00A086010081B0ADF80010014609
:10130000BDF800000B68C3F3C01202B9FAE70A1D6A
:10131000106001B07047FFFF81B00168C1F3801019
:1013200001B0704781B0CDF800E00348FFF70AFF35
:10133000DDF800E001B070470048004081B0CDF812
:1013400000E00348FFF7F8FEDDF800E001B0704769
:101350000048004081B0CDF800E00348FFF7DCFF13
:10136000DDF800E001B070470048004081B0CDF8E2
:1013700000E00348FFF7D0FFDDF800E001B0704760
:101380000038014081B0CDF800E00348FFF7D4FEFB
:10139000DDF800E001B070470038014081B0CDF8C1
:1013A00000E00348FFF7CEFEDDF800E001B0704733
:1013B0000038014081B0CDF800E00348FFF7ACFFF2
:1013C000DDF800E001B070470044004081B0CDF886
:1013D00000E00348FFF7B0FEDDF800E001B0704721
:1013E0000044004081B0CDF800E00348FFF7AAFEBA
:1013F000DDF800E001B070470044004081B0CDF856
:1014000000E00348FFF79EFEDDF800E001B0704702
:10141000004C004081B0CDF800E081B20348FFF7F6
:101420006BFFDDF800E001B0704700BF00380140FD
:1014300081B0CDF800E008B413460A46C1B20448B2
:10144000FFF7FEF801B0DDF800E001B0704700BF23
:101450000058004081B0CDF800E008B413460A46B9
:10146000C1B20448FFF7ECF801B0DDF800E001B0CC
:10147000704700BF0054004081B0CDF800E081B259
:101480000348FFF739FFDDF800E001B0704700BF07
:101490000044004081B0CDF800E081B20348FFF77E
:1014A0002BFFDDF800E001B0704700BF00500040A6
:1014B00081B0CDF800E081B20348FFF71DFFDDF8F1
:1014C00000E001B0704700BF004C004081B0CDF893
:1014D00000E081B20348FFF70FFFDDF800E001B044
:1014E000704700BF0048004081B0CDF800E00348DD
:1014F000FFF728FEDDF800E001B070470050004023
:1015000081B0CDF800E00348FFF706FFDDF800E00A
:1015100001B07047004C004081B0CDF800E00348B6
:10152000FFF70AFEDDF800E001B07047004C004014
:1015300081B0CDF800E00348FFF7FEFDDDF800E0E4
:1015400001B070470050004081B0CDF800E008B411
:1015500013460A46C1B20448FFF7A0FA01B0DDF80D
:1015600000E001B0704700BF0058004081B0CDF8E6
:1015700000E008B413460A46C1B20448FFF78EFAE9
:1015800001B0DDF800E001B0704700BF005400403A
:1015900081B0CDF800E00348FFF7BEFEDDF800E0C3
:1015A00001B070470050004081B0CDF800E00A461D
:1015B00001460348FFF7D2FDDDF800E001B07047B7
:1015C0000054004081B0CDF800E0044A89B2FFF732
:1015D00053FCDDF800E001B0704700BF14000800C4
:1015E00081B0CDF800E04FF0420289B2FFF744FC31
:1015F000DDF800E001B0704781B0CDF800E0019D5A
:101600002C4610B408B493B28AB201460348FFF7DF
:1016100011FB02B0DDF800E001B070470048004067
:1016200081B0CDF800E00348FFF720FDDDF800E0D1
:1016300001B070470054004081B0CDF800E0019D3A
:101640002C4610B408B493B28AB201460348FFF79F
:10165000F1FA02B0DDF800E001B070470038014057
:1016600081B0CDF800E0019D2C4610B408B493B2CF
:101670008AB201460348FFF7DDFA02B0DDF800E068
:1016800001B070470044004081B0CDF800E003484D
:10169000FFF7ECFCDDF800E001B0704700580040B7
:1016A00082B0CDF800E040F20004ADF80440044CF4
:1016B0002468A047BDF90400DDF800E002B07047DF
:1016C000A400002081B0CDF800E0094902B440F246
:1016D000000340F2000240F20001FFF7C1FF01B039
:1016E000044A05490A600020DDF800E001B07047B7
:1016F0004C230000791400006000002082B0CDF877
:1017000000E040F20004ADF80440054C2468A04716
:10171000BDF90440044320B2DDF800E002B0704798
:10172000A000002081B0CDF800E0094902B440F2E9
:10173000000340F2000240F20001FFF77DFF01B01C
:10174000044A05490A600020DDF800E001B0704756
:1017500024240000151400006000002084B0CDF89F
:1017600000E002918DF80C208DF8040000F018F8CC
:1017700001AC0A4B1B7801222146D8B20023FFF7A7
:10178000BDFF064B1B789DF80C200299D8B20123AF
:10179000FFF786FFDDF800E004B0704790000020FE
:1017A00082B0CDF800E040F20004ADF80440064CF1
:1017B0002468A047BDF9041041EA000000B2DDF83A
:1017C00000E002B0704700BF9C00002000F2300132
:1017D000091D0A6803490A6000F21C010A680249EF
:1017E0000A607047940000209800002002680649B3
:1017F0000A60011D0A6805490A6000F208010A68CA
:1018000003490A60704700BF9C000020A000002030
:10181000A400002081B0CDF800E00178CCB2A0B2E5
:10182000034C2468A0470020DDF800E001B07047B9
:101830006000002081B0CDF800E0094902B440F218
:10184000000340F2000240F20001FFF709FF01B07F
:10185000044A05490A600020DDF800E001B0704745
:101860004C230000791400006000002081B0CDF806
:1018700000E0016808460449FFF796FE0020DDF805
:1018800000E001B0704700BF9024000081B0CDF8A7
:1018900000E0016808460449FFF786FE0020DDF8F5
:1018A00000E001B0704700BF9024000081B0CDF887
:1018B00000E0A9E0012905D140F210016548FFF7D9
:1018C0008FFE04E040F210016248FFF77BFEBBE0B0
:1018D000012905D140F204015F48FFF781FE04E0D1
:1018E00040F204015C48FFF76DFEADE0012905D12F
:1018F00042F200015948FFF773FE04E042F2000192
:101900005648FFF75FFE9FE0012905D140F20041F4
:101910005148FFF765FE04E040F200414E48FFF7F2
:1019200051FE91E0012905D140F600014A48FFF738
:1019300057FE04E040F600014748FFF743FE83E00E
:10194000012905D141F200014348FFF749FE04E0B7
:1019500041F200014048FFF735FE75E0012905D14D
:1019600040F201013B48FFF73BFE04E040F2010179
:101970003848FFF727FE67E0012905D140F2004112
:101980003648FFF72DFE04E040F200413348FFF7F0
:1019900019FE59E0012905D140F200212F48FFF737
:1019A0001FFE04E040F200212C48FFF70BFE4BE045
:1019B000012905D140F200112848FFF711FE04E08B
:1019C00040F200112548FFF7FDFD3DE0012905D15A
:1019D00040F240012248FFF703FE04E040F24001DC
:1019E0001F48FFF7EFFD2FE0012905D140F28001EC
:1019F0001B48FFF7F5FD04E040F280011848FFF7AF
:101A0000E1FD21E0012020E000283FF453AF012850
:101A10003FF45EAF02283FF469AF03283FF474AF90
:101A200004283FF47FAF05283FF48AAF06283FF42F
:101A300095AF0728A0D00828ACD00928B8D00A282C
:101A4000C4D00B28D0D0DDE70020DDF800E001B0E5
:101A5000704700BF00080140001001400014014021
:101A6000000C014081B0CDF800E0A9E0012905D1CA
:101A700040F220016548FFF7B3FD04E040F2200189
:101A80006248FFF79FFDBBE0012905D140F2080144
:101A90005F48FFF7A5FD04E040F208015C48FFF74E
:101AA00091FDADE0012905D144F200015948FFF74D
:101AB00097FD04E044F200015648FFF783FD9FE0E4
:101AC000012905D140F200415148FFF789FD04E0AA
:101AD00040F200414E48FFF775FD91E0012905D124
:101AE00040F600014A48FFF77BFD04E040F60001A4
:101AF0004748FFF767FD83E0012905D141F2000166
:101B00004348FFF76DFD04E041F200014048FFF754
:101B100059FD75E0012905D141F200013D48FFF76B
:101B20005FFD04E041F200013A48FFF74BFD67E03A
:101B3000012905D140F600013648FFF751FD04E0C8
:101B400040F600013348FFF73DFD59E0012905D17A
:101B500040F240012F48FFF743FD04E040F240010E
:101B60002C48FFF72FFD4BE0012905D140F2200161
:101B70002848FFF735FD04E040F220012548FFF733
:101B800021FD3DE0012905D140F240012248FFF747
:101B900027FD04E040F240011F48FFF713FD2FE04E
:101BA000012905D140F280011B48FFF719FD04E02F
:101BB00040F280011848FFF705FD21E0012020E0F8
:101BC00000283FF453AF01283FF45EAF02283FF4F2
:101BD00069AF03283FF474AF04283FF47FAF0528B2
:101BE0003FF48AAF06283FF495AF0728A0D0082815
:101BF000ACD00928B8D00A28C4D00B28D0D0DDE753
:101C00000020DDF800E001B0704700BF000801408F
:101C10000010014000140140000C014081B0CDF8DB
:101C200000E0094902B440F2000340F2000240F231
:101C30000001FFF7E1FC01B0044A05490A600020F9
:101C4000DDF800E001B07047B8230000CD140000BB
:101C5000600000200246104613460A7822B10A7836
:101C60001A705B1C491CF8E700221A707047FFFFCE
:101C700083B0CDF800E002918DF80400FFF790FDED
:101C800001AB0A4A127819460023D0B20122FFF7AD
:101C900035FD064A127801230299D0B20122FFF7DE
:101CA000FFFCDDF800E003B0704700BF90000020AB
:101CB00083B0CDF800E002A9019003221120FFF7C4
:101CC0004DFD019802AC217801800188CA0092B2D2
:101CD000A11C09780909C9B242EA01010180821CEC
:101CE000611C09781170831C1978CA0092B2A11C7A
:101CF000097801F00F01C9B242EA01011970DDF85B
:101D000000E003B07047FFFF81B0CDF800E004466B
:101D1000054B1A700846FFF769FD2046FFF756FD90
:101D2000DDF800E001B070479000002081B0CDF8F0
:101D300000E05FFA81F95FFA82FA0FE05FFA8AF158
:101D40005FFA89F0FFF7B2FD0DE05FFA8AF15FFA02
:101D500089F0FFF787FE06E0012004E00028EDD0BF
:101D60000128F2D0F8E7DDF800E001B07047FFFF8E
:101D700081B0CDF800E00C4642E02F4A11462046E3
:101D8000FFF768FF53E02D4A11462046FFF762FF38
:101D90004DE02B4A11462046FFF75CFF47E0294AF9
:101DA00011462046FFF756FF41E0274A11462046DC
:101DB000FFF750FF3BE0254A11462046FFF74AFF58
:101DC00035E0234A11462046FFF744FF2FE0214A21
:101DD00011462046FFF73EFF29E01F4A11462046E4
:101DE000FFF738FF23E01D4A11462046FFF732FF78
:101DF0001DE01B4A11462046FFF72CFF17E016E0B6
:101E00001128BAD02028BED01028C2D03128C6D080
:101E10003228CAD04128CED04228D2D05128D6D09C
:101E20005228DAD06128DED06228E2D0E7E7DDF878
:101E300000E001B0704700BFE2250000F12500007E
:101E4000FE2500003B260000982500002426000007
:101E50008325000046260000C02500003026000033
:101E6000AC25000081B0CDF800E011E00846FFF796
:101E7000D5FE16E00846FFF7DDFC12E00846FFF746
:101E800051FC0EE00846FFF71DFC0AE0012008E0C7
:101E90000028EBD00128EDD02028EFD03028F1D059
:101EA000F4E7DDF800E001B07047FFFF81B00A46BB
:101EB00081B200208DB21146052805D20B182022D0
:101EC0001A70401CC0B2F7E70B1800221A70401EAF
:101ED000C0B20C180A23B5FBF3F203FB125292B204
:101EE000303222700A22B5FBF2F292B295B202B9F8
:101EF00002E0401EC0B2ECE701B0704781B0CDF8FF
:101F000000E08B4609E05846FFF7B0FC0AE058466F
:101F1000FFF7BCFC06E0012004E00028F3D0012814
:101F2000F5D0F8E7DDF800E001B0704783B0CDF8F8
:101F300000E0024610460D228DF808200A228DF896
:101F400009201FE0FFF766FC23E002782AB1019028
:101F5000FFF760FC0198401CF7E71AE002782AB10D
:101F60000190FFF757FC0198401CF7E702AA1046C2
:101F7000FFF750FC0DF109021046FFF74BFC08E09B
:101F8000062007E00029DDD00129DED00229E5D0B6
:101F9000F6E70020DDF800E003B0704781B0154897
:101FA000006840F0010113480160134913480160C3
:101FB00010480168124801400E4801600D48016850
:101FC0006FF4802001400B4801600C4801686FF4F9
:101FD000FE00014009480160064801686FF0A0500A
:101FE0000140044801604FF000010648016001B063
:101FF000704700BF001002400000FFF004100240D4
:10200000FFFFF6FE2C10024081B01CF8019B0BF87C
:10201000019BBBEB0A0FF8D101B0704781B04FF0C4
:1020200000094FF0000CBDEB0A0F04DCBDEB0B0FF9
:1020300001DBD446EA464BF8049BBBEB0A0FFAD10E
:10204000BCEB0A0F05DDE246D9F800B00BF1040B3A
:10205000F1E701B07047FFFF81B0CDF800E000224A
:1020600007210020FFF762FE012201210020FFF777
:102070005DFE0C4801460020FFF740FF42F2805110
:102080002020FFF7EFFE44F67F77C0F2120700BF73
:1020900000BF7F1EFDD100BF00BF00BFDDF800E024
:1020A00001B070475026000081B0CDF800E042F248
:1020B000BF77C0F2090700BF00BF7F1EFDD100BF80
:1020C00000BF00BF30491020FFF7D2FD2E48007836
:1020D00000F00100C0B2002830D02C480221FFF7E8
:1020E00025FF2B48FFF7E4FD294800882949FFF721
:1020F000DDFE29480121FFF719FF02212548FFF7DE
:1021000015FF264800782349FFF7D0FE2448012117
:10211000FFF70CFF02211F48FFF708FF21480221AB
:10212000FFF704FF42F2BF77C0F2090700BF00BF0C
:102130007F1EFDD100BF00BF00BF21E01248007824
:1021400000F00200C0B2D8B142F2BF77C0F2090776
:102150007F1EFDD100BF00BF00BF00BF00BF0A4906
:102160001420FFF785FD08480078002808D00648AD
:1021700000780D49FFF7FCFD02210B48FFF7D6FE62
:10218000DDF800E001B070472700002000000020CB
:10219000340000203800002001000020360000201C
:1021A0000E0000201B0000204200002081B0CDF86E
:1021B00000E0252203490448FFF7A6FDDDF800E012
:1021C00001B0704718260000FC24000081B0FEE733
:1021D00001B0704781B002490248016001B0704708
:1021E000401901006400002000F00EF800F082FAAF
:1021F000FFF7F0FF00F030FAFFF72EFFFFF7D6FFF2
:10220000FFF752FFFCE7FEE781B0CDF800E0464A59
:10221000464B474C47494BF68030814206D94648E9
:10222000006840F002014448016011E045F6C050EA
:10223000814206D94048006840F001013E480160F3
:1022400006E03D4801686FF0070001403A48016030
:10225000FFF7A4FE3948036039480460394802EAB0
:1022600000013948016002F0010040B119463648CA
:10227000006800F00200002800D1F8E700E01946ED
:1022800002F4803040B10B462F48006800F4003063
:10229000002800D1F8E700E00B4602F0805068B15A
:1022A0002948006840F080512748016026480068AE
:1022B00000F00050002800D1F8E7FFE702F080604E
:1022C00078B12148006840F080611F4801601146E4
:1022D0001A461D48006800F00060002800D1F8E7A9
:1022E00001E011461A4601F0807070B1164800688E
:1022F00040F080711448016011461348006800F0F6
:10230000007000B9F9E70A46FFE70C48006800F0E2
:102310000C01900000F00C00814200D0F5E7DDF8E0
:1023200000E001B0704700BF8100010502841D007C
:102330004406010040190100002002400410024040
:102340002C100240FFFF0F0000100240350000007B
:1023500036000000FFFFFFFF00000000000000004B
:10236000000000000000000000000000000000006D
:10237000000000000000000000000000000000005D
:102380001808000018000000000000000000000015
:10239000000000000000000000000000000000003D
:1023A000000000000000000000000000000000002D
:1023B000000000000800000838000000390000009C
:1023C000FFFFFFFF00000000000000000000000011
:1023D00000000000000000000000000000000000FD
:1023E00000000000000000000000000018080000CD
:1023F00018000000000000000000000000000000C5
:1024000000000000000000000000000000000000CC
:1024100000000000000000000000000000000000BC
:1024200030001408090000000A000000FFFFFFFF51
:10243000000000000000000000000000000000009C
:10244000000000000000000000000000000000008C
:102450000000000000000000180800001800000044
:10246000000000000000000000000000000000006C
:10247000000000000000000000000000000000005C
:102480000000000000000000000000000400000048
:102490001600000017000000FFFFFFFF0000000013
:1024A000000000000000000000000000000000002C
:1024B000000000000000000000000000000000001C
:1024C00000000000280800002808000000000000AC
:1024D00000000000000000000000000000000000FC
:1024E00000000000000000000000000000000000EC
:1024F0000000000000000000020000007D0200005B
:10250000710200006502000089020000AD020000B7
:10251000A10200009502000035020000290200001F
:1025200041020000590200004D020000FFFFFFFFC2
:10253000FFFFFFFFFFFFFFFFFFFFFFFFFFFFFFFFAB
:10254000FFFFFFFFFFFFFFFFFFFFFFFFFFFFFFFF9B
:10255000FFFFFFFFFFFFFFFFFFFFFFFF00506F7355
:102560006974696F6E20583A2000506F73697469FE
:102570006F6E20593A20002D2D2D2D2D2D2D2D2D16
:102580002D2D00526967687420537769706520614A
:102590006E6420486F6C6400446F776E20537769D7
:1025A000706520616E6420486F6C64004C656674D1
:1025B00020537769706520616E6420486F6C6400F9
:1025C000557020537769706520616E6420486F6C88
:1025D0006400000000000102030401020304060776
:1025E0000809436C69636B20616E6420486F6C64FA
:1025F00000446F75626C6520436C69636B005369BE
:102600006E676C6520436C69636B00FF000000001F
:102610000000000000000000211600006D15000001
:10262000551400005269676874205377697065001B
:102630004C65667420537769706500446F776E202F
:10264000537769706500557020537769706500FF96
:10265000A08601000204060800B5DFF824B0DFF808
:1026600024A0DFF824C0FFF7CFFCDFF820B0DFF8AC
:1026700020A0DFF820C0FFF7C7FC00BD704700BFF7
:1026800000000020270000205C250000280000201A
:10269000340000200C260000FFFFFFFFFFFFFFFFBC
:1026A000FFFFFFFFFFFFFFFFFFFFFFFFFFFFFFFF3A
:1026B000FFFFFFFFFFFFFFFFFFFFFFFFFFFFFFFF2A
:1026C000FFFFFFFFFFFFFFFFFFFFFFFFFFFFFFFF1A
:1026D000FFFFFFFFFFFFFFFFFFFFFFFFFFFFFFFF0A
:1026E000FFFFFFFFFFFFFFFFFFFFFFFFFFFFFFFFFA
:1026F000FFFFFFFF00B5DFF810B0DFF810A0FFF715
:102700008DFC00BD704700BF00000020A800002025
:00000001FF
