:10000000FCFF0320C9270000812700008127000092
:100010008127000081270000812700008127000040
:100020008127000081270000812700008127000030
:100030008127000081270000812700008127000020
:100040008127000081270000812700008127000010
:100050008127000081270000812700008127000000
:1000600081270000812700008127000081270000F0
:1000700081270000812700008127000081270000E0
:1000800081270000812700008127000081270000D0
:1000900081270000812700008127000081270000C0
:1000A00081270000812700008127000081270000B0
:1000B00081270000812700008127000081270000A0
:1000C0008127000081270000812700008127000090
:1000D0008127000081270000812700008127000080
:1000E0008127000081270000812700008127000070
:1000F0008127000081270000812700008127000060
:10010000812700008127000081270000812700004F
:10011000812700008127000081270000812700003F
:10012000812700008127000081270000812700002F
:10013000812700008127000081270000812700001F
:10014000812700008127000081270000812700000F
:1001500081270000812700008127000081270000FF
:1001600081270000812700008127000081270000EF
:1001700081270000812700008127000081270000DF
:1001800081270000812700008127000081270000CF
:1001900081270000812700008127000081270000BF
:1001A00081270000812700008127000081270000AF
:1001B000812700008127000081270000812700009F
:1001C000812700008127000081270000812700008F
:1001D000812700008127000081270000812700007F
:1001E000812700008127000081270000812700006F
:1001F000812700008127000081270000812700005F
:080200008127000081270000A6
:1027C80000F010F8FFF7DCFF00F04CFBFFF7EEFF1E
:1027D80000F008FBFFF7D8FEFFF78AFFFFF7FCFEC3
:0427E800FCE7FEE725
:10276C0081B01CF8019B0BF8019BBBEB0A0FF8D155
:04277C0001B07047F1
:1027300081B04FF000094FF0000CBDEB0A0F04DC34
:10274000BDEB0B0F01DBD446EA464BF8049BBBEB19
:102750000A0FFAD1BCEB0A0F05DDE246D9F800B04A
:0A2760000BF1040BF1E701B0704724
:1025900081B0CDF800E0002207210020FFF7D4FF32
:1025A000012201210020FFF7CFFF0C480146002047
:1025B000FFF78EFF42F280512020FFF7A1FF40F687
:1025C000FE07C0F23D0700BF00BF7F1EFDD100BF68
:1025D00000BF00BFDDF800E001B070478C250000AF
:1025480081B0CDF800E05FFA81FA5FFA82FB0FE014
:102558005FFA8BF15FFA8AF0FFF7E0FC0DE05FFAB3
:102568008BF15FFA8AF0FFF7A1FD06E0012004E095
:102578000028EDD00128F2D0F8E7DDF800E001B03E
:0225880070479A
:101F240081B0CDF800E091E0012904D110215A4894
:101F3400FFF778FA03E010215748FFF7C1FAA5E04C
:101F4400012904D101215448FFF76CFA03E001216F
:101F54005148FFF7B5FA99E0012904D101214F480E
:101F6400FFF760FA03E001214C48FFF7A9FA8DE07E
:101F7400012904D104214A48FFF754FA03E004215B
:101F84004748FFF79DFA81E0012904D11021444814
:101F9400FFF748FA03E010214148FFF791FA75E092
:101FA400012904D120213E48FFF73CFA03E0202117
:101FB4003B48FFF785FA69E0012904D1012139483A
:101FC400FFF730FA03E001213648FFF779FA5DE0C4
:101FD400012904D110213448FFF724FA03E0102129
:101FE4003148FFF76DFA51E0012904D140212F480F
:101FF400FFF718FA03E040212C48FFF761FA45E0A7
:10200400012904D180212948FFF70CFA03E080213B
:102014002648FFF755FA39E0012904D104211F4865
:10202400FFF700FA03E004211C48FFF749FA2DE00A
:10203400012904D108211948FFF7F4F903E0082124
:102044001648FFF73DFA21E0012020E000283FF484
:102054006BAF01283FF474AF02283FF47DAF03282F
:102064003FF486AF04283FF48FAF05283FF498AFC0
:1020740006283FF4A1AF0728AAD00828B4D009281D
:10208400BED00A28C8D00B28D2D0DDE70020DDF866
:1020940000E001B0704700BF00C00540009005405B
:1020A4000080054000B0054000D0054000A0054078
:1014280081B0CDF800E0002440F240031BB240F246
:10143800001212B21A4393B2002210B4FFF7E6FB6F
:0A14480001B0DDF800E001B07047CC
:100C140082B0CDF800E05FFA81F8D5B29FB29DF8BA
:100C24000830F54C00EA0404A1462046FFF7D6FB41
:100C3400F24CA54208D109F580666FEA0805EDB2C9
:100C440034682C40346008E0ED4CA54205D109F528
:100C540080652C6844EA08042C6040F2010407EA29
:100C64000404A4B234B109F5A2652C6844EA08046A
:100C74002C6007E009F5A2666FEA0805EDB2346856
:100C84002C40346040F2020407EA0404A4B234B1F4
:100C940009F214552C6844EA08042C6007E009F2B0
:100CA40014566FEA0805EDB234682C40346040F203
:100CB400080407EA0404A4B234B109F20C552C6800
:100CC40044EA08042C6007E009F20C566FEA0805B0
:100CD400EDB234682C40346040F2100407EA040496
:100CE400A4B234B109F5A0652C6844EA08042C6068
:100CF40007E009F5A0666FEA0805EDB234682C40F8
:100D0400346040F2200407EA0404A4B234B109F2C6
:100D140004552C6844EA08042C6007E009F20456E0
:100D24006FEA0805EDB234682C40346040F24004A8
:100D340007EA0404A4B234B109F5A1652C6844EAB5
:100D440008042C6007E009F5A1666FEA0805EDB216
:100D540034682C40346041F2000407EA0404A4B26D
:100D6400012C13D042F2000407EA0404A4B2012CBB
:100D74000CD044F2000407EA0404A4B2012C05D008
:100D8400DEB24B46B8B25FFA88F53CE0002000269C
:100D9400DAB2BBB207465FFA88F04946082E13D28E
:100DA40020FA06F4E4B204F00104E4B24CB1750094
:100DB4002DB2032424B2AC4024B247EA04052F46E2
:100DC400FFE7761CF6B2E9E701F6C476FD43346822
:100DD4002C40346001F23C56C543EDB234682C40DB
:100DE400346001F5A166C543EDB234682C4034602B
:100DF40001F20456C543EDB234682C403460C5B2E8
:100E040098B20B46D6B2002141F2000400EA040471
:100E1400A4B23CB300220F46E9B2082A13D221FA45
:100E240002F4E4B204F00104E4B24CB155002DB272
:100E3400012424B2AC4024B247EA04052F46FFE75C
:100E4400521CD2B2E9E703F6C4752C683C432C600B
:100E540003F5A1652C680C432C603D461F4683B204
:100E6400C8B203E01F4683B2E8B20D4642F2000462
:100E740003EA0404A4B26CB30022A8463946082A43
:100E840013D220FA02F4E4B204F00104E4B24CB147
:100E940055002DB2032424B2AC4024B248EA040520
:100EA400A846FFE7521CD2B2E9E701F6C4752C68E4
:100EB40044EA08042C6001F23C552C6804432C607D
:100EC40001F5A1652C6804432C60F7B20E46C2B24A
:100ED40098B205E00197C2B298B2F7B2A846019E53
:100EE40044F2000400EA0404A4B284B30023D1B29F
:100EF400082B14D221FA03F4E4B204F00104E4B29E
:100F040054B15D002DB2032424B2AC4024B248EAAB
:100F1400040422469046FFE75B1CDBB2E8E706F6D2
:100F2400C4752C6844EA08042C6006F23C552C680D
:100F34000C432C6006F5A1652C680C432C6006F26A
:100F440004552C680C432C60FBB2324602E0D1B24B
:100F54003246FBB240F2800400EA0404A4B274B145
:100F640040F2400400EA0404A4B22CB102F5A365E3
:100F74002C680C432C6001E00120FAE006E002F545
:100F8400A366CD43EDB234682C40346040F20014C3
:100F940000EA0404A4B22CB102F21C552C680C43E0
:100FA4002C6006E002F21C56CD43EDB234682C40AE
:100FB400346040F2002400EA0404A4B2002C3AD0C5
:100FC400104CA24240F2000500D001250E4CA24272
:100FD40040F2000400D0012425400C4CA24240F20F
:100FE400000400D001242540094CA24240F2000430
:100FF40000D0012425400DE000F0FFFF00000000B8
:101004000100000000C0054000B00540009005400C
:1010140000100640594CA24240F2000400D00124C2
:1010240005EA04040CB10120A3E002F5A5652C68CF
:101034000C432C602AE0524CA24240F2000500D13D
:101044000125504CA24240F2000400D10124254362
:101054004D4CA24240F2000400D1012425434B4CE4
:10106400A24240F2000400D101242543434CA24291
:1010740040F2000400D1012445EA040434B102F52D
:10108400A566CD43EDB234682C40346040F60004CC
:1010940000EA0404A4B22CB102F5A6652C680C4342
:1010A4002C6006E002F5A666CD43EDB234682C4010
:1010B400346040F2004400EA0404A4B22CB102F506
:1010C40084652C680C432C6006E002F58466CD43ED
:1010D400EDB234682C4034600BB9002049E00F2B8A
:1010E40001D9012045E0002700208DF80430C3B267
:1010F40010469DF80420082B12D221FA03F4E4B21E
:1011040004F00104E4B244B19D002DB24FF00F0489
:10111400AC4047EA04052F46FFE75B1CDBB2EAE775
:1011240000F22C56FD4334682C4034600026002322
:101134008DF80430CBB29DF80410082913D223FA99
:1011440001F4E4B204F00104E4B24CB1D5B28C0071
:1011540024B205FA04F446EA040425462E46FFE7C1
:10116400491CC9B2E9E700F22C552C6834432C60C1
:101174000020DDF800E002B0704700BF00500640D8
:1011840000C0054000B00540009005400010064036
:1003E00081B0664900EA010108467DE06449096878
:1003F00041F0010262490A60BEE06149096841F0CA
:1004000002025F490A60B7E05D49096841F00402F1
:100410005B490A60B0E05A49096841F0080258494E
:100420000A60A9E05649096841F0100254490A607F
:10043000A2E05349096841F0200251490A609BE05B
:100440004F49096841F040024D490A6094E04C4927
:10045000096841F080024A490A608DE0484909680C
:1004600041F4807246490A6086E04549096841F4D2
:10047000007243490A607FE04149096841F48062A3
:100480003F490A6078E03E49096841F400623C490E
:100490000A6071E03A49096841F4805238490A60BB
:1004A0006AE03749096841F4005235490A6063E05F
:1004B0003349096841F4804231490A605CE03049BF
:1004C000096841F400422E490A6055E02C49096848
:1004D00041F480322A490A604EE02949096841F412
:1004E000003227490A6047E0264988423FF47EAF40
:1004F000254988423FF481AF244988423FF484AFC4
:10050000234988423FF487AF224988423FF48AAFAB
:10051000214988423FF48DAF204988423FF490AF93
:100520001F4988423FF493AF1E4988423FF496AF7B
:100530001D4988423FF499AF1C4988423FF49CAF63
:100540001B4988423FF49FAF1A4988423FF4A2AF4B
:10055000194988423FF4A5AF184988423FF4A8AF33
:10056000174988423FF4ABAF164988423FF4AEAF1B
:10057000154988423FF4B1AF01B0704700F0FFFF6A
:1005800008E60F40008005400090054000A00540AF
:1005900000B0054000C0054000D0054000E0054027
:1005A00000F0054000000640001006400020064014
:1005B0000030064000400640005006400060064003
:0C05C000007006400080064000900640DD
:1014C40081B0CDF800E0002440F240031BB240F2AA
:1014D400001212B21A4393B2012210B4FFF798FB20
:0A14E40001B0DDF800E001B0704730
:1020B40081B0CDF800E091E0012904D120215A48F3
:1020C400FFF7B0F903E020215748FFF7F9F9A5E03D
:1020D400012904D102215448FFF7A4F903E00221A5
:1020E4005148FFF7EDF999E0012904D120214F4827
:1020F400FFF798F903E020214C48FFF7E1F98DE060
:10210400012904D104214A48FFF78CF903E0042192
:102114004748FFF7D5F981E0012904D1102144484B
:10212400FFF780F903E010214148FFF7C9F975E092
:10213400012904D120213E48FFF774F903E020214E
:102144003B48FFF7BDF969E0012904D10221394870
:10215400FFF768F903E002213648FFF7B1F95DE0C3
:10216400012904D140213348FFF75CF903E0402101
:102174003048FFF7A5F951E0012904D110212E4878
:10218400FFF750F903E010212B48FFF799F945E0D8
:10219400012904D120212848FFF744F903E0202134
:1021A4002548FFF78DF939E0012904D104211F489E
:1021B400FFF738F903E004211C48FFF781F92DE00B
:1021C400012904D108211948FFF72CF903E008215B
:1021D4001648FFF775F921E0012020E000283FF4BC
:1021E4006BAF01283FF474AF02283FF47DAF03289E
:1021F4003FF486AF04283FF48FAF05283FF498AF2F
:1022040006283FF4A1AF0728AAD00828B4D009288B
:10221400BED00A28C8D00B28D2D0DDE70020DDF8D4
:1022240000E001B0704700BF00C0054000900540C9
:0C2234000080054000B0054000A00540FF
:1024D00081B0CDF800E009E00846FFF7B1FE0AE060
:1024E0000846FFF7A5FC06E0012004E00028F3D031
:0E24F0000128F5D0F8E7DDF800E001B07047F4
:1022400081B0CDF800E0016808460449FFF750F975
:102250000020DDF800E001B0704700BF1C2900003D
:1014F00081B0CDF800E00A4601460348FFF78EF9B7
:0C150000DDF800E001B070470000024080
:10081C0083B0CDF800E001920A46014601985C4B8A
:10082C00994216D100245B4B1C60012464B25A4BD4
:10083C001C605A4C5A4B1C605A4C5B4B1C605B4CFA
:10084C005B4B1C605B4C5C4B1C605C4C5C4B1C60E5
:10085C0065E15C4B994216D100245B4B1C60012472
:10086C0064B25A4B1C605A4C4D4B1C60594C4E4B4D
:10087C001C60594C4E4B1C60584C4F4B1C60584CD8
:10088C004F4B1C604BE1574B994216D10024564BF1
:10089C001C60012464B2554B1C60554C404B1C60D1
:1008AC00544C414B1C60544C414B1C60534C424BC0
:1008BC001C60534C424B1C6031E1524B994216D197
:1008CC000024514B1C60012464B2504B1C60504CF2
:1008DC00334B1C604F4C344B1C604F4C344B1C60E6
:1008EC004E4C354B1C604E4C354B1C6017E14D4B40
:1008FC00994216D100244C4B1C60012464B24B4B22
:10090C001C604B4C264B1C604A4C274B1C604A4CC1
:10091C00274B1C60494C284B1C60494C284B1C60D5
:10092C00FDE0484B994216D10024474B1C60012432
:10093C0064B2464B1C60464C194B1C60454C1A4B20
:10094C001C60454C1A4B1C60444C1B4B1C60444CAB
:10095C001B4B1C60E3E0434B994216D10024424BE5
:10096C001C60012464B2414B1C60414C0C4B1C605C
:10097C00404C0D4B1C60404C0D4B1C603F4C0E4BC7
:10098C001C603F4C0E4B1C60C9E03E4B99427BE017
:10099C00000002402800002000C4FC43FFFFFFFFC2
:1009AC00C400002055180000C8000020351A0000B3
:1009BC00CC00002005170000D0000020FFFFFFFF37
:1009CC00D4000020001002402C00002004C4FC4382
:1009DC00FFFFFFFFC5180000E91600008D14000092
:1009EC00FFFFFFFF002002403000002008C4FC4342
:1009FC00FFFFFFFFA918000021170000A914000039
:100A0C00FFFFFFFF00300240340000200CC4FC4309
:100A1C00FFFFFFFF8D180000591700007114000034
:100A2C00FFFFFFFF00000C403800002010C4FC4307
:100A3C00FFFFFFFFC91700003D170000F115000074
:100A4C00FFFFFFFF00100C403C00002014C4FC43CF
:100A5C00FFFFFFFFAD170000CD1600000D160000C4
:100A6C00FFFFFFFF00200C404000002018C4FC4397
:100A7C00FFFFFFFF9117000061160000D515000065
:100A8C00FFFFFFFF00300C4016D10024414B1C60CF
:100A9C00012464B2404B1C60404C414B1C60414CE7
:100AAC00414B1C60414C424B1C60424C424B1C6005
:100ABC00424C434B1C6032E0424B994216D100240D
:100ACC00414B1C60012464B2404B1C60404C344BC5
:100ADC001C60404C344B1C603F4C354B1C603F4CF5
:100AEC00354B1C603E4C364B1C6018E03D4B99421C
:100AFC0015D100243C4B1C60012464B23B4B1C60A0
:100B0C003B4C274B1C603B4C274B1C603A4C284BF6
:100B1C001C603A4C284B1C60394C294B1C600192D0
:100B2C000291FFF707FC0299019A01F220041023AD
:100B3C002360344B9A4207D106260D1D01242B68E5
:100B4C0064F304132B6006E014260D1D00242B689F
:100B5C0064F304132B60FFF737FC40F2E83300FB1F
:100B6C0003F506FB02F4B5FBF4F318466343EB1AEA
:100B7C000BB9401EFFE77F2801D97F20FFE7012832
:100B8C0001D20120FFE701F20C031860DDF800E050
:100B9C0003B07047440000201CC4FC43FFFFFFFF60
:100BAC00C40000201D180000C800002045160000DD
:100BBC00CC000020FD190000D0000020FFFFFFFF3B
:100BCC00D400002000800B404800002020C4FC43CF
:100BDC00FFFFFFFF011800007D160000E118000068
:100BEC00FFFFFFFF00900B404C00002024C4FC438F
:100BFC00FFFFFFFFE5170000B1160000E119000030
:080C0C00FFFFFFFFD0CF320013
:1003400081B0CDF800E040F2000B82460AF1D801FE
:1003500009788B4539D20C210BFB01F10AEB010125
:100360008C460CF108010978A9B90CF1080109784B
:10037000CCB20CF1060109888BB20CF104010978AA
:10038000CAB2DCF800100846D1B2002210B400F066
:1003900041FC01B014E00CF108010978CCB20CF179
:1003A000060109888BB20CF104010978CAB2DCF8A5
:1003B00000100846D1B20F2210B400F02BFC01B09F
:1003C0000BF1010B5FFA8BFBC0E7DDF800E001B039
:0203D000704774
:0C03D40001480068704700BF980000203E
:101E300081B0CDF800E0016808460449FFF758FB7F
:101E40000020DDF800E001B0704700BF1C29000051
:1025000081B0CDF800E011E00846FFF7A1FC16E02D
:102510000846FFF7E3FB12E00846FFF7C9FC0EE0B0
:102520000846FFF7B3FC0AE0012008E00028EBD0E2
:102530000128EDD02028EFD03028F1D0F4E7DDF8E5
:0625400000E001B070474D
:101E500081B0CDF800E0FFF75FFD044A04490A6055
:101E60000020DDF800E001B0704700BF3918000025
:041E700080000020CE
:1019180082B0CDF800E00346214A22490A60224AF3
:1019280022490A60224A23490A60234A23490A6055
:1019380001932348FEF700FD019B012252B2214981
:101948000A6000BF00BF00BFFEF752FFFEF73EFD72
:1019580040F2E83100FB01F210461901914205D925
:10196800012252B218490A605A0804E0002252B211
:1019780015490A601A46C100B1FBF2F1491C4B082F
:101988009A0912490A6003F03F0211490A6060226D
:1019980010490A60FEF716FEDDF800E002B0704755
:1019A80039180000D8000020FFFFFFFFDC000020EE
:1019B800FFFFFFFFE0000020FFFFFFFFE400002023
:1019C800F829000014C3FC431406224224100140E5
:0819D800281001402C10014011
:1007F80081B0002149B204480160044801600448FE
:10080800016001B0704700BF000622422006224264
:04081800240622424E
:1005CC0081B0012149B2044801600448016004482B
:1005DC00016001B0704700BF000622422006224293
:0405EC00240622427D
:101CDC0081B0CDF800E0FFF7B5FE044A04490A6074
:101CEC000020DDF800E001B0704700BFFD180000D7
:041CFC008000002044
:101A500082B0CDF800E00346214A22490A60224ABA
:101A600022490A60224A23490A60234A23490A601C
:101A700001932348FEF764FC019B012252B22149E5
:101A80000A6000BF00BF00BFFFF7AAFCFEF7A2FC80
:101A900040F2E83100FB01F210461901914205D9EC
:101AA000012252B218490A605A0804E0002252B2D8
:101AB00015490A601A46C100B1FBF2F1491C4B08F6
:101AC0009A0912490A6003F03F0211490A60602234
:101AD00010490A60FFF796FCDDF800E002B070479D
:101AE000FD180000D8000020FFFFFFFFDC000020F1
:101AF000FFFFFFFFE0000020FFFFFFFFE4000020EA
:101B0000D42A00001CC3FC431406264224300140A2
:081B1000283001402C30014097
:1013E00081B0002149B2044801600448016004480A
:1013F000016001B0704700BF000626422006264269
:041400002406264256
:1014040081B0012149B204480160044801600448E4
:10141400016001B0704700BF000626422006264244
:041424002406264232
:101EB00081B0CDF800E0FFF729FB044A04490A602D
:101EC0000020DDF800E001B0704700BF751700008A
:041ED000800000206E
:10150C0082B0CDF800E00346214A22490A60224A03
:10151C0022490A60224A23490A60234A23490A6065
:10152C0001932348FEF706FF019B012252B2214989
:10153C000A6000BF00BF00BFFFF728FFFEF744FFA3
:10154C0040F2E83100FB01F210461901914205D935
:10155C00012252B218490A605A0804E0002252B221
:10156C0015490A601A46C100B1FBF2F1491C4B083F
:10157C009A0912490A6003F03F0211490A6060227D
:10158C0010490A60FFF714FFDDF800E002B0704765
:10159C0075170000D8000020FFFFFFFFDC000020C3
:1015AC00FFFFFFFFE0000020FFFFFFFFE400002033
:1015BC00B02B000008C3FC4314061C4224E000407E
:0815CC0028E000402CE0004083
:1013980081B0002149B20448016004480160044852
:1013A800016001B0704700BF00061C4220061C42C5
:0413B80024061C42A9
:1013BC0081B0012149B2044801600448016004482D
:1013CC00016001B0704700BF00061C4220061C42A1
:0413DC0024061C4285
:101E8C0081B0CDF800E0FFF7DDFD044A04490A609B
:101E9C000020DDF800E001B0704700BFFD18000025
:041EAC008000002092
:1026F80081B0CDF800E0252209490A48FFF7ACFD72
:1027080041F6FE27C0F2B7077F1EFDD100BF00BF0C
:1027180000BF00BF00BFDDF800E001B0704700BF98
:08272800C02D00008C2C000004
:1022600081B0CDF800E00446054B1A700846FFF730
:1022700043FE2046FFF72EFEDDF800E001B0704778
:0422800051000020E9
:101EF80081B0026806490A60011D0A6805490A603E
:101F080000F208010A6804490A6001B0704700BF7E
:0C1F1800840000208C00002088000020C5
:101ED40081B000F23001091D0A6804490A6000F269
:101EE4001C010A6802490A6001B070479000002092
:041EF4009400002036
:1025E00081B0CDF800E048F27E47C0F21E0700BF80
:1025F00000BF7F1EFDD100BF00BF00BF30491020CB
:10260000FFF70EFF2E48007800F00100C0B200284E
:1026100030D02C480221FFF723FF2B48FFF7D4FED0
:10262000294800882949FFF7A7FE29480121FFF71B
:1026300017FF02212548FFF713FF2648007823499A
:10264000FFF79AFE24480121FFF70AFF02211F48E5
:10265000FFF706FF21480221FFF702FF48F27E47FD
:10266000C0F21E0700BF00BF7F1EFDD100BF00BF2C
:1026700000BF20E01248007800F00200C0B2D0B1E4
:1026800048F27E47C0F21E077F1EFDD100BF00BF8B
:1026900000BF00BF00BF0A491420FFF7C1FE084871
:1026A000007840B1064800780849FFF7EBFD0221A9
:1026B0000648FFF7D5FEDDF800E001B0704700BF27
:1026C0005000002000000020520000205600002092
:1026D00001000020540000200E0000201B000020FC
:1024200083B0CDF800E002918DF80400FFF722FDA3
:1024300001AB0A4A127819460123D0B20122FFF7F4
:102440005FFC064A127800230299D0B20122FFF7FE
:1024500081FBDDF800E003B0704700BF51000020B1
:101E740081B040F2000212B201210248017010B296
:081E840001B0704727000020A7
:101D000085B0CDF800E0ADF80C200A468DF8103013
:101D100040F20004ADF808401146424C247854B11A
:101D200001910021404C2468A0470199FFF7B4FCC1
:101D300000253C4C2570BDF80C40012C0DD10C78D1
:101D40000721E0B2394C2468A047BDF9084004439C
:101D5000ADF80840FFF7A0FC57E0BDF80C40022C9E
:101D60001CD10C7801910321E0B2304C2468A047CB
:101D70000199BDF908400443ADF808404C1C2046C9
:101D8000FFF78AFC04780521E0B2284C2468A047BC
:101D9000BDF908400443ADF8084036E00C780191E5
:101DA0000321E0B2214C2468A0470199BDF9084005
:101DB0000443ADF808404B1CFFF76EFC1946BDF814
:101DC0000C40641EA4B2ADF80C40012C12D90C7862
:101DD00001910121E0B2154C2468A0470199BDF999
:101DE00008400443ADF808404C1C2346FFF754FC60
:101DF0001946E4E70C780521E0B20C4C2468A047B2
:101E0000BDF908400443ADF808409DF81040012C8E
:101E100002D10125034C2570BDF90800DDF800E072
:101E200005B0704727000020840000208C000020AF
:1018540081B0CDF800E0CAB2C1B20348FEF7C2FFBE
:0C186400DDF800E001B070470000024019
:1007E80081B04B009BB213439BB2036001B07047CA
:1018C40081B0CDF800E0CAB2C1B20348FEF78AFF86
:0C18D400DDF800E001B070470010024099
:1018A80081B0CDF800E0CAB2C1B20348FEF798FF94
:0C18B800DDF800E001B0704700200240A5
:10188C0081B0CDF800E0CAB2C1B20348FEF7A6FFA2
:0C189C00DDF800E001B0704700300240B1
:1017C80081B0CDF800E0CAB2C1B20348FFF708F80B
:0C17D800DDF800E001B0704700000C409C
:1017AC0081B0CDF800E0CAB2C1B20348FFF716F819
:0C17BC00DDF800E001B0704700100C40A8
:1017900081B0CDF800E0CAB2C1B20348FFF724F827
:0C17A000DDF800E001B0704700200C40B4
:10181C0081B0CDF800E0CAB2C1B20348FEF7DEFFDA
:0C182C00DDF800E001B0704700300C4017
:1018000081B0CDF800E0CAB2C1B20348FEF7ECFFE8
:0C181000DDF800E001B0704700800B40E4
:1017E40081B0CDF800E0CAB2C1B20348FEF7FAFFF7
:0C17F400DDF800E001B0704700900B40F1
:101A340081B0CDF800E0CAB2C1B20348FEF7D6FDCA
:0C1A4400DDF800E001B070470000024037
:1005F00082B0CDF800E04FF000045D4B984205D189
:100600005C4B1D685C4B1B6801935BE05B4B984245
:1006100006D15B4B1C685B4B1B680193254651E080
:10062000594B984206D1594B1C68594B1B68019392
:10063000234646E0574B984206D1574B1C68574B10
:100640001B68019323463CE0554B984206D1554B1D
:100650001C68554B1B680193234632E0534B98426C
:1006600006D1534B1C68534B1B680193234628E06B
:10067000514B984206D1514B1C68514B1B6801935A
:1006800023461EE04F4B984206D14F4B1C684F4B00
:100690001B680193234614E04D4B984206D14D4B05
:1006A0001C684D4B1B68019323460AE04B4B984254
:1006B00006D14B4B1C684B4B1B680193234600E053
:1006C00023461D4600F208031960072A05D0032AB5
:1006D00003D004462846D1B215E02E46D1B20246D8
:1006E0002846131D1C68C4F380135BB148B126B9BA
:1006F0000420019CA047012036E0731E1C462646BC
:10070000FFE7EEE71446231D1960FFF7DDFDFFF755
:10071000DBFDFFF7D9FD024625462B1D1C68C4F3FF
:1007200000034BB138B122B90420019CA04701203D
:100730001AE0521EFFE7F0E72B1D1C68C4F34003CC
:100740006BB1012902D0032900D008E02B1D1C68E1
:10075000C4F300131BB92C1D40F2040323602B1DAE
:100760001C68C4F34003D8B2DDF800E002B0704763
:1007700000000240280000209C00002000100240E1
:100780002C000020A00000200020024030000020AB
:10079000A40000200030024034000020A800002007
:1007A00000000C4038000020AC00002000100C407D
:1007B0003C000020B000002000200C404000002041
:1007C000B400002000300C4044000020B80000209D
:1007D00000800B4048000020BC00002000900B402F
:0807E0004C000020C0000020C5
:0C02680001490860704700BF907FB84259
:0C025C0001490860704700BF807FB84275
:0C02500001490860704700BF807FB24287
:0C028C0001490860704700BF887FB04245
:0C02800001490860704700BF907FB04249
:0C02740001490860704700BF947FB04251
:0C02200001490860704700BF807FB642B3
:0C02140001490860704700BF907FBA42AB
:0C02080001490860704700BF987FB442B5
:0C02440001490860704700BF9C7FB44275
:0C02380001490860704700BF887FB24297
:0C022C0001490860704700BF8C7FB2429F
:0C02980001490860704700BF947FB84225
:0C03100001490860704700BF847FB842BC
:0C03040001490860704700BF947FB242BE
:0C02F80001490860704700BF887FB042D9
:0C03340001490860704700BF907FB04294
:0C03280001490860704700BF947FB0429C
:0C031C0001490860704700BF847FB642B2
:0C02BC0001490860704700BF987FB642FF
:0C02B00001490860704700BF907FB44215
:0C02A40001490860704700BF947FB4421D
:0C02EC0001490860704700BF887FB242E3
:0C02E00001490860704700BF8C7FB242EB
:1002C80040F22607C0F200077F1EFDD100BF00BF25
:0802D80000BF00BF00BF70472A
:1016E80081B0CDF800E0CAB2C1B20348FEF77CFF72
:0C16F800DDF800E001B070470010024077
:1017200081B0CDF800E0CAB2C1B20348FEF760FF55
:0C173000DDF800E001B07047002002402E
:1017580081B0CDF800E0CAB2C1B20348FEF744FF39
:0C176800DDF800E001B0704700300240E6
:10173C0081B0CDF800E0CAB2C1B20348FEF752FF47
:0C174C00DDF800E001B0704700000C4028
:1016CC0081B0CDF800E0CAB2C1B20348FEF78AFF80
:0C16DC00DDF800E001B0704700100C4089
:1016600081B0CDF800E0CAB2C1B20348FEF7C0FFB6
:0C167000DDF800E001B0704700200C40E5
:1016440081B0CDF800E0CAB2C1B20348FEF7CEFFC4
:0C165400DDF800E001B0704700300C40F1
:10167C0081B0CDF800E0CAB2C1B20348FEF7B2FFA8
:0C168C00DDF800E001B0704700800B406A
:1016B00081B0CDF800E0CAB2C1B20348FEF798FF8E
:0C16C000DDF800E001B0704700900B4026
:1016980049F63E47C0F200077F1EFDD100BF00BFDC
:0816A80000BF00BF00BF704746
:101B540085B0CDF800E0ADF80C200A468DF81030C1
:101B640040F20004ADF8084011463F4C247854B1CB
:101B7400019101213D4C2468A0470199FFF78AFD9A
:101B84000025394C2570BDF80C40012C0CD10846B9
:101B94000721374C2468A047BDF908400443ADF839
:101BA4000840FFF777FD51E0BDF80C40022C19D135
:101BB400019108460B212E4C2468A0470199BDF9D8
:101BC40008400443ADF808404C1C2046FFF762FD72
:101BD4000521274C2468A047BDF908400443ADF80B
:101BE400084033E0019108460B21214C2468A047AA
:101BF4000199BDF908400443ADF808404B1CFFF7B8
:101C040049FD1946BDF80C40641EA4B2ADF80C4061
:101C1400012C11D9019108460921154C2468A047CB
:101C24000199BDF908400443ADF808404C1C234613
:101C3400FFF730FD1946E5E7084605210C4C2468FA
:101C4400A047BDF908400443ADF808409DF8104092
:101C5400012C02D10125044C2570BDF90800DDF8E2
:101C640000E005B0704700BF27000020840000207A
:041C740088000020C4
:1017040081B0CDF800E0CAB201460348FFF740FDBE
:0C171400DDF800E001B07047000002406A
:1011940084B0CDF800E0044603914FF000030293BD
:1011A4005E4B9C4206D15E4B1B6802935D4B1B68F1
:1011B400019358E05C4B9C4206D15C4B1B68029344
:1011C4005B4B1B6801934EE05A4B9C4206D15A4B31
:1011D4001B680293594B1B68019344E0584B9C4293
:1011E40006D1584B1B680293574B1B6801933AE096
:1011F400564B9C4206D1564B1B680293554B1B68B9
:10120400019330E0544B9C4206D1544B1B6802932B
:10121400534B1B68019326E0524B9C4206D1524B20
:101224001B680293514B1B6801931CE0504B9C427A
:1012340006D1504B1B6802934F4B1B68019312E07D
:101244004E4B9C4206D14E4B1B6802934D4B1B6880
:10125400019308E04C4B9C4205D14C4B1B68029314
:101264004B4B1B680193072A03D00B2A01D020465D
:1012740017E0029E2046D1B2031D1C68C4F38013FC
:1012840073B1029B4BB126B90320019CA0470120F6
:1012940040E0731E1A46134600E033461E46EBE751
:1012A400CAB2031D1A60FFF70DF8FFF70BF8FFF73A
:1012B40009F8029E031D1C68C4F3000363B1029B7A
:1012C4003BB126B90320019CA047012022E0711EF6
:1012D40000E031460E46EDE7031D1C68C4F34003ED
:1012E40073B1092A02D00B2A00D008E0031D1C6840
:1012F400C4F300131BB9041D40F20403236004E08B
:1013040000F208031C68039B1C70031D1C68C4F3D3
:101314004003D8B2DDF800E004B07047000002409A
:10132400280000209C000020001002402C00002017
:10133400A00000200020024030000020A400002073
:101344000030024034000020A800002000000C40BF
:1013540038000020AC00002000100C403C000020AD
:10136400B000002000200C4040000020B400002009
:1013740000300C4044000020B800002000800B40E6
:1013840048000020BC00002000900B404C000020CE
:04139400C000002075
:10148C0081B0CDF800E0CAB201460348FFF77CFEFC
:0C149C00DDF800E001B0704700100240D5
:1014A80081B0CDF800E0CAB201460348FFF76EFEEE
:0C14B800DDF800E001B0704700200240A9
:1014700081B0CDF800E0CAB201460348FFF78AFE0A
:0C148000DDF800E001B0704700300240D1
:1015F00081B0CDF800E0CAB201460348FFF7CAFD4A
:0C160000DDF800E001B0704700000C4075
:10160C0081B0CDF800E0CAB201460348FFF7BCFD3B
:0C161C00DDF800E001B0704700100C4049
:1015D40081B0CDF800E0CAB201460348FFF7D8FD58
:0C15E400DDF800E001B0704700200C4072
:1019FC0081B0CDF800E0CAB201460348FFF7C4FB42
:0C1A0C00DDF800E001B0704700300C4035
:1018E00081B0CDF800E0CAB201460348FFF752FCD0
:0C18F000DDF800E001B0704700800B4004
:1019E00081B0CDF800E0CAB201460348FFF7D2FB50
:0C19F000DDF800E001B0704700900B40F3
:1024600083B0CDF800E0024610460D228DF808201A
:102470000A228DF809201FE0FFF75CFB23E00278B9
:102480002AB10190FFF756FB0198401CF7E71AE0CC
:1024900002782AB10190FFF74DFB0198401CF7E745
:1024A00002AA1046FFF746FB0DF109021046FFF79E
:1024B00041FB08E0062007E00029DDD00129DED03D
:1024C0000229E5D0F6E70020DDF800E003B0704710
:101B340081B0CDF800E00178CCB2A0B2034C2468A7
:101B4400A0470020DDF800E001B0704780000020CD
:1018700081B00449096801B1FBE70349086001B080
:0C188000704700BF1403184200C0004075
:101B180081B00449096801B1FBE70349086001B0D5
:0C1B2800704700BF14031A4200D00040B8
:1017740081B00449096801B1FBE70349086001B07D
:0C178400704700BF14031C4200E000404E
:1014540081B00449096801B1FBE70349086001B0A0
:0C146400704700BF14031E4200F000405F
:1016280081B00449096801B1FBE70349086001B0CA
:0C163800704700BF140320420000014076
:1018380081B00449096801B1FBE70349086001B0B8
:0C184800704700BF140322420010014052
:101A180081B00449096801B1FBE70349086001B0D6
:0C1A2800704700BF14032442002001405E
:1018FC0081B00449096801B1FBE70349086001B0F4
:0C190C00704700BF140326420030014069
:1023C80083B0CDF800E002A9019003221120FFF7A5
:1023D8004FFC019802AC217801800188CA0092B2B2
:1023E800A11C09780909C9B242EA01010180821CCD
:1023F800611C09781170831C1978CA0092B2A11C5B
:10240800097801F00F01C9B242EA01011970DDF83B
:0624180000E003B0704774
:101C780084B0CDF800E002918DF80C208DF80400B6
:101C880000F0F4F801AC0A4B1B7801222146D8B2C7
:101C9800012300F031F8064B1B789DF80C200299BF
:101CA800D8B20023FFF752FFDDF800E004B0704718
:041CB80051000020B7
:1023780081B00A4681B200208DB21146052805D2E7
:102388000B1820221A70401CC0B2F7E70B18002265
:102398001A70401EC0B20C180A23B5FBF3F203FBF7
:1023A800125292B2303222700A22B5FBF2F292B285
:1023B80095B202B902E0401EC0B2ECE701B0704726
:1022840081B0CDF800E00C4642E02F4A11462046CA
:10229400FFF712FD53E02D4A11462046FFF70CFDCF
:1022A4004DE02B4A11462046FFF706FD47E0294A38
:1022B40011462046FFF700FD41E0274A114620461B
:1022C400FFF7FAFC3BE0254A11462046FFF7F4FCF1
:1022D40035E0234A11462046FFF7EEFC2FE0214A61
:1022E40011462046FFF7E8FC29E01F4A1146204624
:1022F400FFF7E2FC23E01D4A11462046FFF7DCFC11
:102304001DE01B4A11462046FFF7D6FC17E016E0F5
:102314001128BAD02028BED01028C2D03128C6D067
:102324003228CAD04128CED04228D2D05128D6D083
:102334005228DAD06128DED06228E2D0E7E7DDF85F
:1023440000E001B0704700BF8B2D00009A2D000003
:10235400A72D0000D72D0000512D0000B42D000042
:102364003C2D0000E22D0000792D0000CC2D000052
:04237400652D0000D3
:101CBC0081B00246104613460A7822B10A781A708F
:0E1CCC005B1C491CF8E700221A7001B070473B
:1027EC0081B0CDF800E0344A344B354C354D364E83
:1027FC004FF03011354801600021354801606FF011
:10280C00010003EA000133480160C3F3C00018B9AA
:10281C00FFF760FFFFF75EFFC3F3000018B1012163
:10282C0049B22D4801602D48864203D92C492748CE
:10283C00016021E02B48864203D92B4923480160D3
:10284C001AE04CF25030864203D928491F480160E7
:10285C0012E047F23050864203D925491B480160EB
:10286C000AE0B6F57A5F03D922491848016003E003
:10287C004FF03011154801601F4804601F48056077
:10288C006FF0805002EA000111480160012149B249
:10289C001B4801601B48016002F0805038B11A4897
:1028AC00006800B9FBE7012149B218480160DDF866
:1028BC0000E001B0704700BF04003033110000008D
:1028CC001800800000000000C0D40100C0E00F40E0
:1028DC00B0E00F407CE00F40800FFC43A08601006D
:1028EC00960130008038010055013000D3003000D3
:1028FC00B20030007100300060E10F4064E10F4025
:10290C007C16FC437816FC43002DFC437016FC43EC
:1026E00041F67E27C0F206077F1EFDD100BF00BF66
:0826F00000BF00BF00BF7047EE
:1027B40081B002490248016001B07047C0D40100F1
:0427C4009800002059
:0827800081B0FEE701B07047D3
:1027880081B04EF68850CEF20000016841F4700125
:10279800016000BF00BF00BF00BFF1EE100A40F4A7
:0A27A8004000E1EE100A01B0704796
:102DEC0000B5DFF814B0DFF814A0DFF814C0FFF75B
:102DFC00B7FC00BD704700BF000000205000002051
:042E0C00EC2C0000AA
:102E6C0000B5DFF810B0DFF810A0FFF75BFC00BD79
:0C2E7C00704700BF00000020E8000020AC
:04258C00A086010024
:10291C0000900540040040050200000000900540B6
:10292C000800080502000000000000000000000084
:10293C00000000000000000000000000000000008B
:10294C00000000000000000000000000000000007B
:10295C00000000000000000000000000000000006B
:10296C00000000000000000000000000000000005B
:10297C00000000000000000000000000000000004B
:10298C00000000000000000000000000000000003B
:10299C00000000000000000000000000000000002B
:1029AC00000000000000000000000000000000001B
:1029BC00000000000000000000000000000000000B
:1029CC0000000000000000000000000000000000FB
:1029DC0000000000000000000000000000000000EB
:0C29EC00000000000000000002000000DD
:1029F80000F00540400040050100000000F00540DF
:102A080080004005010000000000000000000000F8
:102A180000000000000000000000000000000000AE
:102A2800000000000000000000000000000000009E
:102A3800000000000000000000000000000000008E
:102A4800000000000000000000000000000000007E
:102A5800000000000000000000000000000000006E
:102A6800000000000000000000000000000000005E
:102A7800000000000000000000000000000000004E
:102A8800000000000000000000000000000000003E
:102A9800000000000000000000000000000000002E
:102AA800000000000000000000000000000000001E
:102AB800000000000000000000000000000000000E
:0C2AC80000000000000000000200000000
:102AD40000A00540100040050100000000A00540D2
:102AE400200040050100000000000000000000007C
:102AF40000000000000000000000000000000000D2
:102B040000000000000000000000000000000000C1
:102B140000000000000000000000000000000000B1
:102B240000000000000000000000000000000000A1
:102B34000000000000000000000000000000000091
:102B44000000000000000000000000000000000081
:102B54000000000000000000000000000000000071
:102B64000000000000000000000000000000000061
:102B74000000000000000000000000000000000051
:102B84000000000000000000000000000000000041
:102B94000000000000000000000000000000000031
:0C2BA40000000000000000000200000023
:102BB00000B00540100040050100000000B00540D5
:102BC000200040050100000000000000000000009F
:102BD00000000000000000000000000000000000F5
:102BE00000000000000000000000000000000000E5
:102BF00000000000000000000000000000000000D5
:102C000000000000000000000000000000000000C4
:102C100000000000000000000000000000000000B4
:102C200000000000000000000000000000000000A4
:102C30000000000000000000000000000000000094
:102C40000000000000000000000000000000000084
:102C50000000000000000000000000000000000074
:102C60000000000000000000000000000000000064
:102C70000000000000000000000000000000000054
:0C2C800000000000000000000200000046
:102C8C00690200005D020000510200008D0200008C
:102C9C0081020000750200002102000015020000F4
:102CAC000902000045020000390200002D0200005C
:102CBC00FFFFFFFFFFFFFFFFFFFFFFFFFFFFFFFF18
:102CCC00FFFFFFFFFFFFFFFFFFFFFFFFFFFFFFFF08
:102CDC00FFFFFFFFFFFFFFFFFFFFFFFFFFFFFFFFF8
:0E2CEC0000506F736974696F6E20583A2000B3
:102CFA00506F736974696F6E20593A20002D2D2D1B
:0A2D0A002D2D2D2D2D2D2D2D000057
:042D140000000000BB
:042D180000000000B7
:042D1C0000000000B3
:042D200000000000AF
:042D240000000000AB
:042D280000000000A7
:042D2C0000000000A3
:042D3000000000009F
:042D3400000000009B
:042D38000000000097
:102D3C00526967687420537769706520616E6420EE
:102D4C00486F6C6400446F776E2053776970652010
:102D5C00616E6420486F6C64004C65667420537718
:102D6C0069706520616E6420486F6C64005570203A
:102D7C00537769706520616E6420486F6C64004302
:0E2D8C006C69636B20616E6420486F6C64009C
:102D9A00446F75626C6520436C69636B0053696E9E
:0A2DAA00676C6520436C69636B00E1
:0C2DB400526967687420537769706500ED
:0C2DC00055180000351A0000051700002F
:102DCC004C65667420537769706500446F776E208C
:062DDC00537769706500E9
:092DE200557020537769706500FB
:00000001FF
