:02000004000BEF
:10000000FCFF0020691B0B00111B0B00111B0B00D8
:10001000111B0B00111B0B00111B0B00111B0B0004
:10002000111B0B00111B0B00111B0B00111B0B00F4
:10003000111B0B00111B0B00111B0B00111B0B00E4
:10004000111B0B00111B0B00111B0B00111B0B00D4
:101B6800FFF7D6FF00F010F8FFF7E4FF00F0D4F914
:101B780000F05AF800F082F9FFF7F6FEFFF728FFA9
:081B8800FFF736FFFCE7FEE762
:101AFC0081B01CF8019B0BF8019BBBEB0A0FF8D1D2
:041B0C0001B070476D
:1019340081B04FF000094FF0000CBDEB0A0F04DC3E
:10194400BDEB0B0F01DBD446EA464BF8049BBBEB23
:101954000A0FFAD1BCEB0A0F05DDE246D9F800B054
:0A1964000BF1040BF1E701B070472E
:1019700081B0CDF800E0002207210020FFF7A6FF8C
:10198000012201210020FFF7A1FF0C4801460020A1
:10199000FFF784FF42F280510120FFF767FF46F610
:1019A000FE17C0F2180700BF00BF7F1EFDD100BFA9
:1019B00000BF00BFDDF800E001B07047801E0B00E3
:1018CC0081B0CDF800E05FFA81F95FFA82FA0FE09F
:1018DC005FFA8AF15FFA89F0FFF74AFC0DE05FFAD4
:1018EC008AF15FFA89F0FFF771FD06E0012004E050
:1018FC000028EDD00128F2D0F8E7DDF800E001B0C7
:02190C00704722
:10117C0081B0CDF800E0A9E0012905D140F20101D0
:10118C006548FFF78DFE04E040F201016248FFF76D
:10119C0079FEBBE0012905D140F220015F48FFF741
:1011AC007FFE04E040F220015C48FFF76BFEADE0EF
:1011BC00012905D140F208015948FFF771FE04E0FE
:1011CC0040F208015648FFF75DFE9FE0012905D16A
:1011DC0040F210015348FFF763FE04E040F21001A7
:1011EC005048FFF74FFE91E0012905D140F2400134
:1011FC004C48FFF755FE04E040F240014948FFF728
:10120C0041FE83E0012905D140F210014448FFF76B
:10121C0047FE04E040F210014148FFF733FE75E051
:10122C00012905D140F210013F48FFF739FE04E0D7
:10123C0040F210013C48FFF725FE67E0012905D17B
:10124C0040F201013748FFF72BFE04E040F20101A8
:10125C003448FFF717FE59E0012905D140F220016F
:10126C003248FFF71DFE04E040F220012F48FFF743
:10127C0009FE4BE0012905D140F210012B48FFF784
:10128C000FFE04E040F210012848FFF7FBFD3DE0A3
:10129C00012905D140F201012548FFF701FE04E0C8
:1012AC0040F201012248FFF7EDFD2FE0012905D1A5
:1012BC0040F280011A48FFF7F3FD04E040F2800190
:1012CC001748FFF7DFFD21E0012020E000283FF464
:1012DC0053AF01283FF45EAF02283FF469AF0328F7
:1012EC003FF474AF04283FF47FAF05283FF48AAF76
:1012FC0006283FF495AF0728A0D00828ACD00928C1
:10130C00B8D00A28C4D00B28D0D0DDE70020DDF8F7
:10131C0000E001B0704700BF001208408010084088
:10132C00001008406010084060110840001108408F
:04133C002010084035
:100EAC0081B0CDF800E0044AC9B2FFF70FFDDDF8C0
:0C0EBC0000E001B0704700BF000410000F
:1008D80081B01446314B984203D8314B984200D32B
:1008E80000E058E02E4BC31A03F01F0303B152E097
:1008F800064600F5A0624FF6FF7304EA03031846A4
:10090800284B04EA03031B0C40F20008CFB201464F
:100918001846B8F1080F3ED201231BB203FA08F3B8
:100928001BB21CB207EA0403A34231D101F44053BD
:100938008BB14FEA8803F5182C686FF4405304EA2A
:1009480003032B604FEA8803F51801F440542B6821
:1009580023432B601CE04FEA8803F5182C68114BE1
:1009680004EA03032B604FEA8803F41823680B4357
:1009780023604FEA8803D5182C686FF0FF0304EA58
:1009880003032B604FEA8803D418236803432360CA
:1009980008F10108BDE701B0704700BFC012084068
:0809A800001008400000FFFFF1
:100E900081B0CDF800E0044AC9B2FFF71DFDDDF8CE
:0C0EA00000E001B0704700BF0006200019
:1013D80081B0CDF800E0A9E0012905D140F2020171
:1013E8006548FFF75FFD04E040F202016248FFF73D
:1013F8004BFDBBE0012905D140F220015F48FFF712
:1014080051FD04E040F220015C48FFF73DFDADE0EE
:10141800012905D140F208015948FFF743FD04E0CE
:1014280040F208015648FFF72FFD9FE0012905D13A
:1014380040F210015348FFF735FD04E040F2100177
:101448005048FFF721FD91E0012905D140F2400104
:101458004C48FFF727FD04E040F240014948FFF7F8
:1014680013FD83E0012905D140F210014448FFF73C
:1014780019FD04E040F210014148FFF705FD75E051
:10148800012905D140F204013D48FFF70BFD04E0B6
:1014980040F204013A48FFF7F7FC67E0012905D15B
:1014A80040F204013848FFF7FDFC04E040F2040173
:1014B8003548FFF7E9FC59E0012905D140F2200140
:1014C8003248FFF7EFFC04E040F220012F48FFF715
:1014D800DBFC4BE0012905D140F210012B48FFF756
:1014E800E1FC04E040F210012848FFF7CDFC3DE0A4
:1014F800012905D140F201012548FFF7D3FC04E09A
:1015080040F201012248FFF7BFFC2FE0012905D175
:1015180040F280011A48FFF7C5FC04E040F2800160
:101528001748FFF7B1FC21E0012020E000283FF434
:1015380053AF01283FF45EAF02283FF469AF032898
:101548003FF474AF04283FF47FAF05283FF48AAF17
:1015580006283FF495AF0728A0D00828ACD0092862
:10156800B8D00A28C4D00B28D0D0DDE70020DDF899
:1015780000E001B0704700BF00120840801008402A
:101588000010084060100840201108400011084071
:0415980020100840D7
:10189C0081B0CDF800E009E00846FFF79BFE0AE0B6
:1018AC000846FFF7A7FE06E0012004E00028F3D06D
:0E18BC000128F5D0F8E7DDF800E001B0704734
:1015E00081B0CDF800E0016808460449FFF76CFCC3
:1015F0000020DDF800E001B0704700BFBC1C0B000C
:100EC80081B0CDF800E083468C4600230D4A1360BC
:100ED8006046FFF78FFB0C4C0C4B0D4A1946104629
:100EE8002246FFF7E5FC0CF10C021268D3B2094A5E
:100EF800126859461046DAB2FFF756FDDDF800E0F1
:100F080001B07047380000206D0E0B000D0D0B006E
:080F1800210F0B002C0000204A
:1005FC0081B0CDF800E040F2000A81464FEA8A0152
:10060C0009EB01010968B1F1FF3F12D009F1340186
:10061C004FEA8A03C91809680A4609EB03010968FD
:10062C0008461146FFF7BCFF0AF1010A1FFA8AFAC5
:0A063C00E4E7DDF800E001B07047CC
:1005AC0082B0CDF800E000F0FF02130902F00F0258
:1005BC001446D8B2FFF780FE012212B2A240ADF869
:1005CC00042000460A469DF8041000F07FF9DDF87F
:0605DC0000E002B07047D0
:1002C40081B027E028484DE028484BE0284849E021
:1002D400284847E0284845E0284843E0284841E0CA
:1002E40028483FE028483DE028483BE0284839E0DA
:1002F400284837E0284835E0284833E0284831E0EA
:1003040028482FE028482DE028482BE0284829E0F9
:10031400284827E00028D5D00128D5D00228D5D0F8
:100324000328D5D00428D5D00528D5D00628D5D083
:100334000728D5D00828D5D00928D5D00A28D5D063
:100344000B28D5D00C28D5D00D28D5D00E28D5D043
:100354000F28D5D01028D5D01128D5D01228D5D023
:100364001328D5D001B07047001008402010084071
:10037400401008406010084080100840A010084059
:10038400C0100840E0100840001108402011084047
:10039400401108406011084080110840A011084035
:1003A400C0110840E0110840001208402012084023
:0803B4004012084060120840ED
:1008B80081B0044B1860044B1960044B1A6001B0F6
:1008C800704700BF9000002094000020980000208E
:1009B00081B000F2280440F20023236000F22804F2
:1009C0000023236080230370041D01232380012959
:1009D00015D100F22C0444F64F73238000F240043A
:1009E000234B236000F22404224B236000F24404D2
:1009F000214B236000F218044D2323702EE00429BC
:100A000015D100F22C0440F61773238000F2400445
:100A10001A4B236000F22404194B236000F24404B3
:100A2000184B236000F218040A23237016E01029E3
:100A300014D100F22C0440F20953238000F2400448
:100A4000114B236000F224040D4B236000F2440498
:100A50000C4B236000F2180406232370C12303709B
:100A600000F2280442F4E0531BB2236001B0704747
:100A700006434D0CED01FC01C7C29C4B010A0A0460
:0C0A800050000001C7C29C1401060606CD
:1016000081B0CDF800E0016808460449FFF75CFCB2
:101610000020DDF800E001B0704700BFBC1C0B00EB
:10186C0081B0CDF800E009E00846FFF749FC0AE03A
:10187C000846FFF731FC06E0012004E00028F3D015
:0E188C000128F5D0F8E7DDF800E001B0704764
:10110C0081B0CDF800E0002300220321FFF710FF8F
:10111C00034A04490A600020DDF800E001B0704782
:08112C0065040B004C000020DB
:100F3C0084B0CDF800E01FFA82FB1FFA83FC00227C
:100F4C008DF80420ADF8081003904A48FFF750FBC9
:100F5C000398BDF808109DF80420ADF80410029019
:100F6C00FFF73AFB0298BDF804100025424C25709F
:100F7C000025424C2570B0F5E13F06D9404CA0420B
:100F8C0003D83F4CB4FBF0F308E0B0F5E13F04D8D4
:100F9C004FF4E134B4FBF0F300E00123ADF804109E
:100FAC000290FFF70DFC0298BDF8041003F0FF044B
:100FBC00E5B2344C25701C0A04F07F04E5B2324CC7
:100FCC002570B0F5E13F06D92F4C247844F080050C
:100FDC002D4C257005E02C4C247804F07F052A4C10
:100FEC002570ADF80410FFF7F7FABDF804100025D2
:100FFC00264C25700BE042F00100C0B20EE042F02E
:10100C000200C0B20AE042F00300C0B206E00129BF
:10101C00F1D00229F3D00329F5D0F4E74FEA8C0480
:10102C00A4B240EA04044FEACB05ADB2E4B22C43BF
:10103C00E4B204F07F05154C25700025144C257086
:10104C000025144C2570144D144C2560144D154C72
:10105C002560154D154C2560154D164C2560164C0C
:10106C00247844F00105144C2570DDF800E004B040
:10107C00704700BF541C0B00F0270F4001240F4099
:10108C0060E3160000240F4001240F4003240F409E
:10109C0004240F4002240F40E10C0B00A40000209C
:1010AC0065040B00A8000020C50C0B00AC00002050
:0C10BC00A90C0B00B000002030270F40F2
:1005E40081B00448007800F07F010248017001B036
:0805F400704700BF03240F4013
:1007CC0081B00448007840F080010248017001B00B
:0807DC00704700BF03240F4029
:1010E40081B0CDF800E0002300220321FFF724FFA4
:1010F400034A04490A600020DDF800E001B07047AB
:0811040065040B004C00002003
:1019D80081B0CDF800E0252203490448FFF794FFC1
:1019E800DDF800E001B07047481E0B00241D0B0015
:1019100081B0CDF800E00446054B1A700846FFF789
:1019200025FD2046FFF71AFCDDF800E001B0704706
:04193000B4000020DF
:10136C00026806490A60011D0A6805490A6000F214
:10137C0008010A6803490A60704700BFB8000020E2
:08138C00BC000020C00000209D
:10115C0000F23001091D0A6803490A6000F21C0103
:10116C000A6802490A607047C4000020C8000020C9
:1019F80081B0CDF800E043F2FE47C0F20C0700BF0B
:101A080000BF7F1EFDD100BF00BF00BF30491020BE
:101A1800FFF78EFE2E48007800F00100C0B20028C3
:101A280030D02C480221FFF7F7FD2B48FFF72CFE9A
:101A3800294800882949FFF753FE29480121FFF763
:101A4800EBFD02212548FFF7E7FD264800782349EA
:101A5800FFF746FE24480121FFF7DEFD02211F485B
:101A6800FFF7DAFD21480221FFF7D6FD43F2FE47D2
:101A7800C0F20C0700BF00BF7F1EFDD100BF00BF32
:101A880000BF21E01248007800F00200C0B2D8B1CF
:101A980043F2FE47C0F20C0700BF00BF7F1EFDD116
:101AA80000BF00BF00BF0A491420FFF741FE0848E5
:101AB8000078002808D0064800780D49FFF758FE3E
:101AC80002210B48FFF7A8FDDDF800E001B07047E0
:101AD80027000020000000205000002054000020B3
:101AE80001000020520000200E0000201B000020F2
:041AF8005E0000206C
:1017380083B0CDF800E002918DF80400FFF7FCFDBE
:1017480001AB0A4A127819460023D0B20122FFF7EA
:10175800EDFC064A127801230299D0B20122FFF764
:1017680015FEDDF800E003B0704700BFB4000020AC
:1013400082B0CDF800E040F20004ADF80440064C55
:101350002468A047BDF9041041EA000000B2DDF89E
:0C13600000E002B0704700BFB8000020A1
:100F200081B0CDF800E004480068FFF75BFC0020CA
:0C0F3000DDF800E001B070472C0000204C
:1007E40081B0CDF800E04FF0000224490968884246
:1007F40007D123490B6823490A6823490A601A462A
:1008040025E022490968884207D121490B6821491A
:100814000A681D490A601A4619E01F490968884296
:1008240007D11E490B681E490A6817490A60194610
:100834000CE01C490968884207D11B490B681B4915
:100844000A6811490A60194600E011460A46184927
:100854000A60017801F00101C9B259B91449096863
:1008640039B122B90520084C2468A04702E0521E81
:10087400FFE7EEE7DDF800E001B070472C00002050
:1008840038000020800000207C0000203000002080
:100894003C000020840000203400002040000020A0
:1008A4008800002028000020440000208C00002044
:0408B40048000020D8
:1004640082B0CDF800E08DF8040000F0B9F8084936
:10047400097801F02001C9B201B9F8E79DF8041028
:1004840001F0FF0203490A70DDF800E002B0704792
:0804940005240F4000240F4075
:10042C0082B0CDF800E08DF80400FFF739FF0849E1
:10043C00097801F02001C9B201B9F8E79DF8041060
:10044C0001F0FF0203490A70DDF800E002B07047CA
:08045C0005280F4000280F40A5
:1002AC0081B00448007800F07F010248017001B071
:0802BC00704700BF03280F404A
:10041C00024A117860F30001117070479013084084
:1004BC00024A117860F3451111707047841308409B
:1004AC00024A117860F3C301117070478013084041
:10049C00024A117860F304111170704783130840FD
:10040C00024A117860F3861111707047831308400B
:1003CC00024A117860F304111170704780130840D1
:1003BC00024A117860F30411117070478B130840D6
:1003DC00024A117860F300011170704783130840D2
:1003FC00024A117860F34511117070478813084058
:1003EC00024A117860F304111170704788130840A9
:10055C00024A117860F30001117070478113084052
:10054C00024A117860F3C71111707047801308408C
:10053C00024A117860F34101117070479013084022
:10056C00024A117860F3C711117070478413084068
:10059C00024A117860F34511117070478E130840B0
:10058C00024A117860F3041111707047831308400C
:10057C00024A117860F3861111707047831308409A
:1004EC00024A117860F304111170704780130840B0
:1004DC00024A117860F38201117070478013084052
:1004CC00024A117860F38201117070478913084059
:1004FC00024A117860F34511117070478813084057
:10052C00024A117860F30411117070478813084067
:10051C00024A117860F30001117070478113084092
:10050C00024A117860F3C7111170704780130840CC
:100C8C0081B0CDF800E004480068FFF7A5FD002016
:0C0C9C00DDF800E001B0704730000020DF
:100C700081B0CDF800E004480068FFF7B3FD002024
:0C0C8000DDF800E001B0704734000020F7
:100C540081B0CDF800E004480068FFF7C1FD002032
:0C0C6400DDF800E001B07047280000201F
:100CE00081B0CDF800E0FFF77DFC0648007800F009
:100CF0000100C0B200B9F8E703480078DDF800E071
:0C0D000001B0704705240F4000240F4094
:100CC40081B00548007800F00100C0B208B10120ED
:0C0CD40000E0002001B0704705240F4034
:100CA80081B00548007800F04000C0B208B10120CA
:0C0CB80000E0002001B0704705240F4050
:100E000081B0CDF800E0FFF751FA0648007800F015
:100E10000100C0B200B9F8E703480078DDF800E04F
:0C0E200001B0704705280F4000280F406B
:100DE40081B00548007800F00100C0B208B10120CC
:0C0DF40000E0002001B0704705280F400F
:100E2C0081B00548007800F04000C0B208B1012044
:0C0E3C0000E0002001B0704705280F40C6
:1011340082B0CDF800E040F20004ADF80440054C64
:101144002468A047BDF90440044320B2DDF800E060
:0811540002B07047BC0000204E
:100E6C0081B0CDF800E0064C246808B413460A465D
:100E7C002146FFF7E3FB01B0DDF800E001B070475D
:040E8C002C00002016
:1006480082B0CDF800E0029E40F200074FF00005AE
:100658004E4C2468A14208D14D4CD4F800804D4C32
:1006680025684D4C2560454628E04C4C2468A1423D
:1006780008D14B4CD4F800804A4C2568464C25607C
:1006880045461BE0484C2468A14208D1474CD4F8A1
:100698000080474C2568404C256044460DE0454C99
:1006A8002468A14208D1444CD4F80080434C256802
:1006B800394C2560444600E02C462546404C2560D0
:1006C80001F2080544002C70C5240C70B8B20F461E
:1006D8001D46A84231D23A4CD4F8008033463946F8
:1006E80017462A460C7804F08004E4B27CB1344CF6
:1006F80024685CB1B8F1000F04D10420264C2468AA
:10070800A0473FE0A8F10105A846FFE7EAE70C7813
:1007180004F00804E4B23CB901F208053C18247856
:100728002C70401C80B203E001911146019A07E049
:1007380015463A460F461E46CBE73A462946334603
:100748001F4C2568147804F08004E4B25CB11C4C9A
:1007580024683CB125B904200F4C2468A04711E057
:100768006D1EFFE7EEE733B1C324147002F20805EB
:1007780000242C7001E045241470884201D2012025
:1007880000E00020DDF800E002B070472C000020F7
:1007980038000020800000207C000020300000206D
:1007A8003C0000208400002034000020400000208D
:1007B8008800002028000020440000208C00002031
:0407C80048000020C5
:100E480081B0CDF800E0064C246808B413460A4681
:100E58002146FFF7F5FB01B0DDF800E001B070476F
:040E68003000002036
:100DC00081B0CDF800E0064C246808B413460A460A
:100DD0002146FFF739FC01B0DDF800E001B07047B3
:040DE00034000020BB
:100D300081B0CDF800E0064C246808B413460A469A
:100D40002146FFF781FC01B0DDF800E001B07047FB
:040D50002800002057
:1013940082B0CDF800E040F20004ADF80440044C03
:1013A4002468A047BDF90400DDF800E002B07047EE
:0413B400C000002055
:100D0C0081B0CDF800E0064C246808B413460A46BE
:100D1C002146FFF7B5FE01B0DDF800E001B07047E9
:040D2C002C00002077
:100A8C0082B0CDF800E0029C40F2000601274FF046
:100A9C0000055F4C2468A14208D15E4CD4F800805C
:100AAC005D4C25685D4C2560454628E05C4C24680F
:100ABC00A14208D15B4CD4F800805B4C2568574CA4
:100ACC00256045461BE0594C2468A14208D1584C7E
:100ADC00D4F80080574C2568504C256044460DE0F6
:100AEC00554C2468A14208D1544CD4F80080544C85
:100AFC0025684A4C2560444600E02C462546514C5E
:100B0C00256001F208054400A4B244F001042C70E5
:100B1C000846B5B21E46FBB24A4C216801913146DB
:100B2C00AEB2019D047804F08004E4B25CB1454C93
:100B3C0024683CB125B90320384C2468A04762E0F6
:100B4C006D1EFFE7EEE7047804F00804E4B28CB9FC
:100B5C00B41CA4B28C420DD2951900F2080424786E
:100B6C002C70751CADB223B1002400239DB2E3B2EE
:100B7C00FFE746E0047804F00804E4B2002C38D116
:100B8C00022902D04024047002E00BB94024047006
:100B9C00951900F2080424782C70741C3BB10023C6
:100BAC000025022901D10E46B6E7A9B200E0A1B298
:100BBC00244C2368ADF8041011460246BDF804001D
:100BCC00147804F08004E4B25CB11E4C24683CB18F
:100BDC0023B90320114C2468A04714E05B1EFFE7E7
:100BEC00EEE7C32414700D1802F2080424782C705C
:100BFC0009E0C3240470951900F2080424782C70C1
:100C0C0001E00E4688E7DDF800E002B0704700BF57
:100C1C002C00002038000020800000207C000020E8
:100C2C00300000203C000020840000203400002014
:100C3C0040000020880000202800002044000020F4
:080C4C008C000020480000208C
:100D540081B0CDF800E0064C246808B413460A4676
:100D64002146FFF791FE01B0DDF800E001B07047C5
:040D7400300000202B
:100D9C0081B0CDF800E0064C246808B413460A462E
:100DAC002146FFF76DFE01B0DDF800E001B07047A1
:040DBC0034000020DF
:100D780081B0CDF800E0064C246808B413460A4652
:100D88002146FFF77FFE01B0DDF800E001B07047B3
:040D9800280000200F
:1016200083B0CDF800E0024610460D228DF8082068
:101630000A228DF809201FE0FFF7BEFE23E00278A2
:101640002AB10190FFF7B8FE0198401CF7E71AE0B5
:1016500002782AB10190FFF7AFFE0198401CF7E72E
:1016600002AA1046FFF7A8FE0DF109021046FFF787
:10167000A3FE08E0062007E00029DDD00129DED026
:101680000229E5D0F6E70020DDF800E003B070475E
:1013B80081B0CDF800E00178CCB2E0B2034C2468EB
:1013C800A0470020DDF800E001B070474C00002085
:1016900083B0CDF800E002A9019003221120FFF7EA
:1016A0007DFF019802AC217801800188CA0092B2C6
:1016B000A11C09780909C9B242EA01010180821C12
:1016C000611C09781170831C1978CA0092B2A11CA0
:1016D000097801F00F01C9B242EA01011970DDF881
:0616E00000E003B07047BA
:10159C0084B0CDF800E002918DF80C208DF8040099
:1015AC00FFF7C8FE01AC0A4B1B7801222146D8B2CA
:1015BC000023FFF7B9FD064B1B789DF80C20029910
:1015CC00D8B20123FFF7E0FEDDF800E004B070476D
:0415DC00B400002037
:1016E80081B00A4681B200208DB21146052805D284
:1016F8000B1820221A70401CC0B2F7E70B18002202
:101708001A70401EC0B20C180A23B5FBF3F203FB93
:10171800125292B2303222700A22B5FBF2F292B221
:1017280095B202B902E0401EC0B2ECE701B07047C2
:1017780081B0CDF800E00C4642E02F4A11462046E1
:10178800FFF79EFC53E02D4A11462046FFF798FCD0
:101798004DE02B4A11462046FFF792FC47E0294AC4
:1017A80011462046FFF78CFC41E0274A11462046A7
:1017B800FFF786FC3BE0254A11462046FFF780FCF0
:1017C80035E0234A11462046FFF77AFC2FE0214AEC
:1017D80011462046FFF774FC29E01F4A11462046AF
:1017E800FFF76EFC23E01D4A11462046FFF768FC10
:1017F8001DE01B4A11462046FFF762FC17E016E081
:101808001128BAD02028BED01028C2D03128C6D07E
:101818003228CAD04128CED04228D2D05128D6D09A
:101828005228DAD06128DED06228E2D0E7E7DDF876
:1018380000E001B0704700BF1F1E0B002E1E0B00FA
:101848003B1E0B006B1E0B00F91D0B00541E0B00FA
:10185800D01D0B00761E0B000D1E0B00601E0B002A
:04186800E51D0B006F
:1010C8000246104613460A7822B10A781A705B1C49
:0A10D800491CF8E700221A70704767
:101B900081B0CDF800E01F4B1F4A204C2048006860
:101BA00040F002011E480160012A08D0032A06D035
:101BB000042A04D0102A02D0302A00D002E01948AA
:101BC000026002E0012117480160C4F3C002164917
:101BD000086862F3C3000860C4F380021249086811
:101BE00062F382000860C4F340020F49086862F3A0
:101BF00041000860C4F300020B49086862F300006A
:101C00000860FFF7DDFE09480360DDF800E001B081
:101C1000704700BFE001000001000000000000006C
:101C200008E000E00401084008A400400801084062
:1019C00046F6FE17C0F2180700BF00BF7F1EFDD10C
:0819D00000BF00BF00BF70471B
:101C300081B004490448016004490548016001B0CD
:101C4000704700BF80BB00009C0000200000000027
:041C5000A0000020D0
:081B100081B0FEE701B070474F
:101B3C0081B04EF68850CEF20000016841F470017D
:101B4C00016000BF00BF00BF00BFF1EE100A40F4FF
:0A1B5C004000E1EE100A01B07047EE
:101B180081B0DFF81000DFF810100860D0F800D0AE
:101B280000F004B800000B0008ED00E000BF01B0B1
:021B38007047F4
:101E840000B5DFF824B0DFF824A0DFF824C0FFF7A2
:101E940033FEDFF820B0DFF820A0DFF820C0FFF722
:101EA4002BFE00BD704700BF00000020270000206B
:101EB400841D0B00280000204C000020AC1D0B00EA
:101F200000B5DFF810B0DFF810A0FFF703FD00BD2B
:0C1F3000704700BF00000020CC00002023
:101C54008500000084000000FFFFFFFF000000007B
:101C64000000000000000000000000000000000070
:101C74000000000000000000000000000000000060
:101C84000000000000100000001000000000000030
:101C94000000000000000000000000000000000040
:101CA4000000000000000000000000000000000030
:081CB400000000000000000028
:101CBC001000000007000000FFFFFFFF0300000002
:101CCC000000000000000000000000000000000008
:101CDC0000000000000000000000000000000000F8
:101CEC0000000000001000000010000000000000C8
:101CFC0000000000000000000000000000000000D8
:101D0C0000000000000000000000000000000000C7
:081D1C000000000000000000BF
:101D24001D040B00BD040B00AD040B009D040B004F
:101D34000D040B00CD030B00BD030B00DD030B00F2
:101D4400FD030B00ED030B005D050B004D050B00BF
:101D5400FFFFFFFFFFFFFFFFFFFFFFFFFFFFFFFF8F
:101D6400FFFFFFFFFFFFFFFFFFFFFFFFFFFFFFFF7F
:101D7400FFFFFFFFFFFFFFFFFFFFFFFFFFFFFFFF6F
:0E1D840000506F736974696F6E20583A20002A
:101D9200506F736974696F6E20593A20002D2D2D92
:091DA2002D2D2D2D2D2D2D2D00D0
:041DAC00004C0040A7
:041DB00000400040AF
:041DB40000440040A7
:041DB800004800409F
:041DBC000000000023
:041DC000000000001F
:041DC400000000001B
:041DC8000000000017
:041DCC000000000013
:101DD000526967687420537769706520616E64206A
:101DE000486F6C64004C6566742053776970652099
:101DF000616E6420486F6C6400446F776E20537787
:101E000069706520616E6420486F6C6400557020B5
:101E1000537769706520616E6420486F6C6400437D
:0E1E20006C69636B20616E6420486F6C640017
:101E2E00446F75626C6520436C69636B0053696E19
:0A1E3E00676C6520436C69636B005C
:0C1E4800210F0B006D0E0B000D0D0B00A8
:0C1E54005269676874205377697065005C
:101E60004C65667420537769706500446F776E2007
:061E700053776970650064
:091E760055702053776970650076
:041E8000010000005D
:00000001FF
