:10000000FCFF0020B92200007122000071220000D4
:100010007122000071220000712200007122000094
:100020007122000071220000712200007122000084
:100030007122000071220000712200007122000074
:100040007122000071220000712200007122000064
:100050007122000071220000712200007122000054
:100060007122000071220000712200007122000044
:100070007122000071220000712200007122000034
:100080007122000071220000712200007122000024
:100090007122000071220000712200007122000014
:1000A0007122000071220000712200007122000004
:1000B00071220000712200007122000071220000F4
:1000C00071220000712200007122000071220000E4
:1000D00071220000712200007122000071220000D4
:1000E00071220000712200007122000071220000C4
:1000F00071220000712200007122000071220000B4
:1022B80000F010F8FFF7DCFF00F086FBFFF7EEFFF9
:1022C80000F042FBFFF7A8FFFFF768FFFFF7E4FE07
:0422D800FCE7FEE73A
:1022000081B01CF8019B0BF8019BBBEB0A0FF8D1C6
:0422100001B0704762
:1021C40081B04FF000094FF0000CBDEB0A0F04DCA6
:1021D400BDEB0B0F01DBD446EA464BF8049BBBEB8B
:1021E4000A0FFAD1BCEB0A0F05DDE246D9F800B0BC
:0A21F4000BF1040BF1E701B0704796
:1022200081B0CDF800E0002207210020FFF798FEE2
:10223000012201210020FFF793FE0C4801460020F7
:10224000FFF7B0FE42F280511020FFF7C3FE44F6C4
:102250007D77C0F2120700BF7F1EFDD100BF00BF17
:1022600000BF00BFDDF800E001B070474C2900005E
:101F600081B0CDF800E05FFA81F95FFA82FA0FE004
:101F70005FFA8AF15FFA89F0FFF7F2FD0DE05FFA90
:101F80008AF15FFA89F0FFF7CDFC06E0012004E05A
:101F90000028EDD00128F2D0F8E7DDF800E001B02C
:021FA000704788
:101B600081B0CDF800E0A9E0012905D140F20101E2
:101B70006548FFF79BFC04E040F201016348FFF772
:101B8000DFFCBBE0012905D140F240016048FFF7CE
:101B90008DFC04E040F240015E48FFF7D1FCADE06F
:101BA000012905D140F201015948FFF77FFC04E00B
:101BB00040F201015748FFF7C3FC9FE0012905D11E
:101BC00040F220015448FFF771FC04E040F220018C
:101BD0005248FFF7B5FC91E0012905D140F28001A0
:101BE0004D48FFF763FC04E040F280014B48FFF7EB
:101BF000A7FC83E0012905D140F240014648FFF7E8
:101C000055FC04E040F240014448FFF799FC75E0C0
:101C1000012905D140F280014148FFF747FC04E06B
:101C200040F280013F48FFF78BFC67E0012905D1B6
:101C300040F210013A48FFF739FC04E040F210018D
:101C40003848FFF77DFC59E0012905D140F2040135
:101C50003548FFF72BFC04E040F204013348FFF75E
:101C60006FFC4BE0012905D140F208012E48FFF737
:101C70001DFC04E040F208012C48FFF761FC3DE048
:101C8000012905D140F220011F48FFF70FFC04E0B5
:101C900040F220011D48FFF753FC2FE0012905D138
:101CA00040F210011848FFF701FC04E040F2100177
:101CB0001648FFF745FC21E0012020E000283FF412
:101CC00053AF01283FF45EAF02283FF469AF032809
:101CD0003FF474AF04283FF47FAF05283FF48AAF88
:101CE00006283FF495AF0728A0D00828ACD00928D3
:101CF000B8D00A28C4D00B28D0D0DDE70020DDF80A
:101D000000E001B0704700BF414C0040434C004030
:101D1000404C0040424C0040004C0040024C00400F
:101D2000014C0040034C0040204C0040224C00403D
:1014AC0081B0CDF800E0002424B240F240031BB21E
:1014BC0040F2040212B242EA03031BB240F20102F0
:1014CC0012B243EA020293B2002210B4FFF724FED8
:0A14DC0001B0DDF800E001B0704738
:1011240083B0CDF800E08DB20146D0B2BDF90C20F9
:1011340001F0010414B12F02BFB200E0AFB28F4C32
:101144000C1B640965018D4C6419A0468C4CA042AB
:1011540007D108F10406FD43ADB234882C40348035
:1011640007E0884CA04204D108F104052C883C43D4
:101174002C8040F2010403EA0404A4B23CB108F157
:101184000606FD43ADB234882C4034800AE040F2B8
:10119400020403EA0404A4B224B108F106052C886D
:1011A4003C432C8040F2040403EA0404A4B23CB19E
:1011B40008F10806FD43ADB234882C4034800AE0BF
:1011C40040F2080403EA0404A4B224B108F10805B7
:1011D4002C883C432C8040F2100403EA0404A4B29B
:1011E4003CB108F11806FD43ADB234882C4034807C
:1011F4000AE040F2200403EA0404A4B224B108F192
:1012040018052C883C432C8040F2400403EA040473
:10121400A4B23CB108F11A06FD43ADB234882C40A7
:1012240034800AE040F2800403EA0404A4B224B146
:1012340008F11A052C883C432C8003F48074A4B272
:101244007CB908F10A06FD43ADB234882C403480E1
:1012540008F10C06FD43ADB234882C4034800020E4
:1012640087E01F2A01DD012083E0FFF71BFC00203B
:10127400B9B2C7B24046102F80F07A8021FA07F441
:10128400A4B204F00104A4B2002C00F06E8000F2B9
:101294000A06CD43ADB234882C40348000F20C06EB
:1012A400CD43ADB234882C40348003F48064A4B2BE
:1012B4002CB1ADF806100024ADF808400DE003F49D
:1012C4000064A4B22CB10024ADF80640ADF80810B7
:1012D40003E0ADF80610ADF8081000F20A063588F0
:1012E400BDF8064045EA0404348000F20C06358853
:1012F400BDF8084045EA04043480234C041B640907
:10130400ADF80440214CA24218D0BDF80440E400DA
:10131400A4B265001E4C65197C08E4B264002E1961
:1013240007F00104E4B2E5002DB240F2FF04AC4042
:10133400A4B2E543ADB234882C403480BDF80440F7
:10134400E400A4B26500124C65197C08E4B26400A0
:101354002E1907F00104E4B2E5002DB294B204FAA8
:1013640005F5ADB234882C4334807F1CFFB282E78C
:101374000020DDF800E003B0704700BF004C0040DF
:101384000000000001000000004C004000000000CC
:0413940008500040BD
:100AA80081B042F652510348018002210248018078
:0C0AB80001B070470050004002500040A8
:1015400081B0CDF800E0002424B240F240031BB289
:1015500040F2040212B242EA03031BB240F201025B
:1015600012B243EA020293B2012210B4FFF7DAFD8D
:0A15700001B0DDF800E001B07047A3
:1019240081B0CDF800E0A9E0012905D140F2080119
:101934006548FFF7B9FD04E040F208016348FFF78A
:10194400FDFDBBE0012905D140F280016048FFF7AD
:10195400ABFD04E040F280015E48FFF7EFFDADE02F
:10196400012905D140F204015B48FFF79DFD04E025
:1019740040F204015948FFF7E1FD9FE0012905D138
:1019840040F220015648FFF78FFD04E040F22001A9
:101994005448FFF7D3FD91E0012905D140F28001BD
:1019A4004F48FFF781FD04E040F280014D48FFF706
:1019B400C5FD83E0012905D140F240014848FFF705
:1019C40073FD04E040F240014648FFF7B7FD75E0BF
:1019D400012905D140F240014348FFF765FD04E0C9
:1019E40040F240014148FFF7A9FD67E0012905D114
:1019F40040F240013648FFF757FD04E040F2400151
:101A04003448FFF79BFD59E0012905D140F2040158
:101A14003548FFF749FD04E040F204013348FFF77D
:101A24008DFD4BE0012905D140F208012E48FFF756
:101A34003BFD04E040F208012C48FFF77FFD3DE048
:101A4400012905D140F220012148FFF72DFD04E0D2
:101A540040F220011F48FFF771FD2FE0012905D155
:101A640040F210011A48FFF71FFD04E040F2100194
:101A74001848FFF763FD21E0012020E000283FF42F
:101A840053AF01283FF45EAF02283FF469AF032847
:101A94003FF474AF04283FF47FAF05283FF48AAFC6
:101AA40006283FF495AF0728A0D00828ACD0092811
:101AB400B8D00A28C4D00B28D0D0DDE70020DDF848
:101AC40000E001B0704700BF214C0040234C0040AF
:101AD400414C0040434C0040404C0040424C0040CC
:101AE400004C0040024C0040014C0040034C0040BC
:101FA40081B0CDF800E009E00846FFF7A1FD0AE0A2
:101FB4000846FFF7C1FD06E0012004E00028F3D045
:0E1FC4000128F5D0F8E7DDF800E001B0704725
:101AF40081B0CDF800E0011D0A680168084611466E
:101B0400034AFFF70BFD0020DDF800E001B0704749
:041B1400D8250000D0
:1015200081B0CDF800E013460A4601460348FFF7B4
:1015300033FFDDF800E001B0704700BF0024004039
:1013980087B0CDF800E08446059106921846FFF71D
:1013A80033FC6046FFF728FC06996046FFF776FC99
:1013B800BCF8005040F6017445EA0404ACF800405B
:1013C80001AC2046FFF796FB069C402C05D1059DF5
:1013D800019CB4FBF5F4A0B209E0069C802C05D171
:1013E800059D049CB4FBF5F4A0B200E000200CF1CC
:1013F800060420801D4CA44506D11D4D1D4C2560BA
:101408001D4D1E4C25601CE01D4CA44506D11D4DEC
:10141800184C25601C4D194C256012E01B4CA44546
:1014280006D11B4D134C25601A4D144C256008E05D
:10143800194CA44505D1194D0E4C2560184D0F4C7B
:10144800256040F201016046FFF73CFC6046FFF76B
:1014580031FC03216046FFF7C5FB02216046FFF718
:10146800A7FBDDF800E007B0704700BF0020004090
:10147800BD15000088000020711700008C000020B6
:10148800002400409915000029160000002800409B
:10149800051600008D160000002C0040E115000024
:0414A80069160000C1
:100AFC0082B0CDF800E004462849096801F4E061B1
:100B0C00090A08462549096801F0E061090E0A4600
:100B1C00214601911146FFF7C9FB019908601F4955
:100B2C00096801F07001090908461C49096801F4BB
:100B3C00E001090D0A4604F2080101911146FFF784
:100B4C00B5FB019908601549096801F070010909A4
:100B5C0008461249096801F0E041090F0A4604F2FF
:100B6C000C0101911146FFF7A1FB019908600B499B
:100B7C00096801F0070108460849096801F4E021F9
:100B8C00090C0A46211D01911146FFF78FFB0199B3
:100B9C000860DDF800E002B0704700BF08040140B7
:1002B80081B0CDF800E002460846FFF77DFFC3B2E3
:1002C80071E0424A126802F00102D2B140F2010024
:1002D800FFF75CFF3D4A126802F001028AB13C4A0E
:1002E800126802F400422AB14FF4FA3292FBF3F298
:1002F800104666E048F20002B2FBF3F292B290B206
:100308005FE0344A1268B2FBF3F2104659E02F4A14
:10031800126802F00202D2B140F20200FFF736FF83
:100328002A4A126802F002028AB1294A126802F4C3
:1003380000422AB14FF4FA3292FBF3F2104640E041
:1003480048F20002B2FBF3F292B290B239E0224ACC
:100358001268B2FBF3F2104633E0204A1268B2FB8F
:10036800F3F210462DE01A4A126802F400422AB14C
:100378004FF4FA3292FBF3F2104622E048F2000200
:10038800B2FBF3F292B290B21BE0FFF7B5FEB0FBFE
:10039800F3F2104615E0124A1268B2FBF3F2104667
:1003A8000FE000200DE0002A3FF48BAF052AAED005
:1003B800012AD2D0022AD6D0032AE6D0042AEAD0CB
:1003C800EFE7DDF800E001B0704700BF48040140E6
:1003D80030040140940000209800002038000020DC
:0403E8003C000020B5
:1001C00081B0012109B2814009B208B201B0704783
:1001940081B0074A07490A600749096841EA000231
:1001A40005490A60012203490A6001B0704700BF93
:0C01B4005A6900000004014050040140A2
:1001000082B01748006800F4E02114E0154801901F
:1001100023E01548019020E0144801901DE01448A8
:1001200001901AE01348019017E01348019014E081
:100130000020019011E00029E8D0B1F5803FE8D01F
:10014000B1F5003FE8D0B1F5403FE8D0B1F5802FE0
:10015000E8D0B1F5A02FE8D0EAE7019802B07047E7
:100160000404014060E31600C0C62D00808D5B00D2
:0C017000001BB70000366E01006CDC02C2
:100C100081B0CDF800E040F2000A814609F1D80128
:100C200009788A453AD20C210AFB01F109EB01014E
:100C30008B460BF1080109781F2915D10BF108012A
:100C40000978CCB20BF1060109888BB20BF10401D3
:100C500009888AB2DBF80010084691B2002210B46D
:100C600000F060FA01B014E00BF108010978CCB291
:100C70000BF1060109888BB20BF1040109888AB2D5
:100C8000DBF80010084691B2FF2210B400F04AFAD7
:100C900001B00AF1010A5FFA8AFABFE7DDF800E065
:040CA00001B07047E8
:100C000081B00122018862F30001018001B07047C8
:100CA40081B003884FF63F7203EA02020280028891
:080CB4000A43028001B0704701
:100CCC0081B08BB2028863F30412028001B07047CA
:100CBC0081B00022018862F30001018001B070470D
:100BEC0081B000F22C04CB439BB222881A402280A5
:040BFC0001B070478D
:100BB80081B000F22A031A880A431A8001B07047EC
:101B3C0081B0CDF800E0011D0A6801680846114625
:101B4C00034AFFF7E7FC0020DDF800E001B0704726
:041B5C00D825000088
:101FD40081B0CDF800E00DE00846FFF79BFD10E06E
:101FE4000846FFF78BFC0CE00846FFF79FFE08E06D
:101FF400012006E00028EFD00128F1D01028F3D00A
:0A200400F6E7DDF800E001B07047D8
:101B180081B0CDF800E0FFF7F7FD044A04490A60F8
:101B28000020DDF800E001B0704700BFE9140000B4
:041B38004000002049
:1017100081B0CDF800E084460B4A0C490A600C4ABF
:101720000C490A600C4A0D490A600D4A0D490A60CD
:101730000D48FFF76DFA61460C48FFF7C1FCDDF874
:1017400000E001B0704700BFE91400009C000020D9
:10175000FFFFFFFFA0000020FFFFFFFFA40000200D
:10176000FFFFFFFFA8000020B42600000018004083
:1010C00081B0CDF800E007460C463846FFF7C6FA77
:1010D00040F280013846FFF7B5FA40F20001384689
:1010E000FFF7CAFA40F200013846FFF70BFB40F267
:1010F00000013846FFF7E0FA40F200013846FFF7FA
:10110000C9FA40F200013846FFF78CFA214638460A
:10111000FFF7D8F93846FFF73BFBDDF800E001B0F8
:02112000704716
:0E065C0081B0018841F00101018001B07047BA
:1006440081B003884FF63F7203EA020202800288F7
:080654000A43028001B0704767
:1006780081B031B903884DF6FF7203EA02020280A5
:0C06880002E002880A43028001B07047C3
:1007040081B0B1F5006F03D102880A43028005E08D
:1007140003884FF2FF7203EA0202028001B07047BD
:1006B80081B019E0038847F6FF7203EA020202805C
:1006C80019E0028842F40042028002880A4302804C
:1006D80011E0028842F40042028003884BF6FF7260
:1006E80003EA0202028006E00029E3D0B1F5804F58
:0A06F800E7D00029EDD001B07047F3
:1006940081B0B1F5807F04D1028842F48072028077
:1006A40005E003884FF6FF6203EA0202028001B00C
:0206B40070478D
:1006240081B0B1F5805F03D102880A43028005E0FE
:1006340003884EF6FF7203EA0202028001B070479B
:1004C40088B0CDF800E005460E4604AA104600F0B8
:1004D40013FB04AA11462846FFF7D0FE00EE900A4B
:1004E400F8EE600A00EE106AB8EE400A80EE800A68
:1004F400B0EE401A01AA1046FFF768FEDDED010ACE
:10050400FCEE600A10EE902A92B291B2414A00EEDB
:10051400902A20EE200ABCEE400A10EE100A80B2A7
:1005240005F2080423884FF6FE7203EA02022280D1
:1005340010292ED905F208031A8842F001021A8004
:10054400B3EE000A81EE000ABCEE400A10EE102A57
:1005540092B2ADF80820B3EE000AC1EE000AB3EE81
:10056400000A81EE000ABCEE400A10EE102A92B294
:1005740000EE102AB8EE400A70EEC00AB3EE000A8C
:1005840020EE800ABCEE400A10EE102A92B2ADF8BA
:100594000A2020B90022ADF80C20284616E00124D8
:1005A4002946242C11D263001B4AD2181288904287
:1005B40008D2621E12B25300184AD2181288ADF83B
:1005C4000C2002E0641CE4B2EBE70846831D002221
:1005D4001A80841D2388BDF8082043EA0202228081
:1005E40000F208031A8802F001021A8000F20804DB
:1005F400BDF80C2013029BB2BDF80A20120192B27E
:1006040013439BB222881A432280DDF800E008B02D
:10061400704700BF00401C4638280000F027000047
:1002800081B0028802F0C00292B2920992B290B29A
:100290000AB900200EE0012802D10A68104609E0E0
:1002A000022802D0032800D004E001F20C021268F8
:0802B0001046FFE701B07047A2
:1001D00082B08DED010A9DED010AB5EEC00AF1EE87
:1001E00010FA0ADBDDED010AB7EE000AF4EEC00AF0
:1001F000F1EE10FA01DA012100E0002189B9DDED0C
:10020000010ABFEE000AF4EEC00AF1EE10FA07DDB3
:100210009DED010AB5EEC00AF1EE10FA00DC00E037
:1002200008E04FF0000100EE101A00ED000A9DED0D
:10023000010A23E001A90968C90D01F0FF017F3916
:1002400089B2182908D99DED010A00ED000A4FF086
:10025000000100EE101A11E09DED010ABDEE400A0A
:1002600010EE101A00EE101AB8EEC00A00ED000AE7
:1002700050ED000A9DED010A30EE600A02B07047B1
:1007900081B002884FF6FE7102EA0101018001B0CA
:0207A0007047A0
:1019000081B0CDF800E0FFF7D3FE044A04490A6035
:101910000020DDF800E001B0704700BF7D15000039
:041920004000002063
:1016B00081B0CDF800E084460B4A0C490A600C4A20
:1016C0000C490A600C4A0D490A600D4A0D490A602E
:1016D0000D48FFF79DFA61460C48FFF7F1FCDDF875
:1016E00000E001B0704700BF7D1500009C000020A5
:1016F000FFFFFFFFA0000020FFFFFFFFA40000206E
:10170000FFFFFFFFA8000020FC24000000140040A1
:101D300081B0CDF800E0FFF72DFD044A04490A60A8
:101D40000020DDF800E001B0704700BF4D16000034
:041D5000400000202F
:1017940081B0CDF800E084460B4A0C490A600C4A3B
:1017A4000C490A600C4A0D490A600D4A0D490A6049
:1017B4000D48FFF72BFA61460C48FFF77FFCDDF874
:1017C40000E001B0704700BF4D1600009C000020EF
:1017D400FFFFFFFFA0000020FFFFFFFFA400002089
:1017E400FFFFFFFFA800002020240000001000409D
:1021A40081B0CDF800E0252203490448FFF72EFF53
:1021B400DDF800E001B0704798200000902700008F
:1020100081B0CDF800E00446054B1A700846FFF782
:10202000F9FB2046FFF7E6FBDDF800E001B0704762
:042030004500002047
:10181400026803490A60011D0A6802490A607047A8
:08182400B4000020B800002010
:1017F40000F23001091D0A6803490A6000F21C0165
:101804000A6802490A607047AC000020B00000205A
:1020A00081B0CDF800E042F2BD77C0F2090700BF71
:1020B0007F1EFDD100BF00BF00BF00BF3049102010
:1020C000FFF7B8FF2E48007800F00100C0B20028EA
:1020D00030D02C480221FFF70BFF2B48FFF73AFEC8
:1020E000294800882949FFF761FE29480121FFF7A7
:1020F000FFFE02212548FFF7FBFE26480078234912
:10210000FFF754FE24480121FFF7F2FE02211F4889
:10211000FFF7EEFE21480221FFF7EAFE42F2BD770B
:10212000C0F2090700BF00BF7F1EFDD100BF00BF86
:1021300000BF21E01248007800F00200C0B2D8B120
:1021400042F2BD77C0F2090700BF00BF7F1EFDD17C
:1021500000BF00BF00BF0A491420FFF76BFF08480B
:102160000078002808D0064800780D49FFF746FEA1
:1021700002210B48FFF7BCFEDDF800E001B070471C
:102180004400002000000020460000204A000020FB
:1021900001000020480000200E0000201B0000204D
:0421A00054000020C7
:1020340083B0CDF800E002918DF80400FFF708FCAE
:1020440001AB0A4A127819460023D0B20122FFF7E5
:10205400EBFB064A127801230299D0B20122FFF762
:1020640019FCDDF800E003B0704700BF4500002014
:0818540040F2000000B27047F1
:10182C0082B0CDF800E040F20004ADF80440054C65
:10183C002468A047BDF90440044320B2DDF800E061
:08184C0002B07047B400002057
:1017700081B0CDF800E008B413460A46C1B204486F
:10178000FFF7DCFB01B0DDF800E001B0704700BFFF
:0417900000200040F5
:100F3C0087B0CDF800E08DF8041001469DF8040050
:100F4C0005920693079C07944C4CA1420AD14C4D38
:100F5C002C6803942C46246804944A4C25684A4C0B
:100F6C00256028E0494CA1420AD1494D2C680394D4
:100F7C002C4624680494474C2568434C25601AE0A1
:100F8C00454CA1420AD1454D2C6803942C4624684B
:100F9C000494434C25683C4C25600CE0414CA14228
:100FAC0009D1414D2C6803942C46246804943F4C81
:100FBC002568354C256001910291C1B20298FFF76A
:100FCC007BFD01993A4C247854B9019108460121D2
:100FDC00FFF7B8FC019908B101204BE00D461FE06A
:100FEC0001250C8865F304140C8008460588C5F3AC
:100FFC0080046CB1049C54B1039C2CB90720224C86
:10100C002468A047012035E0039C641E0394EDE79F
:10101C00048844F0020404800025254C2570054604
:10102C0000262A463146069CA14214D2059C64181F
:10103C00247801920291E1B21046FFF7E9FB029984
:10104C00019A20B11046FFF76BFC012012E04C1CFA
:10105C0026463146E7E7079C012C07D11046FFF7DF
:10106C005FFC002801D0012004E002E00125104CB7
:10107C0025700020DDF800E007B07047002000402C
:10108C00280000207800002074000020002400407C
:10109C002C0000207C0000200028004030000020A4
:1010AC0080000020002C0040340000208400002030
:0410BC0027000020E9
:0C07540001490870704700BF608809422E
:0C07600001490870704700BF588809422A
:0C076C0001490870704700BF4088094236
:0C07480001490870704700BF548009424E
:0C07240001490870704700BF5C8009426A
:0C07300001490870704700BF5880094262
:0C073C0001490870704700BF7C80094232
:0C07B00001490870704700BF70800942CA
:0C07BC0001490870704700BF48840942E2
:0C07C80001490870704700BF4C840942D2
:0C07A40001490870704700BF74880942CA
:0C07780001490870704700BF70880942FA
:0C07840001490870704700BF6C840942F6
:0C066C0001490870704700BF7C880942FB
:0C0BD40001490870704700BF48880942C2
:0C0BE00001490870704700BF54800942B2
:0C0BC80001490870704700BF5C800942C2
:0C0BAC0001490870704700BF58800942E2
:0C07F80001490870704700BF788009427A
:0C08040001490870704700BF7888094265
:0C07EC0001490870704700BF6880094296
:0C07D40001490870704700BF6C800942AA
:0C07E00001490870704700BF748809428E
:0C08100001490870704700BF7088094261
:100AC40081B000F2140212888A420FD000F216029A
:100AD40012888A420AD000F2180212888A4205D08B
:100AE40000F21A0212888A4200D000E002E000F20A
:080AF4002002118001B07047DF
:1009500085B0CDF800E0CCB20146464A91420AD1BA
:10096000454B1A6803921A4612680492434A136868
:10097000434A136028E0434A91420AD1424B1A6825
:1009800003921A4612680492404A13683C4A136064
:100990001AE03F4A91420AD13E4B1A6803921A4626
:1009A000126804923C4A1368354A13600CE03B4AD3
:1009B000914209D13A4B1A6803921A46126804927E
:1009C000384A13682E4A13608DF804400291084695
:1009D000FFF70CFD02999DF8044008B1012044E0A6
:1009E000E3B20A8863F304120A800A8842F0020222
:1009F0000A80012C1CD1084600F22C021388C3F394
:100A000040026AB9049A52B1039A2AB906201C4CD2
:100A10002468A047012028E0039A521E0392EBE7C6
:100A200000F22C040023228863F3410222801BE0A1
:100A3000084600F22C021388C3F300026AB9049A34
:100A400052B1039A2AB906200D4C2468A047012010
:100A50000BE0039A521E0392EBE700F22C040023F2
:100A6000228863F3000222800020DDF800E005B058
:100A7000704700BF002000402800002078000020C0
:100A800074000020002400402C0000207C00002086
:100A9000002800403000002080000020002C004092
:080AA000340000208400002056
:1003EC0083B0CDF800E0274988420AD1264A11682B
:1003FC00019111460968029124490A6824490A604E
:10040C0028E0244988420AD1234A116801911146F7
:10041C000968029121490A681D490A601AE02049BD
:10042C0088420AD11F4A116801911146096802914C
:10043C001D490A6816490A600CE01C49884209D11A
:10044C001B4A1168019111460968029119490A6801
:10045C000F490A6003461846FFF78AFE68B90299ED
:10046C0051B1019929B90520094C2468A0470120F4
:10047C0004E00199491E0191EDE70020DDF800E050
:10048C0003B07047002000402800002078000020B6
:10049C0074000020002400402C0000207C00002070
:1004AC00002800403000002080000020002C00407C
:0804BC00340000208400002040
:10017C0081B000F208010A88C2F3001181F001017C
:08018C00C9B2C8B201B070470E
:10081C0083B0CDF800E0354A90420AD1344B1A68C7
:10082C0001921A4612680292324A1368324A1360D5
:10083C0028E0324A90420AD1314B1A6801921A468A
:10084C00126802922F4A13682B4A13601AE02E4A40
:10085C0090420AD12D4B1A6801921A4612680292E4
:10086C002B4A1368244A13600CE02A4A904209D19F
:10087C00294B1A6801921A4612680292274A136889
:10088C001D4A136000F22C021388C3F3401232B1DC
:10089C0000F22C040023228863F34512228000F21C
:1008AC000E02118000F22C021388C3F340026AB9C5
:1008BC00029A52B1019A2AB904200F4C2468A0471D
:1008CC0001200FE0019A521E0192EBE700F22C047A
:1008DC000023228863F34102228000F22C02138849
:1008EC00C3F34010DDF800E003B070470020004077
:1008FC002800002078000020740000200024004014
:10090C002C0000207C00002000280040300000203B
:10091C0080000020002C00403400002084000020C7
:10092C0081B0CDF800E00122018862F382010180E0
:10093C00FFF756FD08B1012000E00020DDF800E0D3
:04094C0001B070473F
:1016280081B0CDF800E008B413460A46C1B20448B8
:10163800FFF780FC01B0DDF800E001B0704700BFA3
:04164800002400403A
:10168C0081B0CDF800E008B413460A46C1B2044854
:10169C00FFF74EFC01B0DDF800E001B0704700BF71
:0416AC0000280040D2
:1016680081B0CDF800E008B413460A46C1B2044878
:10167800FFF760FC01B0DDF800E001B0704700BF83
:04168800002C0040F2
:1018980082B0CDF800E040F20004ADF80440044CFA
:1018A8002468A047BDF90400DDF800E002B07047E5
:0418B800B800002054
:1015BC0081B0CDF800E008B413460A46C1B2044825
:1015CC00FFF79AFB01B0DDF800E001B0704700BFF7
:0415DC0000200040AB
:100D040087B0CDF800E08DF8041001469DF804008A
:100D1400079E7B4CA1420AD17A4D2C6805942C463F
:100D240024680694784C2568784C256028E0784C33
:100D3400A1420AD1774D2C6805942C462468069468
:100D4400754C2568714C25601AE0744CA1420AD197
:100D5400734D2C6805942C4624680694714C2568C0
:100D64006A4C25600CE0704CA14209D16F4D2C688F
:100D740005942C46246806946D4C2568634C2560C4
:100D8400019202910391C1B20398FFF799FE02996F
:100D9400019A684C24787CB90196029303920491D9
:100DA40008460021FFF7D2FD0499039A029B019E95
:100DB40000B1A0E0304661E000250C8865F304141E
:100DC4000C80012B39D130460D88C5F3800464B101
:100DD400069C4CB1059C24B907204C4C2468A047C0
:100DE40089E0059C641E0594EEE7069C05940C8836
:100DF40044F002040C80019111461A4603460198FE
:100E04000588C5F3400464B1069C4CB1059C24B923
:100E140006203E4C2468A0476DE0059C641E0594A2
:100E2400EEE7069C0594048844F0040404800192CF
:100E34000A4601461846019B1DE001930B463046C5
:100E440001991D88C5F3800464B1069C4CB1059CCE
:100E540024B907202D4C2468A0474CE0059C641E4F
:100E64000594EEE7069C05941C8844F002041C805B
:100E740001930B46019900252E4C25705C1E2346D8
:100E840001931346019A002A31DB01F22C042588D0
:100E9400C5F3000464B9069C4CB1059C24B9032035
:100EA4001A4C2468A04726E0059C641E0594ECE7D0
:100EB40016E001F20C0424881C705B1C15E001256B
:100EC4000C8865F382040C8001F20C0424881C70E5
:100ED4005B1C0AE001F20C0424881C705B1C04E017
:100EE400002AE6D0012AEAD0F4E7521ECBE710B973
:100EF4000125104C2570DDF800E007B0704700BFF5
:100F04000020004028000020780000207400002009
:100F1400002400402C0000207C0000200028004019
:100F24003000002080000020002C0040340000200D
:080F34008400002027000020CA
:1015980081B0CDF800E008B413460A46C1B2044849
:1015A800FFF7ACFB01B0DDF800E001B0704700BF09
:0415B80000240040CB
:1016040081B0CDF800E008B413460A46C1B20448DC
:10161400FFF776FB01B0DDF800E001B0704700BFD2
:04162400002800405A
:1015E00081B0CDF800E008B413460A46C1B2044801
:1015F000FFF788FB01B0DDF800E001B0704700BFE5
:04160000002C00407A
:101EF00083B0CDF800E0024610460D228DF8082090
:101F00000A228DF809201FE0FFF7A8FC23E00278E1
:101F10002AB10190FFF7A2FC0198401CF7E71AE0F4
:101F200002782AB10190FFF799FC0198401CF7E76D
:101F300002AA1046FFF792FC0DF109021046FFF7C6
:101F40008DFC08E0062007E00029DDD00129DED065
:101F50000229E5D0F6E70020DDF800E003B0704785
:10185C0081B0CDF800E00178CCB2A0B2034C246882
:10186C00A0470020DDF800E001B0704740000020E8
:10164C0081B0CDF800E081B20348FFF741FBDDF833
:0C165C0000E001B0704700BF001000402B
:100CDC0081B0ADF800100146BDF8000001F20A0227
:100CEC00128802F0010292B202B1F7E701F20E0291
:060CFC00108001B07047FA
:10157C0081B0CDF800E081B20348FFF7A9FBDDF89C
:0C158C0000E001B0704700BF00140040F8
:1014E80081B0CDF800E081B20348FFF7F3FBDDF8E7
:0C14F80000E001B0704700BF0018004089
:1015040081B0CDF800E081B20348FFF7E5FBDDF8D8
:0C15140000E001B0704700BF001C004068
:101D540083B0CDF800E002A9019003221120FFF71F
:101D6400ABFD019802AC217801800188CA0092B2CF
:101D7400A11C09780909C9B242EA01010180821C47
:101D8400611C09781170831C1978CA0092B2A11CD5
:101D9400097801F00F01C9B242EA01011970DDF8B6
:061DA40000E003B07047EF
:1018BC0084B0CDF800E002918DF80C208DF8040076
:1018CC00FFF7C2FF01AC0A4B1B7801222146D8B2AC
:1018DC000023FFF7A5FF064B1B789DF80C200299FF
:1018EC00D8B20123FFF7D2FFDDF800E004B0704757
:0418FC004500002083
:101DAC0081B00A4681B200208DB21146052805D2B9
:101DBC000B1820221A70401CC0B2F7E70B18002237
:101DCC001A70401EC0B20C180A23B5FBF3F203FBC9
:101DDC00125292B2303222700A22B5FBF2F292B257
:101DEC0095B202B902E0401EC0B2ECE701B07047F8
:101DFC0081B0CDF800E00C4642E02F4A1146204657
:101E0C00FFF736FD53E02D4A11462046FFF730FD13
:101E1C004DE02B4A11462046FFF72AFD47E0294AA0
:101E2C0011462046FFF724FD41E0274A1146204683
:101E3C00FFF71EFD3BE0254A11462046FFF718FD33
:101E4C0035E0234A11462046FFF712FD2FE0214AC8
:101E5C0011462046FFF70CFD29E01F4A114620468B
:101E6C00FFF706FD23E01D4A11462046FFF700FD53
:101E7C001DE01B4A11462046FFF7FAFC17E016E05E
:101E8C001128BAD02028BED01028C2D03128C6D0F4
:101E9C003228CAD04128CED04228D2D05128D6D010
:101EAC005228DAD06128DED06228E2D0E7E7DDF8EC
:101EBC0000E001B0704700BF0F2900002B29000083
:101ECC001E29000014220000D528000074200000F8
:101EDC00C028000043290000FD280000382900001C
:041EEC00E9280000E1
:10187C000246104613460A7822B10A781A705B1C8D
:0A188C00491CF8E700221A707047AB
:1022DC0083B0CDF800E0374B374C384D384E394F82
:1022EC00394845F680213948018004F0070005285B
:1022FC0004D004F07000502800D00BE0012252B240
:10230C0033480280002149B23248018032480280B1
:10231C0032480180802132480160019502961E46A8
:10232C0025463A46029B019C2E48006800F48070BA
:10233C0000B1F9E72C492D48016001951146324650
:10234C001D46019B2748006800F4807000B1F9E736
:10235C002748016027480160274928480160284820
:10236C00026028480360200D00F0070028B944F0F3
:10237C000301254801602A4610E044F4803040F007
:10238C000301214801602A462048006830B1FFF75C
:10239C0071FE012149B21E480160F5E70021174882
:1023AC00016042F4B44109480180DDF800E003B05B
:1023BC00704700BF0000050033000000030001005F
:1023CC00840000000010000080BB00000C4800409E
:1023DC004CA509428CA5094248A5094288A5094289
:1023EC00143004E00400014001005A69000001406F
:1023FC0010100140141001405A6900000004014003
:10240C0004040140080401400C04014004892042EA
:04241C00048A2042CC
:1020800040F20907C0F2000700BF00BF7F1EFDD16C
:0820900000BF00BF00BF704754
:1022A40081B002490248016001B0704780BB000060
:0422B4009000002076
:0822700081B0FEE701B07047E8
:1022780081B04EF68850CEF20000016841F470013A
:10228800016000BF00BF00BF00BFF1EE100A40F4BC
:0A2298004000E1EE100A01B07047AB
:1029500000B5DFF814B0DFF814A0DFF814C0FFF7FB
:102960004FFC00BD704700BF000000204000002069
:0429700080280000BB
:1029D00000B5DFF810B0DFF810A0FFF7F3FB00BD83
:0C29E000704700BF00000020BC00002079
:0C2074005269676874205377697065003A
:08209800291600009915000053
:0B221400446F776E20537769706500FF
:10242000004C00400400050500000000004C004086
:10243000080005050000000000000000000000008A
:10244000000000000000000000000000000000008C
:10245000000000000000000000000000000000007C
:10246000000000000000000000000000000000006C
:10247000000000000000000000000000000000005C
:10248000000000000000000000000000000000004C
:10249000000000000000000000000000000000003C
:1024A000000000000000000000000000000000002C
:1024B000000000000000000000000000000000001C
:1024C000000000000000000000000000000000000C
:1024D00000000000000000000000000000000000FC
:1024E00000000000000000000000000000000000EC
:0C24F000000000000000000002000000DE
:1024FC00004C00400004050500000000004C0040AA
:10250C0000080505000000000000000000000000AD
:10251C0000000000000000000000000000000000AF
:10252C00000000000000000000000000000000009F
:10253C00000000000000000000000000000000008F
:10254C00000000000000000000000000000000007F
:10255C00000000000000000000000000000000006F
:10256C00000000000000000000000000000000005F
:10257C00000000000000000000000000000000004F
:10258C00000000000000000000000000000000003F
:10259C00000000000000000000000000000000002F
:1025AC00000000000000000000000000000000001F
:1025BC00000000000000000000000000000000000F
:0C25CC0000000000000000000200000001
:1025D800404C00400010000500000000404C004046
:1025E80000200005000000000000000000000000BE
:1025F80000000000000000000000000000000000D3
:1026080000000000000000000000000000000000C2
:1026180000000000000000000000000000000000B2
:1026280000000000000000000000000000000000A2
:102638000000000000000000000000000000000092
:102648000000000000000000000000000000000082
:102658000000000000000000000000000000000072
:102668000000000000000000000000000000000062
:102678000000000000000000000000000000000052
:102688000000000000000000000000000000000042
:102698000000000000000000000000000000000032
:0C26A80000000000000000000200000024
:1026B400204C00400400050500000000204C0040B0
:1026C40008000505000000000000000000000000F4
:1026D40000000000000000000000000000000000F6
:1026E40000000000000000000000000000000000E6
:1026F40000000000000000000000000000000000D6
:1027040000000000000000000000000000000000C5
:1027140000000000000000000000000000000000B5
:1027240000000000000000000000000000000000A5
:102734000000000000000000000000000000000095
:102744000000000000000000000000000000000085
:102754000000000000000000000000000000000075
:102764000000000000000000000000000000000065
:102774000000000000000000000000000000000055
:0C27840000000000000000000200000047
:1027900055070000610700006D07000049070000B1
:1027A00025070000310700003D070000B1070000C9
:1027B000BD070000C9070000A50700007907000059
:1027C000FFFFFFFFFFFFFFFFFFFFFFFFFFFFFFFF19
:1027D000FFFFFFFFFFFFFFFFFFFFFFFFFFFFFFFF09
:1027E000FFFFFFFFFFFFFFFFFFFFFFFFFFFFFFFFF9
:1027F0000000010002000400080010002000110089
:10280000210022004400250049004A0052009200A5
:1028100053005500AA006B00AD00B500B600D6000D
:10282000B700BB00DD00ED00EE00BF00DF00EF00F1
:08283000F700FB00FD00FE00B3
:1028380000001102CB024303E903E404960586066F
:102848006308B008C709B80B070DF70DA90EA30F49
:10285800BE101A118A13531673176E1820190B1A03
:10286800591BEB1B4F1DB51E441F8D2010217C21C9
:082878002F222C23D223482457
:0E28800000506F736974696F6E20583A200023
:10288E00506F736974696F6E20593A20002D2D2D8B
:0A289E002D2D2D2D2D2D2D2D0000C8
:0428A800000000002C
:0428AC000000000028
:0428B0000000000024
:0428B4000000000020
:0428B80010270000E5
:0428BC0000366E0173
:1028C000526967687420537769706520616E64206F
:1028D000486F6C6400446F776E2053776970652091
:1028E000616E6420486F6C64004C65667420537799
:1028F00069706520616E6420486F6C6400557020BB
:10290000537769706520616E6420486F6C64004382
:0E2910006C69636B20616E6420486F6C64001C
:10291E0053696E676C6520436C69636B00446F7519
:0A292E00626C6520436C69636B0066
:102938004C6566742053776970650055702053772D
:04294800697065004D
:04294C00A086010060
:00000001FF
