:10000000BAEF10F00000000000EF00F00000000068
:0A0010000000000000000000F3D71C
:0E001C000001CCB102D08B9801D08B8812006D
:0E002A000001CCB102D08B9601D08B86120063
:0E0038000001CCB102D08D9601D08D86120051
:0E0046000001CCB102D0899401D0898412004F
:0E0054000001CCB102D08B9C01D08B8C12002D
:0E0062000001CCB102D08B9401D08B8412002F
:0E0070000001CCB102D08B9A01D08B8A120015
:0E007E000001CCB102D08B9E01D08B8E1200FF
:0E008C000001CCB102D08A9201D08A8212000B
:0E009A000001CCB102D08D9401D08D841200F3
:0E00A8000001CCB102D08F9201D08F821200E5
:0E00B6000001CCB102D08F9401D08F841200D3
:0E00C4000001CCB102D08B9801D08B881200C5
:0E00D2000001CCB102D08B9601D08B861200BB
:0E00E0000001CCB102D08A9401D08A841200B3
:0E00EE000001CCB102D08B9801D08B8812009B
:0E00FC000001CCB102D08B9601D08B86120091
:0E010A000001CCB102D08F9001D08F80120086
:0E0118000001CCB102D08B9A01D08B8A12006C
:0E0126000001CCB102D08B9801D08B88120062
:0E0134000001CCB102D08B9601D08B86120058
:0E0142000001CCB102D08B9201D08B82120052
:0E0150000001CCB102D08B9A01D08B8A120034
:0E015E000001CCB102D08D9001D08D80120036
:10016C000F0121B302D00000FBD7CCC01CFF120042
:0E017C00ACB202D00000FCD7CCC0ADFF120028
:0E018A000001CCB102D08B9001D08B8012000E
:0E0198000001CCB102D0899001D08980120004
:0E01A6000001CCB102D08A9001D08A801200F4
:0E01B4000001CCB102D08D9201D08D821200DC
:0E01C2000001CCB102D0899801D089881200CA
:0E01D0000001CCB102D08B9801D08B881200B8
:0E01DE000001CCB102D08B9601D08B861200AE
:0E01EC000001CCB102D0899201D089821200AC
:0E01FA000001CCB102D08B9C01D08B8C120086
:0E0208000001CCB102D08B9E01D08B8E120073
:0E0216000001CCB102D08B9801D08B88120071
:0E0224000001CCB102D08B9601D08B86120067
:10023200026AC7B408D01F0EC514016E0150000A2D
:0C02420002E1FF0E026E02C000F012008C
:10024E00F250026EF29E0500FF6A0150FE6E0050E3
:08025E00FD6E02BEF28E1200DB
:10026600026A68B408D01F0E6614016E0150000AB7
:0C02760002E1FF0E026E02C000F0120058
:0E028200000EACB2010E016E01C000F01200C1
:1002900056C0C8F057C0C9F058C0CAF059C0CBF01A
:1002A0000001C66BC76BDFDF0050000A01E00AD017
:1002B0000001C751120A02E18E0EC61903E0C64BB7
:1002C000C72BF1D70001120EC75D02E18F0EC65D8C
:1002D00003E37B0EC56F34D0668066A030D0000E7D
:1002E000006E591808E10050581805E100505718E1
:1002F00002E15650000A22E0000E006ECB1908E120
:100300000050CA1905E10050C91902E1C851000A9C
:100310000FE14CC0E1FF4DC0E2FF050EE66E4AC0A2
:1003200000F04BC001F093DF010E0001C56F08D053
:10033000010EC85F000EC95BCA5BCB5BCED7C56B35
:06034000C5C000F0120030
:100346001DCF02F00F0122A302D02299228902C0FA
:0803560001F001C000F01200EB
:10035E00000E0F0121B3010E016E01C000F012005C
:0E036E00000EA4BA010E016E01C000F01200D4
:10037C00AECF02F0ABA202D0AB98AB8802C001F0BA
:06038C0001C000F01200A8
:0E039200000E80B8010E016E01C000F01200D6
:0E03A000000E84B2010E016E01C000F01200CA
:0E03AE00000E80B2010E016E01C000F01200C0
:0E03BC00000E9EBA010E016E01C000F012008C
:0E03CA00000E82B8010E016E01C000F012009C
:0E03D800000E80B0010E016E01C000F0120098
:0E03E600000E82BE010E016E01C000F012007A
:0E03F400000E81B0010E016E01C000F012007B
:0E040200000E82BC010E016E01C000F012005F
:0E041000000E82B8010E016E01C000F0120055
:0E041E00000E82B6010E016E01C000F0120049
:0E042C00000E82B2010E016E01C000F012003F
:0E043A00000E84B0010E016E01C000F0120031
:0E044800000E82B0010E016E01C000F0120025
:0E045600000E82B6010E016E01C000F0120011
:0E046400000E82BA010E016E01C000F01200FF
:0E047200000E82B8010E016E01C000F01200F3
:0E048000000E82BA010E016E01C000F01200E3
:0E048E00000E82B8010E016E01C000F01200D7
:10049C003EC0C7F03FC0C8F040C0C9F041C0CAF070
:1004AC009E96C5869EB62FD0000E006E411808E1B0
:1004BC000050401805E100503F1802E13E50000A80
:1004CC0021E0000E006E0001CA1908E10050C919A4
:1004DC0005E10050C81902E1C751000A0CE12FC018
:1004EC00E1FF30C0E2FF030EE66E2DC000F02EC01F
:1004FC0001F0A7DE08D0010E0001C75F000EC85B3B
:10050C00C95BCA5BCFD70001C9CFC6F0C59AC5512C
:10051C00000AD8B4C58A9E96C5883EC0C7F03FC0B5
:10052C00C8F040C0C9F041C0CAF09EB62FD0000E32
:10053C00006E411808E10050401805E100503F18CA
:10054C0002E13E50000A21E00001000E006ECA19C3
:10055C0008E10050C91905E10050C81902E1C75162
:10056C00000A0CE12FC0E1FF30C0E2FF030EE66E83
:10057C002DC000F02EC001F064DE08D0010E000189
:10058C00C75F000EC85BC95BCA5BCFD7C6C000F0A3
:02059C0012004B
:10059E003EC0C7F03FC0C8F040C0C9F041C0CAF06D
:1005AE009E96C5C0C9FFC7A431D0000E006E41187B
:1005BE0008E10050401805E100503F1802E13E509E
:1005CE00000A23E0000E006E0001CA1908E1005077
:1005DE00C91905E10050C81902E1C751000A0FE11F
:1005EE002FC0E1FF30C0E2FF040EE66E2DC000F01A
:1005FE002EC001F025DE010E0001C66F4BD0010E9C
:10060E00C75F000EC85BC95BCA5BCDD73EC0C7F0E3
:10061E003FC0C8F040C0C9F041C0CAF09EB631D04C
:10062E00000E006E411808E10050401805E1005020
:10063E003F1802E13E50000A23E00001000E006E5A
:10064E00CA1908E10050C91905E10050C81902E1A4
:10065E00C751000A0FE12FC0E1FF30C0E2FF040EC8
:10066E00E66E2DC000F02EC001F0EADD010E000195
:10067E00C66F10D0010EC75F000EC85BC95BCA5BA8
:10068E00CDD7C5BC03D00001C66B04D00001C58414
:0A069E00020EC66FC6C000F0120085
:0E06A800000E86B4010E016E01C000F01200BB
:0E06B600000E82BA010E016E01C000F01200AB
:0E06C400000E82B6010E016E01C000F01200A1
:0E06D200000E81B4010E016E01C000F0120096
:1006E00056C0C5F057C0C6F058C0C7F059C0C8F0D2
:1006F000668266A22FD0000E006E591808E10050E5
:10070000581805E10050571802E15650000A21E040
:10071000000E006E0001C81908E10050C71905E17C
:100720000050C61902E1C551000A0CE14CC0E1FFBE
:100730004DC0E2FF060EE66E4AC000F04BC001F06D
:1007400086DD08D0010E0001C55F000EC65BC75BE9
:06075000C85BCFD71200C8
:0407560066841200A3
:10075A003EC0C8F03FC0C9F040C0CAF041C0CBF0AB
:10076A000001C66BC76B60DD0050000A01E00AD0C9
:10077A000001C751120A02E18E0EC61903E0C64BE8
:10078A00C72BF1D70001120EC75D02E18F0EC65DBD
:10079A0003E37B0EC56F34D0C580C5A030D0000EF0
:1007AA00006E411808E10050401805E100503F185A
:1007BA0002E13E50000A22E0000E006ECB1908E169
:1007CA000050CA1905E10050C91902E1C851000ACE
:1007DA000FE12FC0E1FF30C0E2FF050EE66E2DC02B
:1007EA0000F02EC001F02EDD010E0001C56F08D009
:1007FA00010EC85F000EC95BCA5BCB5BCED7C56B67
:06080A00C5C000F0120061
:1008100056C0C7F057C0C8F058C0C9F059C0CAF098
:10082000A19AC5C06AFF68A431D0000E006E5918A5
:1008300008E10050581805E10050571802E15650E1
:10084000000A23E0000E006E0001CA1908E1005002
:10085000C91905E10050C81902E1C751000A0FE1AA
:100860004CC0E1FF4DC0E2FF040EE66E4AC000F04E
:100870004BC001F0ECDC010E0001C66F4BD0010E45
:10088000C75F000EC85BC95BCA5BCDD756C0C7F057
:1008900057C0C8F058C0C9F059C0CAF0A1BA31D089
:1008A000000E006E591808E10050581805E100507C
:1008B000571802E15650000A23E00001000E006EB6
:1008C000CA1908E10050C91905E10050C81902E130
:1008D000C751000A0FE14CC0E1FF4DC0E2FF040E1A
:1008E000E66E4AC000F04BC001F0B1DC010E000121
:1008F000C66F10D0010EC75F000EC85BC95BCA5B34
:10090000CDD766BC03D00001C66B04D0000166845D
:0A091000020EC66FC6C000F0120010
:0E091A00000E86B2010E016E01C000F0120048
:04092800C584120070
:10092C0056C0C7F057C0C8F058C0C9F059C0CAF07B
:10093C00A19A6686A1BA2FD0000E006E591808E154
:10094C000050581805E10050571802E15650000AA3
:10095C0021E0000E006E0001CA1908E10050C9190F
:10096C0005E10050C81902E1C751000A0CE14CC066
:10097C00E1FF4DC0E2FF030EE66E4AC000F04BC033
:10098C0001F05FDC08D0010E0001C75F000EC85BF0
:10099C00C95BCA5BCFD700016ACFC6F0669AC55156
:1009AC00000AD8B4668AA19A668856C0C7F057C0A8
:1009BC00C8F058C0C9F059C0CAF0A1BA2FD0000E67
:1009CC00006E591808E10050581805E100505718EE
:1009DC0002E15650000A21E00001000E006ECA1917
:1009EC0008E10050C91905E10050C81902E1C751CE
:1009FC00000A0CE14CC0E1FF4DC0E2FF030EE66EB5
:100A0C004AC000F04BC001F01CDC08D0010E000104
:100A1C00C75F000EC85BC95BCA5BCFD7C6C000F00E
:020A2C001200B6
:0E0A2E00000E82B6010E016E01C000F0120033
:100A3C003EC0C5F03FC0C6F040C0C7F041C0C8F0D2
:100A4C00C582C5A230D0000E006E411808E10050DE
:100A5C00401805E100503F1802E13E50000A22E028
:100A6C00000E006E0001C81908E10050C71905E11D
:100A7C000050C61902E1C551000A0DE12FC0E1FF7B
:100A8C0030C0E2FF060EE66E2DC000F02EC001F065
:100A9C0027EC01F008D0010E0001C55F000EC65B0B
:080AAC00C75BC85BCED7120046
:0E0AB400000E86B0010E016E01C000F01200AF
:0E0AC200000E80B4010E016E01C000F01200A3
:0E0AD000000E82B4010E016E01C000F0120093
:0E0ADE00000E82B6010E016E01C000F0120083
:0E0AEC00000E82BC010E016E01C000F012006F
:0E0AFA00000E81B2010E016E01C000F012006C
:0E0B0800000E82BE010E016E01C000F0120050
:0E0B1600000E82B8010E016E01C000F0120048
:0E0B2400000E84B4010E016E01C000F012003C
:0E0B3200000E84B6010E016E01C000F012002C
:0E0B4000000E82B8010E016E01C000F012001E
:0E0B4E00000E82B6010E016E01C000F0120012
:100B5C00220E0C6E086A096A0A6A0B6A0C06D8B473
:100B6C001FD0D8900B320A320932083203320232CB
:100B7C0001320032D8A0F2D70C06D8B409D00450F8
:100B8C0008260550092206500A2207500B22EAD7E4
:100B9C00045008260550092206500A2207500B2241
:020BAC00120035
:100BAE000001BB6BBC6B25C000F026C001F027EC2A
:100BBE0001F000C0BBF0000E0001BC6FBBC000F026
:060BCE00BCC001F01200A2
:100BD4007C0E0001656F010E666FCC0E676F000E10
:100BE400686F7C0E616F030E626F000E636F000E00
:100BF400646FBC0E696F030E6A6F000E6B6F000E9C
:100C04006C6F820E996F020E9A6F000E9B6F000E2E
:100C14009C6FAC8A900EAB6E948E949C9EAA03D06B
:080C2400AECF00F0FBD7120077
:100C2C006C0E0001656F010E666FCC0E676F000EC7
:100C3C00686F460E616F030E626F000E636F000EDD
:100C4C00646F6E0E696F030E6A6F000E6B6F000E91
:100C5C006C6F5E0E996F030E9A6F000E9B6F000EF9
:100C6C009C6F0F01218B900E226F98849892A4AAEE
:0A0C7C0003D01DCF00F0FBD71200DB
:100C86003E6A3F6A406A416A320E3A6E020E3B6E17
:100C9600000E3C6E000E3D6E5A0E466E070E476EF7
:100CA600000E486E000E496E3C0E5A6E0A0E5B6EC2
:100CB600000E5C6E000E5D6E9C0E316E040E326E82
:100CC600C50E336E000E346E9E0E356E050E366EF4
:100CD600C50E376E000E386E280E296E090E2A6E66
:100CE600000E2B6E000E2C6E949894968B988B9615
:0E0CF60094889486C79EC79C380EC66E120066
:100D04000001C36BC46BBCC0C1F0BDC0C2F0BBC0AA
:100D140000F00036009023C0E1FF24C0E2FF00C0D1
:100D2400E6FF21C000F022C001F027EC01F00050E2
:100D34000001C313000EC413BEC000F0BFC001F015
:100D4400010EBE5F000EBF5B0050011018E023C00F
:100D5400E1FF24C0E2FFC1C0E9FFC2C0EAFFEECF59
:100D6400E6FF21C000F022C001F027EC01F00050A2
:100D74000001C313000EC413C14BC22BDDD7C051F5
:100D8400000A06E119C000F01AC001F027EC01F0D6
:100D94000001C051010A06E115C000F016C001F0BF
:0E0DA40027EC01F0C3C000F0C4C001F0120043
:100DB2000001C36BC46BBCC0C1F0BDC0C2F0BBC0FC
:100DC20000F000360090008023C0E1FF24C0E2FF63
:100DD20000C0E6FF21C000F022C001F027EC01F0C4
:100DE20000500001C313000EC413010EBE5F000EBB
:100DF200BF5BBE51BF1116E01FC0E1FF20C0E2FF82
:100E0200010EE66E1DC000F01EC001F027EC01F0DD
:100E1200C1C0E1FFC2C0E2FF00C0E6FF0001C14B5A
:100E2200C22BE3D71FC0E1FF20C0E2FFE66A1DC06C
:100E320000F01EC001F027EC01F0C1C0E1FFC2C00A
:100E4200E2FF00C0E6FF0001C051000A06E119C03E
:100E520000F01AC001F027EC01F00001C051010AB4
:100E620006E115C000F016C001F027EC01F0C3C086
:080E720000F0C4C001F0120001
:100E7A00B2C0B5F0B3C0B6F0B4C0B7F0B5C000F0B8
:100E8A00B6C001F0B7C002F000C0F6FF01C0F7FF1C
:100E9A0002C0F8FF0900F5CF25F00900F5CF26F0CA
:100EAA000900F5CF27F00900F5CF28F0B5C000F00A
:100EBA00B6C001F0B7C002F0040E0024F66E000EB0
:100ECA000120F76E000E0220F86E0900F5CF19F026
:100EDA000900F5CF1AF00900F5CF1BF00900F5CF8C
:100EEA001CF0B5C000F0B6C001F0B7C002F0080EA1
:100EFA000024F66E000E0120F76E000E0220F86E36
:100F0A000900F5CF15F00900F5CF16F00900F5CF65
:100F1A0017F00900F5CF18F0B5C000F0B6C001F01F
:100F2A00B7C002F00C0E0024F66E000E0120F76E18
:100F3A00000E0220F86E0900F5CF21F00900F5CF66
:100F4A0022F00900F5CF23F00900F5CF24F0B5C04F
:100F5A0000F0B6C001F0B7C002F0100E0024F66E21
:100F6A00000E0120F76E000E0220F86E0900F5CF80
:100F7A001DF00900F5CF1EF00900F5CF1FF009009A
:060F8A00F5CF20F012007B
:100F90000001B66B000E006EB51908E10050B419DF
:100FA00005E1120EB31902E1B251C00A05E1CF0EFC
:100FB000AF6EAC940FDE5DD0000E006EB51908E187
:100FC0000050B41905E1250EB31902E1B251800AAF
:100FD00005E1670EAF6EAC94FDDD4BD0000E006EE8
:100FE000B51908E10050B41905E14B0EB31902E13F
:100FF000B251000A05E1CF0EAF6EAC84EBDD39D003
:10100000000E006EB51908E10050B41905E1960E06
:10101000B31902E1B251000A05E1670EAF6EAC846C
:10102000D9DD27D0000E006EB51908E10050B419C3
:1010300005E1E10EB31902E1B251000A05E1440EE7
:10104000AF6EAC84C7DD15D0B551000A08E1B451CC
:10105000010A05E1B351C20A02E1B251000A05E1F9
:10106000220EAF6EAC84B6DD04D0670EAF6EAC94CA
:10107000B1DD7C0E426E010E436ECC0E446E000E4E
:08108000456EB6C000F012003D
:10108800B2C0F6FFB3C0F7FFB4C0F8FF0900F5CF50
:10109800B6F00900F5CFB7F00900F5CFB8F00900B0
:1010A800F5CFB9F00001B951000A08E1B851010AB9
:1010B80005E1B751860A02E1B651A00A04E1A00E83
:1010C800C86EDDDD12D0B951000A08E1B851060A30
:1010D80005E1B7511A0A02E1B651800A04E1280E67
:1010E800C86ECDDD02D0040EB56FB56BB5C000F08B
:0210F8001200E4
:1010FA000001B66B000E006EB51908E10050B41974
:10110A0005E1120EB31902E1B251C00A05E1CF0E90
:10111A00AF6EAC945ADD5DD0000E006EB51908E1D1
:10112A000050B41905E1250EB31902E1B251800A43
:10113A0005E1670EAF6EAC9448DD4BD0000E006E31
:10114A00B51908E10050B41905E14B0EB31902E1D3
:10115A00B251000A05E1CF0EAF6EAC8436DD39D04C
:10116A00000E006EB51908E10050B41905E1960E9B
:10117A00B31902E1B251000A05E1670EAF6EAC8401
:10118A0024DD27D0000E006EB51908E10050B4190D
:10119A0005E1E10EB31902E1B251000A05E1440E7C
:1011AA00AF6EAC8412DD15D0B551000A08E1B45116
:1011BA00010A05E1B351C20A02E1B251000A05E18E
:1011CA00220EAF6EAC8401DD04D0670EAF6EAC9414
:1011DA00FCDC7C0E426E010E436ECC0E446E000E99
:0811EA00456EB6C000F01200D2
:1011F200B2C0F6FFB3C0F7FFB4C0F8FF0900F5CFE5
:10120200B6F00900F5CFB7F00900F5CFB8F0090044
:10121200F5CFB9F00001B951000A08E1B851010A4D
:1012220005E1B751860A02E1B651A00A04E1A00E17
:10123200C86E28DD12D0B951000A08E1B851060A79
:1012420005E1B7511A0A02E1B651800A04E1280EFB
:10125200C86E18DD02D0040EB56FB56BB5C000F0D4
:02126200120078
:101264000001B66B000E006EB51908E10050B41908
:1012740005E1120EB31902E1B251C00A09E10F01EE
:1012840020870D0E1F6F040E1E6F2185CDDC79D0D3
:10129400000E006E0001B51908E10050B41905E113
:1012A400250EB31902E1B251800A09E10F0120872A
:1012B400060E1F6F820E1E6F2185B6DC62D0000EF3
:1012C400006E0001B51908E10050B41905E14B0E98
:1012D400B31902E1B251000A09E10F012087030E9C
:1012E4001F6F400E1E6F21859FDC4BD0000E006ED9
:1012F4000001B51908E10050B41905E1960EB319BF
:1013040002E1B251000A09E10F012087010E1F6FAB
:10131400A00E1E6F218588DC34D0000E006E000103
:10132400B51908E10050B41905E1E10EB31902E161
:10133400B251000A09E10F012087010E1F6F150E3B
:101344001E6F218571DC1DD00001B551000A08E132
:10135400B451010A05E1B351C20A02E1B251000AD3
:1013640008E10F0120871F6B8A0E1E6F21855CDC4C
:1013740008D00F012087060E1F6F820E1E6F218575
:1013840053DC6C0E426E010E436ECC0E446E000EA6
:08139400456EB6C000F0120026
:10139C000001B66B000E006EB51908E10050B419CF
:1013AC0005E1120EB31902E1B251C00A05E1CF0EEC
:1013BC00AF6EAC9409DC63D0000E006EB51908E179
:1013CC000050B41905E1250EB31902E1B251800A9F
:1013DC0006E1670EAF6EAC94EAEC05F050D0000E4F
:1013EC00006EB51908E10050B41905E14B0EB319A4
:1013FC0002E1B251000A06E1CF0EAF6EAC84EAEC0A
:10140C0005F03DD0000E006EB51908E10050B4197E
:10141C0005E1960EB31902E1B251000A06E1670E1E
:10142C00AF6EAC84EAEC05F02AD0000E006EB51954
:10143C0008E10050B41905E1E10EB31902E1B25113
:10144C00000A06E1440EAF6EAC84EAEC05F017D04E
:10145C00B551000A08E1B451010A05E1B351C20AC1
:10146C0002E1B251000A06E1220EAF6EAC84EAEC46
:10147C0005F005D0670EAF6EAC94EAEC05F07C0E6F
:10148C00426E010E436ECC0E446E000E456EB6C01D
:04149C0000F012004A
:1014A000B2C0B5F0B3C0B6F0B4C0B7F0B5C000F08C
:1014B000B6C001F0B7C002F0300E0026000E0122C7
:1014C000022200C0B8F001C0B9F002C0BAF0010EAB
:1014D000006E000E016E026E036E040E046E000EAE
:1014E000056E066E076EAEEC05F00001B8510024E3
:1014F000F66EB9510120F76EBA510220F86E09005C
:10150000F5CF52F00900F5CF53F00900F5CF54F0B4
:101510000900F5CF55F0B5C000F0B6C001F0B7C076
:1015200002F000C0B8F001C0B9F002C0BAF0070E76
:10153000006E000E016E026E036E040E046E000E4D
:10154000056E066E076EAEEC05F0B8510024F66E1F
:10155000B9510120F76EBA510220F86E0900F5CF9B
:101560004EF00900F5CF4FF00900F5CF50F009001B
:06157000F5CF51F012005E
:10157600016A0001B251000A08E1B3B102D09292A9
:1015860001D092820F01259366D00001B251010A63
:1015960006E1B3B102D0929801D092885CD0B251E4
:1015A600020A06E1B3B102D0969201D0968253D0D8
:1015B600B251030A06E1B3B102D0949601D09486E3
:1015C6004AD0B251040A06E1B3B102D0949801D0D0
:1015D600948841D0B251050A06E1B3B102D0949A7B
:1015E60001D0948A38D0B251060A06E1B3B102D0CE
:1015F600949401D094842FD0B251070A06E1B3B176
:1016060002D0939201D0938226D0B251080A06E105
:10161600B3B102D0949E01D0948E1DD0B251090A66
:1016260006E1B3B102D0949C01D0948C14D0B2518F
:101636000A0A06E1B3B102D0949601D094860BD083
:10164600B2510B0A06E1B3B102D0949801D0948846
:0C16560002D0020E016E01C000F0120074
:1016620044C0E1FF45C0E2FFB2C0E9FFB3C0EAFFF8
:10167200EECFE6FF42C000F043C001F027EC01F0DC
:02168200120054
:10168400B2C0B6F0D7EC05F039C0BBF0B60EBC6FF3
:10169400000EBD6F010EBE6F000EBF6F010EC06F56
:1016A40082EC06F039C0BBF0B3C0BCF0B4C0BDF0EE
:1016B400B5C0BEF0000E0001BF6FC06BD9EC06F0E0
:0216C400120012
:1016C600B2C0B7F0B3C0B8F0B4C0F6FFB5C0F7FF0C
:1016D600B6C0F8FF0900F5CF00F0005218E0B4C01C
:1016E600F6FFB5C0F7FFB6C0F8FF0900F5CF00F06A
:1016F600B2C0E1FFB3C0E2FF00C0E6FF0001B24B9B
:10170600B32B010EB427000EB523B623DDD7B2C026
:10171600E1FFB3C0E2FFE66AB7C000F0B8C001F06F
:021726001200AF
:10172800016A0001B251000A08E1B3B102D09290F7
:1017380001D092800F01259166D00001B251010AB3
:1017480006E1B3B102D0949001D094805CD0B2513C
:10175800020A06E1B3B102D0969001D0968053D028
:10176800B251030A06E1B3B102D0949601D094862F
:101778004AD0B251040A06E1B3B102D0949801D01C
:10178800948841D0B251050A06E1B3B102D0949AC7
:1017980001D0948A38D0B251060A06E1B3B102D01A
:1017A800949201D094822FD0B251070A06E1B3B1C6
:1017B80002D0939001D0938026D0B251080A06E156
:1017C800B3B102D0949E01D0948E1DD0B251090AB3
:1017D80006E1B3B102D0949C01D0948C14D0B251DC
:1017E8000A0A06E1B3B102D0949601D094860BD0D0
:1017F800B2510B0A06E1B3B102D0949801D0948893
:0C18080002D0020E016E01C000F01200C0
:10181400B2C0F6FFB3C0F7FFB4C0F8FF0900F5CFBC
:10182400B6F00900F5CFB7F00900F5CFB8F009001C
:10183400F5CFB9F00001B951000A08E1B851010A25
:1018440005E1B751860A02E1B651A00A05E1A00EEE
:10185400C86E43EC06F013D0B951000A08E1B85140
:10186400060A05E1B7511A0A02E1B651800A05E1F8
:10187400280EC86E43EC06F002D0040EB56FB56BAB
:06188400B5C000F01200E7
:10188A00086A096A100E0C6E0134083609360450CB
:10189A00085E0550D8A0053C095ED8B007D00450B0
:1018AA0008260550D8B0053C0926D89000360136DE
:0618BA000C2EEAD712001B
:1018C000016A0001B251000A08E1B3B102D092945A
:1018D00001D092840F0125956ED00001B251010A0A
:1018E00006E1B3B102D0969601D0968664D0B2518B
:1018F000020A06E1B3B102D0969401D096845BD07F
:10190000B251030A06E1B3B102D0949601D0948695
:1019100052D0B251040A06E1B3B102D0949801D07A
:10192000948849D0B251050A06E1B3B102D0949A25
:1019300001D0948A40D0B251060A06E1B3B102D078
:10194000989001D0988037D0B251070A06E1B3B120
:1019500002D0939401D093842ED0B251080A09E1A9
:10196000B3B102D0989401D09884FB0E0F012317D5
:1019700022D00001B251090A09E1B3B102D0989214
:1019800001D09882FD0E0F01231715D00001B2512E
:101990000A0A06E1B3B102D0949601D094860BD026
:1019A000B2510B0A06E1B3B102D0949801D09488E9
:0C19B00002D0020E016E01C000F0120017
:1019BC000001AA51000A08E1ABC0B2F0ACC0B3F010
:1019CC00ADDE00C05FF01AD00001AA51010A08E197
:1019DC00ABC0B2F0ACC0B3F0C8DD00C05FF00ED04D
:1019EC000001AA51020A08E1ABC0B2F0ACC0B3F0DE
:1019FC0061DF00C05FF002D0010E5F6E5FC000F0CF
:021A0C001200C6
:101A0E000001AA51000A0AE1ABC0B2F0ACC0B3F0BB
:101A1E00ADC0B4F0F8DE00C05FF01ED0AA51010ACE
:101A2E000BE1ABC0B2F0ACC0B3F0ADC0B4F044EC5F
:101A3E0008F000C05FF010D0AA51020A0BE1ABC053
:101A4E00B2F0ACC0B3F0ADC0B4F0F9EC08F000C029
:0E1A5E005FF002D0010E5F6E5FC000F012005C
:101A6C00110E0001B26FAC0EB36F000EB46F030E0B
:101A7C00B56F02DEAAC000F0ABC001F000C0E1FF00
:101A8C0001C0E2FFACC0E6FF000EE66EAAC000F09B
:101A9C00ABC001F000C0E1FF01C0E2FFAAC000F042
:101AAC00ABC001F000C0E9FF01C0EAFFEECF01F0CE
:101ABC00EECF02F001C003F002C004F00336039035
:101ACC000436033603900436033603900436AEC056
:101ADC0000F00032009E0032009E0032009E003268
:101AEC00009E000E016E035000120450011200C043
:101AFC00E6FF01C0E6FFAAC000F0ABC001F0020E89
:101B0C000024E16E000E0120E26EADC0E6FFAAC01B
:101B1C0000F0ABC001F0020E0024E16E000E0120BB
:101B2C00E26EAAC000F0ABC001F0020E0024E96E18
:101B3C00000E0120EA6EEECF02F002C001F0013679
:101B4C00019001360190013601900F0E0001AE1587
:0C1B5C00006E0150001200C0E6FF1200F5
:101B68005F6A0D0E0001606F0A0EAF6FAAC0ADF07C
:101B7800ABC0AEF0B06BB16BAC51010A06E1ADC0C1
:101B8800B2F0AEC0B3F069DD42D00001AC51020A38
:101B980017E1ADC0E9FFAEC0EAFFEE5000080FE262
:101BA800ADC0B2F0AEC0B3F058DD0001B04BB12B00
:101BB800B051AA25AD6FB151AB21AE6FEAD727D08E
:101BC800AC51030A22E1ADC0E9FFAEC0EAFFEE5016
:101BD80000080FE2ADC0B2F0AEC0B3F03EDD0001C8
:101BE800B04BB12BB051AA25AD6FB151AB21AE6F3F
:101BF800EAD7600EB26F000EB36F2FDDAF0E000193
:101C0800B26F000EB36F29DD02D0060E5F6E5FC0A3
:041C180000F01200C6
:101C1C00ACC0E1FFADC0E2FF200EE66E200EE66E1A
:101C2C00200EE66E200EE66E300EE66EE66A040EB0
:101C3C000001AC25AE6F000EAD21AF6F000EAB19DD
:101C4C0002E1000EAA1927E00A0E046E000E056EC2
:101C5C00AAC000F0ABC001F012DE08C000F009C051
:101C6C0001F0300E0026AEC0E1FFAFC0E2FF00C0B5
:101C7C00E6FF0A0E046E000E056EAAC000F0ABC0A3
:101C8C0001F0FDDD00C0AAF001C0ABF0010EAE5FAB
:081C9C00000EAF5BD3D712006C
:101CA40090D0ABC0B2F0ACC0B3F0410E0001B46F41
:101CB400220EB56F000EB66F04DDAAD0ABC0B2F031
:101CC400ACC0B3F05D0E0001B46F220EB56F000E10
:101CD400B66FF7DC9DD0ABC0B2F0ACC0B3F0500E21
:101CE4000001B46F220EB56F000EB66FEADC90D01F
:101CF400ABC0B2F0ACC0B3F0810E0001B46F220EE1
:101D0400B56F000EB66FDDDC83D0ABC0B2F0ACC0F3
:101D1400B3F0F30E0001B46F210EB56F000EB66F71
:101D2400D0DC76D0ABC0B2F0ACC0B3F06A0E000128
:101D3400B46F220EB56F000EB66FC3DC69D0ABC0B2
:101D4400B2F0ACC0B3F0DE0E0001B46F210EB56F7B
:101D5400000EB66FB6DC5CD0ABC0B2F0ACC0B3F072
:101D64008C0E0001B46F220EB56F000EB66FA9DCA5
:101D74004FD0ABC0B2F0ACC0B3F02F0E0001B46FC3
:101D8400220EB56F000EB66F9CDC42D0ABC0B2F031
:101D9400ACC0B3F0760E0001B46F220EB56F000E26
:101DA400B66F8FDC35D0ABC0B2F0ACC0B3F01B0E55
:101DB4000001B46F220EB56F000EB66F82DC28D01E
:101DC40027D00001AA51110AD8B46BD7AA51200A0E
:101DD400D8B474D7AA51100AD8B47DD7AA51310AFD
:101DE400D8B486D7AA51320A90E0AA51410A9AE09F
:101DF400AA51420AA4E0AA51510AAEE0AA51520AD9
:101E0400B8E0AA51610AC2E0AA51620ACCE0D8D76C
:021E14001200BA
:101E1600AAC05FF0D7EC05F039C0BBF05F0EBC6F0F
:101E2600000EBD6F010EBE6F000EBF6F010EC06FBC
:101E360082EC06F039C0BBF0ABC0BCF0ACC0BDF064
:101E4600010E0001BE6F000EBF6FC06BD9EC06F02D
:021E5600120078
:101E58000001AA51000A0DE1ABC0B2F0ACC0B3F06A
:101E6800ADC0B4F0AEC0B5F07DEC08F000C05FF0D6
:101E780033D0AA51010A0DE1ABC0B2F0ACC0B3F047
:101E8800ADC0B4F0AEC0B5F0CEEC09F000C05FF064
:101E980023D0AA51020A0DE1ABC0B2F0ACC0B3F036
:101EA800ADC0B4F0AEC0B5F032EC09F000C05FF0E0
:101EB80013D00001AA51100A0DE1ABC0B2F0ACC0BA
:101EC800B3F0ADC0B4F0AEC0B5F0C8EC07F000C0D8
:0E1ED8005FF002D0010E5F6E5FC000F01200DE
:101EE600B0C039F0ADC0B2F0AEC0B3F0AFC0B4F020
:101EF6003DEC07F0AAC0B2F0ABC0B3F0ACC0B4F092
:061F060050EC0AF012008D
:101F0C000001AA6B070EAB6FAC6B52DD0001AA6B24
:101F1C00010EAB6F010EAC6F4BDD0001AA6B950E81
:101F2C00AB6F220EAC6F000EAD6F6BDD100EAA6F97
:101F3C00800EAB6F250EAC6F000EAD6FAE6F86DFF3
:101F4C00090E0B6E1E0E0C6EE40E0D6E0D2EFED7D2
:0C1F5C000C2EFCD70B2EFAD70000120050
:101F6800050E0B6E0F0E0C6EF10E0D6E0D2EFED7BC
:101F78000C2EFCD70B2EFAD7100E0001AA6F5E0E9E
:101F8800AB6F000EAC6F43DF010E5E14016E0150A3
:101F9800000AD8B49ED000019D6B9D0EAA6F000E5A
:101FA800AB6F030EAC6FDCDD6D0E0001AA6F000E87
:101FB800AB6F58DD6DC0AAF06EC0ABF0700EAC6FA1
:101FC800000EAD6F27DE500E9D6F6F0E9E6F730E65
:101FD8009F6F690EA06F740EA16F690EA26F6F0ECE
:101FE800A36F6E0EA46F200EA56F580EA66F3A0E43
:101FF800A76F200EA86FA96B9D0EAA6F000EAB6F7E
:10200800020EAC6FADDD700E0001AA6F000EAB6F53
:10201800030EAC6FA5DD6FC0AAF0000E0001AB6F18
:10202800700EAC6F000EAD6FF5DD500E9D6F6F0E2C
:102038009E6F730E9F6F690EA06F740EA16F690E6D
:10204800A26F6F0EA36F6E0EA46F200EA56F590EB0
:10205800A66F3A0EA76F200EA86FA96B9D0EAA6FE8
:10206800000EAB6F020EAC6F7BDD700E0001AA6F25
:10207800000EAB6F030EAC6F73DD2D0E00019D6F6C
:102088002D0E9E6F2D0E9F6F2D0EA06F2D0EA16F22
:102098002D0EA26F2D0EA36F2D0EA46F2D0EA56F02
:1020A8002D0EA66F2D0EA76FA86B9D0EAA6F000EA2
:1020B800AB6F030EAC6F54DD050E0B6E0F0E0C6E7E
:1020C800F10E0D6E0D2EFED70C2EFCD70B2EFAD767
:1020D8002DD0020E5E14016E0150000A27E0050E95
:1020E8000B6E0F0E0C6EF10E0D6E0D2EFED70C2E14
:1020F800FCD70B2EFAD7140E0001AA6F5E0EAB6F39
:10210800000EAC6F84DE5E50000A10E05EC0AAF0DC
:10211800700E0001AB6F000EAC6FC0DD700E0001D9
:0E212800AA6F000EAB6F030EAC6F1ADD120033
:102136007E0E0001AA6F210EAB6F000EAC6F070E6C
:10214600AD6F220EAE6F000EAF6F250EB06FC8DEFC
:10215600190E0B6E5A0E0C6EB10E0D6E0D2EFED7AD
:0E2166000C2EFCD70B2EFAD700000000120042
:0A217400CBDEDFDFF7DEFED7FFD77A
:10217E009801CC008A01CC005E01CC003401CC0069
:10218E002601CC005001CC004201CC00A601CC00AF
:10219E000802CC00FA01CC002402CC001602CC00BE
:1021AE00D8030000480400003A0400005604000062
:1021BE0072040000640400002C040000F40300000C
:1021CE00E6030000020400001E04000010040000DC
:1021DE00526967687420537769706520616E642058
:0521EE00486F6C640065
:1021F300446F776E20537769706520616E64204861
:042203006F6C640098
:102207005A070000280900003C0A00009E05C50087
:042217009C04C5005E
:10221B004C65667420537769706520616E64204845
:04222B006F6C640070
:10222F00557020537769706520616E6420486F6C1C
:02223F00640039
:0F224100436C69636B20616E6420486F6C6400AE
:0D22500053696E676C6520436C69636B0019
:0D225D00446F75626C6520436C69636B0013
:0C226A0052696768742053776970650042
:0B2276004C65667420537769706500AA
:0B228100446F776E2053776970650092
:09228C005570205377697065005C
:04229500A08601001E
:020000040030CA
:0E00000015137F7CF98B91FFFFC0FFE0FF40DE
:00000001FF
