:10000000FCFF022099220000512200005122000032
:100010005122000051220000512200005122000014
:100020005122000051220000512200005122000004
:1000300051220000512200005122000051220000F4
:1000400051220000512200005122000051220000E4
:1000500051220000512200005122000051220000D4
:1000600051220000512200005122000051220000C4
:1000700051220000512200005122000051220000B4
:1000800051220000512200005122000051220000A4
:100090005122000051220000512200005122000094
:1000A0005122000051220000512200005122000084
:1000B0005122000051220000512200005122000074
:1000C0005122000051220000512200005122000064
:1000D0005122000051220000512200005122000054
:1000E0005122000051220000512200005122000044
:1000F0005122000051220000512200005122000034
:100100005122000051220000512200005122000023
:100110005122000051220000512200005122000013
:100120005122000051220000512200005122000003
:1001300051220000512200005122000051220000F3
:1001400051220000512200005122000051220000E3
:1001500051220000512200005122000051220000D3
:1001600051220000512200005122000051220000C3
:1001700051220000512200005122000051220000B3
:1001800051220000512200005122000051220000A3
:08019000512200005122000081
:1022980000F010F8FFF7DCFF00F034FDFFF7EEFF69
:1022A80000F0E2FCFFF770FFFFF7BEFFFFF7EAFE62
:0422B800FCE7FEE75A
:1021E00081B01CF8019B0BF8019BBBEB0A0FF8D1E7
:0421F00001B0704783
:1021F40081B04FF000094FF0000CBDEB0A0F04DC76
:10220400BDEB0B0F01DBD446EA464BF8049BBBEB5A
:102214000A0FFAD1BCEB0A0F05DDE246D9F800B08B
:0A2224000BF1040BF1E701B0704765
:1021900081B0CDF800E0002207210020FFF7F2FE19
:1021A000012201210020FFF7EDFE0C48014600202E
:1021B000FFF70AFF42F280510120FFF7DDFD40F6F4
:1021C000FE07C0F23D0700BF00BF7F1EFDD100BF6C
:1021D00000BF00BFDDF800E001B070476C2C0000CC
:101F840081B0CDF800E05FFA81F85FFA82F90FE0E2
:101F94005FFA89F15FFA88F0FFF79EFD0DE05FFAC2
:101FA40089F15FFA88F0FFF739FC06E0012004E0CC
:101FB4000028EDD00128F2D0F8E7DDF800E001B008
:021FC400704764
:101ADC0081B0CDF800E0A9E0012905D14FF0040157
:101AEC006548FFF735FE04E04FF004016348FFF74B
:101AFC0085FEBBE0012905D14FF400615E48FFF77C
:101B0C0027FE04E04FF400615C48FFF777FEADE080
:101B1C00012905D14FF010015948FFF719FE04E0D7
:101B2C004FF010015748FFF769FE9FE0012905D1DE
:101B3C004FF020015248FFF70BFE04E04FF020015C
:101B4C005048FFF75BFE91E0012905D14FF0800171
:101B5C004B48FFF7FDFD04E04FF080014948FFF7CB
:101B6C004DFE83E0012905D14FF040014448FFF7B9
:101B7C00EFFD04E04FF040014248FFF73FFE75E0F7
:101B8C00012905D14FF480613F48FFF7E1FD04E0E6
:101B9C004FF480613D48FFF731FE67E0012905D124
:101BAC004FF400513448FFF7D3FD04E04FF40051DB
:101BBC003248FFF723FE59E0012905D14FF004010B
:101BCC003348FFF7C5FD04E04FF004013148FFF73F
:101BDC0015FE4BE0012905D14FF008012C48FFF709
:101BEC00B7FD04E04FF008012A48FFF707FE3DE07F
:101BFC00012905D14FF480712548FFF7A9FD04E0B8
:101C0C004FF480712348FFF7F9FD2FE0012905D12E
:101C1C004FF400711E48FFF79BFD04E04FF4007178
:101C2C001C48FFF7EBFD21E0012020E000283FF4E9
:101C3C0053AF01283FF45EAF02283FF469AF03288D
:101C4C003FF474AF04283FF47FAF05283FF48AAF0C
:101C5C0006283FF495AF0728A0D00828ACD0092857
:101C6C00B8D00A28C4D00B28D0D0DDE70020DDF88E
:101C7C0000E001B0704700BF50F00F4040F00F4043
:101C8C0090F00F4080F00F4010F00F4000F00F402C
:081C9C00D0F00F40C0F00F4032
:10175C0081B0CDF800E0034AFFF73CFDDDF800E076
:08176C0001B070470401020006
:1011E00081B0CDF800E0FFF7B5FBDDF800E001B01D
:0211F000704746
:1009540083B0CDF800E006460C4615463046FFF756
:1009640093FD40F2FF1306EA0300800900262246A5
:100974002946202E39D24FF0010303FA06F402EA85
:1009840004031F46A3422ED104031A4B1C19B300BF
:10099400E51801952C68184B04EA03032B60174BE8
:1009A40001EA0304019B1B6843EA0404019B1C60E5
:1009B40001F48033B3F5803F15D08401104B1B192B
:1009C4001433029301F400333BB1FC43029B1B68D4
:1009D40003EA0404029B1C6005E0029B1B6843EAD3
:1009E4000704029B1C60761CC3E7DDF800E003B03B
:1009F400704700BF009004400000FFFFFFFF0000AD
:040A040000F00F40AF
:10048C0081B040F2FF1100EA01018909084600F22F
:10049C0009024FF0010101FA02F20449096841EA2C
:1004AC00020202490A6001B0704700BF3880044064
:1018080081B0CDF800E0034AFFF7E6FCDDF800E020
:0818180001B070470401040057
:1018200081B0CDF800E0A9E0012905D14FF0080111
:101830006548FFF793FF04E04FF008016348FFF7A6
:10184000E3FFBBE0012905D14FF400215E48FFF71B
:1018500085FF04E04FF400215C48FFF7D5FFADE0C1
:10186000012905D14FF010015948FFF777FF04E037
:101870004FF010015748FFF7C7FF9FE0012905D13E
:101880004FF020015248FFF769FF04E04FF02001BC
:101890005048FFF7B9FF91E0012905D14FF08001D1
:1018A0004B48FFF75BFF04E04FF080014948FFF72A
:1018B000ABFF83E0012905D14FF040014448FFF719
:1018C0004DFF04E04FF040014248FFF79DFF75E0F7
:1018D000012905D14FF010013F48FFF73FFF04E019
:1018E0004FF010013D48FFF78FFF67E0012905D158
:1018F0004FF480713448FFF731FF04E04FF48071FA
:101900003248FFF781FF59E0012905D14FF48031BA
:101910003348FFF723FF04E04FF480313148FFF7ED
:1019200073FF4BE0012905D14FF400312C48FFF73C
:1019300015FF04E04FF400312A48FFF765FF3DE052
:10194000012905D14FF480612548FFF707FF04E026
:101950004FF480612348FFF757FF2FE0012905D19D
:101960004FF400611E48FFF7F9FE04E04FF40061F8
:101970001C48FFF749FF21E0012020E000283FF448
:1019800053AF01283FF45EAF02283FF469AF03284C
:101990003FF474AF04283FF47FAF05283FF48AAFCB
:1019A00006283FF495AF0728A0D00828ACD0092816
:1019B000B8D00A28C4D00B28D0D0DDE70020DDF84D
:1019C00000E001B0704700BF50F00F4040F00F4002
:1019D000D0F00F40C0F00F4010F00F4000F00F406B
:0819E00090F00F4080F00F4071
:101FC80081B0CDF800E009E00846FFF753FD0AE0CC
:101FD8000846FFF75FFD06E0012004E00028F3D083
:0E1FE8000128F5D0F8E7DDF800E001B0704701
:101A7C0081B0CDF800E0016808460449FFF774FE18
:101A8C000020DDF800E001B0704700BFBC2A000068
:1017740081B0CDF800E00A4601460348FFF75EFC5D
:0C178400DDF800E001B070470060064096
:101040008AB0CDF800E0504B984210D100244F4BAD
:101050001C60012464B24E4B1C604E4C4E4B1C6015
:101060004E4C4F4B1C604F4C4F4B1C6026E04F4B7F
:10107000984210D100244E4B1C60012464B24D4BA9
:101080001C604D4C444B1C604C4C454B1C604C4C04
:10109000454B1C6012E04B4B98420FD100244A4B49
:1010A0001C60012464B2494B1C60494C3A4B1C60E3
:1010B000484C3B4B1C60484C3B4B1C6001910290E0
:1010C0001046FFF71BFC06AB1846FFF79DFC029885
:1010D00001994FF0FF39002740F200080022022A50
:1010E00037D8B9F1000F34D001231BB203FA02F54F
:1010F0002DB20026322E28D2F400384B1B191B1DAE
:101100001B6805FB03F4079BB3FBF4F304939942BC
:1011100003D9049BCB1A039302E0049B5B1A03934D
:10112000039B0593039B4B450BD21746F4002B4BB7
:101130001B19D3F80080059C059B002B00D105E00E
:1011400000E04C46761CA146D4E74C46521CA14612
:10115000C5E7441CBB0143EA08032370851C012436
:101160002B7864F3C7132B70851C01242B7864F350
:1011700086132B70851D01242B7864F345132B7087
:10118000DDF800E00AB07047006006402800FF1F4D
:1011900098069042C11700007400FF1FB1160000AE
:1011A0007800FF1F2D1600007C00FF1F0070064016
:1011B0002C00FF1F9C0690421117000051160000E2
:1011C0000916000000600E403000FF1F1805904215
:1011D00029170000C1150000E5150000E8270000F0
:100A080081B0CDF800E00446FFF736FD40F2E8314A
:100A180000FB01F3194909680A0F1849096801F030
:100A28007061090EC8B21549096801F47001090D11
:100A3800CDB21249096801F47021090CCEB2D1B2C5
:100A4800491C09B259430F462360221D411C09B2B3
:100A5800B7FBF1F1116004F20802691C09B2B7FB97
:100A6800F1F1116004F20C02711C09B2B7FBF1F14B
:100A78001160DDF800E001B0704700BF4480044019
:0C04800001480068704700BF6400FF1FC7
:1008FC0081B0CDF800E040F2000C83464FEA8C0149
:10090C000BEB01010968B1F1FF3F12D00BF134017F
:10091C004FEA8C03C91809680A460BEB03010968F6
:10092C0008461146FFF76EFD0CF1010C1FFA8CFC0A
:0A093C00E4E7DDF800E001B07047C9
:1004100082B0CDF800E080464FEA581202F00702A1
:10042000914608F01F04A24693010D4AD3184FF0DD
:100430000102A240019218460A46019900F0D0FE3E
:100440004FEA0933074AD3184FEA8A029C1808F486
:10045000E06322681A432260DDF800E002B07047D2
:0804600000F00F400090044081
:101A9C0081B0CDF800E0016808460449FFF74AFE22
:101AAC000020DDF800E001B0704700BF782900008D
:1017400081B0CDF800E00A4601460348FFF778FC77
:0C175000DDF800E001B0704700700640BA
:101D780081B0CDF800E009E00846FFF7D3FF0AE09C
:101D88000846FFF73FFE06E0012004E00028F3D0F4
:0E1D98000128F5D0F8E7DDF800E001B0704753
:101D2C0081B0CDF800E0FFF7CFFC044A04490A600B
:101D3C000020DDF800E001B0704700BF191500006D
:041D4C003400FF1F41
:1016D40081B0CDF800E003460A48FFF7F9FB0A4A57
:1016E40040F2000104B402B440F20002194640F290
:1016F40000030448FFF736FE02B0DDF800E001B055
:0C170400704700BF00C00640502A0000E3
:100ED40081B0304988420CD12F4A30490A60304AE7
:100EE40030490A60304A31490A60314A31490A605E
:100EF4004EE0314988420CD1304A28490A60304AD0
:100F040028490A602F4A29490A602F4A29490A6058
:100F14003EE02E4988420CD12D4A20490A602D4AD0
:100F240020490A602C4A21490A602C4A21490A6056
:100F34002EE02B4988420CD12A4A18490A602A4AD1
:100F440018490A60294A19490A60294A19490A6054
:100F54001EE0284988420CD1274A10490A60274AD2
:100F640010490A60264A11490A60264A11490A6052
:100F74000EE0254988420BD1244A08490A60244AD4
:100F840008490A60234A09490A60234A09490A6050
:100F940001B0704700A00640511500008000FF1FFB
:100FA400911700008400FF1FF11700008800FF1F45
:100FB400A91700008C00FF1F00B006403515000083
:100FC400D9170000A11400008914000000C00640D5
:100FD4001915000071140000E9140000D114000078
:100FE40000D00640A5150000B914000059140000F3
:100FF400E113000000A00E4089150000C913000091
:10100400F91300004114000000B00E406D150000FB
:0C10140029140000111400000115000058
:1013680085B0CDF800E001900291ADF80C20ADF801
:101378001030BDF81440ADF814400698FFF7BAFADB
:101388000198FFF7B7FB02990198FFF779FBBDF8C1
:101398000C100198FFF714FCBDF810100198FFF726
:1013A800F3FBBDF814100198FFF7CAFA0198FFF78C
:1013B80017FC0198FFF7AEF8DDF800E005B07047BC
:100AFC0081B01849884204D1012252B216490A60C9
:100B0C0026E01649884204D1012252B214490A60E7
:100B1C001EE01449884204D1012252B212490A60E3
:100B2C0016E01249884204D1012252B210490A60DF
:100B3C000EE01049884204D1012252B20E490A60DB
:100B4C0006E00E49884203D1012252B20C490A60D8
:100B5C0001B0704700A00640A806904200B00640C5
:100B6C00AC06904200C00640B006904200D0064051
:100B7C00B406904200A00E402805904200B00E40F2
:040B8C002C05904262
:100A880085B0CDF800E08046894601AA1046FFF7F8
:100A9800B7FF164A904503D0154A904500D001E0AB
:100AA800019800E002984FEA0912B0FBF2F291B205
:100AB80092B2130A9BB298F800201A4388F80020D3
:100AC80008F10103CAB21A7043014FEA0912B3FBD5
:100AD800F2F34A0192B29A1AD0B208F10A031A78CC
:100AE80002431A70DDF800E005B0704700A0064028
:040AF80000B0064004
:100BC80081B0841C23784FF6EF7212B203EA020256
:100BD8002270841C0B0122781A43227001B07047DE
:100B900081B001F0020262B1841C01F002032278EC
:100BA0001A432270841C01F0010322781A43227038
:100BB00007E0841C23784FF6FD7212B203EA0202AA
:060BC000227001B0704735
:0C09480081B002780A43027001B07047D1
:100BE80081B0C21C117841F00401117001B0704746
:10051C0081B0C21C117841F00801117001B0704714
:101A0C0081B0CDF800E0FFF72FFE044A04490A60CC
:101A1C000020DDF800E001B0704700BFA515000004
:041A2C003400FF1F64
:1016740081B0CDF800E003460A48FFF729FC0A4A86
:1016840040F2000104B402B440F20002194640F2F0
:1016940000030448FFF766FE02B0DDF800E001B085
:0C16A400704700BF00D00640E4290000A1
:1022300081B0CDF800E0252203490448FFF714FFE0
:10224000DDF800E001B07047282C0000282B0000CA
:1020680081B0CDF800E00446054B1A700846FFF72A
:1020780023FE2046FFF71EFDDDF800E001B07047A3
:042088009400FF1FA2
:101CC000026806490A60011D0A6805490A6000F2B7
:101CD00008010A6803490A60704700BFA000FF1F9F
:081CE000A400FF1F9000FF1F8C
:101ABC0000F23001091D0A6803490A6000F21C019A
:101ACC000A6802490A6070479800FF1F9C00FF1FBC
:10208C0081B0CDF800E048F27E47C0F21E0700BFD9
:10209C0000BF7F1EFDD100BF00BF00BF3049102024
:1020AC00FFF74AFF2E48007800F00100C0B200286C
:1020BC0030D02C480221FFF799FF2B48FFF76EFE1A
:1020CC00294800882949FFF795FE29480121FFF787
:1020DC008DFF02212548FFF789FF26480078234908
:1020EC00FFF788FE24480121FFF780FF02211F48DB
:1020FC00FFF77CFF21480221FFF778FF48F27E476B
:10210C00C0F21E0700BF00BF7F1EFDD100BF00BF85
:10211C0000BF21E01248007800F00200C0B2D8B134
:10212C0048F27E47C0F21E0700BF00BF7F1EFDD1E4
:10213C0000BF00BF00BF0A491420FFF7FDFE08488E
:10214C000078002808D0064800780D49FFF77AFE81
:10215C0002210B48FFF74AFFDDF800E001B07047A1
:10216C002700FF1F0000FF1F3800FF1F3C00FF1F50
:10217C000100FF1F3A00FF1F0E00FF1F1B00FF1F77
:04218C004600FF1FEB
:101F440083B0CDF800E002918DF80400FFF77EFD28
:101F540001AB0A4A127819460023D0B20122FFF7D6
:101F6400F5FE064A127801230299D0B20122FFF746
:101F740039FDDDF800E003B0704700BF9400FF1F97
:101A500082B0CDF800E040F20004ADF80440064C3E
:101A60002468A047BDF9041041EA000000B2DDF887
:0C1A700000E002B0704700BFA000FF1FA4
:1017C00081B0CDF800E00348FFF730FDDDF800E020
:0817D00001B070470060064003
:10122C0084B0CDF800E04FF000024349884205D16C
:10123C0042490C6842490968039115E041498842CA
:10124C0006D141490A6841490968039114460BE0EB
:10125C003F49884206D13F490A683F4909680391D2
:10126C00114600E011460C4601940290FFF788F9F4
:10127C000298019C831C0122197862F345111970A4
:10128C00C11C0A78C2F30011C9B1C31C0122197820
:10129C0062F304111970811D0A78C2F3001129B18F
:1012AC00831D0122197862F304111970C31C0122E9
:1012BC00197862F3410119704FF6FF7038E023463C
:1012CC00019404460198E11C0A78C2F3400151B91B
:1012DC0040B123B90520039CA047012028E05A1EE9
:1012EC001346FFE7EFE7A11D0A78C2F3001129B1FD
:1012FC00A31D0122197862F304111970E31C012259
:10130C00197862F34101197005462346D91C0A78F5
:10131C00C2F3400159B148B125B90520039CA0473F
:10132C00012005E0691E0A461546FFE7EEE700209E
:10133C00DDF800E004B07047006006402800FF1F95
:10134C006800FF1F007006402C00FF1F6C00FF1F81
:0C135C0000600E403000FF1F7000FF1FFB
:0C052C0001490860704700BF0808FE434A
:0C05040001490860704700BF2C08FE434E
:0C05100001490860704700BF1010FE4356
:0C05500001490860704700BF1410FE4312
:0C055C0001490860704700BF1C10FE43FE
:0C05380001490860704700BF1810FE4326
:0C05440001490860704700BF2800FE431A
:0C04C80001490860704700BF3408FE4383
:0C04BC0001490860704700BF0818FE43AB
:0C04D40001490860704700BF0C18FE438F
:0C04F80001490860704700BF2018FE4357
:0C04EC0001490860704700BF2418FE435F
:0C04E00001490860704700BF0C08FE4393
:0C08C00001490860704700BF4C08FE436F
:0C08B40001490860704700BF1018FE43A7
:0C08A80001490860704700BF1418FE43AF
:0C08CC0001490860704700BF1C18FE4383
:0C08F00001490860704700BF1818FE4363
:0C08E40001490860704700BF1000FE438F
:0C08D80001490860704700BF2008FE4383
:0C089C0001490860704700BF4010FE4397
:0C05800001490860704700BF4410FE43B2
:0C05740001490860704700BF2810FE43DA
:0C05680001490860704700BF2C10FE43E2
:10058C0082B0CDF800E04FF000021A49884205D144
:10059C0019490B6819490968019115E018498842F5
:1005AC0006D118490A6818490968019113460BE0ED
:1005BC001649884206D116490A68164909680191FC
:1005CC00114600E011460B461D4604462046FFF737
:1005DC0045FF50B943B11DB90720019CA04704E069
:1005EC00691E08460546FFE7F0E7DDF800E002B0BB
:1005FC00704700BF006006402800FF1F6800FF1F07
:10060C00007006402C00FF1F6C00FF1F00600E40A6
:08061C003000FF1F7000FF1FFA
:1004680081B0C11C0A78C2F3401181F00101C9B200
:06047800C8B201B070479C
:1017100081B0CDF800E00348FFF788FDDDF800E078
:0817200001B0704700700640A3
:1017280081B0CDF800E00348FFF77CFDDDF800E06C
:0817380001B0704700600E4093
:1017900081B0CDF800E00348FFF72CFDDDF800E054
:0817A00001B0704700A00640F3
:1011F40081B0011D0A78C2F3401101B9F9E7C11D9C
:081204000978C8B201B070477F
:1017F00081B0CDF800E00348FFF710FDDDF800E010
:0818000001B0704700A0064092
:0E121C0081B0011D0978C1F3401001B0704788
:1017A80081B0CDF800E00348FFF72CFDDDF800E03C
:0817B80001B0704700A00640DB
:0E120C0081B0011D0978C1F3801001B0704758
:1017D80081B0CDF800E00348FFF708FDDDF800E030
:0817E80001B0704700B006409B
:1014A00081B0CDF800E00348FFF7B8FEDDF800E0BA
:0814B00001B0704700B00640D6
:1014880081B0CDF800E00348FFF7BCFEDDF800E0CE
:0814980001B0704700B00640EE
:1014700081B0CDF800E00348FFF7BCFEDDF800E0E6
:0814800001B0704700C00640F6
:1014E80081B0CDF800E00348FFF794FEDDF800E096
:0814F80001B0704700C006407E
:1014D00081B0CDF800E00348FFF798FEDDF800E0AA
:0814E00001B0704700C0064096
:1014B80081B0CDF800E00348FFF798FEDDF800E0C2
:0814C80001B0704700D006409E
:1014580081B0CDF800E00348FFF7DCFEDDF800E0DE
:0814680001B0704700D00640FE
:1013E00081B0CDF800E00348FFF710FFDDF800E022
:0813F00001B0704700D0064077
:1013C80081B0CDF800E00348FFF710FFDDF800E03A
:0813D80001B0704700A00E40B7
:1013F80081B0CDF800E00348FFF70CFFDDF800E00E
:0814080001B0704700A00E4086
:1014400081B0CDF800E00348FFF7E0FEDDF800E0F2
:0814500001B0704700A00E403E
:1014280081B0CDF800E00348FFF7E0FEDDF800E00A
:0814380001B0704700B00E4046
:1014100081B0CDF800E00348FFF700FFDDF800E001
:0814200001B0704700B00E405E
:1015000081B0CDF800E00348FFF780FEDDF800E091
:0815100001B0704700B00E406D
:101D500082B0CDF800E040F20004ADF80440054C3C
:101D60002468A047BDF90440044320B2DDF800E038
:081D700002B07047A400FF1F40
:10162C0081B0CDF800E008B413460A46C1B20448B4
:10163C00FFF754FB01B0DDF800E001B0704700BFCC
:04164C0000600640F4
:100CE80087B0CDF800E005920246C8B20693079C8B
:100CF80007944FF000016C4CA24206D16B4C266859
:100D08006B4C24680494314614E06A4CA24205D125
:100D1800694C2668694C246804940AE0684CA2422D
:100D280006D1684C2168684C246804940E4600E09B
:100D38000E463146440001910292E1B21046FFF797
:100D480045FD029A019920B91046FFF7BDFC002025
:100D5800A5E000273B46069CA34216D2059CE41852
:100D68002478019202910393E1B21046FFF72EFD19
:100D7800039B0299019A20B91046FFF7A5FC0020B1
:100D88008DE05C1C27463B46E5E7079C012C48D1D3
:100D98000B461046C41C2578C5F3400464B141B124
:100DA80023B90420049CA047012078E05A1E144669
:100DB80000E01C462346EDE7861C0025347865F3E1
:100DC800451434700A46C41C2578C5F340045CB940
:100DD80039B122B90420049CA04701205FE0531ECA
:100DE80000E013461A46EEE7841D2578C5F3001483
:100DF8002CB1861D0125347865F304143470841DE4
:100E08002578C5F380142CB1861D0125347865F347
:100E180086143470C61C0125347865F34104347097
:100E28002AE0961C0125347865F3820434700B4659
:100E38001046C41C2578C5F3400464B941B123B9F0
:100E48000420049CA047012029E05A1E144600E013
:100E58001C462346EDE7841D2578C5F300142CB104
:100E6800861D0125347865F304143470C61C0125E9
:100E7800347865F3410434700A46C41C2578C5F3F8
:100E880040045CB139B122B90420049CA047012078
:100E980005E0531E00E013461A46EEE70020DDF891
:100EA80000E007B0704700BF006006402800FF1F41
:100EB8006800FF1F007006402C00FF1F6C00FF1F1A
:0C0EC80000600E403000FF1F7000FF1F94
:1007D40082B0CDF800E04FF00003264A904205D1E4
:1007E400254A1568254A1268019215E0244A904268
:1007F40006D1244A1368244A126801921D460BE06C
:10080400224A904206D1224A1368224A126801926F
:100814001A4600E01A461546841C0123227863F325
:1008240004122270021D11702C462946C21C137832
:10083400C3F340025AB949B124B90420019CA0472A
:10084400012012E0621E13461C46FFE7EEE7C41CBB
:100854000123227863F341022270C21C1378C3F38C
:10086400000282F00102D2B2D0B2DDF800E002B0A0
:10087400704700BF006006402800FF1F6800FF1F8C
:10088400007006402C00FF1F6C00FF1F00600E402C
:080894003000FF1F7000FF1F80
:1006D00084B0CDF800E04FF000023549884205D1E2
:1006E00034490C6834490968039115E0334988425C
:1006F00006D133490A6833490968039114460BE06F
:100700003149884206D131490A6831490968039163
:10071000114600E011460C46831C0022197862F352
:1007200045111970831C0022197862F304111970A5
:1007300001940290FFF72AFF0298019C2346C11CF6
:100740000A78C2F3400151B944B123B90620039C91
:10075000A047012027E05A1E1346FFE7EFE7811D5F
:100760000A78C2F3801129B1831D0122197862F33E
:1007700086111970C31C0122197862F341011970A6
:100780002346C11C0A78C2F3400159B14CB123B9C8
:100790000620039CA047012005E0591E0A46134687
:1007A000FFE7EEE70020DDF800E004B0704700BF8F
:1007B000006006402800FF1F6800FF1F0070064011
:1007C0002C00FF1F6C00FF1F00600E403000FF1F59
:0407D0007000FF1F97
:1016080081B0CDF800E008B413460A46C1B20448D8
:10161800FFF766FB01B0DDF800E001B0704700BFDE
:041628000070064008
:1015E40081B0CDF800E008B413460A46C1B20448FD
:1015F400FFF778FB01B0DDF800E001B0704700BFF1
:0416040000600E4034
:1019E80082B0CDF800E040F20004ADF80440044CA9
:1019F8002468A047BDF90400DDF800E002B0704794
:041A08009000FF1F2C
:1016B00081B0CDF800E008B413460A46C1B2044830
:1016C000FFF79AFA01B0DDF800E001B0704700BF03
:0416D0000060064070
:100BF80085B0CDF800E08DF8041001469DF804009A
:100C080003920493059C05944400A4B244F00104A3
:100C180001910846E1B2FFF7D9FD019918B90846D4
:100C2800FFF752FD58E08E1C0025347865F3041454
:100C38003470049C012C06D18E1C0125347865F390
:100C4800C304347005E08E1C0025347865F3C304B2
:100C5800347001910846FFF7E1FC0199049C621E7B
:100C6800002A34DB15E0019102920846FFF72CFDBB
:100C7800029A019912E08E1C0125347865F3C304A9
:100C880034700BE08E1C0025347865F3C30434708F
:100C980004E0002AE7D0012AEDD0F3E73AB90C1DA9
:100CA8002578039C2570039C641C03940BE0019138
:100CB80002920846FFF7B2FC029A0199039C207041
:100CC800039C641C0394541E23461A46C8E7059CDB
:100CD80014B9084600F0A6FADDF800E005B0704740
:1006240082B0CDF800E04FF000021F49884205D1A6
:100634001E490B681E490968019115E01D4988424D
:1006440006D11D490A681D490968019113460BE04A
:100654001B49884206D11B490A681B490968019154
:10066400114600E011460B46011D0C781D46C11CC5
:100674000A78C2F3400159B94BB125B90320019C52
:10068400A04701200BE0691E0A461546FFE7EEE786
:10069400C31C0122197862F341011970E0B2DDF83C
:1006A40000E002B0704700BF006006402800FF1F52
:1006B4006800FF1F007006402C00FF1F6C00FF1F26
:0C06C40000600E403000FF1F7000FF1FA0
:1016500081B0CDF800E008B413460A46C1B2044890
:10166000FFF7CAFA01B0DDF800E001B0704700BF33
:0416700000700640C0
:1015C00081B0CDF800E008B413460A46C1B2044821
:1015D000FFF712FB01B0DDF800E001B0704700BF7B
:0415E00000600E4059
:101FF80083B0CDF800E0024610460D228DF8082087
:102008000A228DF809201FE0FFF70EFD23E0027871
:102018002AB10190FFF708FD0198401CF7E71AE084
:1020280002782AB10190FFF7FFFC0198401CF7E7FE
:1020380002AA1046FFF7F8FC0DF109021046FFF757
:10204800F3FC08E0062007E00029DDD00129DED0F6
:102058000229E5D0F6E70020DDF800E003B070477C
:101A300081B0CDF800E00178CCB2A0B2034C2468AC
:101A4000A0470020DDF800E001B070473400FF1F20
:1015500081B0CDF800E081B20348FFF761FDDDF80E
:0C15600000E001B0704700BF00A0064092
:1010200081B0ADF800100146BDF800000A1D13782C
:10103000C3F3C01202B9F9E7CA1D107001B07047BE
:1015340081B0CDF800E081B20348FFF76FFDDDF81C
:0C15440000E001B0704700BF00B006409E
:1015180081B0CDF800E081B20348FFF77DFDDDF82A
:0C15280000E001B0704700BF00C00640AA
:1015A40081B0CDF800E081B20348FFF737FDDDF8E4
:0C15B40000E001B0704700BF00D006400E
:1015880081B0CDF800E081B20348FFF745FDDDF8F2
:0C15980000E001B0704700BF00A00E4052
:10156C0081B0CDF800E081B20348FFF753FDDDF800
:0C157C0000E001B0704700BF00B00E405E
:101DA80083B0CDF800E002A9019003221120FFF7CB
:101DB80097FF019802AC217801800188CA0092B28D
:101DC800A11C09780909C9B242EA01010180821CF3
:101DD800611C09781170831C1978CA0092B2A11C81
:101DE800097801F00F01C9B242EA01011970DDF862
:061DF80000E003B070479B
:101CE80084B0CDF800E002918DF80C208DF8040046
:101CF800FFF7AAFE01AC0A4B1B7801222146D8B295
:101D0800002300F021F8064B1B789DF80C2002995F
:101D1800D8B20123FFF764FEDDF800E004B0704795
:041D28009400FF1F05
:101E000081B00A4681B200208DB21146052805D264
:101E10000B1820221A70401CC0B2F7E70B180022E2
:101E20001A70401EC0B20C180A23B5FBF3F203FB74
:101E3000125292B2303222700A22B5FBF2F292B202
:101E400095B202B902E0401EC0B2ECE701B07047A3
:101E500081B0CDF800E00C4642E02F4A1146204602
:101E6000FFF720FF53E02D4A11462046FFF71AFFE7
:101E70004DE02B4A11462046FFF714FF47E0294A60
:101E800011462046FFF70EFF41E0274A1146204643
:101E9000FFF708FF3BE0254A11462046FFF702FF07
:101EA00035E0234A11462046FFF7FCFE2FE0214A89
:101EB00011462046FFF7F6FE29E01F4A114620464C
:101EC000FFF7F0FE23E01D4A11462046FFF7EAFE29
:101ED0001DE01B4A11462046FFF7E4FE17E016E01E
:101EE0001128BAD02028BED01028C2D03128C6D0A0
:101EF0003228CAD04128CED04228D2D05128D6D0BC
:101F00005228DAD06128DED06228E2D0E7E7DDF897
:101F100000E001B0704700BFFE2B00001A2C00004B
:101F20000D2C0000572C0000C42B0000402C00009A
:101F3000AF2B0000622C0000EC2B00004C2C0000AA
:041F4000D82B00009A
:101CA4000246104613460A7822B10A781A705B1C61
:0A1CB400491CF8E700221A7070477F
:1022BC0090B072B697480190974802909748039057
:1022CC009748049097480590974806909748079030
:1022DC00974808909748099097480A9097480B9010
:1022EC0097480C90974998480D9098480E900D98E7
:1022FC0000F007000F9001F0010050B94CF2205093
:10230C00934908804DF62810088040F2D21191486C
:10231C0001809148007800F0010050B18F4800789E
:10232C0000F0080020B18D49087840F008000870D2
:10233C0021E08B48006840F00051894801608948D1
:10234C00006800F48070B0B9864801686FF4705072
:10235C0001EA000040F44071824801608148006845
:10236C0040F480717F4801607E4801686FF4007012
:10237C0001407C480160AA217B4801700D9800F057
:10238C00100060B9794801786FF06000014077481F
:10239C00017077480078012800D0FAE71CE00D980E
:1023AC0000F01000C0B10E997248814208D960212A
:1023BC006E4801706E480078802800D0FAE70BE078
:1023CC006A4801786FF06000014068480170684805
:1023DC000078012800D0FAE7049967480160674843
:1023EC0001686FF440200140029800F44020014342
:1023FC0062480160624801686FF440300140039804
:10240C0000F4403001435E4801600F9830B10F98E2
:10241C00012803D00F98022800D061E0019800F049
:10242C00800050B9089800F0400028B10B9800F0DB
:10243C000300002800D100E015E05248006840F489
:10244C0000715048016050480168504801404E48A6
:10245C000160069800F0040028B14D4801684B4813
:10246C0001404B4801600A994A48017005994A4855
:10247C000170059800F0040038B14848007800F06D
:10248C001000002800D1F8E705E04448007800F07F
:10249C00100000B1F9E74248007800F0BF01C9B262
:1024AC00069800F0FD0001433D480170079800F0CC
:1024BC00E0013C48007800F01F00014339480170EE
:1024CC000199394801700B99384801700F9802280E
:1024DC0005D13348007840F0020131480170B8E072
:1024EC00019800F0800020B90B9800F0030000B1B7
:1024FC0065E02448006840F40071224801602248DD
:10250C0001682248014020480160069800F0040050
:10251C0000F04EB80000000000000C0000000100AC
:10252C000000140122000000240000000000000044
:10253C000200000046000000000000000000000047
:10254C00000000000000000007000000C0D40100E3
:10255C000E2005400020054000F0074002D0074047
:10256C003C80044010D0034000E0074001E00740ED
:10257C0003E00740803801004480044000700440B0
:10258C00048004403880044048900440FFF8FFFE6B
:10259C004C9004400840064000400640064006406F
:1025AC000140064003400640005006400C400640E7
:1025BC0028B17A4801687A480140784801600A9944
:1025CC00784801707848007800F0BF01C9B20698CD
:1025DC0000F0FD00014374480170019973480170CB
:1025EC000B99734801700F98072805D1059840F096
:1025FC0080017048017002E005996E4801700698E0
:10260C0000F0040048B10B9800F0030028B96A48A8
:10261C00007800F0020000B9F9E7059800F004001A
:10262C0038B16548007800F01000002800D1F8E7B8
:10263C0005E06148007800F0100000B1F9E7079858
:10264C0000F0E0015D48007800F01F0001435B489A
:10265C000170089800F0BF0159480170099800F00A
:10266C00BF0158480170089800F0400028B1544848
:10267C00007840F04001524801700F98052806D1AF
:10268C004948007840F00201474801701BE00F9860
:10269C00062803D00F98072800D014E0494800788A
:1026AC0040F04001474801704348007800F040007A
:1026BC0000B9F9E70F98072805D13E48007800F0DB
:1026CC003F013C4801700F9818B10F98032800D0B7
:1026DC002CE03948007800F00C0000B1F9E73A48DA
:1026EC00006840F00101384801604FF000013748A4
:1026FC0001604FF08001364801604FF0050135480C
:10270C0001604FF00101324801603148006800F06F
:10271C00800000B9F9E700212D4801602A480168C2
:10272C006FF001000140284801602AE00F98012851
:10273C0003D00F98022800D007E01F48007800F063
:10274C000C00042800D0F8E71BE00F98042806D0F2
:10275C000F98062803D00F98052800D007E01648DC
:10276C00007800F00C00082800D0F8E709E00F987A
:10277C00072806D11048007800F00C000C2800D077
:10278C00F8E7154801686FF00F0001400C9800F055
:10279C000F0001431048016010B070474C9004408A
:1027AC00FFF8FFFE0840064001400640005006407E
:1027BC000C400640004006400640064003400640E0
:1027CC0004400640054006403880044008000440A0
:0C27DC0000000440040004404880044059
:1022840081B002490248016001B07047C0D4010026
:042294006400FF1FC4
:0822500081B0FEE701B0704708
:1022580081B072B60849086840F47000086000BF91
:1022680000BF00BF00BFF1EE100A40F44000E1EEED
:0C227800100A62B601B0704788ED00E06B
:102C700000B5DFF824B0DFF824A0DFF824C0FFF7A8
:102C8000AFFADFF820B0DFF820A0DFF820C0FFF7B0
:102C9000A7FA00BD704700BF0000FF1F2700FF1FFD
:102CA000882B00002800FF1F3400FF1F342C000079
:102D0C0000B5DFF810B0DFF810A0FFF76DFA00BDCA
:0C2D1C00704700BF0000FF1FA800FF1F51
:100400000000000000000000FFFFFFFF02FDFFFFF3
:1027E80000000000140000000100000016000000B6
:1027F8000200000018000000030000001A0000009A
:10280800040000001C000000050000001E0000007D
:10281800090000002000000006000000220000005F
:102828000A00000024000000070000002800000043
:102838000C0000002C000000100000003000000018
:1028480011000000380000001200000040000000E5
:102858000F000000440000001300000048000000C2
:10286800140000005000000015000000580000008F
:102878001900000060000000160000006800000059
:102888001A0000007000000017000000800000001F
:102898001C000000900000001D000000A0000000C7
:1028A8001E000000C000000022000000E000000040
:1028B8001F000000F00000002300000000010000DD
:1028C8002400000020010000250000004001000055
:1028D80026000000800100002A000000C00100005E
:1028E80027000000E00100002B00000000020000AB
:1028F8002C000000400200002D00000080020000B3
:102908002E000000000300003200000080030000D9
:102918002F000000C0030000330000000004000086
:1029280034000000800400003500000000050000AD
:1029380036000000000600003A0000000007000012
:1029480037000000800700003B000000000800007E
:102958003C000000000900003D000000000A0000E3
:102968003E000000000C00003F000000000F0000C7
:102978004A0200004B020000FFFFFFFF00000000BA
:10298800000000000000000000000000000000003F
:10299800000000000000000000000000000000002F
:1029A800000000000000080000000800FFFFFFFF13
:1029B800000000000000000000000000000000000F
:1029C80000000000000000000000000000000000FF
:0C29D800000000000000000000000000F3
:1029E4005103000050030000FFFFFFFF0000000040
:1029F40000000000000000000000000000000000D3
:102A040000000000000000000000000000000000C2
:102A1400000000000000080000000800FFFFFFFFA6
:102A240000000000000000000000000000000000A2
:102A34000000000000000000000000000000000092
:0C2A440000000000000000000000000086
:102A50006303000062030000FFFFFFFF00000000AF
:102A60000000000000000000000000000000000066
:102A70000000000000000000000000000000000056
:102A8000000000000000080000000800FFFFFFFF3A
:102A90000000000000000000000000000000000036
:102AA0000000000000000000000000000000000026
:0C2AB0000000000000000000000000001A
:102ABC006802000069020000FFFFFFFF0000000039
:102ACC0000000000000000000000000000000000FA
:102ADC0000000000000000000000000000000000EA
:102AEC00000000000000080000000800FFFFFFFFCE
:102AFC0000000000000000000000000000000000CA
:102B0C0000000000000000000000000000000000B9
:0C2B1C00000000000000000000000000AD
:102B28002D050000050500001105000051050000F5
:102B38005D0500003905000045050000C9040000D6
:102B4800BD040000D5040000F9040000ED040000F5
:102B5800FFFFFFFFFFFFFFFFFFFFFFFFFFFFFFFF7D
:102B6800FFFFFFFFFFFFFFFFFFFFFFFFFFFFFFFF6D
:102B7800FFFFFFFFFFFFFFFFFFFFFFFFFFFFFFFF5D
:0E2B880000506F736974696F6E20583A200018
:102B9600506F736974696F6E20593A20002D2D2D80
:102BA6002D2D2D2D2D2D2D2D005269676874205346
:0E2BB6007769706520616E6420486F6C640062
:102BC400446F776E20537769706520616E64204886
:042BD4006F6C6400BE
:102BD8004C65667420537769706520616E6420487F
:042BE8006F6C6400AA
:102BEC00557020537769706520616E6420486F6C56
:022BFC00640073
:102BFE00436C69636B20616E6420486F6C64005394
:0C2C0E00696E676C6520436C69636B00A5
:0D2C1A00446F75626C6520436C69636B004C
:0C2C2800C11700002D160000B1160000BE
:042C3400000000009C
:042C38000000000098
:042C3C000000000094
:0C2C400052696768742053776970650062
:102C4C004C65667420537769706500446F776E200D
:062C5C005377697065006A
:092C62005570205377697065007C
:042C6C00A08601003D
:00000001FF
