:1000000091EF0FF00000000000EF00F00000000092
:0A0010000000000000000000F3D71C
:0E001C000001E1B102D08B9801D08B88120058
:0E002A000001E1B102D08B9601D08B8612004E
:0E0038000001E1B102D08D9601D08D8612003C
:0E0046000001E1B102D0899401D0898412003A
:0E0054000001E1B102D08B9C01D08B8C120018
:0E0062000001E1B102D08B9401D08B8412001A
:0E0070000001E1B102D08B9A01D08B8A120000
:0E007E000001E1B102D08B9E01D08B8E1200EA
:0E008C000001E1B102D08A9201D08A821200F6
:0E009A000001E1B102D08D9401D08D841200DE
:0E00A8000001E1B102D08F9201D08F821200D0
:0E00B6000001E1B102D08F9401D08F841200BE
:0E00C4000001E1B102D08B9801D08B881200B0
:0E00D2000001E1B102D08B9601D08B861200A6
:0E00E0000001E1B102D08A9401D08A8412009E
:0E00EE000001E1B102D08B9801D08B88120086
:0E00FC000001E1B102D08B9601D08B8612007C
:0E010A000001E1B102D08F9001D08F80120071
:0E0118000001E1B102D08B9A01D08B8A120057
:0E0126000001E1B102D08B9801D08B8812004D
:0E0134000001E1B102D08B9601D08B86120043
:0E0142000001E1B102D08B9201D08B8212003D
:0E0150000001E1B102D08B9A01D08B8A12001F
:0E015E000001E1B102D08D9001D08D80120021
:10016C000F0121B302D00000FBD7E1C01CFF12002D
:0E017C00ACB202D00000FCD7E1C0ADFF120013
:0E018A000001E1B102D08B9001D08B801200F9
:0E0198000001E1B102D0899001D089801200EF
:0E01A6000001E1B102D08A9001D08A801200DF
:0E01B4000001E1B102D08D9201D08D821200C7
:0E01C2000001E1B102D0899801D089881200B5
:0E01D0000001E1B102D08B9801D08B881200A3
:0E01DE000001E1B102D08B9601D08B86120099
:0E01EC000001E1B102D0899201D08982120097
:0E01FA000001E1B102D08B9C01D08B8C120071
:0E0208000001E1B102D08B9E01D08B8E12005E
:0E0216000001E1B102D08B9801D08B8812005C
:0E0224000001E1B102D08B9601D08B86120052
:10023200C7B409D01F0EC514016E0150000A03E1B4
:0A024200010E006E01D0006A1200E8
:10024C00F250026EF29E0500FF6A0150FE6E0050E5
:08025C00FD6E02BEF28E1200DD
:1002640068B409D01F0E6614016E0150000A03E140
:0A027400010E006E01D0006A1200B6
:0A027E00000EACB2010E006E12007B
:1002880040C0DDF041C0DEF042C0DFF043C0E0F026
:100298000001DB6BDC6BDC51120802E1DB518E08DC
:1002A80008E3DCDF005201E004D00001DB4BDC2B6B
:1002B800F2D70001120EDC5D02E18F0EDB5D03E375
:1002C8007B0E006E24D0668066A020D0405041107E
:1002D800421043101AE0DD51DE11DF11E0110EE18A
:1002E80082C0E1FF83C0E2FF050EE66E80C000F029
:1002F80081C001F0A7DF010E006E09D0010E0001D8
:10030800DD5F000EDE5BDF5BE05BDED7006A1200BC
:10031800AECF01F0ABA202D0AB98AB8801C000F021
:020328001200C1
:0C032A00000E0F0121B3010E006E120046
:0A033600000EA4BA010E006E1200C2
:100340001DCF01F00F0122A302D02299228901C002
:0403500000F01200A7
:0A035400000E80B8010E006E1200CA
:0A035E00000E84B2010E006E1200C2
:0A036800000E82BA010E006E1200B2
:0A037200000E9EBA010E006E12008C
:0A037C00000E82B8010E006E1200A0
:0A038600000E80B2010E006E12009E
:0A039000000E82BE010E006E120086
:0A039A00000E81B0010E006E12008B
:0A03A400000E82B2010E006E12007E
:0A03AE00000E82B8010E006E12006E
:0A03B800000E82B6010E006E120066
:0A03C200000E82BC010E006E120056
:0A03CC00000E84B0010E006E120056
:0A03D600000E82B0010E006E12004E
:0A03E000000E80B0010E006E120046
:0A03EA00000E82BA010E006E120030
:0A03F400000E82B8010E006E120028
:0A03FE00000E82B6010E006E120020
:0A040800000E82B8010E006E120013
:100412003CC0DDF03DC0DEF03EC0DFF03FC0E0F0AA
:100422009E96C5869EB61FD03C503D103E103F1092
:1004320019E00001DD51DE11DF11E0110CE186C08F
:10044200E1FF87C0E2FF030EE66E84C000F085C0C4
:1004520001F0FBDE08D0010E0001DD5F000EDE5B65
:10046200DF5BE05BDFD70001C9CFDCF0DB51000AC4
:1004720002E1C58A01D0C59A9E96C5883CC0DDF0CE
:100482003DC0DEF03EC0DFF03FC0E0F09EB61FD0C0
:100492003C503D103E103F1019E00001DD51DE11CD
:1004A200DF11E0110CE186C0E1FF87C0E2FF030E1D
:1004B200E66E84C000F085C001F0C7DE08D0010EF0
:1004C2000001DD5F000EDE5BDF5BE05BDFD7DCC0DF
:0404D20000F0120024
:1004D6009E96DBC0C9FF3CC0DCF03DC0DDF03EC0EF
:1004E600DEF03FC0DFF0C7A421D03C503D103E10E7
:1004F6003F101BE00001DC51DD11DE11DF110EE1C2
:1005060086C0E1FF87C0E2FF040EE66E84C000F0FD
:1005160085C001F098DE010E006E3AD0010E000192
:10052600DC5F000EDD5BDE5BDF5BDDD73CC0DCF055
:100536003DC0DDF03EC0DEF03FC0DFF09EB621D00C
:100546003C503D103E103F101BE00001DC51DD1118
:10055600DE11DF110EE186C0E1FF87C0E2FF040E67
:10056600E66E84C000F085C001F06DDE010E006EFF
:100576000FD0010E0001DC5F000EDD5BDE5BDF5B92
:10058600DDD7C5BC02D0006A03D0C584020E006E5A
:02059600120051
:0A059800000E86B4010E006E120082
:0A05A200000E82BA010E006E120076
:0A05AC00000E82B6010E006E120070
:0A05B600000E81B4010E006E120069
:1005C00040C0DBF041C0DCF042C0DDF043C0DEF0F3
:1005D000668266A21FD0405041104210431019E0BD
:1005E0000001DB51DC11DD11DE110CE182C0E1FF05
:1005F00083C0E2FF060EE66E80C000F081C001F00D
:1006000025DE08D0010E0001DB5F000EDC5BDD5B48
:06061000DE5BDFD71200E3
:0406160066841200E4
:10061A003CC0DDF03DC0DEF03EC0DFF03FC0E0F0A0
:10062A000001DB6BDC6BDC51120802E1DB518E0846
:10063A0008E3FADD005201E004D00001DB4BDC2BB9
:10064A00F2D70001120EDC5D02E18F0EDB5D03E3DF
:10065A007B0E006E24D0C580C5A020D03C503D1032
:10066A003E103F101AE0DD51DE11DF11E0110EE1FC
:10067A0086C0E1FF87C0E2FF050EE66E84C000F087
:10068A0085C001F0DEDD010E006E09D0010E000109
:10069A00DD5F000EDE5BDF5BE05BDED7006A120027
:1006AA00A19ADBC06AFF40C0DCF041C0DDF042C065
:1006BA00DEF043C0DFF068A421D040504110421060
:1006CA0043101BE00001DC51DD11DE11DF110EE1E8
:1006DA0082C0E1FF83C0E2FF040EE66E80C000F034
:1006EA0081C001F0AEDD010E006E3AD0010E0001AC
:1006FA00DC5F000EDD5BDE5BDF5BDDD740C0DCF07C
:10070A0041C0DDF042C0DEF043C0DFF0A1BA21D023
:10071A0040504110421043101BE00001DC51DD1132
:10072A00DE11DF110EE182C0E1FF83C0E2FF040E99
:10073A00E66E80C000F081C001F083DD010E006E1C
:10074A000FD0010E0001DC5F000EDD5BDE5BDF5BBC
:10075A00DDD766BC02D0006A03D06684020E006E42
:02076A0012007B
:0A076C00000E86B2010E006E1200AE
:04077600C584120024
:10077A0040C0DDF041C0DEF042C0DFF043C0E0F02F
:10078A00A19A6686A1BA1FD0405041104210431068
:10079A0019E00001DD51DE11DF11E0110CE182C028
:1007AA00E1FF83C0E2FF030EE66E80C000F081C065
:1007BA0001F047DD08D0010E0001DD5F000EDE5BAF
:1007CA00DF5BE05BDFD700016ACFDCF0DB51000AB8
:1007DA0002E1668A01D0669AA19A668840C0DDF075
:1007EA0041C0DEF042C0DFF043C0E0F0A1BA1FD042
:1007FA00405041104210431019E00001DD51DE1152
:10080A00DF11E0110CE182C0E1FF83C0E2FF030EB9
:10081A00E66E80C000F081C001F013DD08D0010E41
:10082A000001DD5F000EDE5BDF5BE05BDFD7DCC073
:04083A0000F01200B8
:0A083E00000E82B6010E006E1200DB
:100848003CC0DBF03DC0DCF03EC0DDF03FC0DEF078
:10085800C582C5A21FD03C503D103E103F1019E084
:100868000001DB51DC11DD11DE110CE186C0E1FF76
:1008780087C0E2FF060EE66E84C000F085C001F076
:10088800E1DC08D0010E0001DB5F000EDC5BDD5B04
:06089800DE5BDFD7120059
:0A089E00000E86B0010E006E12007D
:0A08A800000E80B4010E006E120075
:0A08B200000E82B4010E006E120069
:0A08BC00000E82B6010E006E12005D
:0A08C600000E82BC010E006E12004D
:0A08D000000E81B2010E006E12004E
:0A08DA00000E82BE010E006E120037
:0A08E400000E82B8010E006E120033
:0A08EE00000E84B4010E006E12002B
:0A08F800000E84B6010E006E12001F
:0A090200000E82B8010E006E120014
:0A090C00000E82B6010E006E12000C
:10091600220E0C6E086A096A0A6A0B6A0C06D8B4BB
:100926001FD0D8900B320A32093208320332023213
:1009360001320032D8A0F2D70C06D8B409D0045040
:1009460008260550092206500A2207500B22EAD72C
:10095600045008260550092206500A2207500B2289
:0209660012007D
:100968000001D16BD26B90C000F091C001F06ADC3D
:1009780000C0D1F0000E0001D26FD1C000F0D2C08B
:0409880001F0120068
:10098C00320E00018C6F020E8D6F000E8E6F000EFA
:10099C008F6F1A0E516E060E526E000E536E000EB5
:1009AC00546E480EB56F080EB66F000EB76F000E82
:1009BC00B86F120EA56F040EA66FDB0EA76F000E9C
:1009CC00A86FD60EA16F040EA26FDB0EA36F000EE4
:1009DC00A46F760EAD6F070EAE6F000EAF6F000EEC
:1009EC00B06F949894968B988B9694889486C79EA7
:0809FC00C79C380EC66E120004
:100A04007C0E0001A96F010EAA6FE10EAB6F000E00
:100A1400AC6F180EB96F030EBA6F000EBB6F000EE9
:100A2400BC6F720EBD6F030EBE6F000EBF6F000E63
:100A3400C06F7E0EB16F020EB26F000EB36F000E68
:100A4400B46FAC8A900EAB6E948E949C9EAA03D025
:080A5400AECF00F0FBD7120049
:100A5C006C0E0001A96F010EAA6FE10EAB6F000EB8
:100A6C00AC6F400EB96F030EBA6F000EBB6F000E69
:100A7C00BC6F360EBD6F030EBE6F000EBF6F000E47
:100A8C00C06F2A0EB16F030EB26F000EB36F000E63
:100A9C00B46F0F01218B900E226F98849892A4AAA8
:0A0AAC0003D01DCF00F0FBD71200AD
:100AB6000001D96BDA6BD2C0D7F0D3C0D8F0D1C061
:100AC60000F000360090008046C0E1FF47C0E2FF1C
:100AD60000C0E6FF44C000F045C001F026EC01F07E
:100AE60000500001D913000EDA13010ED45F000E78
:100AF600D55BD451D51116E097C0E1FF98C0E2FF4F
:100B0600010EE66E95C000F096C001F026EC01F0ED
:100B1600D7C0E1FFD8C0E2FF00C0E6FF0001D74B17
:100B2600D82BE3D797C0E1FF98C0E2FFE66A95C0ED
:100B360000F096C001F026EC01F0D7C0E1FFD8C066
:100B4600E2FF00C0E6FF0001D651000A06E14CC0F4
:100B560000F04DC001F026EC01F00001D651010A6B
:100B660006E148C000F049C001F026EC01F0D9C00A
:080B760000F0DAC001F01200EA
:100B7E000001D96BDA6BD2C0D7F0D3C0D8F0D1C098
:100B8E0000F00036009046C0E1FF47C0E2FF00C013
:100B9E00E6FF44C000F045C001F026EC01F0005025
:100BAE000001D913000EDA13D4C000F0D5C001F045
:100BBE00010ED45F000ED55B0050011018E046C048
:100BCE00E1FF47C0E2FFD7C0E9FFD8C0EAFFEECF92
:100BDE00E6FF44C000F045C001F026EC01F00050E5
:100BEE000001D913000EDA13D74BD82BDDD7D6510F
:100BFE00000A06E14CC000F04DC001F026EC01F0F9
:100C0E000001D651010A06E148C000F049C001F0CA
:0E0C1E0026EC01F0D9C000F0DAC001F012009F
:100C2C0021D0CF0EAF6EAC94E7DE6BD0670EAF6EFB
:100C3C00AC94E2DE66D0CF0EAF6EAC84DDDE61D05C
:100C4C00670EAF6EAC84D8DE5CD0440EAF6EAC8455
:100C5C00D3DE57D0220EAF6EAC84CEDE52D0060E51
:100C6C00006E58D00001000E006ECB1908E1005048
:100C7C00CA1905E1120EC91902E1C851C00AD1E026
:100C8C00000E006ECB1908E10050CA1905E1250EC3
:100C9C00C91902E1C851800AC9E0000E006ECB19D7
:100CAC0008E10050CA1905E14B0EC91902E1C851FF
:100CBC00000AC1E0000E006ECB1908E10050CA1901
:100CCC0005E1960EC91902E1C851000AB9E0000EFF
:100CDC00006ECB1908E10050CA1905E1E10EC919E3
:100CEC0002E1C851000AB1E0CB51000A08E1CA5137
:100CFC00010A05E1C951C20A02E1C851000AAAE081
:100D0C00AED77C0E886F010E896FE10E8A6F000ED4
:060D1C008B6F006A12005B
:100D220021D0CF0EAF6EAC946CDE6BD0670EAF6E7F
:100D3200AC9467DE66D0CF0EAF6EAC8462DE61D05B
:100D4200670EAF6EAC845DDE5CD0440EAF6EAC84D9
:100D520058DE57D0220EAF6EAC8453DE52D0060E50
:100D6200006E58D00001000E006ECB1908E1005051
:100D7200CA1905E1120EC91902E1C851C00AD1E02F
:100D8200000E006ECB1908E10050CA1905E1250ECC
:100D9200C91902E1C851800AC9E0000E006ECB19E0
:100DA20008E10050CA1905E14B0EC91902E1C85108
:100DB200000AC1E0000E006ECB1908E10050CA190A
:100DC20005E1960EC91902E1C851000AB9E0000E08
:100DD200006ECB1908E10050CA1905E1E10EC919EC
:100DE20002E1C851000AB1E0CB51000A08E1CA5140
:100DF200010A05E1C951C20A02E1C851000AAAE08A
:100E0200AED77C0E886F010E896FE10E8A6F000EDD
:060E12008B6F006A120064
:100E180021D0CF0EAF6EAC94F1DD6BD0670EAF6E04
:100E2800AC94ECDD66D0CF0EAF6EAC84E7DD61D05C
:100E3800670EAF6EAC84E2DD5CD0440EAF6EAC845E
:100E4800DDDD57D0220EAF6EAC84D8DD52D0060E51
:100E5800006E58D00001000E006ECB1908E100505A
:100E6800CA1905E1120EC91902E1C851C00AD1E038
:100E7800000E006ECB1908E10050CA1905E1250ED5
:100E8800C91902E1C851800AC9E0000E006ECB19E9
:100E980008E10050CA1905E14B0EC91902E1C85111
:100EA800000AC1E0000E006ECB1908E10050CA1913
:100EB80005E1960EC91902E1C851000AB9E0000E11
:100EC800006ECB1908E10050CA1905E1E10EC919F5
:100ED80002E1C851000AB1E0CB51000A08E1CA5149
:100EE800010A05E1C951C20A02E1C851000AAAE093
:100EF800AED77C0E886F010E896FE10E8A6F000EE7
:060F08008B6F006A12006D
:100F0E0038D00F0120870D0E1F6F040E1E6F218526
:100F1E009EDD7ED00F012087060E1F6F820E1E6F84
:100F2E00218595DD75D00F012087030E1F6F400EB2
:100F3E001E6F21858CDD6CD00F012087010E1F6F77
:100F4E00A00E1E6F218583DD63D00F012087010E59
:100F5E001F6F150E1E6F21857ADD5AD00F01208767
:100F6E001F6B8A0E1E6F218572DD52D0060E006E2B
:100F7E0059D0000E006E0001CB1908E10050CA19BD
:100F8E0005E1120EC91902E1C851C00ABAE0000EFD
:100F9E00006ECB1908E10050CA1905E1250EC919DA
:100FAE0002E1C851800AB6E0000E006ECB1908E1CE
:100FBE000050CA1905E14B0EC91902E1C851000AC9
:100FCE00B2E0000E006ECB1908E10050CA1905E11F
:100FDE00960EC91902E1C851000AAEE0000E006E6D
:100FEE00CB1908E10050CA1905E1E10EC91902E159
:100FFE00C851000AAAE0CB51000A08E1CA51010A01
:10100E0005E1C951C20A02E1C851000AA7E0AED7F4
:10101E0000016C0E886F010E896FE10E8A6F000E53
:06102E008B6F006A120046
:10103400C8C0CBF0C9C0CCF0CAC0CDF00BD0A00E54
:10104400C86EA2DC44D0280EC86E9EDC40D0040ECC
:10105400006E3FD0CBC0F6FFCCC0F7FFCDC0F8FF89
:101064000900F5CF01F00900F5CF02F00900F5CF32
:1010740003F00900F5CF04F00450000A08E103501E
:10108400010A05E10250860A02E10150A00AD7E0F4
:10109400CBC0F6FFCCC0F7FFCDC0F8FF0900F5CFF9
:1010A40001F00900F5CF02F00900F5CF03F00900C3
:1010B400F5CF04F00450000A08E10350060A05E1E4
:1010C40002501A0A02E10150800ABDE0C0D7000EA6
:0410D400006E120098
:1010D80059D00001C9B102D0929201D092820F0179
:1010E800259376D00001C9B102D0929801D0928898
:1010F8006FD00001C9B102D0969201D0968268D013
:101108000001C9B102D0949601D0948661D0000143
:10111800C9B102D0949801D094885AD00001C9B1BD
:1011280002D0949A01D0948A53D00001C9B102D058
:10113800949401D094844CD00001C9B102D0939208
:1011480001D0938245D00001C9B102D0949E01D04C
:10115800948E3ED00001C9B102D0949C01D0948CE9
:1011680037D00001C9B102D0949601D0948630D00E
:101178000001C9B102D0949801D0948829D0010EF9
:10118800006E28D00001C851000AA3E0C851010A26
:10119800A9E0C851020AADE0C851030AB1E0C8513C
:1011A800040AB5E0C851050AB9E0C851060ABDE00D
:1011B800C851070AC1E0C851080AC5E0C851090A60
:1011C800C9E0C8510A0ACDE0C8510B0AD1E0D7D707
:0611D800000E006E120083
:1011DE0059D00001C9B102D0929001D092800F0176
:1011EE00259176D00001C9B102D0949001D094809F
:1011FE006FD00001C9B102D0969001D0968068D010
:10120E000001C9B102D0949601D0948661D000013C
:10121E00C9B102D0949801D094885AD00001C9B1B6
:10122E0002D0949A01D0948A53D00001C9B102D051
:10123E00949201D094824CD00001C9B102D0939007
:10124E0001D0938045D00001C9B102D0949E01D047
:10125E00948E3ED00001C9B102D0949C01D0948CE2
:10126E0037D00001C9B102D0949601D0948630D007
:10127E000001C9B102D0949801D0948829D0010EF2
:10128E00006E28D00001C851000AA3E0C851010A1F
:10129E00A9E0C851020AADE0C851030AB1E0C85135
:1012AE00040AB5E0C851050AB9E0C851060ABDE006
:1012BE00C851070AC1E0C851080AC5E0C851090A59
:1012CE00C9E0C8510A0ACDE0C8510B0AD1E0D7D700
:0612DE00000E006E12007C
:1012E4005DD00001C9B102D0929401D092840F0163
:1012F40025957AD00001C9B102D0969601D0968680
:1013040073D00001C9B102D0969401D096846CD0F8
:101314000001C9B102D0949601D0948665D0000131
:10132400C9B102D0949801D094885ED00001C9B1AB
:1013340002D0949A01D0948A57D00001C9B102D046
:10134400989001D0988050D00001C9B102D09394F4
:1013540001D0938449D00001C9B102D0989401D03E
:1013640098840F01239540D00001C9B102D098920E
:1013740001D098820F01239337D00001C9B102D064
:10138400949601D0948630D00001C9B102D09498CB
:1013940001D0948829D0010E006E28D00001C851D4
:1013A400000A9FE0C851010AA5E0C851020AA9E059
:1013B400C851030AADE0C851040AB1E0C851050A96
:1013C400B5E0C851060AB9E0C851070ABDE0C851E2
:1013D400080AC1E0C851090AC7E0C8510A0ACDE0A9
:0E13E400C8510B0AD1E0D7D7000E006E1200E0
:1013F200C8C0CBF0C9C0CCF0CAC0CDF00DD0A00E91
:10140200C86EC6EC04F045D0280EC86EC6EC04F0D7
:1014120040D0040E006E3FD0CBC0F6FFCCC0F7FF29
:10142200CDC0F8FF0900F5CF01F00900F5CF02F0B9
:101432000900F5CF03F00900F5CF04F00450000ACB
:1014420008E10350010A05E10250860A02E1015057
:10145200A00AD5E0CBC0F6FFCCC0F7FFCDC0F8FFA5
:101462000900F5CF01F00900F5CF02F00900F5CF30
:1014720003F00900F5CF04F00450000A08E103501C
:10148200060A05E102501A0A02E10150800ABCE094
:08149200C0D7000E006E12002D
:10149A00C8C0CBF0C9C0CCF0CAC0CDF00DD0A00EE8
:1014AA00C86EC6EC04F045D0280EC86EC6EC04F02F
:1014BA0040D0040E006E3FD0CBC0F6FFCCC0F7FF81
:1014CA00CDC0F8FF0900F5CF01F00900F5CF02F011
:1014DA000900F5CF03F00900F5CF04F00450000A23
:1014EA0008E10350010A05E10250860A02E10150AF
:1014FA00A00AD5E0CBC0F6FFCCC0F7FFCDC0F8FFFD
:10150A000900F5CF01F00900F5CF02F00900F5CF87
:10151A0003F00900F5CF04F00450000A08E1035073
:10152A00060A05E102501A0A02E10150800ABCE0EB
:08153A00C0D7000E006E120084
:101542008AC0E1FF8BC0E2FFC8C0E9FFC9C0EAFF61
:10155200EECFE6FF88C000F089C001F026EC01F072
:04156200006A120009
:10156600086A096A100E0C6E0134083609360450F2
:10157600085E0550D8A0053C095ED8B007D00450D7
:1015860008260550D8B0053C0926D8900036013605
:061596000C2EEAD7120042
:10159C00C8C0CDF0C9C0CEF0CAC0F6FFCBC0F7FFB3
:1015AC00CCC0F8FF0900F5CF00F0005218E0CAC01B
:1015BC00F6FFCBC0F7FFCCC0F8FF0900F5CF00F069
:1015CC00C8C0E1FFC9C0E2FF00C0E6FF0001C84B84
:1015DC00C92B010ECA27000ECB23CC23DDD7C8C0E4
:1015EC00E1FFC9C0E2FFE66ACDC000F0CEC001F059
:0215FC001200DB
:1015FE00C8C0CCF0B4EC04F094C0D1F0CC0ED26FD5
:10160E00000ED36F010ED46F000ED56F010ED66F84
:10161E00BFEC05F094C0D1F0C9C0D2F0CAC0D3F06F
:10162E00CBC0D4F0000E0001D56FD66B5BEC05F08D
:02163E00120098
:10164000C8C0CBF0C9C0CCF0CAC0CDF0CBC000F050
:10165000CCC001F0CDC002F0300E0026000E0122F9
:10166000022200C0CEF001C0CFF002C0D0F0010EC7
:10167000006E000E016E026E036E040E046E000E0C
:10168000056E066E076E8BEC04F00001CE5100244F
:10169000F66ECF510120F76ED0510220F86E09008E
:1016A000F5CF9DF00900F5CF9EF00900F5CF9FF032
:1016B0000900F5CFA0F0CBC000F0CCC001F0CDC048
:1016C00002F000C0CEF001C0CFF002C0D0F0070E93
:1016D000006E000E016E026E036E040E046E000EAC
:1016E000056E066E076E8BEC04F0CE510024F66E8C
:1016F000CF510120F76ED0510220F86E0900F5CFCE
:1017000099F00900F5CF9AF00900F5CF9BF0090098
:06171000F5CF9CF0120071
:10171600C8C0CBF0C9C0CCF0CAC0CDF0CBC000F079
:10172600CCC001F0CDC002F000C0F6FF01C0F7FF4B
:1017360002C0F8FF0900F5CF90F00900F5CF91F04F
:101746000900F5CF92F00900F5CF93F0CBC000F079
:10175600CCC001F0CDC002F0040E0024F66E000EDF
:101766000120F76E000E0220F86E0900F5CF4CF04E
:101776000900F5CF4DF00900F5CF4EF00900F5CF81
:101786004FF0CBC000F0CCC001F0CDC002F0080E87
:101796000024F66E000E0120F76E000E0220F86E91
:1017A6000900F5CF48F00900F5CF49F00900F5CF5B
:1017B6004AF00900F5CF4BF0CBC000F0CCC001F0E9
:1017C600CDC002F00C0E0024F66E000E0120F76E5E
:1017D600000E0220F86E0900F5CF44F00900F5CF9F
:1017E60045F00900F5CF46F00900F5CF47F0CBC02C
:1017F60000F0CCC001F0CDC002F0100E0024F66E51
:10180600000E0120F76E000E0220F86E0900F5CFDB
:1018160095F00900F5CF96F00900F5CF97F009008D
:06182600F5CF98F012005E
:10182C001CD0C2C0C8F0C3C0C9F0C4C0CAF02FDEFF
:10183C001FD0C2C0C8F0C3C0C9F0C4C0CAF0D3DD49
:10184C0017D0C2C0C8F0C3C0C9F0C4C0CAF01AECEB
:10185C0008F00ED0010E006E0BD00001C151000A31
:10186C00E0E0C151010AE5E0C151020AEAE0F2D719
:02187C00120058
:10187E00110E0001C86FC30EC96F000ECA6F030EA2
:10188E00CB6FB6DEC1C000F0C2C001F000C0E1FFF8
:10189E0001C0E2FFC3C0E6FF000EE66EC1C000F05D
:1018AE00C2C001F000C0E1FF01C0E2FFC1C000F004
:1018BE00C2C001F000C0E9FF01C0EAFFEECF01F0A7
:1018CE00EECF02F001C003F002C004F00336039025
:1018DE000436033603900436033603900436C5C02F
:1018EE0000F00032009E0032009E0032009E003258
:1018FE00009E000E016E035000120450011200C033
:10190E00E6FF01C0E6FFC1C000F0C2C001F0020E4A
:10191E000024E16E000E0120E26EC4C0E6FFC1C0DD
:10192E0000F0C2C001F0020E0024E16E000E012094
:10193E00E26EC1C000F0C2C001F0020E0024E96EDA
:10194E00000E0120EA6EEECF02F002C001F0013669
:10195E00019001360190013601900F0E0001C51560
:0C196E00006E0150001200C0E6FF1200E5
:10197A00C7C094F0C4C0C8F0C5C0C9F0C6C0CAF098
:10198A00C5DEC1C0C8F0C2C0C9F0C3C0CAF053DEC8
:02199A00120039
:10199C0016D0C2C0C8F0C3C0C9F01BDC1BD0C2C07B
:1019AC00C8F0C3C0C9F06CEC08F014D0C2C0C8F0C9
:1019BC00C3C0C9F091DC0ED0010E006E0BD000013B
:1019CC00C151000AE6E0C151010AE9E0C151020A25
:0619DC00EDE0F2D712005D
:1019E20090D0C2C0C8F0C3C0C9F0220E0001CA6FB5
:1019F200200ECB6F000ECC6FD0DDAAD0C2C0C8F0D3
:101A0200C3C0C9F03E0E0001CA6F200ECB6F000E9C
:101A1200CC6FC3DD9DD0C2C0C8F0C3C0C9F0310EC7
:101A22000001CA6F200ECB6F000ECC6FB6DD90D0D6
:101A3200C2C0C8F0C3C0C9F0620E0001CA6F200E56
:101A4200CB6F000ECC6FA9DD83D0C2C0C8F0C3C07B
:101A5200C9F0D40E0001CA6F1F0ECB6F000ECC6FFF
:101A62009CDD76D0C2C0C8F0C3C0C9F04B0E0001E5
:101A7200CA6F200ECB6F000ECC6F8FDD69D0C2C053
:101A8200C8F0C3C0C9F0BF0E0001CA6F1F0ECB6FF2
:101A9200000ECC6F82DD5CD0C2C0C8F0C3C0C9F0FA
:101AA2006D0E0001CA6F200ECB6F000ECC6F75DD7C
:101AB2004FD0C2C0C8F0C3C0C9F0100E0001CA6F37
:101AC200200ECB6F000ECC6F68DD42D0C2C0C8F0D2
:101AD200C3C0C9F0570E0001CA6F200ECB6F000EB3
:101AE200CC6F5BDD35D0C2C0C8F0C3C0C9F0E80E10
:101AF2000001CA6F1F0ECB6F000ECC6F4EDD28D0D7
:101B020027D00001C151110AD8B46BD7C151200AA4
:101B1200D8B474D7C151100AD8B47DD7C151310A93
:101B2200D8B486D7C151320A90E0C151410A9AE035
:101B3200C151420AA4E0C151510AAEE0C151520A58
:101B4200B8E0C151610AC2E0C151620ACCE0D8D703
:021B520012007F
:101B5400C1C0C4F0B4EC04F094C0D1F0C40ED26F90
:101B6400000ED36F010ED46F000ED56F010ED66F29
:101B7400BFEC05F094C0D1F0C2C0D2F0C3C0D3F022
:101B8400010E0001D46F000ED56FD66B5BEC05F02F
:021B940012003D
:101B96002FD0C2C0C8F0C3C0C9F0C4C0CAF0C5C007
:101BA600CBF091EC06F032D0C2C0C8F0C3C0C9F089
:101BB600C4C0CAF0C5C0CBF00CEC07F027D0C2C039
:101BC600C8F0C3C0C9F0C4C0CAF0C5C0CBF087EC2A
:101BD60007F01CD0C2C0C8F0C3C0C9F0C4C0CAF068
:101BE600C5C0CBF016EC06F011D0010E006E0ED07B
:101BF6000001C151000ACDE0C151010AD5E0C15131
:0E1C0600020ADDE0C151100AE5E0EFD712003E
:101C14000001C56B050EC55D0AE2C551C325E16E21
:101C2400000EC421E26E200EE66EC52BF3D7C5511B
:101C3400C325E16E000EC421E26EE66AC507C551F4
:101C4400C325C66F000EC421C76F0A0E046E000EB2
:101C5400056EC1C000F0C2C001F083DC08C000F012
:101C640009C001F0300E0026C6C0E1FFC7C0E2FF84
:101C740000C0E6FF0A0E046E000E056EC1C000F03F
:101C8400C2C001F06EDC00C0C1F001C0C2F0000EA1
:101C9400011802E1000E001801E102D0C507CFD7F8
:021CA40012002C
:101CA600C1C0C4F0C2C0C5F00D0E0001C66F0A0E59
:101CB600C76F35D0C4C0C8F0C5C0C9F03FDC3AD044
:101CC600C4C0E9FFC5C0EAFFEE5209E0C4C0C8F0CF
:101CD600C5C0C9F033DC0001C44BC52BF1D72AD0EF
:101CE600C4C0E9FFC5C0EAFFEE5209E0C4C0C8F0AF
:101CF600C5C0C9F023DC0001C44BC52BF1D70001D8
:101D0600C60EC86F000EC96F19DCC70E0001C86F7A
:101D1600000EC96F13DC0ED0060E006E0CD000014B
:101D2600C351000AC7E0C351010ACAE0C351020AFF
:081D3600D7E0F2D7006A1200A9
:101D3E000001C16B070EC26FC36B29DE0001C16BC0
:101D4E00010EC26F010EC36F22DE0001C16B760E53
:101D5E00C26F200EC36F000EC46F61DD100E000146
:101D6E00C16F800EC26F250EC36F000EC46FC56F9C
:101D7E000BDF090E0B6E1E0E0C6EE40E0D6E0D2E8D
:0E1D8E00FED70C2EFCD70B2EFAD70000120049
:101D9C000900F5CFE6FF0006FBE10106F9E11200B0
:101DAC00300E0001C16F1F0EC26F000EC36FFC0E10
:101DBC00C46F1F0EC56F000EC66F250EC76FD7DD23
:101DCC00190E0B6E5A0E0C6EB10E0D6E0D2EFED73B
:0E1DDC000C2EFCD70B2EFAD7000000001200D0
:101DEA00050E0B6E0F0E0C6EF10E0D6E0D2EFED73C
:101DFA000C2EFCD70B2EFAD7100E0001C16F500E15
:101E0A00C26F000EC36FA1DE010E5014016E0150A5
:101E1A00000A54E03B0E0001C16F000EC26F020EB1
:101E2A00C36F3CDF7D0E0001C16F000EC26F22DD61
:101E3A007DC0C1F07EC0C2F0550EC36F000EC46FE4
:101E4A00E4DE2E0EC16F000EC26F010EC36F26DFD5
:101E5A00550E0001C16F000EC26F020EC36F1EDF66
:101E6A007FC0C1F0000E0001C26F550EC36F000E95
:101E7A00C46FCBDE210EC16F000EC26F010EC36F9D
:101E8A000DDF550E0001C16F000EC26F020EC36F47
:101E9A0005DF150E0001C16F000EC26F020EC36F7F
:101EAA00FDDE050E0B6E0F0E0C6EF10E0D6E0D2E75
:101EBA00FED70C2EFCD70B2EFAD72DD0020E5014BB
:101ECA00016E0150000A27E0050E0B6E0F0E0C6E14
:101EDA00F10E0D6E0D2EFED70C2EFCD70B2EFAD757
:101EEA00140E0001C16F500EC26F000EC36F2DDEBB
:101EFA005050000A10E050C0C1F0550E0001C26FE8
:101F0A00000EC36F69DD550E0001C16F000EC26F6E
:081F1A00020EC36FC3DE1200CA
:0E1F22003DEC10F00BDF41DF5FDFFED7FFD795
:10207A0010EE15F02F0E006E010E016E900EF66E28
:0E208A001F0EF76E000EF86ECEEC0EF0120078
:101F30009801E1008A01E1005E01E1003401E10065
:101F40002601E1005001E1004201E100A601E100AB
:101F50000802E100FA01E1002402E1001602E100BA
:101F6000E0030000D6030000CC030000FE030000E5
:101F7000F4030000EA030000A40300009A03000039
:101F800090030000C2030000B8030000AE0300008D
:0C1F90002D2D2D2D2D2D2D2D2D2D2D0056
:0D1F9C00506F736974696F6E20593A200010
:0D1FA900506F736974696F6E20583A200004
:011FB600002A
:041FB7000000000026
:041FBB000000000022
:101FBF00526967687420537769706520616E642079
:051FCF00486F6C640086
:101FD400446F776E20537769706520616E64204882
:041FE4006F6C6400BA
:101FE8004C65667420537769706520616E6420487B
:041FF8006F6C6400A6
:101FFC001A0600007607000048080000D604DB0033
:04200C001204DB00DF
:10201000557020537769706520616E6420486F6C3D
:0220200064005A
:0F202200436C69636B20616E6420486F6C6400CF
:0D20310053696E676C6520436C69636B003A
:0D203E00446F75626C6520436C69636B0034
:0C204B0052696768742053776970650063
:0B2057004C65667420537769706500CB
:0B206200446F776E20537769706500B3
:09206D005570205377697065007D
:04207600A08601003F
:020000040030CA
:0E00000015137F7CF98B91FFFFC0FFE0FF40DE
:00000001FF
