:10000000C5EF0FF00000000000EF00F0000000005E
:0A0010000000000000000000F3D71C
:0E001C000001CCB102D08B9801D08B8812006D
:0E002A000001CCB102D08B9601D08B86120063
:0E0038000001CCB102D08D9601D08D86120051
:0E0046000001CCB102D0899401D0898412004F
:0E0054000001CCB102D08B9C01D08B8C12002D
:0E0062000001CCB102D08B9401D08B8412002F
:0E0070000001CCB102D08B9A01D08B8A120015
:0E007E000001CCB102D08B9E01D08B8E1200FF
:0E008C000001CCB102D08A9201D08A8212000B
:0E009A000001CCB102D08D9401D08D841200F3
:0E00A8000001CCB102D08F9201D08F821200E5
:0E00B6000001CCB102D08F9401D08F841200D3
:0E00C4000001CCB102D08B9801D08B881200C5
:0E00D2000001CCB102D08B9601D08B861200BB
:0E00E0000001CCB102D08A9401D08A841200B3
:0E00EE000001CCB102D08B9801D08B8812009B
:0E00FC000001CCB102D08B9601D08B86120091
:0E010A000001CCB102D08F9001D08F80120086
:0E0118000001CCB102D08B9A01D08B8A12006C
:0E0126000001CCB102D08B9801D08B88120062
:0E0134000001CCB102D08B9601D08B86120058
:0E0142000001CCB102D08B9201D08B82120052
:0E0150000001CCB102D08B9A01D08B8A120034
:0E015E000001CCB102D08D9001D08D80120036
:10016C000F0121B302D00000FBD7CCC01CFF120042
:0E017C00ACB202D00000FCD7CCC0ADFF120028
:0E018A000001CCB102D08B9001D08B8012000E
:0E0198000001CCB102D0899001D08980120004
:0E01A6000001CCB102D08A9001D08A801200F4
:0E01B4000001CCB102D08D9201D08D821200DC
:0E01C2000001CCB102D0899801D089881200CA
:0E01D0000001CCB102D08B9801D08B881200B8
:0E01DE000001CCB102D08B9601D08B861200AE
:0E01EC000001CCB102D0899201D089821200AC
:0E01FA000001CCB102D08B9C01D08B8C120086
:0E0208000001CCB102D08B9E01D08B8E120073
:0E0216000001CCB102D08B9801D08B88120071
:0E0224000001CCB102D08B9601D08B86120067
:10023200026AC7B408D01F0EC514016E0150000A2D
:0C02420002E1FF0E026E02C000F012008C
:10024E00F250026EF29E0500FF6A0150FE6E0050E3
:08025E00FD6E02BEF28E1200DB
:10026600026A68B408D01F0E6614016E0150000AB7
:0C02760002E1FF0E026E02C000F0120058
:100282001DCF02F00F0122A302D02299228902C0BF
:0802920001F001C000F01200B0
:0E029A00000EACB2010E016E01C000F01200A9
:0E02A800000EA4BA010E016E01C000F012009B
:0E02B600000E80B0010E016E01C000F01200BB
:1002C400000E0F0121B3010E016E01C000F01200F7
:1002D400AECF02F0ABA202D0AB98AB8802C001F063
:0602E40001C000F0120051
:0E02EA00000E80B2010E016E01C000F0120085
:0E02F800000E80B8010E016E01C000F0120071
:0E030600000E82B8010E016E01C000F0120060
:100314003EC0C8F03FC0C9F040C0CAF041C0CBF0F5
:100324000001C66BC76B9DDF0050000A01E00AD0D4
:100334000001C751120A02E18E0EC61903E0C64B32
:10034400C72BF1D70001120EC75D02E18F0EC65D07
:1003540003E37B0EC56F34D0668066A030D0000EF8
:10036400006E411808E10050401805E100503F18A4
:1003740002E13E50000A22E0000E006ECB1908E1B3
:100384000050CA1905E10050C91902E1C851000A18
:100394000FE144C0E1FF45C0E2FF050EE66E42C036
:1003A40000F043C001F051DF010E0001C56F08D019
:1003B400010EC85F000EC95BCA5BCB5BCED7C56BB1
:0603C400C5C000F01200AC
:0E03CA00000E9EBA010E016E01C000F012007E
:0E03D800000E82BE010E016E01C000F0120088
:0E03E600000E81B0010E016E01C000F0120089
:0E03F400000E82BC010E016E01C000F012006E
:0E040200000E82B8010E016E01C000F0120063
:0E041000000E82B6010E016E01C000F0120057
:0E041E00000E82B2010E016E01C000F012004D
:0E042C00000E84B0010E016E01C000F012003F
:0E043A00000E82B0010E016E01C000F0120033
:0E044800000E82B6010E016E01C000F012001F
:0E045600000E82BA010E016E01C000F012000D
:0E046400000E82B8010E016E01C000F0120001
:0E047200000E84B2010E016E01C000F01200F7
:0E048000000E82B8010E016E01C000F01200E5
:10048E0046C0C7F047C0C8F048C0C9F049C0CAF05E
:10049E009E96C5869EB62FD0000E006E491808E1B6
:1004AE000050481805E10050471802E14650000A76
:1004BE0021E0000E006E0001CA1908E10050C919B2
:1004CE0005E10050C81902E1C751000A0CE12CC029
:1004DE00E1FF2DC0E2FF030EE66E2AC000F02BC036
:1004EE0001F0AEDE08D0010E0001C75F000EC85B42
:1004FE00C95BCA5BCFD70001C9CFC6F0C59AC5513B
:10050E00000AD8B4C58A9E96C58846C0C7F047C0B3
:10051E00C8F048C0C9F049C0CAF09EB62FD0000E30
:10052E00006E491808E10050481805E100504718C0
:10053E0002E14650000A21E00001000E006ECA19C9
:10054E0008E10050C91905E10050C81902E1C75170
:10055E00000A0CE12CC0E1FF2DC0E2FF030EE66E97
:10056E002AC000F02BC001F06BDE08D0010E000196
:10057E00C75F000EC85BC95BCA5BCFD7C6C000F0B1
:02058E00120059
:1005900046C0C7F047C0C8F048C0C9F049C0CAF05B
:1005A0009E96C5C0C9FFC7A431D0000E006E491881
:1005B00008E10050481805E10050471802E1465094
:1005C000000A23E0000E006E0001CA1908E1005085
:1005D000C91905E10050C81902E1C751000A0FE12D
:1005E0002CC0E1FF2DC0E2FF040EE66E2AC000F031
:1005F0002BC001F02CDE010E0001C66F4BD0010EA6
:10060000C75F000EC85BC95BCA5BCDD746C0C7F0E9
:1006100047C0C8F048C0C9F049C0CAF09EB631D042
:10062000000E006E491808E10050481805E100501E
:10063000471802E14650000A23E00001000E006E58
:10064000CA1908E10050C91905E10050C81902E1B2
:10065000C751000A0FE12CC0E1FF2DC0E2FF040EDC
:10066000E66E2AC000F02BC001F0F1DD010E0001A2
:10067000C66F10D0010EC75F000EC85BC95BCA5BB6
:10068000CDD7C5BC03D00001C66B04D00001C58422
:0A069000020EC66FC6C000F0120093
:0E069A00000E86B4010E016E01C000F01200C9
:0E06A800000E82BA010E016E01C000F01200B9
:0E06B600000E82B6010E016E01C000F01200AF
:0E06C400000E81B4010E016E01C000F01200A4
:1006D2003EC0C5F03FC0C6F040C0C7F041C0C8F040
:1006E200668266A22FD0000E006E411808E100500B
:1006F200401805E100503F1802E13E50000A21E097
:10070200000E006E0001C81908E10050C71905E18A
:100712000050C61902E1C551000A0CE144C0E1FFD4
:1007220045C0E2FF060EE66E42C000F043C001F093
:100732008DDD08D0010E0001C55F000EC65BC75BF0
:06074200C85BCFD71200D6
:0407480066841200B1
:10074C0046C0C8F047C0C9F048C0CAF049C0CBF099
:10075C000001C66BC76B67DD0050000A01E00AD0D0
:10076C000001C751120A02E18E0EC61903E0C64BF6
:10077C00C72BF1D70001120EC75D02E18F0EC65DCB
:10078C0003E37B0EC56F34D0C580C5A030D0000EFE
:10079C00006E491808E10050481805E10050471850
:1007AC0002E14650000A22E0000E006ECB1908E16F
:1007BC000050CA1905E10050C91902E1C851000ADC
:1007CC000FE12CC0E1FF2DC0E2FF050EE66E2AC042
:1007DC0000F02BC001F035DD010E0001C56F08D013
:1007EC00010EC85F000EC95BCA5BCB5BCED7C56B75
:0607FC00C5C000F0120070
:100802003EC0C7F03FC0C8F040C0C9F041C0CAF006
:10081200A19AC5C06AFF68A431D0000E006E4118CB
:1008220008E10050401805E100503F1802E13E5037
:10083200000A23E0000E006E0001CA1908E1005010
:10084200C91905E10050C81902E1C751000A0FE1B8
:1008520044C0E1FF45C0E2FF040EE66E42C000F074
:1008620043C001F0F3DC010E0001C66F4BD0010E54
:10087200C75F000EC85BC95BCA5BCDD73EC0C7F07D
:100882003FC0C8F040C0C9F041C0CAF0A1BA31D0DF
:10089200000E006E411808E10050401805E10050BA
:1008A2003F1802E13E50000A23E00001000E006EF4
:1008B200CA1908E10050C91905E10050C81902E13E
:1008C200C751000A0FE144C0E1FF45C0E2FF040E38
:1008D200E66E42C000F043C001F0B8DC010E000138
:1008E200C66F10D0010EC75F000EC85BC95BCA5B42
:1008F200CDD766BC03D00001C66B04D0000166846C
:0A090200020EC66FC6C000F012001E
:0E090C00000E86B2010E016E01C000F0120056
:04091A00C58412007E
:10091E003EC0C7F03FC0C8F040C0C9F041C0CAF0E9
:10092E00A19A6686A1BA2FD0000E006E411808E17A
:10093E000050401805E100503F1802E13E50000AF9
:10094E0021E0000E006E0001CA1908E10050C9191D
:10095E0005E10050C81902E1C751000A0CE144C07C
:10096E00E1FF45C0E2FF030EE66E42C000F043C059
:10097E0001F066DC08D0010E0001C75F000EC85BF7
:10098E00C95BCA5BCFD700016ACFC6F0669AC55164
:10099E00000AD8B4668AA19A66883EC0C7F03FC0E6
:1009AE00C8F040C0C9F041C0CAF0A1BA2FD0000EA5
:1009BE00006E411808E10050401805E100503F1844
:1009CE0002E13E50000A21E00001000E006ECA193D
:1009DE0008E10050C91905E10050C81902E1C751DC
:1009EE00000A0CE144C0E1FF45C0E2FF030EE66ED3
:1009FE0042C000F043C001F023DC08D0010E00011C
:100A0E00C75F000EC85BC95BCA5BCFD7C6C000F01C
:020A1E001200C4
:0E0A2000000E82B8010E016E01C000F012003F
:0E0A2E00000E80B4010E016E01C000F0120037
:0E0A3C00000E82B6010E016E01C000F0120025
:100A4A0046C0C5F047C0C6F048C0C7F049C0C8F0A4
:100A5A00C582C5A230D0000E006E491808E10050C8
:100A6A00481805E10050471802E14650000A22E002
:100A7A00000E006E0001C81908E10050C71905E10F
:100A8A000050C61902E1C551000A0DE12CC0E1FF70
:100A9A002DC0E2FF060EE66E2AC000F02BC001F060
:100AAA0027EC01F008D0010E0001C55F000EC65BFD
:080ABA00C75BC85BCED7120038
:0E0AC200000E82BC010E016E01C000F0120099
:0E0AD000000E82BA010E016E01C000F012008D
:0E0ADE00000E82B4010E016E01C000F0120085
:0E0AEC00000E82B6010E016E01C000F0120075
:0E0AFA00000E84B4010E016E01C000F0120067
:0E0B0800000E81B2010E016E01C000F012005D
:0E0B1600000E82BE010E016E01C000F0120042
:0E0B2400000E82B6010E016E01C000F012003C
:0E0B3200000E86B0010E016E01C000F0120030
:0E0B4000000E84B6010E016E01C000F012001E
:0E0B4E00000E82B8010E016E01C000F0120010
:100B5C006C0E0001696F010E6A6FCC0E6B6F000E8C
:100B6C006C6F820E656F020E666F000E676F000E63
:100B7C00686FA80E616F020E626F000E636F000E3D
:100B8C00646FC40E6D6F020E6E6F000E6F6F000EF1
:100B9C00706F0F01218B900E226F98849892A4AAEB
:0A0BAC0003D01DCF00F0FBD71200AC
:100BB6007C0E0001696F010E6A6FCC0E6B6F000E22
:100BC6006C6FD40E656F020E666F000E676F000EB7
:100BD600686FCA0E616F030E626F000E636F000EC0
:100BE600646F9A0E6D6F020E6E6F000E6F6F000EC1
:100BF600706FAC8A900EAB6E948E949C9EAA03D0B6
:080C0600AECF00F0FBD7120095
:100C0E000001BB6BBC6B15C000F016C001F027ECE9
:100C1E0001F000C0BBF0000E0001BC6FBBC000F0C5
:060C2E00BCC001F0120041
:100C3400466A476A486A496A320E3A6E020E3B6E49
:100C4400000E3C6E000E3D6E4C0E4A6E070E4B6E4F
:100C5400000E4C6E000E4D6E4A0E566E0A0E576E06
:100C6400000E586E000E596E8E0E4E6E040E4F6EB0
:100C7400C50E506E000E516E900E326E050E336E20
:100C8400C50E346E000E356E1A0E266E090E276ED2
:100C9400000E286E000E296E949894968B988B966D
:0E0CA40094889486C79EC79C380EC66E1200B8
:100CB2000001C36BC46BBCC0C1F0BDC0C2F0BBC0FD
:100CC20000F000360090008038C0E1FF39C0E2FF3A
:100CD20000C0E6FF36C000F037C001F027EC01F09B
:100CE20000500001C313000EC413010EBE5F000EBC
:100CF200BF5BBE51BF1116E054C0E1FF55C0E2FF19
:100D0200010EE66E52C000F053C001F027EC01F074
:100D1200C1C0E1FFC2C0E2FF00C0E6FF0001C14B5B
:100D2200C22BE3D754C0E1FF55C0E2FFE66A52C0CE
:100D320000F053C001F027EC01F0C1C0E1FFC2C0D6
:100D4200E2FF00C0E6FF0001C051000A06E11EC03A
:100D520000F01FC001F027EC01F00001C051010AB0
:100D620006E11AC000F01BC001F027EC01F0C3C07D
:080D720000F0C4C001F0120002
:100D7A000001C36BC46BBCC0C1F0BDC0C2F0BBC034
:100D8A0000F00036009038C0E1FF39C0E2FF00C031
:100D9A00E6FF36C000F037C001F027EC01F0005042
:100DAA000001C313000EC413BEC000F0BFC001F09F
:100DBA00010EBE5F000EBF5B0050011018E038C084
:100DCA00E1FF39C0E2FFC1C0E9FFC2C0EAFFEECFCE
:100DDA00E6FF36C000F037C001F027EC01F0005002
:100DEA000001C313000EC413C14BC22BDDD7C0517F
:100DFA00000A06E11EC000F01FC001F027EC01F056
:100E0A000001C051010A06E11AC000F01BC001F03E
:0E0E1A0027EC01F0C3C000F0C4C001F01200CC
:100E2800220E0C6E086A096A0A6A0B6A0C06D8B4A4
:100E38001FD0D8900B320A320932083203320232FC
:100E480001320032D8A0F2D70C06D8B409D0045029
:100E580008260550092206500A2207500B22EAD715
:100E6800045008260550092206500A2207500B2272
:020E7800120066
:100E7A000001B66B000E006EB51908E10050B419F6
:100E8A0005E1120EB31902E1B251C00A05E1CF0E13
:100E9A00AF6EAC948BDE5DD0000E006EB51908E122
:100EAA000050B41905E1250EB31902E1B251800AC6
:100EBA0005E1670EAF6EAC9479DE4BD0000E006E82
:100ECA00B51908E10050B41905E14B0EB31902E156
:100EDA00B251000A05E1CF0EAF6EAC8467DE39D09D
:100EEA00000E006EB51908E10050B41905E1960E1E
:100EFA00B31902E1B251000A05E1670EAF6EAC8484
:100F0A0055DE27D0000E006EB51908E10050B4195D
:100F1A0005E1E10EB31902E1B251000A05E1440EFE
:100F2A00AF6EAC8443DE15D0B551000A08E1B45166
:100F3A00010A05E1B351C20A02E1B251000A05E110
:100F4A00220EAF6EAC8432DE04D0670EAF6EAC9464
:100F5A002DDE7C0E5A6E010E5B6ECC0E5C6E000EA0
:080F6A005D6EB6C000F012003C
:100F72000001B66B000E006EB51908E10050B419FD
:100F820005E1120EB31902E1B251C00A05E1CF0E1A
:100F9200AF6EAC940FDE5BD0000E006EB51908E1A7
:100FA2000050B41905E1250EB31902E1B251800ACD
:100FB20005E1670EAF6EAC94FDDD49D0000E006E08
:100FC200B51908E10050B41905E14B0EB31902E15D
:100FD200B251000A05E1CF0EAF6EAC84EBDD37D023
:100FE200000E006EB51908E10050B41905E1960E25
:100FF200B31902E1B251000A05E1670EAF6EAC848B
:10100200D9DD25D0000E006EB51908E10050B419E3
:1010120005E1E10EB31902E1B251000A05E1440E05
:10102200AF6EAC84C7DD13D0B551000A08E1B451EC
:10103200010A05E1B351C20A02E1B251000A05E117
:10104200220EAF6EAC84B6DD02D0060EB66F7C0EF9
:101052005A6E010E5B6ECC0E5C6E000E5D6EB6C0FB
:0410620000F0120088
:101066000001B66B000E006EB51908E10050B41908
:1010760005E1120EB31902E1B251C00A09E10F01EE
:1010860020870D0E1F6F040E1E6F218564DD79D03B
:10109600000E006E0001B51908E10050B41905E113
:1010A600250EB31902E1B251800A09E10F0120872A
:1010B600060E1F6F820E1E6F21854DDD62D0000E5B
:1010C600006E0001B51908E10050B41905E14B0E98
:1010D600B31902E1B251000A09E10F012087030E9C
:1010E6001F6F400E1E6F218536DD4BD0000E006E41
:1010F6000001B51908E10050B41905E1960EB319BF
:1011060002E1B251000A09E10F012087010E1F6FAB
:10111600A00E1E6F21851FDD34D0000E006E00016B
:10112600B51908E10050B41905E1E10EB31902E161
:10113600B251000A09E10F012087010E1F6F150E3B
:101146001E6F218508DD1DD00001B551000A08E19A
:10115600B451010A05E1B351C20A02E1B251000AD3
:1011660008E10F0120871F6B8A0E1E6F2185F3DCB5
:1011760008D00F012087060E1F6F820E1E6F218575
:10118600EADC6C0E5A6E010E5B6ECC0E5C6E000EC7
:081196005D6EB6C000F012000E
:10119E000001B56BB2C0F6FFB3C0F7FFB4C0F8FFE5
:1011AE000900F5CFB6F00900F5CFB7F00900F5CF7D
:1011BE00B8F00900F5CFB9F0B951000A08E1B851FD
:1011CE00010A05E1B751860A02E1B651A00A04E10F
:1011DE00A00EC86E28DD12D0B951000A08E1B85130
:1011EE00060A05E1B7511A0A02E1B651800A04E176
:1011FE00280EC86E18DD02D0040EB56FB5C000F013
:02120E001200CC
:10121000016A0001B251000A08E1B3B102D0929014
:1012200001D092800F01259166D00001B251010AD0
:1012300006E1B3B102D0949001D094805CD0B25159
:10124000020A06E1B3B102D0969001D0968053D045
:10125000B251030A06E1B3B102D0949601D094864C
:101260004AD0B251040A06E1B3B102D0949801D039
:10127000948841D0B251050A06E1B3B102D0949AE4
:1012800001D0948A38D0B251060A06E1B3B102D037
:10129000949201D094822FD0B251070A06E1B3B1E3
:1012A00002D0939001D0938026D0B251080A06E173
:1012B000B3B102D0949E01D0948E1DD0B251090AD0
:1012C00006E1B3B102D0949C01D0948C14D0B251F9
:1012D0000A0A06E1B3B102D0949601D094860BD0ED
:1012E000B2510B0A06E1B3B102D0949801D09488B0
:0C12F00002D0010E016E01C000F01200DF
:1012FC000001B56BB2C0F6FFB3C0F7FFB4C0F8FF86
:10130C000900F5CFB6F00900F5CFB7F00900F5CF1D
:10131C00B8F00900F5CFB9F0B951000A08E1B8519D
:10132C00010A05E1B751860A02E1B651A00A04E1AF
:10133C00A00EC86E79DC12D0B951000A08E1B85180
:10134C00060A05E1B7511A0A02E1B651800A04E116
:10135C00280EC86E69DC02D0040EB56FB5C000F063
:02136C0012006D
:10136E000001B66B000E006EB51908E10050B419FD
:10137E0005E1120EB31902E1B251C00A05E1CF0E1A
:10138E00AF6EAC9411DC63D0000E006EB51908E19F
:10139E000050B41905E1250EB31902E1B251800ACD
:1013AE0006E1670EAF6EAC94DBEC05F050D0000E8C
:1013BE00006EB51908E10050B41905E14B0EB319D2
:1013CE0002E1B251000A06E1CF0EAF6EAC84DBEC47
:1013DE0005F03DD0000E006EB51908E10050B419AD
:1013EE0005E1960EB31902E1B251000A06E1670E4D
:1013FE00AF6EAC84DBEC05F02AD0000E006EB51992
:10140E0008E10050B41905E1E10EB31902E1B25141
:10141E00000A06E1440EAF6EAC84DBEC05F017D08B
:10142E00B551000A08E1B451010A05E1B351C20AEF
:10143E0002E1B251000A06E1220EAF6EAC84DBEC83
:10144E0005F005D0670EAF6EAC94DBEC05F07C0EAC
:10145E005A6E010E5B6ECC0E5C6E000E5D6EB6C0EB
:04146E0000F0120078
:101472000001B56BB2C0F6FFB3C0F7FFB4C0F8FF0E
:101482000900F5CFB6F00900F5CFB7F00900F5CFA6
:10149200B8F00900F5CFB9F0B951000A08E1B85126
:1014A200010A05E1B751860A02E1B651A00A05E137
:1014B200A00EC86E1AEC06F013D0B951000A08E16A
:1014C200B851060A05E1B7511A0A02E1B651800A7B
:1014D20005E1280EC86E1AEC06F002D0040EB56FB4
:0614E200B5C000F012008D
:1014E800B2C0B5F0B3C0B6F0B4C0B7F0B5C000F044
:1014F800B6C001F0B7C002F000C0F6FF01C0F7FFA8
:1015080002C0F8FF0900F5CF15F00900F5CF16F075
:101518000900F5CF17F00900F5CF18F0B5C000F0B5
:10152800B6C001F0B7C002F0040E0024F66E000E3B
:101538000120F76E000E0220F86E0900F5CF1EF0AC
:101548000900F5CF1FF00900F5CF20F00900F5CF0D
:1015580021F0B5C000F0B6C001F0B7C002F0080E27
:101568000024F66E000E0120F76E000E0220F86EC1
:101578000900F5CF1AF00900F5CF1BF00900F5CFE7
:101588001CF00900F5CF1DF0B5C000F0B6C001F0A1
:10159800B7C002F00C0E0024F66E000E0120F76EA4
:1015A800000E0220F86E0900F5CF36F00900F5CFDD
:1015B80037F00900F5CF38F00900F5CF39F0B5C09C
:1015C80000F0B6C001F0B7C002F0100E0024F66EAD
:1015D800000E0120F76E000E0220F86E0900F5CF0C
:1015E80052F00900F5CF53F00900F5CF54F0090087
:0615F800F5CF55F01200D2
:1015FE00B2C0B6F007EC06F019C0BBF0B60EBC6F69
:10160E00000EBD6F010EBE6F000EBF6F010EC06FDC
:10161E00BDEC06F019C0BBF0B3C0BCF0B4C0BDF059
:10162E00B5C0BEF0000E0001BF6FC06B59EC06F0E6
:02163E00120098
:101640005CC0E1FF5DC0E2FFB2C0E9FFB3C0EAFFEA
:10165000EECFE6FF5AC000F05BC001F027EC01F0CE
:02166000120076
:10166200086A096A100E0C6E0134083609360450F5
:10167200085E0550D8A0053C095ED8B007D00450DA
:1016820008260550D8B0053C0926D8900036013608
:061692000C2EEAD7120045
:10169800B2C0B7F0B3C0B8F0B4C0F6FFB5C0F7FF3A
:1016A800B6C0F8FF0900F5CF00F0005218E0B4C04A
:1016B800F6FFB5C0F7FFB6C0F8FF0900F5CF00F098
:1016C800B2C0E1FFB3C0E2FF00C0E6FF0001B24BC9
:1016D800B32B010EB427000EB523B623DDD7B2C055
:1016E800E1FFB3C0E2FFE66AB7C000F0B8C001F09E
:0216F8001200DE
:1016FA00B2C0B5F0B3C0B6F0B4C0B7F0B5C000F030
:10170A00B6C001F0B7C002F0300E0026000E01226A
:10171A00022200C0B8F001C0B9F002C0BAF0010E4E
:10172A00006E000E016E026E036E040E046E000E51
:10173A00056E066E076E14EC07F00001B85100241E
:10174A00F66EB9510120F76EBA510220F86E0900FF
:10175A00F5CF2EF00900F5CF2FF00900F5CF30F0C4
:10176A000900F5CF31F0B5C000F0B6C001F0B7C03E
:10177A0002F000C0B8F001C0B9F002C0BAF0070E1A
:10178A00006E000E016E026E036E040E046E000EF1
:10179A00056E066E076E14EC07F0B8510024F66E5B
:1017AA00B9510120F76EBA510220F86E0900F5CF3F
:1017BA0022F00900F5CF23F00900F5CF24F0090043
:0617CA00F5CF25F012002E
:1017D000AEC019F0ABC0B2F0ACC0B3F0ADC0B4F065
:1017E00083DEA8C0B2F0A9C0B3F0AAC0B4F085DF10
:0217F0001200E5
:1017F20090D0A9C0B2F0AAC0B3F0570E0001B46FE6
:10180200200EB56F000EB66F46DFAAD0A9C0B2F0A7
:10181200AAC0B3F0730E0001B46F200EB56F000EB4
:10182200B66F39DF9DD0A9C0B2F0AAC0B3F0660E80
:101832000001B46F200EB56F000EB66F2CDF90D092
:10184200A9C0B2F0AAC0B3F0970E0001B46F200E87
:10185200B56F000EB66F1FDF83D0A9C0B2F0AAC069
:10186200B3F0090E0001B46F200EB56F000EB66F13
:1018720012DF76D0A9C0B2F0AAC0B3F0800E000188
:10188200B46F200EB56F000EB66F05DF69D0A9C028
:10189200B2F0AAC0B3F0F40E0001B46F1F0EB56F20
:1018A200000EB66FF8DE5CD0A9C0B2F0AAC0B3F0E9
:1018B200A20E0001B46F200EB56F000EB66FEBDE04
:1018C2004FD0A9C0B2F0AAC0B3F0450E0001B46F68
:1018D200200EB56F000EB66FDEDE42D0A9C0B2F0A8
:1018E200AAC0B3F08C0E0001B46F200EB56F000ECB
:1018F200B66FD1DE35D0A9C0B2F0AAC0B3F0310EB6
:101902000001B46F200EB56F000EB66FC4DE28D092
:1019120027D00001A851110AD8B46BD7A851200AC8
:10192200D8B474D7A851100AD8B47DD7A851310AB7
:10193200D8B486D7A851320A90E0A851410A9AE059
:10194200A851420AA4E0A851510AAEE0A851520A95
:10195200B8E0A851610AC2E0A851620ACCE0D8D727
:02196200120071
:101964000001A851000A08E1A9C0B2F0AAC0B3F06E
:101974004DDC00C0ABF01BD00001A851010A08E106
:10198400A9C0B2F0AAC0B3F041DC00C0ABF00FD0E4
:101994000001A851020A08E1A9C0B2F0AAC0B3F03C
:1019A40035DC00C0ABF003D0010E0001AB6FABC05F
:0419B40000F012002D
:1019B800AAC0E1FFABC0E2FF200EE66E200EE66E85
:1019C800200EE66E200EE66E300EE66EE66A040E17
:1019D8000001AA25AC6F000EAB21AD6F000EA9194E
:1019E80002E1000EA81927E00A0E046E000E056E2B
:1019F800A8C000F0A9C001F030DE08C000F009C09E
:101A080001F0300E0026ACC0E1FFADC0E2FF00C01F
:101A1800E6FF0A0E046E000E056EA8C000F0A9C00D
:101A280001F01BDE00C0A8F001C0A9F0010EAC5FF8
:081A3800000EAD5BD3D71200D4
:101A40000001AC6BA851000A0BE1A9C0B2F0AAC01A
:101A5000B3F0ABC0B4F0CFEC08F000C0ACF01CD0D9
:101A6000A851010A0AE1A9C0B2F0AAC0B3F0ABC004
:101A7000B4F044DC00C0ACF00FD0A851020A0AE177
:101A8000A9C0B2F0AAC0B3F0ABC0B4F0F2DC00C0A1
:0E1A9000ACF002D0010EAC6FACC000F0120042
:101A9E000001AB6B0D0EAC6F0A0EAD6FA8C0AEF0B1
:101AAE00A9C0AFF0B06BB16BAA51010A06E1AEC08E
:101ABE00B2F0AFC0B3F0BDDD43D00001AA51020AAF
:101ACE0017E1AEC0E9FFAFC0EAFFEE5000080FE22B
:101ADE00AEC0B2F0AFC0B3F0ACDD0001B04BB12B75
:101AEE00B051A825AE6FB151A921AF6FEAD728D05A
:101AFE00AA51030A22E1AEC0E9FFAFC0EAFFEE50E1
:101B0E0000080FE2AEC0B2F0AFC0B3F092DD00013C
:101B1E00B04BB12BB051A825AE6FB151A921AF6F0B
:101B2E00EAD7AC0EB26F000EB36F83DDAD0E0001BF
:101B3E00B26F000EB36F7DDD03D0060E0001AB6FEA
:061B4E00ABC000F0120024
:101B5400A8C0ABF007EC06F019C0BBF0AB0EBC6F2D
:101B6400000EBD6F010EBE6F000EBF6F010EC06F81
:101B7400BDEC06F019C0BBF0A9C0BCF0AAC0BDF012
:101B8400010E0001BE6F000EBF6FC06B59EC06F072
:021B940012003D
:101B9600110E0001B26FAA0EB36F000EB46F030EE2
:101BA600B56F2ADDA8C000F0A9C001F000C0E1FFB2
:101BB60001C0E2FFAAC0E6FF000EE66EA8C000F074
:101BC600A9C001F000C0E1FF01C0E2FFA8C000F01B
:101BD600A9C001F000C0E9FF01C0EAFFEECF01F0A5
:101BE600EECF02F001C003F002C004F0033603900A
:101BF6000436033603900436033603900436ACC02D
:101C060000F00032009E0032009E0032009E00323C
:101C1600009E000E016E035000120450011200C017
:101C2600E6FF01C0E6FFA8C000F0A9C001F0020E61
:101C36000024E16E000E0120E26EABC0E6FFA8C0F4
:101C460000F0A9C001F0020E0024E16E000E012092
:101C5600E26EA8C000F0A9C001F0020E0024E96EF1
:101C6600000E0120EA6EEECF02F002C001F001364E
:101C7600019001360190013601900F0E0001AC155E
:0C1C8600006E0150001200C0E6FF1200CA
:101C92000001AD6BA851000A0DE1A9C0B2F0AAC0C3
:101CA200B3F0ABC0B4F0ACC0B5F0B7EC09F000C013
:101CB200ADF033D0A851010A0DE1A9C0B2F0AAC01B
:101CC200B3F0ABC0B4F0ACC0B5F03DEC07F000C06F
:101CD200ADF023D0A851020A0DE1A9C0B2F0AAC00A
:101CE200B3F0ABC0B4F0ACC0B5F033EC08F000C058
:101CF200ADF013D00001A851100A0DE1A9C0B2F055
:101D0200AAC0B3F0ABC0B4F0ACC0B5F0B9EC07F008
:101D120000C0ADF002D0010EAD6FADC000F01200F8
:101D22000001A86B070EA96FAA6B1BDE0001A86B4E
:101D3200010EA96F010EAA6F14DE0001A86BAB0E93
:101D4200A96F200EAA6F000EAB6F79DE100EA86F7E
:101D5200800EA96F250EAA6F000EAB6FAC6F98DFD5
:101D6200090E0B6E1E0E0C6EE40E0D6E0D2EFED7BE
:0C1D72000C2EFCD70B2EFAD7000012003C
:101D7E00940E0001A86F1F0EA96F000EAA6F1D0E04
:101D8E00AB6F200EAC6F000EAD6F250EAE6F19DD72
:101D9E00190E0B6E5A0E0C6EB10E0D6E0D2EFED769
:0E1DAE000C2EFCD70B2EFAD7000000001200FE
:101DBC00050E0B6E0F0E0C6EF10E0D6E0D2EFED76A
:101DCC000C2EFCD70B2EFAD7100E0001A86F9A0E12
:101DDC00A96F000EAA6FB8DE010E00019A15016EF4
:101DEC000150000AD8B49DD09B6B9B0EA86F000EBF
:101DFC00A96F030EAA6F4DDE5E0E0001A86F000ED8
:101E0C00A96FC3DE5EC0A8F05FC0A9F0710EAA6F07
:101E1C00000EAB6FCBDD500E9B6F6F0E9C6F730E75
:101E2C009D6F690E9E6F740E9F6F690EA06F6F0E83
:101E3C00A16F6E0EA26F200EA36F580EA46F3A0EF8
:101E4C00A56F200EA66FA76B9B0EA86F000EA96F37
:101E5C00020EAA6F1EDE710E0001A86F000EA96F94
:101E6C00030EAA6F16DE60C0A8F0000E0001A96F69
:101E7C00710EAA6F000EAB6F99DD500E9B6F6F0E3B
:101E8C009C6F730E9D6F690E9E6F740E9F6F690E23
:101E9C00A06F6F0EA16F6E0EA26F200EA36F590E66
:101EAC00A46F3A0EA56F200EA66FA76B9B0EA86FA2
:101EBC00000EA96F020EAA6FECDD710E0001A86F67
:101ECC00000EA96F030EAA6FE4DD2D0E00019B6FAF
:101EDC002D0E9C6F2D0E9D6F2D0E9E6F2D0E9F6FD8
:101EEC002D0EA06F2D0EA16F2D0EA26F2D0EA36FB8
:101EFC002D0EA46F2D0EA56FA66B9B0EA86F000E5A
:101F0C00A96F030EAA6FC5DD050E0B6E0F0E0C6EBE
:101F1C00F10E0D6E0D2EFED70C2EFCD70B2EFAD714
:101F2C002DD0020E00019A15016E0150000A26E018
:101F3C00050E0B6E0F0E0C6EF10E0D6E0D2EFED7E8
:101F4C000C2EFCD70B2EFAD7140EA86F9A0EA96F75
:101F5C00000EAA6FF9DD00019A51000A0FE09AC039
:101F6C00A8F0710EA96F000EAA6F3DDC710E000176
:0E1F7C00A86F000EA96F030EAA6F8BDD120076
:0A1F8A00CBDEF8DE16DFFED7FFD72E
:101F94009801CC008A01CC005E01CC003401CC0055
:101FA4002601CC005001CC004201CC00A601CC009B
:101FB4000802CC00FA01CC002402CC001602CC00AA
:101FC400B60200003A0400002C040000480400009B
:101FD40064040000560400001E040000E603000030
:101FE400D8030000F4030000100400000204000001
:101FF400526967687420537769706520616E642044
:05200400486F6C640050
:10200900446F776E20537769706520616E6420484C
:042019006F6C640084
:10201D004C0700001A0900004A0A00009005C5008F
:04202D008E04C50058
:102031004C65667420537769706520616E64204831
:042041006F6C64005C
:10204500557020537769706520616E6420486F6C08
:02205500640025
:0F205700436C69636B20616E6420486F6C64009A
:0D20660053696E676C6520436C69636B0005
:0D207300446F75626C6520436C69636B00FF
:0C2080005269676874205377697065002E
:0B208C004C6566742053776970650096
:0B209700446F776E205377697065007E
:0920A20055702053776970650048
:0420AB00A08601000A
:020000040030CA
:0E00000015137F7CF98B91FFFFC0FFE0FF40DE
:00000001FF
