:020000040800F2
:10000000FCFF00200D21000005210000052100005B
:100010000521000005210000052100000521000048
:100020000521000005210000052100000521000038
:100030000521000005210000052100000521000028
:100040000521000005210000052100000521000018
:100050000521000005210000052100000521000008
:1000600005210000052100000521000005210000F8
:1000700005210000052100000521000005210000E8
:1000800005210000052100000521000005210000D8
:1000900005210000052100000521000005210000C8
:1000A00005210000052100000521000005210000B8
:1000B00005210000052100000521000005210000A8
:1000C0000521000005210000052100000521000098
:1000D0000521000005210000052100000521000088
:1000E0000521000005210000052100000521000078
:1000F0000521000005210000052100000521000068
:100100000521000005210000052100000521000057
:100110000521000005210000052100000521000047
:100120000521000005210000052100000521000037
:100130000521000005210000052100000521000027
:100140000521000005210000052100000521000017
:1001500001480068704700BF4800002083B0CDF818
:1001600000E000F0FF021309184602F00F021446E7
:1001700013B9174A02921DE0012802D1154A0292D2
:1001800018E0022802D1144A029213E0032802D197
:10019000124A02920EE0042802D1114A029209E0AA
:1001A000052802D10F4A029204E0062802D10E4A25
:1001B0000292FFE70122A240ADF8042002980A460D
:1001C000BDF8041000F05EFEDDF800E003B07047FB
:1001D00000080140000C01400010014000140140E3
:1001E00000180140001C01400020014081B002467F
:1001F000012002F218010A68C2F3400109B100208F
:10020000FFE701B07047FFFF81B000F214010A68F8
:1002100000F218010968090442EA0101084601B028
:100220007047FFFF01490860704700BFA08122426C
:1002300001490860704700BFA4812242014908605B
:10024000704700BFA881224201490860704700BF83
:100250009401214201490860704700BF9C812142FE
:1002600001490860704700BF988121420149086038
:10027000704700BF8001214201490860704700BFFC
:10028000B481224201490860704700BF88012242C0
:1002900001490860704700BF900121420149086090
:1002A000704700BFB001224201490860704700BF9B
:1002B000AC01224201490860704700BFA8012242F8
:1002C00001490860704700BF9881224201490860D7
:1002D000704700BFB081224201490860704700BFEB
:1002E000B081224201490860704700BF9C812142D1
:1002F00001490860704700BF9881214201490860A8
:10030000704700BF9481224201490860704700BFD6
:10031000B001224281B0CDF800E00B46FFF774FF38
:1003200000EA03029A4240F2000201D16FF000029B
:10033000D0B2DDF800E001B07047FFFF014908606E
:10034000704700BF8C01224282B0CDF800E000224D
:100350001A49884207D11A490B681A490A681A498A
:100360000A601C460BE01949884207D118490B68FE
:1003700018490A6814490A601C4600E014461649E8
:100380000C6003461846FFF731FF68B91249096847
:1003900049B124B905200C4C2468A04707E0611E30
:1003A00008460446FFE7EDE70121ADF80410BDF86B
:1003B0000400DDF800E002B0704700BF00540040C8
:1003C0004C00002054000020500000200058004045
:1003D000580000205C0000206000002001490860F7
:1003E000704700BFAC01224201490860704700BF5E
:1003F000A801224201490860704700BFB88122422B
:1004000082B0CDF800E0034619460191FFF7A0FE47
:1004100040F2E83100FB01F201990A601F490968C6
:1004200001F0F0010A091E4989180878C0B21A1DA6
:100430001968C14011601949096801F4E0610A0AAC
:10044000174989180878C0B203F20802191D096813
:10045000C14011601149096801F46051CA0A10498C
:1004600089180878C0B203F20C02191D0968C1404E
:1004700011600A49096801F440418A0B0949891849
:100480000978C8B203F2100203F20C010968B1FB4B
:10049000F0F11160DDF800E002B070470410024096
:1004A000D32400004725000081B0CDF800E00122F0
:1004B0003D490A6000F268010B686FF0006103EAD1
:1004C0000102144603F00061C90E0B4602F0004120
:1004D000B1F1004F02D135490A6801E034490A6898
:1004E00004F47021090C0E464FF6FF7104EA010175
:1004F0000D4604F44011B1F5401F0DD16FF070614D
:1005000002EA01010E462A490A686FF070610A404A
:1005100027490A60324616E004F48011B1F5801FC5
:1005200009D14FF00301B140C94302EA010141F092
:1005300070610A4607E0610D090105FA01F1C9433E
:100540000A4042F070622BB1610D090105FA01F118
:100550000A43FFE704F00041B1F1004F02D1134913
:100560000A6001E012490A6040F2000A81464FEA3F
:100570008A0109EB01010968B1F1FF3F0FD04FEA91
:100580008A0309EB030109680A4609F13401C91815
:1005900009681046FFF7E2FD0AF1010AE7E7DDF816
:1005A00000E001B0704700BF000342421C00014060
:1005B0000400014081B0194900EA010210460023FD
:1005C00017498A4201D104201FE01649884201D10F
:1005D00008201AE01449884201D1102015E013497F
:1005E000884201D1202010E01149884201D14020E9
:1005F0000BE01049884201D1802006E00E49884274
:1006000002D140F2001000E018460C49096841EAA6
:1006100000020A490A6001B0704700BF00FCFFFFFA
:1006200000080140000C014000100140001401408E
:1006300000180140001C0140002001401810024039
:1006400089B0CDF800E0834698B28C46BDF82410FE
:100650000A9E04ACADF80410ADF808002046FFF780
:10066000CFFEBDF80800BDF804105F4CA34511D1C2
:1006700001255E4C25605E4D5E4C25605E4D5F4CF5
:1006800025605F4D5F4C25605F4D604C2560079C89
:10069000039452E05E4CA34511D101255D4C2560C9
:1006A0005D4D544C25605D4D544C25605C4D554C62
:1006B00025605C4D554C2560069C03943DE05A4CEA
:1006C000A34511D10125594C2560594D494C256050
:1006D000584D4A4C2560584D4A4C2560574D4B4C5F
:1006E0002560069C039428E0554CA34511D10125B3
:1006F000544C2560544D3F4C2560544D3F4C256073
:10070000534D404C2560534D404C2560069C03944E
:1007100013E0514CA34510D10125504C2560504D9C
:10072000344C25604F4D354C25604F4D354C256080
:100730004E4D364C2560069C0394ADF80410ADF880
:1007400008003046FFF7B0FEBDF80800BDF8041001
:100750000BF110052A4600242C6014680C43146029
:100760000BF10C0500242C6018B140F4806080B2BD
:10077000FFE70BF10C0529462C6804432C6001258A
:100780000C6865F34D340C6001250C6865F3C304F7
:100790000C6001250C6865F382040C600BF11405F4
:1007A00000242C60039D192465434FEA8C04B5FB9B
:1007B000F4F76424B7FBF4F42601350964246C4390
:1007C0003C1B240104F232056424B5FBF4F404F06C
:1007D0000F0446EA040420460BF1080584B22C609D
:1007E000DDF800E009B070470038014038034242AC
:1007F0003D14000070000020D1160000740000209D
:10080000DD13000078000020C51300007C000020EC
:1008100000440040C4034242A1140000AD13000094
:10082000251400000D14000000480040C803424297
:10083000F5140000F5130000651300009513000087
:10084000004C0040CC034242D91400007D1300004C
:10085000411500002915000000500040D00342421D
:10086000BD1400001115000059150000B915000055
:1008700082B0CDF800E0064698460B460299002566
:10088000C54CA64206D1C54C2768C54C2568C54C49
:1008900025600BE0C44CA64207D1C44C2068C44C70
:1008A0002568C04C2560074600E02F46C14C2760F4
:1008B000B8F1010F40F07F8006F210055C0044F0B3
:1008C00001042C6006F214031D68C5F3400464B9EA
:1008D000B84C246844B127B90320B24C2468A0471F
:1008E000DBE1781E0746FFE7EEE70025346865F395
:1008F0008A24346006F21404206800BF06F218044B
:10090000246824042043012905D10125346865F3B6
:100910004924346004E00125346865F30824346018
:10092000A44CD4F800800F4635461646A249284606
:10093000FFF7F0FC78B99F4C24685CB1B8F1000F68
:1009400004D10320974C2468A047A6E1A8F1010038
:100950008046FFE7EAE705F2100424683470012FAF
:1009600014D12946934C22680D68C5F3402464B91C
:10097000904C246844B122B903208A4C2468A047D3
:100980008BE1501E0246FFE7EEE713E02946894C53
:1009900022680D68C5F3002464B9864C246844B10C
:1009A00022B903207F4C2468A04776E1501E0246FE
:1009B000FFE7EEE771E1B8F1020F40F099803046B1
:1009C0000125346865F38A2434600125046865F3E1
:1009D000CB24046006F210055C0044F001042C6096
:1009E00006F21403B846174632461D68C5F34004A4
:1009F0007CB9704C24685CB1B8F1000F04D10320BD
:100A0000684C2468A04748E1A8F101008046FFE750
:100A1000EBE702F21404206800BF02F21804246815
:100A2000240440EA040420460025146865F38A245F
:100A3000146002F2140420465E4C26680B46014600
:100A400010463A460D68C5F3800464B9594C2468D1
:100A500044B126B90320534C2468A0471DE1751EFC
:100A60002E46FFE7EEE7012B05D10125046865F36B
:100A70004924046004E00125046865F30824046047
:100A800000F2100424681470551C00F2100424684D
:100A90002C70012B13D10146464C22680D68C5F31A
:100AA00040245CB9434C24683CB122B903203D4C3E
:100AB0002468A047F1E0521EFFE7EFE712E001468D
:100AC0003C4C22680D68C5F300245CB9394C24689D
:100AD0003CB122B90320334C2468A047DDE0521E0C
:100AE000FFE7EFE70025046865F3CB240460D4E05A
:100AF0000125346865F38A24346006F210055C0031
:100B000044F001042C60B946474690460D462B49F7
:100B10003046FFF7FFFB78B9264C24685CB1B9F189
:100B2000000F04D103201F4C2468A047B5E0A9F1B1
:100B300001008146FFE7EAE740F2000A30462E4610
:100B40004146FC1EA24524D21A4CD4F8009005461A
:100B5000884619492846FFF7DDFB78B9154C24680B
:100B60005CB1B9F1000F04D103200E4C2468A047FA
:100B700093E0A9F101008146FFE7EAE705F21004DE
:100B8000246888F800400AF1010A08F101012846AA
:100B9000D7E700F2140213E0005400404C0000209C
:100BA0005400002050000020005800405800002051
:100BB0005C000020600000204000030002000300F1
:100BC000384C236801961E460B4601991568C5F3FB
:100BD000800464B9334C246844B126B90320324CF4
:100BE0002468A04759E0751E2E46FFE7EEE7002572
:100BF000046865F38A24046000F2100424681C7001
:100C00005C1C224600F214042346264C2568064646
:100C1000084611461A462B461568C5F380045CB990
:100C2000204C24683CB123B903201F4C2468A04702
:100C300033E05B1EFFE7EFE7012807D101253468A9
:100C400065F349243460084631461DE001253468C7
:100C500065F308243460134C276835460E46134963
:100C60002846FFF757FB68B90E4C24684CB127B9EA
:100C700003200D4C2468A0470FE07C1E2046074649
:100C8000FFE7ECE72946304601F2100424680470BF
:100C9000451C01F2100424682C70DDF800E002B05D
:100CA000704700BF600000205000002001000300DA
:100CB00084B0CDF800E00192049C049400275D4CC0
:100CC000A04207D15C4C27685C4C25685C4C2560D1
:100CD000B9460AE05B4CA04206D15B4C27685B4CEE
:100CE0002568574C2560FFE7B946594CC4F8009079
:100CF00000F210054C002C600746984655493846CE
:100D0000FFF708FB90B9524C246864B1B9F1000FA9
:100D100005D104204A4C2468A047012086E0A9F1AF
:100D20000100014600E049468946E7E7B8F1010FB6
:100D30003AD900218A46414638468C1E0394A24582
:100D40002ED800F21005019C24782C60019C641CB4
:100D500001943F4CD4F80090074688463E493846F7
:100D6000FFF7D8FA90B93A4C246864B1B9F1000F92
:100D700005D10420324C2468A047012056E0A9F197
:100D80000100024600E04A469146E7E7039CA2457F
:100D900008D00AF1010421468A4641463846CCE78C
:100DA000064600E03E4600E03E4606F21005019C85
:100DB00024782C60264C276828493046FFF7AAFA89
:100DC00070B9234C246844B12FB904201C4C24680A
:100DD000A04701202AE0781E00E038460746EBE7EE
:100DE000049C012C05D10125346865F34924346045
:100DF0001BE00125346865F308243460144C27682F
:100E0000354617492846FFF785FA70B9104C246813
:100E100044B12FB904200A4C2468A047012005E002
:100E2000781E00E038460746EBE70020DDF800E0DA
:100E300004B07047005400404C00002054000020D3
:100E40005000002000580040580000205C000020A6
:100E50006000002082000700800007008400070077
:100E60000100030081B0014608460B46FFE7026817
:100E7000C2F340110029FAD0191D096888B201B0E7
:100E80007047FFFF81B0CDF800E08CB215467C4B77
:100E900000EA03031E461846FFF78CFBB4F1FF0F70
:100EA0000CD1784B9D4203D14FF033333360E3E0F4
:100EB000422D03D14FF044333360DDE04FF6FF7332
:100EC0009C4214D16F4B9D4207D14FF033333360B6
:100ED000341D4FF033332360CEE0422D07D14FF065
:100EE00044333360341D4FF044332360C4E00021A9
:100EF000002005F001030BB100211DE005F0020305
:100F000033B105F4C0730BB1082100E0042113E0F4
:100F100005F0040333B105F020030BB1042100E018
:100F2000002109E005F0080333B105F020030BB1FF
:100F30000C2100E00821FFE7534B05EA03030BB146
:100F4000032009E005F400730BB1022004E005F46E
:100F500080630BB10120FFE705F00C030BB10143E7
:100F6000FFE704F0FF039BB2002B45D03768002059
:100F70001FFA84F832462E464FF0010303FA00F4BC
:100F800008EA0403A3422CD185004FF00F03AB40C5
:100F9000DB4307EA030401FA05F344EA03031D46B1
:100FA00006F48173B3F5817F40F2000301D16FF045
:100FB00000032BB102F214044FF0010383402360BD
:100FC00006F08203822B40F2000301D16FF0000390
:100FD0002BB102F210044FF00103834023602F462F
:100FE000FFE7072801D0401CC6E717601FFA88F00A
:100FF0000F463146164602E00F462946A0B2B0F130
:10100000FF0F39D9331DD3F80080002202F2080403
:101010004FF0010303FA04F400EA0403A34224D1CD
:1010200095004FF00F03AB40DB4308EA030807FAD3
:1010300005F348EA030801F48173B3F5817F07D112
:1010400006F2140502F208044FF00103A3402B60DE
:1010500001F08203822B07D106F2100502F2080488
:101060004FF00103A3402B60FFE7072A01D0521C79
:10107000CCE7331DC3F80080DDF800E001B0704715
:1010800000FCFFFF140008000008080083B0CDF842
:1010900000E00346002029498B4206D128490C680C
:1010A00028490A6828490A600BE028498B4207D181
:1010B0002749086827490A6823490A60044600E06E
:1010C000044625490C60019402931846FFF73CF949
:1010D000029B019C18B94FF6FF7000B229E0012273
:1010E000196862F30821196003F2140108460268C6
:1010F000C2F3402119B14FF6FF7000B219E0254646
:101100001C4616492046FFF705F980B912490968BF
:1011100061B13DB906200C4C2468A0474FF6FF7022
:1011200000B206E0691E08460546FFE7E9E7002031
:1011300000B2DDF800E003B0704700BF005400408B
:101140004C000020540000205000002000580040B7
:10115000580000205C000020600000200100030017
:1011600081B0024610461446FFE70368C3F3C0127D
:10117000002AFAD0221D116001B0704781B00168C9
:10118000C1F3401001B0704788B0CDF800E0884648
:10119000624B98420CD10124614B1C60614C624B44
:1011A0001C60624C624B1C60624C634B1C600EE026
:1011B000624B98420BD10124614B1C60614C5A4B2D
:1011C0001C60614C5A4B1C60604C5B4B1C60CDF842
:1011D000048002901046FFF767F90298DDF804805A
:1011E000031D1B689CB26FF03F0304EA03039DB22A
:1011F00003AB01901846FFF703F90198DDF814904E
:10120000059C534BB4FBF3F44FF6FF7304EA03035E
:1012100099B29BB245EA0304A4B2031D1C600024EA
:10122000036864F30003036000224A4B984516D814
:101230004FEA4803B9FBF3F44FF6FF7304EA0303E4
:101240001C46042B02D204231C46FFE742EA040397
:101250009AB200F220044B1C236091B24EE00323AB
:1012600008FB03F7B9FBF7F44FF6FF7304EA030634
:10127000192308FB03F5B9FBF5F44FF6FF7304EAF5
:10128000030306FB07F46B43A9EB0404A9EB030378
:101290009C4208D2032308FB03F3B9FBF3F44FF697
:1012A000FF731C4009E0192308FB03F3B9FBF3F4B7
:1012B0004FF6FF731C4044F4804440F6FF7304EA89
:1012C000030323B944F001031C46234600E02346F0
:1012D00043F400444FF6FF7304EA030342EA0303B6
:1012E0009AB200F2200540F22C1301FB03F440F205
:1012F000E833B4FBF3F35B1C2B6091B200F21C03E8
:10130000196001460023036001240B6864F30003A5
:101310000B60DDF800E008B0704700BF00540040EB
:10132000D403424299160000640000207D1400009E
:1013300068000020951500006C0000200058004057
:10134000D8034242B5160000591400007115000080
:1013500040420F00A086010081B00168C1F38010F7
:1013600001B0704781B0CDF800E00348FFF706FFF9
:10137000DDF800E001B070470048004081B0CDF8D2
:1013800000E00348FFF76EFDDDF800E001B07047B4
:10139000004C004081B0CDF800E00348FFF7DCFFCF
:1013A000DDF800E001B070470048004081B0CDF8A2
:1013B00000E00348FFF756FDDDF800E001B070479C
:1013C0000044004081B0CDF800E00348FFF7C4FFBF
:1013D000DDF800E001B070470038014081B0CDF881
:1013E00000E00348FFF7CAFEDDF800E001B07047F7
:1013F0000038014081B0CDF800E00348FFF732FD2E
:10140000DDF800E001B070470048004081B0CDF841
:1014100000E00348FFF7A0FFDDF800E001B07047EF
:101420000044004081B0CDF800E00348FFF7A6FE7D
:10143000DDF800E001B070470044004081B0CDF815
:1014400000E081B20348FFF78BFEDDF800E001B059
:10145000704700BF0038014081B0CDF800E008B40B
:1014600013460A46C1B20448FFF702FA01B0DDF89C
:1014700000E001B0704700BF0058004081B0CDF8D7
:1014800000E008B413460A46C1B20448FFF7F0F979
:1014900001B0DDF800E001B0704700BF005400402B
:1014A00081B0CDF800E081B20348FFF759FEDDF8C6
:1014B00000E001B0704700BF0044004081B0CDF8AB
:1014C00000E081B20348FFF74BFEDDF800E001B019
:1014D000704700BF0050004081B0CDF800E081B2FD
:1014E0000348FFF73DFEDDF800E001B0704700BFA4
:1014F000004C004081B0CDF800E081B20348FFF716
:101500002FFEDDF800E001B0704700BF004800404A
:1015100081B0CDF800E00348FFF7A4FCDDF800E05F
:1015200001B070470050004081B0CDF800E00348A2
:10153000FFF712FFDDF800E001B07047004C0040FB
:1015400081B0CDF800E00348FFF718FEDDF800E0B9
:1015500001B07047004C004081B0CDF800E0034876
:10156000FFF70CFEDDF800E001B0704700500040CE
:1015700081B0CDF800E008B413460A46C1B2044871
:10158000FFF796FB01B0DDF800E001B0704700BF47
:101590000058004081B0CDF800E008B413460A4678
:1015A000C1B20448FFF784FB01B0DDF800E001B0F0
:1015B000704700BF0054004081B0CDF800E0034800
:1015C000FFF7CAFEDDF800E001B0704700500040B0
:1015D00081B0CDF800E00A4601460348FFF7D4FD8C
:1015E000DDF800E001B070470054004081B0CDF854
:1015F00000E0044A89B2FFF745FCDDF800E001B0E5
:10160000704700BF1400080081B0CDF800E042220E
:1016100089B2FFF737FCDDF800E001B07047FFFF4B
:1016200081B0CDF800E0019D2C4610B408B493B20F
:101630008AB201460348FFF703F802B0DDF800E084
:1016400001B070470044004081B0CDF800E0019D3A
:101650002C4610B408B493B28AB201460348FEF790
:10166000EFFF02B0DDF800E001B070470048004035
:1016700081B0CDF800E0019D2C4610B408B493B2BF
:101680008AB201460348FEF7DBFF02B0DDF800E056
:1016900001B070470038014081B0CDF800E0044847
:1016A000FFF7F4FC80B2DDF800E001B0704700BF46
:1016B0000054004081B0CDF800E00448FFF7E6FC9C
:1016C00080B2DDF800E001B0704700BF0058004074
:1016D00081B0CDF800E00348FFF7C4FBDDF800E07F
:1016E00001B070470038014082B0CDF800E040F210
:1016F0000004ADF80440044C2468A047BDF9040080
:10170000DDF800E002B070474000002081B00246E2
:10171000104613460A7822B10A781A705B1C491CDD
:10172000F8E700221A7001B07047FFFF81B0CDF8D2
:1017300000E0084902B4002300220021FFF798FFCF
:1017400001B0054A05490A600020DDF800E001B05B
:10175000704700BFB82300003D1400004400002083
:1017600081B0CDF800E0084902B400230022002136
:10177000FFF756FF01B0054A05490A600020DDF871
:1017800000E001B0704700BF74220000A114000007
:101790004400002081B000F23001091D0A680449AC
:1017A0000A6000F21C010A6802490A6001B0704731
:1017B000300000203400002082B0CDF800E040F27C
:1017C0000004ADF80440064C2468A047BDF904109D
:1017D00041EA000000B2DDF800E002B0704700BF4F
:1017E0003800002081B0026806490A60011D0A68BD
:1017F00005490A6000F208010A6804490A6001B05C
:10180000704700BF380000203C000020400000204E
:1018100084B0CDF800E002918DF80C208DF8040022
:10182000FFF7CAFF01AC0A4B1B7801222146D8B250
:10183000002300F003F9064B1B789DF80C20029959
:10184000D8B20123FFF750FFDDF800E004B0704785
:101850000100002081B0CDF800E00178CCB2A0B248
:10186000034C2468A047DDF800E001B0704700BFDA
:101870004400002082B0CDF800E000228DF8042062
:1018800050B921B910215748FFF7BEFE03E01021DF
:101890005448FFF7ABFE9FE001280AD121B904218B
:1018A0005148FFF7B1FE03E004214F48FFF79EFEC9
:1018B00092E002280CD129B942F200014B48FFF70F
:1018C000A3FE04E042F200014848FFF78FFE83E0E8
:1018D00003280CD129B940F200414348FFF794FE98
:1018E00004E040F200414048FFF780FE74E0042825
:1018F0000CD129B940F600013B48FFF785FE04E012
:1019000040F600013848FFF771FE65E005280CD16C
:1019100029B941F200013448FFF776FE04E041F2B4
:1019200000013148FFF762FE56E006280AD121B9CE
:1019300001212C48FFF768FE03E001212948FFF749
:1019400055FE49E007280CD129B940F2004127484B
:10195000FFF75AFE04E040F200412448FFF746FE3C
:101960003AE008280CD129B940F200211F48FFF7BE
:101970004BFE04E040F200211C48FFF737FE2BE04D
:1019800009280CD129B940F200111848FFF73CFE94
:1019900004E040F200111548FFF728FE1CE00A2879
:1019A0000AD121B940211248FFF72EFE03E0402161
:1019B0000F48FFF71BFE0FE00B280AD121B9802149
:1019C0000B48FFF721FE03E080210948FFF70EFED8
:1019D00002E001228DF804209DF80400DDF800E00B
:1019E00002B070470008014000100140001401409F
:1019F000000C014081B0CDF800E040F2000B01681E
:101A000008460449FFF7E4FD5FFA8BF0DDF800E0DB
:101A100001B07047E022000081B0CDF800E040F254
:101A2000000B016808460449FFF7D2FD5FFA8BF00E
:101A3000DDF800E001B07047E022000082B0CDF890
:101A400000E040F20004ADF80440054C2468A047D3
:101A5000BDF90440044320B2DDF800E002B0704755
:101A60003C00002081B0CDF800E0084902B400231A
:101A700000220021FFF7D4FD01B0054A05490A60A4
:101A80000020DDF800E001B0704700BF74220000C4
:101A9000A11400004400002081B0CDF800E0084906
:101AA00002B4002300220021FFF7CEFD01B0054A59
:101AB00005490A600020DDF800E001B0704700BF72
:101AC0004C230000F51400004400002081B0CDF844
:101AD00000E05FFA81F95FFA82FA30B95FFA8AF1C1
:101AE0005FFA89F0FFF7C6FE09E0012806D15FFA28
:101AF0008AF15FFA89F0FFF7BDFE00E00120DDF812
:101B000000E001B07047FFFF83B0CDF800E0029124
:101B10008DF80400FFF750FE01AB0A4A127819460F
:101B20000023D0B20122FFF789FF064A1278012371
:101B30000299D0B20122FFF7D7FDDDF800E003B033
:101B4000704700BF0100002081B0CDF800E00C46D6
:101B500042E02F4A11462046FFF7D8FD53E02D4AB8
:101B600011462046FFF7D2FD4DE02B4A1146204694
:101B7000FFF7CCFD47E0294A11462046FFF7C6FD96
:101B800041E0274A11462046FFF7C0FD3BE0254AC9
:101B900011462046FFF7BAFD35E0234A114620469C
:101BA000FFF7B4FD2FE0214A11462046FFF7AEFDB6
:101BB00029E01F4A11462046FFF7A8FD23E01D4AF1
:101BC00011462046FFF7A2FD1DE01B4A11462046A4
:101BD000FFF79CFD17E016E01128BAD02028BED0F0
:101BE0001028C2D03128C6D03228CAD04128CED041
:101BF0004228D2D05128D6D05228DAD06128DED05F
:101C00006228E2D0E7E7DDF800E001B0704700BFEE
:101C1000E4240000F3240000002500002825000033
:101C2000AD2400000D250000842400003E250000A6
:101C3000C1240000332500009924000081B00A4629
:101C40002023137020235370202393702023D370FC
:101C500030231371002353710A1D1146009181B284
:101C6000009869B10A23B1FBF3F203FB121292B29E
:101C7000303202700A22B1FBF2F189B2401EF0E765
:101C800001B0704783B0CDF800E002A901900322B3
:101C90001120FFF7BDFD019802AC21780180018879
:101CA000CA0092B2A11C09780909C9B242EA01012D
:101CB0000180821C611C09781170831C1978CA008C
:101CC00092B2A11C097801F00F01C9B242EA0101E8
:101CD0001970DDF800E003B07047FFFF81B0CDF868
:101CE00000E0002218B90846FFF7D6FE12E00128EE
:101CF00003D10846FFF7B6FE0CE0202803D10846C2
:101D0000FFF714FD06E0302803D10846FFF728FD51
:101D100000E00120DDF800E001B0704781B0CDF8AF
:101D200000E00446054B1A700846FFF75BFD2046AD
:101D3000FFF730FDDDF800E001B070470100002042
:101D400081B0CDF800E08C46002118B96046FFF75D
:101D500063FE06E0012803D16046FFF74BFE00E07A
:101D60000120DDF800E001B07047FFFF84B0CDF83E
:101D700000E003900D228DF805200A228DF8062040
:101D8000039C0022ADF8082000228DF804200129D0
:101D900003D12046FFF75EFD33E0022910D1204633
:101DA0000278002A0BD9FFF755FDBDF80820531C17
:101DB0009BB2ADF80830039AD4182046F0E720E033
:101DC00003291BD120460278002A0CD9FFF742FDD7
:101DD000BDF80820531C9BB2ADF80830039AD21806
:101DE00014462046EFE70DF105021046FFF732FDDD
:101DF0000DF106021046FFF72DFD02E006228DF8D8
:101E000004209DF80400DDF800E004B07047FFFFF7
:101E100081B01448006840F0010112480160124985
:101E2000124801600F480168114801400D480160E7
:101E30000C4801686FF4802001400A4801600B489B
:101E400001686FF4FE000140084801600548016820
:101E50006FF0A05001400348016000210548016077
:101E600001B07047001002400000FFF00410024073
:101E7000FFFFF6FE2C10024081B01CF8019B0BF80E
:101E8000019BBBEB0A0FF8D101B07047A08601009F
:101E900081B0CDF800E0252209490A48FFF73EFF4E
:101EA0004EF67F67C0F236077F1EFDD100BF00BF30
:101EB00000BF00BF00BFDDF800E001B0704700BF09
:101EC0001C2500002424000081B0CDF800E0012290
:101ED00007210020FFF7FAFD002201210020FFF773
:101EE000F5FD0C490020FFF72BFF42F28051202026
:101EF000FFF7F4FE44F67F77C0F2120700BF00BF81
:101F00007F1EFDD100BF00BF00BFDDF800E001B0C3
:101F1000704700BF8C1E000085B0CDF800E042F293
:101F2000BF77C0F2090700BF00BF7F1EFDD100BF11
:101F300000BF00BF5B491020FFF7E6FD594800785D
:101F400000F00100C0B2002800F0878001AC002042
:101F5000207001AC03212046FFF708FF5248FFF72D
:101F600091FE514800885149FFF768FE01AC5020AE
:101F700020706F2060707320A0706920E070742062
:101F80002071692060716F20A0716E20E0712020A7
:101F90002072582060723A20A0722020E072002047
:101FA000207301AC02212046FFF7E0FE03213F48E9
:101FB000FFF7DCFE3E4800783C49FFF73FFE01ACEE
:101FC000502020706F2060707320A0706920E07036
:101FD00074202071692060716F20A0716E20E07103
:101FE00020202072592060723A20A0722020E072D6
:101FF0000020207301AC02212046FFF7B7FE032129
:102000002A48FFF7B3FE01AC2D2020702D20607010
:102010002D20A0702D20E0702D2020712D206071CA
:102020002D20A0712D20E0712D2020722D206072B6
:102030002D20A0720020E07201AC03212046FFF7A2
:1020400095FE42F2BF77C0F209077F1EFDD100BFA7
:1020500000BF00BF00BF00BF20E01248007800F0C2
:102060000200C0B2D0B142F2BF77C0F2090700BF90
:1020700000BF7F1EFDD100BF00BF00BF0949142073
:10208000FFF742FD0748007840B10648007807494D
:10209000FFF75AFD03210548FFF768FEDDF800E071
:1020A00005B070470000002002000020060000205C
:1020B0000400002081B04FF000094FF0000CBDEB90
:1020C0000A0F04DCBDEB0B0F01DBD446EA464BF8EC
:1020D000049BBBEB0A0FFAD1BCEB0A0F05DDE2460D
:1020E000D9F800B00BF1040BF1E701B07047FFFF26
:1020F00081B002490248016001B0704740190100F7
:102100004800002081B0FEE701B0704700F00CF8F5
:1021100000F01CFAFFF7ECFFFFF7D6FEFFF7B8FE62
:10212000FFF7FAFEFCE7FEE781B0CDF800E0484A91
:10213000484B494C49494BF68030814206D94848C2
:10214000006840F002014648016011E045F6C050C9
:10215000814206D94248006840F0010140480160D0
:1021600006E03F4801686FF0070001403C4801600D
:10217000FFF74EFE3B4803603B4804603B4802EAE1
:1021800000013B48016002F0010058B111461C46B5
:10219000FFE73748006800F002000028F9D00A463F
:1021A0002346FFE702F4803048B11146FFE730488C
:1021B000006800F400300028F9D00A46FFE702F07A
:1021C000805078B12A48006840F08051284801606A
:1021D0001146FFE72648006800F000500028F9D0BB
:1021E0000A46FFE702F0806078B12148006840F0BD
:1021F00080611F4801601146FFE71D48006800F03C
:1022000000600028F9D01A4601E011461A4601F094
:10221000807078B11648006840F080711448016001
:102220001146FFE71248006800F000700028F9D05E
:102230000A46FFE7FFE70B48006800F00C0190003A
:1022400000F00C008142F6D1DDF800E001B07047EB
:102250008100010502841D004406010040190100AF
:1022600000200240041002402C100240FFFF0F002B
:10227000001002403500000036000000FFFFFFFFA5
:10228000000000000000000000000000000000004E
:10229000000000000000000000000000000000003E
:1022A00000000000000000001808000018000000F6
:1022B000000000000000000000000000000000001E
:1022C000000000000000000000000000000000000E
:1022D00000000000000000000000000008000008EE
:1022E0001600000017000000FFFFFFFF00000000C5
:1022F00000000000000000000000000000000000DE
:1023000000000000000000000000000000000000CD
:10231000000000002808000028080000000000005D
:1023200000000000000000000000000000000000AD
:10233000000000000000000000000000000000009D
:102340000000000000000000020000003800000053
:1023500039000000FFFFFFFF000000000000000048
:10236000000000000000000000000000000000006D
:10237000000000000000000000000000000000005D
:102380001808000018000000000000000000000015
:10239000000000000000000000000000000000003D
:1023A000000000000000000000000000000000002D
:1023B0000000000030001408090000000A000000BE
:1023C000FFFFFFFF00000000000000000000000011
:1023D00000000000000000000000000000000000FD
:1023E00000000000000000000000000018080000CD
:1023F00018000000000000000000000000000000C5
:1024000000000000000000000000000000000000CC
:1024100000000000000000000000000000000000BC
:102420000400000091020000850200007902000013
:10243000B5020000A90200009D0200006D0200002C
:102440003D02000031020000250200006102000090
:1024500055020000FFFFFFFFFFFFFFFFFFFFFFFF31
:10246000FFFFFFFFFFFFFFFFFFFFFFFFFFFFFFFF7C
:10247000FFFFFFFFFFFFFFFFFFFFFFFFFFFFFFFF6C
:10248000FFFFFFFF5269676874205377697065200A
:10249000616E6420486F6C64004C656674205377ED
:1024A00069706520616E6420486F6C6400446F77CA
:1024B0006E20537769706520616E6420486F6C648C
:1024C00000557020537769706520616E6420486FF5
:1024D0006C64000000000001020304010203040612
:1024E00007080900436C69636B20616E6420486FC4
:1024F0006C6400446F75626C6520436C69636B00AB
:1025000053696E676C6520436C69636B0052696741
:10251000687420537769706500FFFFFF991600000B
:10252000951500007D140000446F776E2053776985
:102530007065004C6566742053776970650055704E
:1025400020537769706500020406080000B5DFF8C3
:1025500010B0DFF810A0FFF7ADFD00BD704700BF61
:102560000000002080000020FFFFFFFFFFFFFFFFB3
:00000001FF
